:040000006F20C0109D
:100004000000000000000000900000201C020020FE
:10001400A9BDF9F5940000200000000000000000D4
:10002400960000209800002000000000000000005E
:100034009A000020000000009C0000200000000046
:100044009E000020A000002006030020A400002041
:10005400A6000020A80000202C030020AC000020F3
:10006400AE000020B0000020B2000020B400002048
:1000740012030020B8000020BA000020BC000020B9
:10008400BE000020C0000020C2000020C4000020E8
:1000940001A001A001A001A001A001A001A001A054
:1000A40001A001A001A001A001A001A001A001A044
:1000B40001A001A001A001A001A001A001A001A034
:1000C40001A001A001A0B71700409306700523808A
:1000D400D704130780FA2380E7040100010003C654
:1000E400B7041376F60DA385C7042380070413769B
:1000F400050251CE03C6A700118A1DE22380D7044E
:100104002380E7040100010003C7A7001367470029
:100114002385E7009307004B01000100FD17EDFF65
:10012400B7170040930670052380D704130780FA9D
:100134002380E704010001007D892394A7000100C6
:10014400010001000100238007042380D7042380D9
:10015400E70401000100372700408546A303D78048
:1001640023800704B7170040130770052380E704B2
:10017400130780FA2380E7040100010003C7B704D2
:1001840013670708A385E704238007048280137696
:10019400050425CA03C6A700418A1DE22380D704AB
:1001A4002380E7040100010003C7A70013670701C8
:1001B4002385E7009307007D01000100FD17EDFF93
:1001C400B7170040930670052380D704130780FAFD
:1001D4002380E704010001007D891365050423944D
:1001E400A70001000100010001002380070423800F
:1001F400D7042380E7040100010037270040894623
:10020400B1BF2380D7042380E7040100010003D792
:1002140087001367070C2394E700A9B781460146BA
:1002240081451145E92AB71700401307700523805B
:10023400E704130780FA2380E704010001007D57D7
:100244002396E70203C76704136717002383E704B1
:100254002380070401A0BD473305F50201007D1585
:1002640075FD8280411122C426C206C6AA840144B7
:1002740063179400B24022449244410182800504F1
:100284001305803E4204C13F4180DDB7411106C6DB
:1002940085660146814505459D227DF981460146D5
:1002A40081451145A92AB71700401307700523801B
:1002B400E704130780FA2380E704010001007D5757
:1002C4002396E70203C76704136717002383E70431
:1002D4002380070401A0B71700401307700523808B
:1002E400E704130780FA2380E704010001007D5727
:1002F4002396E70203C76704136717002383E70401
:100304002380070401A0976000E0E78020F47300D5
:100314002030B7170040130700032388E7028547FE
:10032400175700002328F79473002030976000E0EB
:10033400E780005873002030411106C6EF00E072D8
:10034400F5BF2303048015472303E480010023023F
:10035400A480828083076480E3CE07FE23030480A5
:10036400828083076480E3CE07FE03454480828055
:1003740083076480E3CE07FE2302A48082804111B8
:1003840026C44AC24EC006C61377F50BAD47AA89E8
:100394002E8995446306F70019456537653F8D44FA
:1003A4004E854537FD59FD1463983401B240A2448B
:1003B4001249824941018280135509011375F50FD1
:1003C400453F2209CDB7011126CC06CEB70408005B
:1003D40051371545BD37713769372AC6A53F3245B0
:1003E4009377150089EB136515001375F50FF2402B
:1003F400E24405618280FD14E9FC0145CDBF3971F9
:1004040026DC4ADA4ED852D656D45AD25ED006DE0C
:1004140062CE66CCB7E700E07D5783AA070022C608
:1004240003AA470023A0E71823A2E718B717004040
:10043400130770052380E704130780FA2380E70479
:1004440083C74704930B75FFB684E20793FBFB0F46
:100454008546AA892E8B328937240040E1870157CB
:1004640063FA76016308D500894613070002631313
:10047400D5000157D98F93F7F70FB71C004023829B
:10048400FC0411472303E4801305F00F5D3D094C80
:10049400D135636D7C11B7050700DA9537870700FE
:1004A400795563F2E504B3879500636EF702370B61
:1004B4000800A94733EB65016399F90689E481448F
:1004C400513D26850DA0DA850945553D05090345AD
:1004D400F9FFFD14050B693D81C49377FB0FFDF70C
:1004E400DD3569FD7D55B71700401307700523807E
:1004F400E704130780FA2380E70403C74704418B0A
:100504002382E704F250B7E700E023A0571123A2A7
:100514004711E25432445259C259325AA25A125B18
:10052400825B724CE24C21618280A5476395F90697
:1005340085691309F00FB3069900B3742B01B694BF
:100544001349F9FFB3749900856B33796901416BE1
:100554009387F9FFB3F7270199E363FC340193D937
:100564004900C147E3E637FF99BF0569C1697D19B1
:10057400D9B71305800D63886901130500026384EC
:10058400790113051008CA85DD3B353D21DD4E99FF
:10059400B3843441D9B7DA852D45D533CA94E30001
:1005A40099F205097D3BA30FA9FED5BF9387F9FFF7
:1005B40093F7F70F6361FC0C83C71C04130730081F
:1005C400631FF70437070800636BEB04B3079B0052
:1005D400B706100063F5D704334BEB0089476393E8
:1005E400F9068980D549E38C04ECDA850945413B59
:1005F40011090327C9FF91472320E480030764807E
:10060400E34E07FE23033481FD17EDFBFD14110BAC
:1006140081C49377FB0FE9FF7D3371F5E1B5B7171B
:10062400004003C75704B70708001377070219E30C
:10063400B78707007955E378FBEA33079B00E3FFAC
:10064400E7F855B58547E382F9F2DA852D45053B90
:100654009389F4FFE38504E6293393F7390091EB9A
:10066400832604800327090093074900E39AE6E4FC
:100674003E89CE84F1BFB5476396F9001305900B0C
:10068400C93135BDB1471305B00AE38BF9FE99476B
:100694006391F904B7050800B365BB002D45C53166
:1006A40081448D4BA1497539639674018327048075
:1006B4002320F9008504E39834FF8327048013176B
:1006C4002B01635507002312F900D5BB2322F9003F
:1006D400FDB39D476399F90281451305B004453183
:1006E400BD442320090023220900FD599D3993F7B5
:1006F4007400CA9703C70700FD14398D2380A7002F
:10070400E39634FF6DBBA1476392F9046D398144CC
:10071400630D0B008D479304C0036308FB0093042F
:10072400000563048B01930440041375C507E308B3
:1007340095D81945393139390545213126850D3981
:1007440009453D314931E31C05D669BB914763999D
:10075400F90013056006F536F53E130590090DB74B
:10076400E38F09D4F154A9BB176700000347F716B8
:10077400914763E2E7149767000083C76718918B7A
:10078400639B0712976700009387C7F790439766A8
:10079400000083C676F3814763CED706011122CCCD
:1007A40017640000130444F2584426CA06CE97671F
:1007B400000083C7D7F697640000938424F563652B
:1007C400F70C6800974001E0E780E0D1FD57630A29
:1007D400F50C32479767000083C777F463F6E70A9E
:1007E4005844634107048D2132475C446373F70026
:1007F400BA8717670000034797F2998F3E9583875E
:10080400440163C60702B707C0A86362F502B707CD
:10081400405771A01397170032970357070041EF11
:1008240085079DBF03874401635507061D8D176423
:1008340000001304240A1C4C81CF9767000093879F
:10084400670D94433707CDFF7D179C46F98F9CC6EF
:1008540019E13705C0A8DC50829719E91C4C8DC7F3
:1008640097A001E0E780A023979001E0E780407023
:100874001C4C99CB976700009387C7099843B70628
:1008840033001C47D58F1CC7F2406244D244056133
:100894008280E37DF5F83707C0A8B307F7403E959B
:1008A40079B75C44E3C207FE452617670000034797
:1008B40017E75C4499B7828019CD91CD09CE814761
:1008C4003387F500834607003307F50085072300C7
:1008D400D700E397C7FE828019C991C909CA910557
:1008E40083A7C5FF11057D16232EF5FEC5BF8280A3
:1008F400854715C18DC105C28147B306F50033870D
:10090400F50083C60600034707006398E6008507E1
:10091400E315F6FE85473E8582808147EDBF7971F8
:1009240097670000938747DE22D4804306D626D2F9
:100934004AD04ECE52CC56CA5AC85EC67DC08144F7
:10094400176B0000130BCBE017690000130909DCD7
:10095400176A0000130A4AD7B709C0A8B70A405754
:100964008357240085E35C4481EC17670000232D42
:10097400F7D8832BC4002285EF1080575E8461A0D2
:10098400DCC4C5BF83270B0082971C44636FF50248
:100994003307F540635E07020327490219CF0307B3
:1009A4004901635F07003387A7408327CA00637642
:1009B400F7009767000023AFE7D0A2844044A1A0CA
:1009C4000147E384A7FECE97F9BF898F63DE07064C
:1009D4009767000023A007D0835524000345040033
:1009E400977000E0E78080485C405844B1C71444E5
:1009F400B6978306490163C5060063E33701D697BA
:100A04001CC4A2843A8429FC976700009387C7CB4F
:100A1400DC4711476376F704F11717670000232BAF
:100A2400F7CAB250225492540259F249624AD24A45
:100A3400424BB24B4561828091E49767000023A545
:100A4400E7CC05BFD8C435B7032749023DD70327F0
:100A5400CA00E3F4E7F617670000232DF7C6B1BF19
:100A64009767000023A807C66DBF411122C417640D
:100A740000001304A4C71C4006C626C291C782976F
:100A84009767000023A407C65C4091C382971C406B
:100A9400639E07169767000083C717E4858BF9CF19
:100AA40097670000A38A07E2176700000347F7E28D
:100AB400914763FDE700EF00B0569767000083C7D6
:100AC400D7E1F5178A07A2979C438297976700009E
:100AD400938747C39843176600000346F6BEBE8457
:100AE4009767000083C747BE93961700BA9683D6CC
:100AF4000600D1CE9767000083C707BD63E3C70A2A
:100B040097670000238207BC1C4063910710976716
:100B1400000083C7B7DC91CF9767000083C7F7DB7A
:100B240089EB97670000A38B07DA97A001E0E780C1
:100B34002083976700009387A7C19C43E1CBFD57AF
:100B4400176700002328F7B8D93B976700009387FD
:100B5400E7BBDC5391C3093997670000938707BF4C
:100B64009C43CDC78297976700009387E7B59C4B5A
:100B74003E959767000023A1A7B649A89767000090
:100B840083C707D8918BB9D3EF10601A81B7850753
:100B940093F7F70F976600002388F6B2E3E2C7F4F1
:100BA40091BF86073E97976700009387E7B3835505
:100BB40007009C4323100700176500000345C5B0D8
:100BC40013172500BA979C4382979767000083C741
:100BD400A7AF139717009C40BA9703D70700598D06
:100BE4002390A7009767000083C707AE91C78507C6
:100BF40017670000230AF7AC176700000347C7AC68
:100C04009767000083C757ACE37CF7EEB2402244F9
:100C1400924441018280AD6737C70040BD07232657
:100C2400F7200F100000976700009387E7A9884F0B
:100C340083278726BD66BD0693C7F7FF99836A0598
:100C44002326D7205D8D82804111B7170040985F1D
:100C54003AC6945F3247E39CE6FE32454101828006
:100C64000327850F19E3054582808347C50093F761
:100C7400C70F2306F500034687008356C700931564
:100C84008601E18563D8050A137816008355E518B3
:100C94006302080613E617002306C50063F8D502AD
:100CA4000348A502A30AB50017660000034616A769
:100CB4006376C80093E717012306F5008D8E23168B
:100CC400D7008547A30CF50001458280104309CE67
:100CD4008345A50217660000034656A463F6C500C3
:100CE40093E717012306F500A30AD5008947A30457
:100CF400F700C1BF13E8270023060501E3F5D5F685
:100D04008D8E130810F813661600A304070123043C
:100D1400C7002316D7008346A502176700000347C0
:100D2400F79F63F6E60093E727012306F500A30A7D
:100D3400B50041BF054893E527006314060193E518
:100D440017002306B500A30AD5008947A304F700BA
:100D54001C43A5DB0347A5029767000083C7179CC4
:100D6400E371F7F693E505012306B50099BF97678C
:100D740000009387A7B29C43411122C406C6858B09
:100D84002A84CDEB4165130525F5974001E0E78002
:100D9400404E4DC18347A5002315F5008327041059
:100DA400A5E72320A4102322A4108547231CF402C2
:100DB400232005008347640154412316F5000347AB
:100DC400D4002304E500176700001307A7B0184FE9
:100DD4001385170215811C437D151375F50F9CC2ED
:100DE4005C43DCC21C479CC65C47DCC61C4B9CCAEB
:100DF4005C4BDCCA1C4F9CCE5C4FDCCE19CD938679
:100E0400060213070702C1BF8327441088C3835710
:100E140084032322A410850751BF9767000083D75A
:100E240067B8850717670000231EF7B6B24022444F
:100E3400410182808347C40023090400054593C708
:100E440047002306F400DDB78347E50193F7E70F76
:100E540091CB014582800145B2402244924402492B
:100E6400410182808347F501EDF78346250103475D
:100E7400C50089CA0346A5029767000083C7578A3D
:100E84006367F60093770701E9D7814789C6418BE9
:100E94008357C51801C703570519BA97DDDB1767D0
:100EA40000000347E78741111316870106C622C4D1
:100EB40026C24AC06186635006069387C71313D4BB
:100EC4005700976700009387E7AB83A6870897646A
:100ED400000083C484857D59B705C0A883A746084C
:100EE40003D78607635B06043387E74063732701F0
:100EF4003A899442E5F697670000938767859C4397
:100F04008297E36AA9F43305A94026943334850013
:100F14001345140091B7058B9387C71209CB8A0731
:100F24001384F7039307D0073354F40259BF860799
:100F34001384F7019307D003C5BFE3F7E7FAAE972D
:100F440065B7176600001306E6A303278608630443
:100F54000746797126D2975400009384247B8388B2
:100F640044018325060906D622D44AD04ECE52CC5B
:100F740056CA5AC85EC601457D583703C0A88326A1
:100F840047088357870763D20812B387F64063F58F
:100F94000701BA853E880545184375F309C5976767
:100FA400000023A9B7A60324060985691759000080
:100FB4001309097A370AC0A8B70A4057054B938921
:100FC400B94783270900832B440882976370752FE0
:100FD400035784079757000083C72775B38BAB402B
:100FE400BA9763EE771F83574403A30E0400228548
:100FF4008507231AF40283470412C5CF8D21228565
:10100400973001E0E780A07551E58386440123050C
:101014000402832744080355840763DE0608B38962
:10102400A74003270408232E3407BA9763C9060090
:10103400B706C0A863E5D700B7064057B6978346FE
:10104400B4002322F4088547639FF60683572407D8
:10105400035604036369F606034604016315D606C2
:101064008326840FADE283268409B1EE0346F4009F
:101074009306000C6319D604B387E7020327840898
:10108400B3D7E702175700000347176A0507BA9753
:10109400231CF406B250225492540259F249624A73
:1010A400D24A424BB24B45618280E3F0F6EE9A9607
:1010B400E9BD1926A9B7E3F4A7F6B709C0A8BE99F4
:1010C400B389A940B9BF83270900829797570000C5
:1010D40083C70765139787016187635807083385BA
:1010E400A94079C1832604086370D50C63550708A9
:1010F4001605B717004083C7F702E207E18763C309
:1011040007004115175700001307877E1443B5677E
:10111400BD07DCC60F1000001C4306050967E8D3B1
:1011240098C7130700F8975600002387E67A3D67AF
:101134003D07D8C7979001E0E780401F979001E0F2
:10114400E780C02F0347B400854781456313F70444
:10115400178501E0130565FE977000E0E780800BBA
:10116400930700FD2307F40035B7E3FAA9F6B706A1
:10117400C0A8B699ADB7858B99C79307803E330550
:10118400F5021581BDB79307D0033305F502058138
:101194008DB7175501E01305A5B4977000E0E780FB
:1011A4006007930710FC7DBF0347B400854703A382
:1011B40004036317F7009545E30E03EC154529A0D6
:1011C400E30A03EC954519452254B250925402594E
:1011D400F249624AD24A424BB24B4561028363D61A
:1011E4000B068357440322858507231AF402834799
:1011F4000412B1CBAD242285973001E0E78020565C
:101204000327040883274408BA97038744016345E6
:10121400070063E34701D6972322F4088347B40009
:10122400639767012285978001E0E780C09B83472D
:10123400D40185458507A30EF4009C58E38307D8A1
:1012440015458297BDBB8D2A7DB783572403175755
:1012540000000347E74C93168701E1868E0763D7A6
:1012640006021307204EB387E7029583E3F477E37E
:10127400A1452285973001E0E780E0452302A402DE
:1012840003A304038945E31B03F229B5058B11C7A6
:1012940013078002B387E702D1BF05671307B74777
:1012A400B387E702938707049D83C9B78357240351
:1012B400175700000347C74693168701E186B30B0F
:1012C40075418E0763D0060A1307204EB387E702E1
:1012D400958363F2FB0C83270900829783574403A9
:1012E400AA8B22858507231AF40283470412C1CBF3
:1012F400BD222285973001E0E7806046E31C05D8D3
:101304000327040883274408BA97038744016345E5
:10131400070063E34701D6972322F4088347D401E7
:1013240013F7070F39CF2285973001E0E780E0FA01
:10133400A30E040083274408E3FFFBF88347B400AB
:10134400639567050357240783570403E3FBE7C644
:101354002285978001E0E78000899C58E38307C6D3
:101364008D45F9BD058B11C713078002B387E702CA
:101374008DB7B3873703938707049D8399BF2D28BF
:101384008DBF8507A30EF40075B79C58E38B07C285
:101394008D4519457DB5E3CF0BCEA1452285973008
:1013A40001E0E78040332302A40203A30403E30320
:1013B40003CE914521B58280797126D206D622D4F6
:1013C4004AD04ECE52CC56CA5AC85EC6834785020E
:1013D40003447511AA843E941374F40F93074002D6
:1013E40063F687001304B4FD1374F40F03AA841185
:1013F40083AAC411A38B841022865285D685973084
:1014040002E0E7802023058915E503CBD4100149C8
:101414008149337B6403930B50024A865285D685F7
:10142400973002E0E7800021058915C563916903BF
:101434001374F90F238B8410B2502254925402591E
:10144400F249624AD24A424BB24B456182808509D5
:10145400E20993D989410509E31179FDE1BF8327A5
:10146400C50803564503797193D60701BD8EC2069C
:10147400C182358E1357764093575640898B058B1E
:101484005D8F93573640918B5D8F93571640A18B98
:101494005D8F93171600C18B5D8F9317360093F7FA
:1014A40007025D8F931756009355860093F7070440
:1014B4001E065D8F1376F60F518F93D7554013D6C2
:1014C4003540118A898BD18F13D67540D18F13D6AD
:1014D4001540218AD18F13961500418AD18F139616
:1014E400350013760602D18F139655001376060441
:1014F4009E05D18F93F5F50FCD8FA20745465D8FDD
:101504003307C70222D42A8426D252CC56CA032ACD
:101514008411832AC4115AC806D6369742074183D8
:1015240093577740135557400989858BC98F1355B5
:1015340037401189C98F135517402189C98F131555
:1015440017004189C98F1315370013750502C98F18
:101554001315570093558700137505041E07C98F8B
:101564001377F70FD98F13D5354013D75540118909
:10157400098B498F13D57540498F13D5154021899F
:10158400498F139515004189498F139535001375BB
:101594000502498F13955500137505049E05498F5F
:1015A40093F5F50F4D8F2207D98FB387C7024AD021
:1015B4004ECE5EC662C4B697C207C18313D77740C6
:1015C40013D557400989058B498F13D537401189A5
:1015D400498F13D517402189498F139517004189E5
:1015E400498F1395370013750502498F13955700DA
:1015F40093D58700137505049E07498F93F7F70F5A
:10160400D98F13D5354013D755401189098B498F8C
:1016140013D57540498F13D515402189498F1395EA
:1016240015004189498F1395350013750502498FBB
:1016340013955500137505049E05498F93F5F50F11
:101644004D8F2207D98FB387C702130650025285E4
:10165400D685B697BD8E93940601C18033F6C40235
:10166400137BF60F973002E0E780C0FC05890DED8F
:101674008347D41001498149B3849702130C500263
:10168400C1804A865285D685973002E0E78080FA89
:101694000589937BF90F11C563863403850993F992
:1016A400F90F0509E31F89FD230B6411B25022547D
:1016B40092540259F249624AD24A424BB24B224CEA
:1016C400456182805E8BCDB70111975700009387E7
:1016D400672B22CC03A4C70A26CA06CE2AC42EC668
:1016E400854419E40145F2406244D2440561828094
:1016F40003471400834791006304F7000044D5B7FF
:1017040019469305A10013052400EFF06F9EE3171B
:1017140095FE0545C9BF1757000013072719144341
:10172400411122C69C5E4AC226C49983858B3A84A1
:101734001759000013094917C9C39C5E9754000048
:101744009384441993F7F7F99CDE9757000083C7F5
:10175400671893F7070499CB97570000938747FFBF
:101764009C4382979757000023AEA71685471757C7
:101774000000A303F71683C7440093F7070491EF0F
:10178400975700009387C7169C43D844F8D3930710
:1017940000FC175700002301F71483C764001307E4
:1017A4000008631CF700832709009C439983858BF9
:1017B400ADE397570000238207121C40985F118302
:1017C400058B09CB985F3D9B98DF05479756000032
:1017D4002384E610985F1D83058B11CB985F1377E4
:1017E400F7F798DF8547175700002307F70E83277D
:1017F4000900D8430583058B19C7D843759BD8C303
:10180400D843799BD8C33244A2441249410173009E
:101814002030930700FC175700002300F70C71BF1A
:10182400175700001307070B83470700858B89EBC5
:1018340083471700858B89E783474700858BEDD75E
:101844008280175700001307670614439C5E958334
:10185400858BC5EF09C69C5ABD832300F600C5C914
:1018640083471500CDC7411106C61756000003462D
:10187400C6069306000C6304D602975700009387AC
:10188400670583C5670097570000938727E89C5B2B
:101894001305300882970945B240410182803E9584
:1018A40083479500854613F6F706630AD6009757D3
:1018B40000009387A7E59C5B9305D00FD1BFE20797
:1018C400E1870945E3CA07FC1C43985B4607935725
:1018D40067016359070293E707C01387970F42070D
:1018E40041839306201F0145E3E8E6FA138761A0CC
:1018F4000317070009C7BA970947B3C7E702239339
:10190400F1A059BFC207C187C9BF054582801C43E6
:10191400985B4607935767016359070293E707C02B
:101924001387970F420741839306201F014563EDF8
:10193400E600138761A00317070009C7BA97094790
:10194400B3C7E7022393F1A08280C207C187C9BF4E
:1019540049E5975700009387A7F99443411122C49E
:1019640006C62E873E84FC52FDFF3A85B2859780D9
:1019740001E0E780607A97570000938727F39C4340
:10198400B70680009843558F98C3D857719BD8D712
:101994001C40094798C3B7F700E003A707D16D9B24
:1019A40023A8E7D003A707D15D9B23A8E7D0730042
:1019B4005010175700001307E7F183472700858B62
:1019C40089EB83473700858B89E783474700858BFD
:1019D400EDD7B2402244410182808D476310F50463
:1019E40097570000938787EC9C43B7068000984381
:1019F400558F98C3D857719BD8D717570000130732
:101A040067ED83472700858BBDEF83473700858BC0
:101A1400BDEB83474700858BEDD782808547E31E66
:101A2400F5FC975700009387A7EC944335673D076F
:101A3400D8C60F10000017570000130727E71443F8
:101A44000946984231830D8B6313C702984393066A
:101A5400E04374D3984389671CC7930700F89756EB
:101A64000000238BF6E6BD67BD075CC779B79842D3
:101A7400944331830D8B09E713076019F8D2D9BF5A
:101A84001307E01BE5BF82805D712AC62EC486C69B
:101A9400979001E0E7808089979001E0E780009AC1
:101AA40097580000938888E083A708001753000024
:101AB400130343E63706330023A40700984B370E7D
:101AC400FCFF370F04001367F70398CB9843914F3B
:101AD4007D1E1377F7E798C398438542930E8002DF
:101AE4001377F7E71367071098C38326030032457B
:101AF4009846518F98C617570000130767DF18439D
:101B04009306900D014634CB1377F51FE84FF57615
:101B1400FD16137505E0598DE8CF9843758F98C36A
:101B2400A245814703A70800032803009376F60F14
:101B3400231C0704231007060325C80275992326CE
:101B4400A802032807001375F607137808F833650D
:101B5400A80008C348533365E50148D303558705F6
:101B6400E3FEAFFE48533375C50148D30357070658
:101B7400280832951377F70F2300E50019EF13D7E0
:101B840036002E97034507009D8AB396D200850739
:101B9400C98E93F7F70F2300D7000506E314D6F98F
:101BA400854611488548130380026363F80401469F
:101BB400814728083295034505001377F60F63E142
:101BC400A602135537002E95034E05001D8B33973F
:101BD400E80085073367C70193F7F70F2300E50093
:101BE4000506E31866FC850693F6F60FE39F06FBED
:101BF400B64061618280175700001307A7CB834664
:101C0400B7019757000083C7B7CFB69793F7F70F7D
:101C1400FD4663EAF6044C4B97560000A38CF6C8C5
:101C24009757000083C717C905473317F70097561E
:101C34000000A387F6CC6D8F1DEF9756000083C676
:101C440076CCB3F6D70213050002814733D6F500EC
:101C5400058A13F8F70F09CE6399E6009757000039
:101C6400A38A07C5828081177DB705071377F70F0D
:101C74008507E39DA7FC828097570000938747ADB3
:101C84009C43011122CC4EC606CE26CA4AC852C471
:101C940056C28297975700009387C7C580478149EA
:101CA4006305A406BE8497570000938727A603877D
:101CB40047013E8963550706018D13545500975714
:101CC400000083C7C7C09379F501636DF402370A36
:101CD400C0A8B70A405705379C449756000083C6EE
:101CE40006BF139756003E9783074901158C63C5B9
:101CF40007006363470156979757000023A0E7C086
:101D0400E37BD4FC1604B3693401F24062444E858B
:101D1400D2444249B249224A924A05618280E37D13
:101D240085F8B707C0A833848740229579B79757B9
:101D340000009387E7A19C43411122C406C626C232
:101D44008297975700009387E7BA80476309A406F0
:101D5400BE84975700009387679B8387470163D8A6
:101D64000704018D135455009757000083C727B605
:101D74006367F404493598449757000083C727B52F
:101D84009396570036971D8C9756000023A8E6B605
:101D9400E372F4FE2244B240924417550000034516
:101DA40075B18145410117B301E06700A3B8E37A37
:101DB40085FAB707C0A833848740229565B7B24037
:101DC400224492444101828097570000938787B44C
:101DD4009843B75702009387079F832607091396F2
:101DE4005600635806008326070913966600634469
:101DF4000600FD17FDF3828021670507AA87639714
:101E0400E50003C7419F014565E382800145E5C3C1
:101E1400F9CD8D07C207C183F19BC207C1831307A4
:101E24004003636FF70217570000130767B40843B2
:101E340017570000130747B314436398A6021757B4
:101E440000001307A78C185B014555C34111C20755
:101E540006C60545DD8D0297B240014541018280E9
:101E640017570000130787B0D9B7035765003DEB38
:101E7400035745006368F706B306F7402146175831
:101E84000000130828AF637AD602832805000326CE
:101E94000800938687001D8FAA9661172392E60097
:101EA40023A016012393060014C1130786FF2312EF
:101EB400F5009756000023AFE6AA21672313B50067
:101EC40005076397E50003C7419F7D17238AE19EB9
:101ED400832508002105B387F54017570000232BFD
:101EE400F7A88280084191BF014585F782808280EE
:101EF4000DC1975700009387A7A703A3070097571F
:101F04000000938767A683A8070001479A8763E3C5
:101F14001701828003A807006369F50A6367A80AAA
:101F240093868700E367D5FE03D66700A16685061E
:101F34006317D60083C6419F8506238AD19E975591
:101F44000000938525A3944103D6470023930700FB
:101F5400B29617550000232FD5A0638A6702175540
:101F640000001305A5A008416303F50203556700AB
:101F740019ED8357470023200701A1063E96210649
:101F84009757000023A8D79E2312C700BA87984307
:101F9400E30117F9975600009386469D9442E30A9D
:101FA400D7F683566700B5F683D647000356470035
:101FB4001843A106B29698C32392D7009C41A10767
:101FC400175700002328F79A82803E87C28781B77B
:101FD4000111975700009387E79A22CC03A4470B7B
:101FE40026CA4AC84EC606CEAA84130925008549C6
:101FF40015C083C7140003473400858B6304F700BE
:10200400405CFDB71946930544004A85EFE05F8EB6
:10201400E31835FF2285F2406244D2444249B24972
:10202400056182804111975700009387A79522C4C8
:1020340003A4470B26C24AC006C6930425000549DB
:1020440001E82285B240224492440249410182803F
:10205400A6851305A402972002E0E7800011E3029D
:1020640025FF405CF1BF411197570000938787918A
:1020740022C403A4470B26C24AC006C69304250003
:10208400054901E82285B2402244924402494101B3
:102094008280A6851305A401972002E0E780E00C66
:1020A400E30225FF405CF1BF0111975700009387BD
:1020B400678D22CC03A4470B26CA4AC806CE2AC47D
:1020C4002EC6B284054919E001453DA0034791009D
:1020D400834734006318F702194693054400130537
:1020E400A100EFE0FF80631F2501A6851305A4026C
:1020F400972002E0E7806007F2406244D2444249FC
:0821040005618280405CC1B757
:10210C00971100209381C1DA176100201301C1EEF1
:10211C001305400097E5FF1F938505EE1706002079
:10212C00130606FE63FAC5008322050023A05500A2
:10213C0011059105E3EAC5FE1765020013058597A5
:10214C00970500209385C5FB1386018D63FAC500A6
:10215C008322050023A0550011059105E3EAC5FE75
:10216C001385018D97550020938545906377B500B5
:10217C00232005001105E36DB5FEFD42739002BCF2
:10218C008D42739042809302800873A0023097E2D4
:10219C00FF1F938262E693E23200739052309752A3
:1021AC0000009382A24673901234730020303D439A
:1021BC002A876373C3029377F700BDEFADE593767F
:1021CC0006FF3D8ABA960CC34CC30CC74CC74107DB
:1021DC00E36BD7FE11E28280B306C3408A069702F6
:1021EC00000096966780A6002307B700A306B700E9
:1021FC002306B700A305B7002305B700A304B70057
:10220C002304B700A303B7002303B700A302B7004E
:10221C002302B700A301B7002301B700A300B70046
:10222C002300B700828093F5F50F93968500D58D2A
:10223C0093960501D58D61B7939627009702000000
:10224C0096968682E78086FA9680C1171D8F3E96F9
:10225C00E374C3F8A5B782803D897D15954763EE7D
:10226C00A70E174702001307A7340A053A951C411D
:10227C00011106CEBA9782879705002093854543B6
:10228C000545EF900024174502001305A537EF20F4
:10229C00121811A803C725008D4717450200130516
:1022AC006537E306F7FEF2400561828003C725001F
:1022BC009547E31AF7FE03D5A500239CA18083C79D
:1022CC00018399E3EFE071108547238AF18C174560
:1022DC0002001305253565BF03C725008D47E314A0
:1022EC00F7FC174502001305A53455B783C7250025
:1022FC00114717450200130525356384E704194778
:10230C00639AE70283C565001745020013058535FE
:10231C00238A018CEF20627BF957239CF18085473F
:10232C001306F100854513055030A307F100EFE0CB
:10233C00C15D95BF1547E394E7FE174502001305F1
:10234C002534EF20D20CE1BF83C5250017450200D0
:10235C0013058534EF206277B9B78280011123050C
:10236C00A1003400214685450D4506CE23140100FD
:10237C00A305010002C6EF10507EF2400561828079
:10238C00011106CE22CC3A883E87B1E28D67938745
:10239C00D7A42A8EAE88328383460800631EF600CB
:1023AC008947639BF50085473544639DF600834759
:1023BC000700898BA38BF18C1A86C6857285EF205A
:1023CC00C0442A842285F24062440561828085479C
:1023DC006396F600C286EF20E048E5B789470144D2
:1023EC00E392F6FE1306F100854513055030A30762
:1023FC000100EFE08151F9B701119397050122CC4F
:10240C0006CE26CAC1872E8463DC070003C5A181D2
:10241C00EF50C06519C1EF50C05E2165218D3DA004
:10242C0093F7150013C5150095E393F7450085C781
:10243C0083C7A1811307803E814613060005C14561
:10244C0003D58181EFE0611713454400F2406244EB
:10245C00D2440561828093F785009DC3014789466C
:10246C000946814503D58181EFE06178AA8517453E
:10247C00020013056515EF20426513458400F9B77A
:10248C0093F70501C1CF6C0013055030A305010073
:10249C00EFE0A1350347C10085476319F700130628
:1024AC00B100854513055030EFE02146970400201C
:1024BC0093840420A6850545EF90A00031E913050F
:1024CC00C002854603C651808545EF30606383C7E3
:1024DC00540003D58181FD17A38AF18CC167F917CC
:1024EC006307F500EFE0616EF957239CF180834799
:1024FC00C1000547639BE7001306B1008545130532
:10250C005030A305F100EFE04140134504013DBFFD
:10251C0083C7518D8507A382F180D1BF93F7250026
:10252C00B9C703C5B1811D3D83C7B181850793F739
:10253C00F70F7147636BF7020145A38DF180393DAD
:10254C00B70702009387072074001146854505459F
:10255C003EC6EF1090601306007D894503C5A1812E
:10256C00EF50101713452400D5B59147F1B7939749
:10257C00350163DC0700938701829443114685453E
:10258C000545EF10905D056551BD9397250163DC02
:10259C0007009387C1819443214685450D45EF1073
:1025AC00D05B0965A5BD9397150163DC0700938784
:1025BC0041829443054685450945EF10105A116533
:1025CC00B1BD93F7050299CF1746020013064601D9
:1025DC0081450145EF3030008547238BF18C134545
:1025EC000402ADB593F705040145E38107E6938733
:1025FC00018D9043814503D58181EFD0815B1345DB
:10260C000404A9B501118D6585461306F100938567
:10261C0015802D4506CE97E0FF1FE780C0DD834770
:10262C00F10019476373F7008547F240A382F180EC
:10263C0005618280797122D40D6406D6A307A100AE
:10264C001304148085461306F100A285294597E0F2
:10265C00FF1FE78040DA85461306F101A2852D4560
:10266C0097E0FF1FE78020D90347F1018347F10072
:10267C00E31AF7FCB2502254456182800111170510
:10268C0000001305A5D706CE22CC26CAEF50F04782
:10269C009384A18105442380A40070008545130513
:1026AC00503023068100EFE04126138681809D4542
:1026BC0013056030EFE0612517060020130646A5D0
:1026CC00D54513057030EFE0412417460200130680
:1026DC00E6F1D5450145EF903002894770009145F0
:1026EC00130570402305F10023048100A30481002D
:1026FC00A305810002C6EFC01159300085451305B2
:10270C000040EFC051581306910085451305104049
:10271C00EFC071571306A100854513052040EFC08B
:10272C0091561306B100854513055040EFC0B155C5
:10273C00A9477000854505452306F100EF10A05D03
:10274C00EF105079970500209385859B13850181A7
:10275C00EF10703F03C504008545EF502070F24028
:10276C006244D24405618280411106C6EF20B05804
:10277C0083C771948DC7A3830194EF20206C05C18E
:10278C00975702009387072E9C431D4783C727004A
:10279C006384E7046362F7021147638DE702938752
:1027AC00C18D9C431307200385076369F702B24070
:1027BC0023AEF18C410182805947638BE700694756
:1027CC00E39FE7FC8547172700202329F734C1BF77
:1027DC008947D5BF8D47C5BF9147F5B7B24023AEEA
:1027EC00018C41016F40F07C411106C683C7C19634
:1027FC0003C7418E6307F7042382F18E174602004C
:10280C001306061D89E717460200130626EF8145BD
:10281C002145EF30C03803C7C19683C7418D63048F
:10282C00F7002389E18231CB03C7718ED98FB1C7F1
:10283C0083C721831305800391C3694505468145F0
:10284C00B1A083C7418D03C7518E6309F708A382DA
:10285C00F18EA9C31746020013060618814513050D
:10286C006002EF30C03383C7C19603C7418D6384C8
:10287C00E7002389F18291C345FF014681456945F3
:10288C00EF30004A0146814513058003B2404101F7
:10289C006F30004917460200130646E681451305C2
:1028AC006002EF30C02F03C7618D8547E31DF7FA37
:1028BC00174602001306C6E481450145238B018CA3
:1028CC0023A8018CEF30205105661306062C9305C6
:1028DC00000203C51183EF50A05F71B783C7718EDF
:1028EC0003C7618E6307F7022383F18E174602003C
:1028FC001306060F89E7174602001306E6E081452A
:10290C0013059002EF30A02983C7C19603C7718EBF
:10291C00B9BFB24041018280411106C6EF2060165A
:10292C0083C7618D99E3EF20E019371700408327A7
:10293C00470C83C6C193B98393C71700858B6387F4
:10294C00F6028327470C1167F98F13B71700238EF4
:10295C00E1928DE3174702001307C7169146130641
:10296C001005814513058004EF30A028B2404101C9
:10297C006F20600A914613061005814513058004EB
:10298C00EF30E02DE5B703C7C19685476314F70018
:10299C006F407041828015456F00F017411193967E
:1029AC002500AA852D4506C697E0FF1FE780A0A449
:1029BC00B240014541018280411122C426C24AC065
:1029CC002A842E89B284AA859306002001462545C7
:1029DC0006C697E0FF1FE78000A293162900268603
:1029EC00A285294597E0FF1FE780E0A0B240224472
:1029FC0092440249014541018280011122CC06CE4C
:102A0C003714004026CA4AC84EC652C483447405C3
:102A1C00034AB4058349840503499405EF00300D3E
:102A2C008347A40593F4F40F137AFA0F93E7170076
:102A3C00230DF40493F9F90F1379F90FB71700402C
:102A4C0003C7A705058B6DFF03D5C705A38D4705E8
:102A5C00238C3705A38C2705A38B9704F240624483
:102A6C00D2444249B249224A0561828083C7C19649
:102A7C000547639BE70003C721836317F700A14554
:102A8C0003C591886F50803D03C7418D8547630D09
:102A9C00F70003C7718E6319F70093050002172521
:102AAC0000200345250FF9BF8280411106C622C4C0
:102ABC00EF20702483C771946380070EA383019465
:102ACC0083C7618D0544639587021385018DEF20C3
:102ADC00305F6313050C2244B240238B018C03C579
:102AEC00A181130600199305000441016F50403E6B
:102AFC00EF20C03411CD83C7C1966399870403C7F7
:102B0C0021836315F704914503C59188EF50003577
:102B1C0083C78194D1C32384019493870182884312
:102B2C000D4681450505EF50001883C7C196054732
:102B3C006391E70403C72183631DF702894503C52D
:102B4C0091882244B24041016F50403103C7418DFE
:102B5C0085476316F700896503C5A18145BF03C787
:102B6C00718EE317F7FAA14517250020034585025E
:102B7C0071BF03C7418D85476316F700856503C593
:102B8C00A181C1B703C7718E6318F700C145172522
:102B9C0000200345250075B7B240224441018280D4
:102BAC0083C7A196B5CF03C781888547631AF706FB
:102BBC002385019683C691968D47639EF602A38466
:102BCC000196938701829443411106C683C7260060
:102BDC00B307F0402381F60083C7C196639FE700DB
:102BEC0003C72183631BF700894503C59188EF5008
:102BFC00E026B24041016F30805303C7418D8547B9
:102C0C006316F700856503C5A181D5B703C7718E1F
:102C1C00E311F7FEC145172500200345A5F7C1BFF9
:102C2C00828083C7C1968DC383C7218391CF03C68E
:102C3C00118E83C7818D6389C700238CC18C854518
:102C4C00130580036F30801383C7418D91CB83C7ED
:102C5C00218399E703C6718D83C7818DE39FC7FCE0
:102C6C0083C7718E91CB83C7218399E703C6018EED
:102C7C0083C7818DE393C7FC828041119397050133
:102C8C0022C406C626C24AC0C1872E8463DA070056
:102C9C00EF40D05D19C1EF40D0562165218D25A89C
:102CAC0093F7150013C515009DE793F7250013C581
:102CBC00250095E393F785008DC7938781829C430C
:102CCC0082970966130606F4A14503C51183EF50DC
:102CDC00202013458400B240224492440249410111
:102CEC00828093F74500B9C303C7D194854797F405
:102CFC00FF1F93842445631DF7009C408297214657
:102D0C00914503C51183EF50A01C13454400E1B756
:102D1C0017F9FF1F1309494283274900829783271C
:102D2C00090082979C448297DC40C9BF93F7050148
:102D3C0099CF93878182DC43829713060006C145A5
:102D4C0003C51183EF50C0181345040169B793F7FD
:102D5C00050281CF174602001306C6948145014532
:102D6C00EF30600713450402BDB793F7050499C70C
:102D7C0085472386F19613C50504B1BF93972501AA
:102D8C0063D00702EF703117393137F602001306A2
:102D9C0006E0896503C51183EF5080130965FDBDFD
:102DAC00939715010145E3D807F217450200130567
:102DBC00A594EF10D26513060064916503C51183C9
:102DCC00EF5000111165D9BD1D71494697450200A0
:102DDC009385858D174502001305057D86CEA2CC03
:102DEC0097E0FF1FE78040B001E91745020013058B
:102DFC00E58CEF10D26101A0B7F600E0795798CAC4
:102E0C00FD57DCCA0567B7E700E023A0E7101306FF
:102E1C00F00290C223A0E718010001001306C003C2
:102E2C0081454808EF403068972700209387C708F2
:102E3C003ECA896793870780231CF100ED47A301E5
:102E4C00F1023544930750108146014681452145D6
:102E5C002312F1022303810297D0FF1FE780A059B0
:102E6C00A167938707E03ECE97070000938747B38F
:102E7C00BEC497070000938767B4BEC68947230476
:102E8C00F10297170000938747AE3EDAB7F50700BB
:102E9C00970700009387A7B63EDE81469707000090
:102EAC009387A7AF7000E1051945BEC023088102C6
:102EBC0097D0FF1FE780205458088147994670002F
:102ECC003E960346060085070507A30AC700E3984C
:102EDC00D7FED24791C70357810185676373F7000B
:102EEC0001A04808EF502046AA8501C917350200F9
:102EFC001305057EEF10723D01A0F6406644256176
:102F0C008280130101DE2D46973502009385C54959
:102F1C002800232E1120232C8120EF10B22F130612
:102F2C00D01F814513053101EFF06FA81705000084
:102F3C001305E5D4EF50603D138411832300A400E6
:102F4C00EF30604AEF10904FEF20F06EEF10102F23
:102F5C00EF30A05C85452800EF30A038EF20E05022
:102F6C00EF40C054492C0345040037F60200130609
:102F7C0006E08965EF40D0752800EF1052491736EE
:102F8C0002001306E67685450945EF2050411306ED
:102F9C00300585455145EF207030EF40E0438546C4
:102FAC002A8685456945EF20B035130640048545D2
:102FBC0013056002EF20902EEFF0CFE4854603C698
:102FCC00518085451305C002EF209033014685459D
:102FDC0013058003EF20905A17470200130787B19F
:102FEC008D461306B00781451305B005EF207040E0
:102FFC003400173602001306E66F81450145A3071E
:10300C000100EF20505D0345040005661306062CF5
:10301C0093050002EF40D06B8320C1210324812152
:10302C00130101228280011122CC26CA4AC806CE85
:10303C000D49AA843284630C250791476309F5086E
:10304C0089476315F5022EC6EF80A15FB24585470F
:10305C00173502001305856B6388F50063949502A0
:10306C00173502001305456BEF10723A6244F240BB
:10307C004249A685D244173502001305A56D05619A
:10308C006F10B22483050400173502001305056A7E
:10309C00EF10B22383471400E39A97FC8347240074
:1030AC00E39627FD834734002380F18EC1B7854713
:1030BC0017350200130585656389F500094963908E
:1030CC0025031735020013052565EF105234914581
:1030DC0017250020034505ACEF40505841BF830530
:1030EC000600173502001305A565EF10121E834765
:1030FC001400E39E27FD83472400E39A97FC834743
:10310C0034002380F18EE1B741119397050122C45D
:10311C0006C6C1872E8463DD0700EF40301519C148
:10312C00EF40300E2165218DB24022444101828056
:10313C0093F7450095C7EF80C1509306F00F130627
:10314C00F00F894513858183EF70D172AA851735ED
:10315C00020013052562EF10521713454400E9B71E
:10316C0093F705018DC3EF80C14D9387018288438E
:10317C009306F00F1306F00F95457D15EF70B140D7
:10318C001345040155B793F785008DC3EF80614B50
:10319C009387C18188439306F00F1306F00FA54562
:1031AC007D15EF70513E13458400BDBF93F70502AA
:1031BC008DC3EF8001499387418288439306F00FBA
:1031CC001306F00F89457D15EF70F13B1345040292
:1031DC00A1BF93F705040145A1DBEF80814693065F
:1031EC00F00F1306F00F854513854183EF70B1394D
:1031FC001345040415BF8D6585461386718E938522
:10320C0025802D4517D3FF1F6700E31E797122D44B
:10321C000D6406D6A307A10013042480854613066B
:10322C00F100A285294597D0FF1FE780C01C854679
:10323C001306F101A2852D4597D0FF1FE780A01B37
:10324C000347F1018347F100E31AF7FCB250225413
:10325C004561828079711306000281450A8506D684
:10326C00EF40702417050000130545EAEF50E00904
:10327C00972700202380A792B747767193879712E0
:10328C003EC4B7575500938757553EC6B7A7240081
:10329C00938707F03EC28567938717842310F1004C
:1032AC0097070000938767D83EC80A85ED57230E11
:1032BC00F100EF70911DAA85173502001305454AE0
:1032CC00EF10B200B25045618280B717004003C7BF
:1032DC0077051A0592054D8D1377E70F13653500A9
:1032EC00A38BE7041375F50FA38CA7048280B71783
:1032FC00004003C777051377E70FA38BE704130789
:10330C0000F8A38DE7043D47238CE7041307500313
:10331C00A38CE7048280B716004013067005238047
:10332C00C604930780FA2380F6040100010003C74A
:10333C00F60213678700A387E60203C7F60213772A
:10334C00770FA387E60203C7E6021377C70F23871D
:10335C00E60203C7E602136717002387E602238001
:10336C00C6042380F6040100010003C736057D78EE
:10337C00930E481F1377870FA389E60403C73605FE
:10338C0037160040116E13671700A389E6042380DB
:10339C00F60483C736051167130F400893E707023D
:1033AC00A389F60483D706051308281B930F300452
:1033BC00D98F11672398F6047D179147894213031F
:1033CC007005930880FA83463605A18AEDDE835694
:1033DC00060583463605A18AEDFE83560605B3E63F
:1033EC00C6012318D60483463605A18AEDDE835523
:1033FC00060583462605F98DB306D702B695B38626
:10340C00D5016371DF04FD1793F7F70F85CFC295D4
:10341C0093961500B3C6F6036352B00285068586F3
:10342C002300660423001605010001008355C60223
:10343C00AE96C206C1822316D60271B7FD16B3C66C
:10344C005602F9BFB716004083C7360513873605F9
:10345C00A18BFDDB83D7060583D706051166D18FBB
:10346C002398F604930770052380F604930780FADB
:10347C002380F604010001008347070093F7870FB0
:10348C002300F70083470700C98F93F7F70F23003A
:10349C00F7003717004083473705A18BEDFFB717AF
:1034AC00004003C73705218B6DDF83D6070583C723
:1034BC00270511667D16F18E3306F6028565930796
:1034CC00C003138705C83696938605FAB396A600F3
:1034DC00B386F602A1679385559CB3C6F602930793
:1034EC00803EB386F602B357A740B306D640B387E7
:1034FC00D702B3C7B7026351D004850709479306B7
:10350C007005B3C7E702371700402300D7049306B2
:10351C0080FA2300D7049607010001008356C702E6
:10352C00B697C207C1832316F7028347370593F773
:10353C00F70DA309F7048280FD17C9B7914763EE15
:10354C00B70217370200130727248A05BA959C4146
:10355C00BA978287B717004003A7470B1345F5FFAF
:10356C00698F23AAE70A03A7070B698F23A8E70A29
:10357C0003A7070A798D23A0A70A8280B7170040FA
:10358C0083A6470B1347F5FFF98E23AAD70A83A608
:10359C00070B558D23A8A70A83A6070A758F23A0AE
:1035AC00E70A8280B717004003A7470B498F23AA6D
:1035BC00E70A03A7070B1345F5FF45BFB7170040F4
:1035CC0083A6470B1347F5FF758F23AAE70A03A7BA
:1035DC00070A598D4DB7B717004003A7470B498F02
:1035EC00EDB7914763EEB702173702001307071BBD
:1035FC008A05BA959C41BA978287B717004003A7F2
:10360C00470D1345F5FF698F23AAE70C03A7070D98
:10361C00698F23A8E70C03A7070C798D23A0A70CAF
:10362C008280B717004083A6470D1347F5FFF98E2C
:10363C0023AAD70C83A6070D558D23A8A70C83A608
:10364C00070C758F23A0E70C8280B717004003A7E7
:10365C00470D498F23AAE70C03A7070D1345F5FF68
:10366C0045BFB717004083A6470D1347F5FF758F6D
:10367C0023AAE70C03A7070C598D4DB7B7170040C9
:10368C0003A7470D498FEDB79357E50093F7073024
:10369C00C98FC2070547C1836382E5048DC1094701
:1036AC00638DE5040D476380E50637170040231F43
:1036BC00F70883562709D58F2319F7088280371707
:1036CC0000400356670993C6F7FFF18E231BD708FA
:1036DC008326C70C558D2326A70CC1BF3717004076
:1036EC000356670993C6F7FFF18E231BD708832671
:1036FC00870C558D2324A70C4DBF371700408356DC
:10370C006709DD8EE1B73717004083566709DD8EF8
:10371C00E9BFB717004003D7870109C5D98D239C92
:10372C00B700828093C5F5FFF98DD5BF011122CC6E
:10373C0026CA2E8432C636C43AC23EC006CEAA84ED
:10374C00D52237480F001308082433580503B758FF
:10375C00004083D5488082471247C205C18193F54A
:10376C0005FCC205C1812392B88083D54880A2464E
:10377C003246B365B800C205C1812392B88083D5A7
:10378C000880C205C181F999C205C1812390B88016
:10379C00E1659385056A63EB85080604335485025D
:1037AC0005669305C6FF114542044180E18D81C534
:1037BC001305F6FF618D05081306F003637406010B
:1037CC001308F00342083756004013580801231021
:1037DC00068337560040231EA68083550680F24090
:1037EC00624493E515002310B68083550680C2050C
:1037FC00C18193F555BFC205C1812310B680835595
:10380C000680CD8EC58EC206C1822310D68083560B
:10381C0086802314068083568680D244D58FD98F18
:10382C00C207C1832314F6800561828015E68D459D
:10383C00B305B4023355B5025205518111E105456A
:10384C002166518D1306C0123308C8021306803E40
:10385C003358C8020508BDB7E5453304B4021166F8
:10386C003355850252055181518DD9BF37570040D0
:10387C008357078011C593E707102310F7808280C8
:10388C00C207C18393F7F7EFC207C183FDB7375760
:10389C0000408357078011C593E707202310F7805A
:1038AC00828093F70720DDBFB75700402398A7808D
:1038BC0082809377E50F99C193671500C207C18386
:1038CC00375700402318F7808280375700408356C3
:1038DC00478183578781C207D58FE98FA207A183C0
:1038EC003385A740133515008280411102C4B757A8
:1038FC00004002C6938707803EC69357C5013EC45D
:10390C00A2472205218199CBB247D1073EC6B247C7
:10391C009C4341017D8D3335A0008280B2474181AB
:10392C00E107EDB7B717004003D587004205418189
:10393C009377050491EB9377F5013755E80113055F
:10394C0005803345F50282809377050C130700043C
:10395C006397E7009377F50137459C1CCDB721653C
:10396C00130505D08280B7F700E08847CC478280EA
:10397C00814737370040A14663C4C7003285828037
:10398C000345B740E38EA6FE3385F50003450500DD
:10399C0085072304A740CDB712059A054D8D1365F5
:1039AC00C5001375F50FB72700402380A740828010
:1039BC00B727004001E5A38007408280239CB740D5
:1039CC00239EC740154791E20547A380E7408280BC
:1039DC00411122C406C62A84B1372947B307E50230
:1039EC00B2408D83B3D7870222449507B3D7E70241
:1039FC0037370040C207C1832316F740410182804C
:103A0C00716541111305052006C6D937B73700403B
:103A1C00130770F82381E7400D47A381E740130794
:103A2C000004A380E74005472387E740B2404101EB
:103A3C008280B7870040238007001307C0FC2386D1
:103A4C00E700A386E7001717002003576715239894
:103A5C00E700171700200357E714239AE7001717FE
:103A6C00002003576713239CE70017170020035708
:103A7C00E712239EE70089462381D7024947238317
:103A8C00E7022385E7022387E7022389D702A38174
:103A9C000700130790022380E700B716004003D7F6
:103AAC00A6011367070C239DE6007D572383E700CF
:103ABC00130710F8A380E7001D472381E7008280DD
:103ACC00B78700402382A70203C767021377C70F8B
:103ADC002383E7028280B78700402384A70203C7B1
:103AEC00A7021377C70F2385E7028280B7870040B0
:103AFC002386A70203C7E7021377C70F2387E702C2
:103B0C008280B78700402388A70203C72703137757
:103B1C00C70F2389E70282809387418F9C43011151
:103B2C0006CE22CC91C3829793878193804393874F
:103B3C00818F9C4313150401418181C72AC682974A
:103B4C00324583D7C1836379F50403D7E183637866
:103B5C00A7049386018F03A3060063060300624447
:103B6C00F240056102838507998F13950701418106
:103B7C00935725001315040141816544198D3305B4
:103B8C0085021384F7FF22953345F5021375F50F63
:103B9C00F24062440561828013054006D5BF0145A1
:103BAC00C5BF03A84500411126C206C622C48347DF
:103BBC00180003480800A944A207B3E70701C2078D
:103BCC000D68C187130828906396070385473284D4
:103BDC00EF801041AA8419ED9387C18E9C4399CB39
:103BEC0003451400034704002205598D13351500B5
:103BFC0005058297B2402244268592444101828079
:103C0C002D453DE7D841411122C426C206C6834743
:103C1C00170003470700B684A207D98F0D679306D8
:103C2C0097A132846396D702C53D83C7A183637481
:103C3C00F500238DA18285472390F40083C7A183CF
:103C4C002300F4000145B240224492444101828099
:103C5C00130787902945E398E7FECC4589472390C5
:103C6C00F4000946228597D0FF1FE78060C4D9BFB6
:103C7C00828083474500858BADC7011122CC2A84F5
:103C8C0003552500938501A706CEEF8030300589BA
:103C9C0029C503552400014781460546ED45EF80B3
:103CAC00206A2AC61DC997E7FF1F9387674A83D7E7
:103CBC00A70201462C002314F10085472315F100BF
:103CCC0083C7A1832300F50003552400EF90300A2D
:103CDC0009C5ED452800EF80607EF2406244056125
:103CEC008280828041654111938501A77D1506C6AE
:103CFC00EFA08077B24097E6FF1F9386664A414655
:103D0C00954517E5FF1F1305A54441016FA0E06A17
:103D1C0023A6A18E8280411122C406C68547094480
:103D2C006311F5028347060001442384F18E03C717
:103D3C00A1836378F700170500001305C5F3EFC0E6
:103D4C0050222285B2402244410182808547630182
:103D5C00F50209C909476302E5020D476306E5024E
:103D6C000945828083C7A1832380F50001458280A9
:103D7C009387818E83C70700C5BF97E7FF1F83D743
:103D8C00C73D2390F500DDB7138701840357070067
:103D9C002392E50017E7FF1F1307873B8356A70203
:103DAC000357A7032383F5002390D5002391E50047
:103DBC0075BF411106C68D3383C7A183637AF500A5
:103DCC00238DA182170500001305E5EAEFC07019D9
:103DDC00B24001454101828041677917630CE502CD
:103DEC00411122C406C685472A84639AF5002285B0
:103DFC002244B240938501A741016FA0E066894738
:103E0C006396F5008545EFC0501075D1B240224441
:103E1C00410182808280CC41411106C6328503C6A5
:103E2C00150083C5050022064D8E42068D65418620
:103E3C00138875A2630C060F6348C804138845A247
:103E4C006306060B634AC800938535A26309B60660
:103E5C0023900600294679A0138855A26308060B07
:103E6C00938565A2E316B6FEC1451D4663ECE506D7
:103E7C004546198E63F3C7003E862390C6009735DE
:103E8C0002009385E59389A8138895A26300060F19
:103E9C00634E060B1388A5A2630A060F938505A52E
:103EAC00E318B6FA99451D4663EEE502198E63F3E5
:103EBC00C7003E862390C6009385818431A89D451A
:103ECC001D4663E1E5022146198E63F3C7003E8669
:103EDC002390C6009385C18FBA9597D0FF1FE780BA
:103EEC00209D0146B240328541018280AD451D4680
:103EFC00E3EAE5FE3146198E63F3C7003E86239054
:103F0C00C600973502009385658FF9B7B1451D46FC
:103F1C00E3EAE5FC3546198E63F3C7003E86239031
:103F2C00C600973502009385658E7DB7C1451D4649
:103F3C00E3EAE5FA4546198E63F3C7003E86239003
:103F4C00C600973502009385E58879B7C1451D46B3
:103F5C00E3EAE5F84546198E63F3C7003E862390E5
:103F6C00C600973502009385658BBDB7C1451D46CC
:103F7C00E3EAE5F64546198E63F3C7003E862390C7
:103F8C00C6009735020093852586B9B7B5451D4601
:103F9C00E3EAE5F43946198E63F3C7003E862390B5
:103FAC00C600973502009385A5803DB797E6FF1FA5
:103FBC009386C6324146CD4517E5FF1F1305051FF5
:103FCC006FA0A03F8280938781919C4303C7C190CF
:103FDC0083C6318601E781473E85828003D6070080
:103FEC006316A60003C66700E308D6FE7D17137799
:103FFC00F70FA107C5B7B2862E86AA851735020022
:10400C00130585866F00722C0111930500030D4575
:10401C0006CEEF50F006930500051145EF50500603
:10402C009305C0030545EF50B00585471306F10015
:10403C00854513055030A307F100EFC0110DF24078
:10404C0005618280938701919C43328791C703A3BA
:10405C00870063030300028309CB13060019930541
:10406C00000203C5A1816F30B06682808547631C56
:10407C00F5001166130686A989451715002003451E
:10408C00A5B26F30F06489476319F500894517159F
:10409C000020034565B16F40200C828085476398F2
:1040AC00F50019E22383B190238EC19082800947D9
:1040BC006399E50019E62383F19003D541906F00D5
:1040CC005008828001119397050126CA06CE22CC96
:1040DC004AC84EC652C4C187AE8463D907081715A7
:1040EC000020034565ACEF3070182A8439C90347AA
:1040FC0005009307000D6313F7048347250045471C
:10410C00638BE7046547639BE702172502001305E1
:10411C002572EF00921B130954009309B400172A5F
:10412C000200130A2A728345090052850509EF0023
:10413C00D219E39A29FF2945EF00321D2285EF3071
:10414C00500C2165258DF2406244D2444249B2495B
:10415C00224A056182800346650083457500172558
:10416C0002001305A56EEF005216C9BF93F7150098
:10417C0085C317E6FF1F1306261793854185171570
:10418C000020034565A2EFC0E14913C5140065BFCB
:10419C0093F725000145C5DB29391166130686A95D
:1041AC00894517150020034525A0EF30705213C523
:1041BC00240051BF797126D24ECE06D622D44AD0D5
:1041CC0052CC9147AA84AE896314F50483D7A50019
:1041DC001306E1008545130550302392F190230717
:1041EC00010023830190EFC04172938701919C439E
:1041FC0091C7DC4781C7CE8526858297B250225461
:10420C0023A4919002599254F249624A45618280EA
:10421C00138781901843E31AF7FC854503D5419029
:10422C00653E854503D54190EF006077C16703DAA1
:10423C004190F917631BFA0205449305E10013053D
:10424C00504123830190A381818623070100EFA0B5
:10425C00917C8347E100B1E303C7C1919147E31619
:10426C00F7F85D33238E019049B79387819103A9A9
:10427C00070003C4C19069D00355290011C99305E7
:10428C00E100EF80503709C54C455285EFA0C01DA9
:10429C007D141374F40F2109F9BF938741919C434A
:1042AC0083C74700898BCDDB9305000A0D45EF5082
:1042BC00205D9305000A1145EF50805C8145054552
:1042CC00EF50005C1306E1008545130550302307C1
:1042DC008100EFC0816349B7011117050000130578
:1042EC00A5DE06CE22CCEF404002171400201304AA
:1042FC00A48B85471306F10085452300A400130504
:10430C004041A307F100EFB001187D55EF70B04CA0
:10431C007D55EFA040125939EFF0DF9CD52B1705D6
:10432C0000001305E5D4EFF0BF9E17050000130540
:10433C00A5C92925034504008545EF303032F240EC
:10434C0062440561828023A8B19023AAA190828047
:10435C0023ACB1902386A1908280938781909C435B
:10436C00797106D622D426D24AD04ECE52CC1147E1
:10437C00639BE70483C76190414481CF938781910C
:10438C008043B284B68983C7C19003C7318699EB49
:10439C0055442285B250225492540259F249624A31
:1043AC004561828083464400639AA600834654008C
:1043BC006396B600834664006380E606FD1793F7A8
:1043CC00F70F2104E9B709474144E384E7FC2C00CB
:1043DC001305504123040100EFA0F16383478100D2
:1043EC008DCB930500020D45EF50804993050003DA
:1043FC001145EF50E04895450545EF50604885471D
:10440C0030008545130550302304F100EFC0E14F17
:10441C0049B7DD3E4144B5BF035524009305610007
:10442C00EF80701D35D54C4503D54190EF8000369B
:10443C00058939DD13990401135909010147814696
:10444C004A86ED4503D54190035A0400EF70506F36
:10445C002AC64D441DDD2686CE8523144101231525
:10446C00210197C0FF1FE780A04401462C0003D513
:10447C004190EF90C00F2A84E30D05F0ED45280024
:10448C00EF80C00339B7C841011122CC06CE32846B
:10449C0003461500034505002206498E19CB0D680D
:1044AC001308B8A42D45630A0607F240624405615F
:1044BC0082800D651308D5A463000603130825A29A
:1044CC00630C060175781308E85C3298420813589F
:1044DC000801854863EF080303D5A50036C632C42E
:1044EC00EFF07FAEB24615C1938701919C432246F3
:1044FC008345550003A30700A2876244F24003459D
:10450C0045003687854605610283239006000145E8
:10451C0069BF1308B5A46317060303D6A1861D450E
:10452C00E375C7F8198E63D3C7003E86CC4523903C
:10453C00C60042064182BA95228597C0FF1FE780CC
:10454C002037F1B79307A5A46318F6009147239081
:10455C00F6001146CC45CDB7930785906317F6004E
:10456C0089472390F6000946F5B79307E5A4631A2B
:10457C00F600DC452390160183C707002300F400E6
:10458C0079B713057590E314A6F8D9BF011122CCA5
:10459C0006CE26CA4AC82317D1002D4431EBDC4184
:1045AC002E89B28403C4170083C7070022045D8CD4
:1045BC008D679386D7A46306D400938627A36310D4
:1045CC00D4040355A900EFF01FA019E101440DA07C
:1045DC00938701919C43834555000345450003A8EF
:1045EC0007002286A6871307E100814602982A84D9
:1045FC002285F2406244D24442490561828093860E
:10460C00C7A46314D4028357E10005473544E391F2
:10461C00E7FE0345060013040008E3EBA7FC9387B1
:10462C0001919C43DC43829755B793862790631A7C
:10463C00D4028356E1008547EF80801A2A844DF915
:10464C00938781918356A9009C4303C7C1903DDF9A
:10465C0003D627006302D6047D171377F70FA10743
:10466C00FDB79387E7A4E313F4F68357E1000547FE
:10467C003544E39FE7F60345060013040008E3E91D
:10468C00A7F6DC452380A700938701919C43333523
:10469C00A0000905DC4341BF13870191184303C5F2
:1046AC00470083C5570083C714000328070003C7BE
:1046BC000400A2078946D98FC207C18705476383C7
:1046CC00E7008D460D66A6871307E10013062690BA
:1046DC00029839BF411122C441641305F4FF93853C
:1046EC0001AA06C626C24AC0EF9010581305F4FF63
:1046FC00938501A9EF9050571305F4FF938501A8FA
:10470C0097E4FF1F938404BFEF90105697E6FF1FAA
:10471C00938646DC4146F9452685EF90104ACC4CF1
:10472C002A890945EFF08FE2138741879387C18768
:10473C00834507000346170083D7070003D7A4104F
:10474C00138401AB2312F4002314E40083D7A40CCC
:10475C0003D7A411A306C400A30EC40003D6A41748
:10476C002310F4002315E40083D7A40D138781874D
:10477C008346070003D5A41403471700231CC40069
:10478C0003D6A4182311F40085472303F400230750
:10479C00F400230AD400230BF400231DC4002302CD
:1047AC00D4022306B400A30AE4002318A400230EA9
:1047BC00B40023190400230F0400A302E40203D75E
:1047CC00A41A2307F402231104022310E402138712
:1047DC000187035707002303040223150402231641
:1047EC00E40203D7A41C938501AE0D452314E40207
:1047FC00EFF0CFD5A2852145EFF09FB5B240224412
:10480C004A8592440249410182808D67138527A312
:10481C006301A6049387D7A40145631EF60089475C
:10482C00639CF500854735456397F6008347070081
:10483C002381F192014582808D472945E39DF5FE48
:10484C0085473545E399F6FE834707002380F192AF
:10485C00D5B785473545E390F6FE83470700A38F10
:10486C00F190C9BF8D67138527A36308A6029387B0
:10487C00D7A46317F6028947639BF50083C721927F
:10488C002300F70085472390F600014582808D4771
:10489C006398F50083C70192E5B783C7F191CDB753
:1048AC0023900600DDB70145828025E303A845006F
:1048BC00AE888347180003480800A207B3E7070136
:1048CC000D68930EF8A4639AD70391473548639FFC
:1048DC00F60203A5C8004111B285114606C697C061
:1048EC00FF1FE780E0FC938701939C43054582976B
:1048FC00B2400148428541018280930828902948A2
:10490C006396170185476F70B06D2D484285828084
:10491C0041654111938501AF7D1506C6EF90D034EA
:10492C00B24097E6FF1F9386A6C14146994517E50D
:10493C00FF1F1305E5BA41016F90302823A8A192FF
:10494C0082800111938501AF22CC06CE2A84EF70B0
:10495C00F063058929C1014781460546ED4522854D
:10496C00EF70101E2AC605C997E7FF1F938747B73C
:10497C0083D7A70501462C002314F1008547231586
:10498C00F100230005002285EF80703E09C5ED453E
:10499C002800EF70B032F2406244056182804167BA
:1049AC007917630CE502411122C406C685472A8497
:1049BC00639AF50022852244B240938501AF4101F0
:1049CC006F90902A89476396F5008545EFB0F053B8
:1049DC0075D1B240224441018280828005679307E1
:1049EC0097E763F8A702930617EC854763F1A602D5
:1049FC009306B7F0894763FCA600930637F58D47FD
:104A0C0063F7A6009307D7F9B3B7A70091073E85C4
:104A1C0082808147EDBFB7170040170700201307AE
:104A2C00C7182394E7061707002013074719239686
:104A3C00E706130710FCA380E70682804111854529
:104A4C00116506C6EFE0FFB9814513050010EFE0D4
:104A5C00FFAE89450145EFE05F87B717004031474E
:104A6C00238CE7040547238DE704A38107066537EC
:104A7C00B24003C5118313060064A14541016F3098
:104A8C00204517070020130747129706002093862E
:104A9C0006138147035607000907B297E31CD7FE9C
:104AAC002947B3D7E7021387419318439386870CA2
:104ABC0063E9E60013878193184323AAE19223ACA0
:104ACC00F192828001114EC69389819322CC03A46A
:104ADC00090052C406CE228526CA4AC801379387DC
:104AEC0041932A8A8843330485409357F4413D8C83
:104AFC001D8CED35631645039307100363CA870EAF
:104B0C00814513058007EF00106F1306800793058E
:104B1C00000E13050004B92A130680078145C5A8A9
:104B2C0017270200130707FD8D461306B0078145B2
:104B3C001305B005EF10E00B81451305D005EF0010
:104B4C00906B81446398440585451305D005EF00AF
:104B5C00906A81446397440789451305D005EF009B
:104B6C0090698144E38A44F913068007A145130533
:104B7C000004092211497D1913068007AD45130560
:104B8C0000041379F90FFD20E31709FE850493F453
:104B9C00F40FC9BF13068007C14513050004D928BB
:104BAC0011497D19130680079305000D13050004A8
:104BBC001379F90FC120E31609FE850493F4F40F61
:104BCC0051B7130680078145130500046520114970
:104BDC007D19130680079305F00F13050004137954
:104BEC00F90F4928E31609FE850493F4F40F9DB7D9
:104BFC00814513058007EF001060130680079305AD
:104C0C00100E13050004BD2013068007AD451305D7
:104C1C0000048D208D451305F005EF00D05D624436
:104C2C0003A60900F240D2444249B249224A9146B5
:104C3C008D451305F00505616F00906C411185459C
:104C4C003705300006C6EFE0DF99B72506009385DF
:104C5C0005A80145930720051167930600400146FE
:104C6C00EFE0DFACB24085659385058005454101D9
:104C7C006FE03FAA011126CA4AC84EC606CE22CC06
:104C8C002A89AE84B28937050200EFE01FC665FDA4
:104C9C00054537040300EFE07FBD05042285EFE0F6
:104CAC00DFC26DDD81454E8537040700EFE07FC024
:104CBC00130424082285EFE05FC16DDD4A853704BB
:104CCC000700EFE07FBE130404082285EFE0FFBF6E
:104CDC006DDD268537040700EFE01FBD13040408C3
:104CEC002285EFE09FBE6DDD6244F240D244424922
:104CFC00B249054505616FE09FB941119306400526
:104D0C0017060020130606F189652D4506C697B0D7
:104D1C00FF1FE780406EB240896593064005170679
:104D2C0000201306E6E9938505402D45410117B394
:104D3C00FF1F6700436C41119306400517060020C6
:104D4C00130646ED8965294506C622C497B0FF1F98
:104D5C00E780606A89651374F50F930640051706A2
:104D6C0000201306E6E593850540294597B0FF1F03
:104D7C00E7806068418DB24022441375F50F410104
:104D8C00828001111306400597250200938585C783
:104D9C0017050020130505E806CE22CCEFF091474D
:104DAC001306400597250200938505B917050020C9
:104DBC00130505E1EFF01146BD3F0D641306F1003C
:104DCC009305048085462945A307010097B0FF1F72
:104DDC00E780606285471306F100930514808546D1
:104DEC002945A307F10097B0FF1FE780C0601306A9
:104DFC00F1009305248085462945A307010097B04F
:104E0C00FF1FE780405FF240624405618280970794
:104E1C000020938727E097060020938666DA03C765
:104E2C0037056318B700A389A704FD17E399D7FECC
:104E3C0019B7E31CA7FEA389B704C5BF411106C669
:104E4C0083C76194638E072417D7FF1F0347572E20
:104E5C00631807248546A38BD19497D7FF1F83C76C
:104E6C00272D03C7419499EF09C70145B240410171
:104E7C0082802382D19483C7519493F7070FA38226
:104E8C00F194E5B789466310D70203C75194914654
:104E9C006315D700A382F196C9BFA146E317D7FCCF
:104EAC00A38AF194D9B719466398C7002382D19489
:104EBC0083C75194B18BE1B7D546639BD700930759
:104ECC00100B630CF71C930710FB2382F19495A82D
:104EDC00C5466399D7009307200B6300F71C930713
:104EEC0020FBE5B7C1466399D7009307300B6306E7
:104EFC00F71A930730FBD1BF95466399D7009307F8
:104F0C00000B630CF718930700FBC1B79306D00294
:104F1C00639CD7029307100C6301F718930710FCDE
:104F2C002382F1949387418298438347070093E748
:104F3C0007012300F70097D7FF1F9387E71F9C47B4
:104F4C008297A382019415B79306E0026392D7026D
:104F5C009307000C6303F714930700FC2382F1946E
:104F6C009387418298438347070093E78700D1B723
:104F7C009306C0046398D7009307E00F630FF710F4
:104F8C00F957A1B7930650036399D7009307000D07
:104F9C006305F710930700FD0DBFDD466399D7003D
:104FAC009307100D630BF70E930710FD39BF930693
:104FBC0070026398D7009307000E6300F70E8157B9
:104FCC0029B7F9466398D7009307100E6307F70CBF
:104FDC008557E5BDFD466398D7009307200E630EF9
:104FEC00F70A8957DDB5930600026398D70093073B
:104FFC00300E6304F70A8D57C9BD930610026398EF
:10500C00D7009307400E630AF70891577DBD9306AE
:10501C0020026398D7009307500E6300F70895574A
:10502C006DB5930630026398D7009307600E630644
:10503C00F706995759BD9306A0036398D7009307B9
:10504C00000F630CF704C15749B59306B00363987E
:10505C00D7009307100F6302F704C557BDB593062D
:10506C00C0036398D7009307200F6308F702C95752
:10507C00A9BD9306D0036398D7009307300F630E36
:10508C00F700CD5799B59306E0036398D7009307C3
:10509C00400F6304F700D1570DBD2382019455B521
:1050AC0003C771950545E313A7DCE39107DCA38BDC
:1050BC00019483C741949306100D6386D73063E047
:1050CC00F6109306200B638ED72463EEF604094783
:1050DC006385E720636AF702E399A7D883C75194E5
:1050EC00C10793F7F70F13070005E39AE7D8A382DC
:1050FC00019423820194EFF0DFC8172602001306F7
:10510C00E688814501456DAC1307000B6386E722E9
:10511C001307100BE39BE7D42382019497B0FF1F76
:10512C00E780E01A99B39306000C638FD72263E5EE
:10513C00F6029306300BE39AD7D22382019483C7ED
:10514C00718EE394E7D29305000417050020034504
:10515C0065A4EF20B05011BB1307100C6385E71E3C
:10516C001307000DE393E7D02382019483C7418D8D
:10517C0003C7718ED98FE39A07CE83C7018393B788
:10518C001700138601838545130550302388F1825F
:10519C00EFB0A177AA866309052017260200130633
:1051AC00668081450145EF00104305661306062C09
:1051BC009305000203C51183EF2090517DB11307B5
:1051CC00100F6381E724636DF70A1307600E6362A7
:1051DC00F7081307100E63FBE7201307000EE39686
:1051EC00E7C803C521831335150023820194238955
:1051FC00A18283C7C1968DCB83C7418D03C7718EA6
:10520C00D98F9DC3F9473305F502014681456905E0
:10521C00EF00103183C721831305800391C36945C7
:10522C0005468145EF00D02F83C721831716020056
:10523C001306C679E39707EC83C7718E1716020025
:10524C0013064679E38F07EA171602001306067950
:10525C004DBD1307000FE39AE7C02386A1941716E0
:10526C000200130626788545514523820194EF00F0
:10527C00101397270000938787BA23A6F188F5B6F9
:10528C001307400F6382E71C636CF7021307200FB0
:10529C00638BE7181307300FE399E7BC2382019463
:1052AC008547171602001306A674854551452386BB
:1052BC00F194EF00D00E972700009387A7D175BF0C
:1052CC001307E00F638BE70A1307F00FE39FE7B8B0
:1052DC00A38201942382019449BE83C75194910700
:1052EC0093F7F70F3147E39CE7B817160200130644
:1052FC00A66A81450145A382019423820194EF00A3
:10530C00902D05661306062C9305000203C5118328
:10531C00EF20103C83C5519603C55195EFF03FAF7C
:10532C00A9B62382019483C7718E01456383E7007C
:10533C000545EFD0BFEDDDB32382019497B0FF1F7D
:10534C00E78040F41DB623820194938741829843F1
:10535C0083470700BD9B2300F70097D7FF1F938758
:10536C00A7DD9C47829711B62382019493874182D3
:10537C00984383470700DD9BF9BF2382019483C7C1
:10538C00D19481EF85472386F1949727000093876A
:10539C00C71623A6F188EF20203B83C7D19493B77F
:1053AC001700A386F194D1B483C7018317160200AA
:1053BC001306C65F89E7171602001306A65F814520
:1053CC00EF007021DDB32382019483C7818813B76A
:1053DC0017002384E188171602001306265EE38269
:1053EC0007D2171602001306E65D21BB938707024E
:1053FC00A382F1801306401F23820194C14503C58B
:10540C00A1815DBB2386A194171602001306C65D0D
:10541C008545514523820194EF0060789727000061
:10542C009387A7A199BD2386A19417160200130692
:10543C00E65B8545514523820194EF004076972722
:10544C0000009387A7AE15BD2386A1941716020002
:10545C001306465A8545514523820194EF0020746A
:10546C00972700009387C7C309BD411106C622C404
:10547C0026C2EFF09F8893840195FD5717F7FF1F05
:10548C00A300F77E9C4037140040914593E7C70F6B
:10549C0023A8F1940327840CD98F2324F40C88407F
:1054AC00EFE02F949C400327840C97160200938600
:1054BC00264593F7F7F7D98F2324F40C138701941F
:1054CC001C4317160200130626478C429106CD8FFB
:1054DC00E39DC6FE23A0F194B716004003A6860AEE
:1054EC002244B240D18F23A4F60A92440843854546
:1054FC0041016FE0AF8403D7A1949307F7FF5D716F
:10550C00C20786C6A2C4A6C2CAC04EDE52DC56DA98
:10551C005AD85ED662D466D26AD06ECEC183DD46CE
:10552C0063E5F616E147631FF70097F7FF1F9387B4
:10553C002769171602001306264C8545094523A238
:10554C00F188B12D83D7A19485072395F194138409
:10555C0001B0971B0200938BAB3A814AA284938CC7
:10556C00418817FCFF1F130CEC6A17F9FF1F130976
:10557C0029659389018817DBFF1F130BEBBA1947B9
:10558C003387EA0203CA4195B716004003A60B0005
:10559C0083A6460AF18EB307E400D29783C50700B1
:1055AC00639C051ED1E683A70C0083C601883E9739
:1055BC009D47529763F8D700034607009307F00DF9
:1055CC0063F8C70699473386FA028545B387C4004A
:1055DC00D2972380B7009387C1888C43972700000C
:1055EC009387479F639BF502971702009387C746E3
:1055FC00B297D29783C707001306F00F638FC700CB
:10560C000D463386C702938701DEB2973D46238150
:10561C00C700A380C7002380C7000546A383C1949D
:10562C00834707009305F00F6390B70E2383C19453
:10563C00850AB947910BE394FAF403C74195930695
:10564C00170093F6F60F238AD194971702009387CD
:10565C00E7450A07B71500403E9703A6850C18438B
:10566C00518F23A4E50C15476374D700238A01944A
:10567C0083C641958A0637160040B6970327C60C99
:10568C009C43D98F2326F60C8DA083C73196E380DB
:10569C0007ECFD1793F7F70FA381F196E39907EA4F
:1056AC0017D4FF1F130444A8814493099003154A8F
:1056BC00194983478400639E370133069A4093054A
:1056CC00940013058400EFF0E13497D7FF1FA383F8
:1056DC0007A685040504E39E24FD83C70188FD17F6
:1056EC002380F1888547A383F194B64026449644E1
:1056FC000649F259625AD25A425BB25B225C925C06
:10570C00025DF24D616182801306F00E6374F60245
:10571C0017270200130747351443938707F10547F2
:10572C0003C60600B317F700D18F2380F60023843D
:10573C00E194FDBD1306F00D637FF60005479387DA
:10574C0007F2B317F70003476B00D98F17D7FF1F6A
:10575C00230FF79CF1BD9947B387FA02E2973E9A63
:10576C0003460A00930790036316F60085472395BA
:10577C00F1947DBD938716002380F1888347070041
:10578C00DA962383F60083D7A19493B7970193C736
:10579C0017002382F19669BDE38C06E8238007008D
:1057AC008547A383F19483A70C009306F00FBA9757
:1057BC00D29783C707006395D700238301948DBDCF
:1057CC009306F00E63F2F602172702001307C7299F
:1057DC001443938707F1054703C60600B317F70078
:1057EC0093C7F7FFF18F91B79306F00D63FDF600A9
:1057FC000547938707F2B317F70003476B0093C76E
:10580C00F7FFF98FA1B7B307EC00D29783C7070056
:10581C0093069003639ED70403D7A194E14763FBDF
:10582C00E700171602001306A6EC8545094523A2CE
:10583C008189B52683C7419691C703D7A194E147C7
:10584C0063E3E70283C701881D47636EF7001147C6
:10585C00A381E196138717002380E188DA97130759
:10586C0090032383E7002395019423820196C9B307
:10587C004A9717DDFF1F130D2D8B954D3A9AFD5648
:10588C0003478D006386E70003460A006310E602B7
:10589C006E8693059D0013058D003EC6EFF08117B3
:1058AC0097D7FF1FA3880788B247FD56FD1D050D2E
:1058BC00E398DDFC83C70900FD172380F1888DBBBD
:1058CC00B70703040111938717203EC2B7070708D7
:1058DC00938757603EC4A5472316F10006CE22CC11
:1058EC0026CA17D7FF1F0347A7849306A00283C7B6
:1058FC0061956310D7061387C1958DC3FD1793F778
:10590C00F70F238BF194BA97238007009387819527
:10591C009C43A946B3D7D70223ACF1948307070065
:10592C0099EF171602001306A6CB81450145652198
:10593C0005442285F2406244D244056182809386FC
:10594C00C195171602001306E6DA8145014561215F
:10595C00C5B799466394D704930780020544E31AAC
:10596C00F7FCAA8417160200130646098145014567
:10597C009D2105661306062C9305000203C51183B1
:10598C00EF200055938781959C4301449CC0238E46
:10599C000194238B019423AC019461BF930627FEE1
:1059AC0093F6F60F25460544E365D6F814083697AA
:1059BC00034667FD138781951443294781453307B7
:1059CC00D7020145329723ACE19413871700137764
:1059DC00F70F238BE1949386C195B69713060603B4
:1059EC002380C7003697171602001306A6D0230093
:1059FC000700D5263DBF4111938505FB22C4130634
:105A0C0080072A8493F5F50F014506C6EFF08FA6A3
:105A1C00935544001306800793E505010145EFF00B
:105A2C006FA59375E4002244B2401306800793E5FA
:105A3C001500014541016FF0EFA3411122C44AC08A
:105A4C0006C626C21304000B1309800B130680072D
:105A5C00A2850145EFF00FA2130680078145014591
:105A6C00EFF04FA113068007C1450145EFF08FA061
:105A7C009304000813068007814513050004FD14E8
:105A8C00EFF04F9FE5F805041374F40FE31024FDB9
:105A9C00B240224492440249410182800111931781
:105AAC00850122CC06CE130406FE26CA4AC84EC671
:105ABC00E1871374F40F63D60700850593F5F50F92
:105ACC000145153F19463304C4028144971902005D
