:040000006F10907F6E
:100004000000000000000000900000201C020020FE
:10001400A9BDF9F5940000200000000000000000D4
:10002400960000209800002000000000000000005E
:100034009A000020000000009C0000200000000046
:100044009E0000203603002046030020A400002068
:10005400A6000020A800002022030020AC000020FD
:10006400AE000020B0000020B2000020B400002048
:1000740008030020B8000020BA000020BC000020C3
:10008400BE000020C0000020C2000020C4000020E8
:1000940001A001A001A001A001A001A001A001A054
:1000A40001A001A001A001A001A001A001A001A044
:1000B40001A001A001A001A001A001A001A001A034
:1000C40001A001A001A0B71700409306700523808A
:1000D400D704130780FA2380E7040100010003C654
:1000E400B7041376F60DA385C7042380070413769B
:1000F400050251CE03C6A700118A1DE22380D7044E
:100104002380E7040100010003C7A7001367470029
:100114002385E7009307004B01000100FD17EDFF65
:10012400B7170040930670052380D704130780FA9D
:100134002380E704010001007D892394A7000100C6
:10014400010001000100238007042380D7042380D9
:10015400E70401000100372700408546A303D78048
:1001640023800704B7170040130770052380E704B2
:10017400130780FA2380E7040100010003C7B704D2
:1001840013670708A385E704238007048280137696
:10019400050425CA03C6A700418A1DE22380D704AB
:1001A4002380E7040100010003C7A70013670701C8
:1001B4002385E7009307007D01000100FD17EDFF93
:1001C400B7170040930670052380D704130780FAFD
:1001D4002380E704010001007D891365050423944D
:1001E400A70001000100010001002380070423800F
:1001F400D7042380E7040100010037270040894623
:10020400B1BF2380D7042380E7040100010003D792
:1002140087001367070C2394E700A9B781460146BA
:1002240081451145CD22B71700401307700523807F
:10023400E704130780FA2380E704010001007D57D7
:100244002396E70203C76704136717002383E704B1
:100254002380070401A0BD473305F50201007D1585
:1002640075FD8280411122C426C206C6AA840144B7
:1002740063179400B24022449244410182800504F1
:100284001305803E4204C13F4180DDB7411106C6DB
:100294008566014681450545BD227DF981460146B5
:1002A400814511458D22B71700401307700523803F
:1002B400E704130780FA2380E704010001007D5757
:1002C4002396E70203C76704136717002383E70431
:1002D4002380070401A0B71700401307700523808B
:1002E400E704130780FA2380E704010001007D5727
:1002F4002396E70203C76704136717002383E70401
:100304002380070401A08280B7170040130700036D
:100314002388E7028547174700002327F7767300F1
:100324002030976000E0E780803B7300203041116B
:1003340006C65125FDBF03D74193B7170040239E3E
:10034400E70873002030730020302303048015472E
:100354002303E48001002302A48082808307648055
:10036400E3CE07FE23030480828083076480E3CE08
:1003740007FE03454480828083076480E3CE07FE42
:100384002302A4808280411126C44AC24EC006C6FC
:100394001377F50BAD47AA892E8995446306F700B8
:1003A40019456537653F8D444E854537FD59FD1424
:1003B40063983401B240A2441249824941018280C7
:1003C400135509011375F50F453F2209CDB70111E6
:1003D40026CC06CEB704080051371545BD37713712
:1003E40069372AC6A53F32459377150089EB136513
:1003F40015001375F50FF240E24405618280FD1487
:10040400E9FC0145CDBF397126DC4ADA4ED852D613
:1004140056D45AD25ED006DE62CE66CCB7E700E090
:100424007D5783AA070022C603AA470023A0E71822
:1004340023A2E718B7170040130770052380E704C9
:10044400130780FA2380E70483C74704930B75FFDF
:10045400B684E20793FBFB0F8546AA892E8B32896B
:1004640037240040E187015763FA76016308D50019
:100474008946130700026313D5000157D98F93F7F8
:10048400F70FB71C00402382FC0411472303E480C8
:100494001305F00F5D3D094CD135636D7C11B70533
:1004A4000700DA9537870700795563F2E504B387C7
:1004B4009500636EF702370B0800A94733EB65011B
:1004C4006399F90689E48144513D26850DA0DA85B6
:1004D4000945553D05090345F9FFFD14050B693D23
:1004E40081C49377FB0FFDF7DD3569FD7D55B717A3
:1004F4000040130770052380E704130780FA238064
:10050400E70403C74704418B2382E704F250B7E7AB
:1005140000E023A0571123A24711E2543244525958
:10052400C259325AA25A125B825B724CE24C21616C
:100534008280A5476395F90685691309F00FB30610
:100544009900B3742B01B6941349F9FFB37499005D
:10055400856B33796901416B9387F9FFB3F7270101
:1005640099E363FC340193D94900C147E3E637FFBB
:1005740099BF0569C1697D19D9B71305800D6388D1
:100584006901130500026384790113051008CA8503
:10059400DD3B353D21DD4E99B3843441D9B7DA854D
:1005A4002D45D533CA94E30099F205097D3BA30F89
:1005B400A9FED5BF9387F9FF93F7F70F6361FC0C8E
:1005C40083C71C0413073008631FF70437070800A8
:1005D400636BEB04B3079B00B706100063F5D70405
:1005E400334BEB0089476393F9068980D549E38C43
:1005F40004ECDA850945413B11090327C9FF9147FA
:100604002320E48003076480E34E07FE2303348140
:10061400FD17EDFBFD14110B81C49377FB0FE9FF6C
:100624007D3371F5E1B5B717004003C75704B70729
:1006340008001377070219E3B78707007955E378B1
:10064400FBEA33079B00E3FFE7F855B58547E382F0
:10065400F9F2DA852D45053B9389F4FFE38504E639
:10066400293393F7390091EB83260480032709008B
:1006740093074900E39AE6E43E89CE84F1BFB54787
:100684006396F9001305900BC93135BDB1471305C5
:10069400B00AE38BF9FE99476391F904B7050800A2
:1006A400B365BB002D45C53181448D4BA1497539D6
:1006B40063967401832704802320F9008504E3985A
:1006C40034FF8327048013172B016355070023127B
:1006D400F900D5BB2322F900FDB39D476399F902C4
:1006E40081451305B0044531BD442320090023226C
:1006F4000900FD599D3993F77400CA9703C7070091
:10070400FD14398D2380A700E39634FF6DBBA14708
:100714006392F9046D398144630D0B008D47930492
:10072400C0036308FB009304000563048B01930476
:1007340040041375C507E30895D81945393139398B
:100744000545213126850D3909453D314931E31CE3
:1007540005D669BB91476399F90013056006F53620
:10076400F53E130590090DB7E38F09D4F154A9BBE5
:1007740019CD91CD09CE81473387F5008346070013
:100784003307F50085072300D700E397C7FE82806F
:1007940019C991C909CA910583A7C5FF11057D1619
:1007A400232EF5FEC5BF828001C919C62A96050508
:1007B400A30FB5FEE31DA6FE828081473307F50033
:1007C4000307070019E33E8582808507C5BF011131
:1007D4002E8626CAAA84131506019305F0044181C6
:1007E40022CC06CE32C6EF10A0572A8401C5324669
:1007F400A685BD3F2285F2406244D24405618280D1
:10080400854715C18DC105C28147B306F5003387FD
:10081400F50083C60600034707006398E6008507D2
:10082400E315F6FE85473E8582808147EDBF930739
:10083400F6FFBE952A966313C5008280FD1583C713
:1008440015000505A30FF5FEFDB7AA87014581CF65
:1008540009CE3E96850703C7F7FF6317B700E31B6E
:10086400F6FE054582808280014582807971976712
:1008740000009387E7CB22D4804306D626D24AD001
:100884004ECE52CC56CA5AC85EC662C45DCC37C975
:10089400C901814B176A0000130A0ACE976400004D
:1008A400938444C91309F937976A0000938A0AC3E9
:1008B400B709C0A8370B40578357240095E35C441D
:1008C400639D0B00176700002324F7C6032CC400A4
:1008D4002285EF100056628499A823A6FB00FDB779
:1008E40083270A008297838664011C4463DB06061F
:1008F4003307F5406367E9089767000023A807BE3C
:100904008355240003450400977000E0E780803C91
:100914005C405844A9CF1444B6978386640163C5E8
:10092400060063E33701DA971CC4A28B3A8449F4C6
:1009340097670000938787BA9C4B09476378F7064B
:10094400F917176700002323F7BAB25022549254C0
:100954000259F249624AD24A424BB24B224C456197
:100964008280E377F5F83387F9402A9761B7639774
:100974000B009767000023ADE7BA89BF23A6EB00FD
:10098400B1B7D85009CF63DF06003385A74083A7EA
:100994000A016376F5009767000023A9A7B4A28B28
:1009A400404471B7E3F3A7FECE97C5B7976700003D
:1009B40023AE07B259BF411122C4176400001304C7
:1009C400E4B41C4006C626C24AC091C78297976702
:1009D400000023AD07B25C4091C382971C40639131
:1009E400071C9767000083C777CE858B9DC79767E1
:1009F4000000A38D07CC17670000034757CD91472C
:100A040063FDE700EF00B0359767000083C737CC7C
:100A1400F9178A07A2979C43829717690000130964
:100A2400A9CE8347C900918B99C3EF10C0261C44FB
:100A340091C3829797640000938444AF98401766EB
:100A440000000346B6A99767000083C727A99396B9
:100A54001700BA9683D60600D5CA9767000083C7E5
:100A6400E7A763EFC70A97670000238907A61C401E
:100A7400639807129767000083C797C591CF97675C
:100A8400000083C7D7C489EB97670000A38207C41B
:100A940097C001E0E780A0A0976700009387C7ADE7
:100AA4009C43638F070EB707C0A817670000232F66
:100AB400F7A26D3B976700009387C7A7DC53EDC38C
:100AC40017670000130787A1184B9767000083C7B7
:100AD400B7A76367F70C17670000034757BF914731
:100AE40063E0E70C8347C900918BDDEB9040976688
:100AF400000083C6B69E63CBD70A2244B240924418
:100B040002494101177300E06700E3F9850793F791
:100B1400F70F976600002383F69CE3E6C7F235BF20
:100B240086073E9783550700231007009767000048
:100B3400239C079E976700009387079D9C43176536
:100B440000000345A59913172500BA979C43829783
:100B54009767000083D7479D1767000003470798EE
:100B640093C7F7FF7D8D9317170098403E978357DF
:100B740007005D8D2310A7009767000083C70796C1
:100B840091C7850717670000230AF79417670000C9
:100B94000347C7949767000083C75794E375F7EC3E
:100BA400B2402244924402494101828013971700C3
:100BB4003297035707006DF7850735BFAD6737C711
:100BC4000040BD072326F7200F10000097670000A0
:100BD4009387C790C84F83278726BD66BD0693C7F2
:100BE400F7FF99836A052326D7205D8D8280411102
:100BF400B7170040985F3AC6945F3247E39CE6FE1D
:100C040032454101828082800327851163000712E7
:100C1400411122C406C68347C5008345C5042A84FE
:100C240093F7C70F2306F500834697000356C700C2
:100C340013958601618563F1C508635A050603456A
:100C4400870093F6F607A304D700054693E627002A
:100C54006314C50093E617002306D4005C43890798
:100C64005CC3A30AB400032504112E864C43090572
:100C740001368327841103465401D44303D7C700A4
:100C8400B296118FD4C32396E7008947A30DF400CD
:100C9400034744039767000083C7E78A6378F70430
:100CA4008347C40093E707012306F40081A093E778
:100CB40017002306F40075B79376F60F635D0502FB
:100CC40003458700854513E627006314B50013E642
:100CD40017002306C400A30AD400A3040700854711
:100CE400A30DF400832784119C43DDF3B240224416
:100CF40001454101828093E717002306F400A30A0B
:100D0400D400A3040700032504114C4309058D34C2
:100D14008327841103465401D44303D7C700B296F2
:100D2400118FD4C32396E7008D475DBF05458280AC
:100D340097670000938747989C43411122C406C6D5
:100D4400858B2A84C5EF4165130525F5976001E07D
:100D5400E78000BA45C58347A5002315F50083271E
:100D64000412BDE72320A4122322A41285472310D2
:100D7400F404232005008347640154412316F5003D
:100D84000347D4002304E5000547A304E5001767DF
:100D9400000013076793184F1385170215811C432E
:100DA4007D151375F50F9CC25C43DCC21C479CC6C1
:100DB4005C47DCC61C4B9CCA5C4BDCCA1C4F9CCEFB
:100DC4005C4FDCCE19CD9386060213070702C1BF20
:100DD4008327441288C3835704042322A41285075B
:100DE40079B79767000083D7E79A850717670000EC
:100DF4002312F79AB2402244410182808347C400FF
:100E040023090400054593C747002306F400DDB712
:100E14008347850193F7E70FCDEB83479501D5E72A
:100E2400034625018346C50009CA83454503175770
:100E340000000347577163E7E50013F7060159C73C
:100E4400014709C6C18A0357851B81C68356C51B42
:100E540036972DCFB7470F009756000083D6866A82
:100E640093870724B3C7D7021307C712411126C2B9
:100E740022C406C67D543357F7029757000083C730
:100E8400F76CB384E700976700009387279083A6E5
:100E9400C70883A7060963F387003E849442F5FAE2
:100EA400975700009387476D9C43829781476364FB
:100EB400A400B307A440B2402244B3B7970093C739
:100EC400170092443E854101828081473E8582809D
:100ED400797126D206D622D44AD04ECE52CC56CAE6
:100EE4005AC85EC68347350303447513AA843E94E7
:100EF4001374F40F9307400263F687001304B4FDE0
:100F04001374F40F03AA841383AAC413A38B841247
:100F140022865285D685975002E0E78020530589C2
:100F240015E503CBD41201498149337B6403930B48
:100F340050024A865285D685975002E0E7800051D8
:100F4400058915C5639169031374F90F238B841202
:100F5400B250225492540259F249624AD24A424B44
:100F6400B24B456182808509E20993D9894105091B
:100F7400E31179FDE1BF832785090356E503797100
:100F840093D60701BD8EC206C182358E13577640B3
:100F940093575640898B058B5D8F93573640918BC1
:100FA4005D8F93571640A18B5D8F93171600C18BED
:100FB4005D8F9317360093F707025D8F93175600E2
:100FC4009355860093F707041E065D8F1376F60F7C
:100FD400518F93D7554013D63540118A898BD18FC1
:100FE40013D67540D18F13D61540218AD18F13960D
:100FF4001500418AD18F1396350013760602D18FDE
:1010040013965500137606049E05D18F93F5F50FBC
:10101400CD8FA20745465D8F3307C70222D42A84A9
:1010240026D252CC56CA032A8413832AC4135AC81C
:1010340006D6369742074183935777401355574056
:101044000989858BC98F135537401189C98F135569
:1010540017402189C98F131517004189C98F1315AA
:10106400370013750502C98F131557009355870070
:10107400137505041E07C98F1377F70FD98F13D57E
:10108400354013D755401189098B498F13D57540C5
:10109400498F13D515402189498F1395150041892E
:1010A400498F1395350013750502498F1395550023
:1010B400137505049E05498F93F5F50F4D8F22078F
:1010C400D98FB387C7024AD04ECE5EC662C4B697E4
:1010D400C207C18313D7774013D557400989058BBD
:1010E400498F13D537401189498F13D5174021896A
:1010F400498F139517004189498F1395370013754C
:101104000502498F1395570093D58700137505047D
:101114009E07498F93F7F70FD98F13D5354013D70F
:1011240055401189098B498F13D57540498F13D5C3
:1011340015402189498F139515004189498F1395CD
:10114400350013750502498F139555001375050471
:101154009E05498F93F5F50F4D8F2207D98FB387DD
:10116400C702130650025285D685B697BD8E939456
:101174000601C18033F6C402137BF60F975002E0D8
:10118400E780C02C05890DED8347D41201498149BC
:10119400B3849702130C5002C1804A865285D685C7
:1011A400975002E0E780802A0589937BF90F11C5E7
:1011B40063863403850993F9F90F0509E31F89FD53
:1011C400230B6413B250225492540259F249624AD6
:1011D400D24A424BB24B224C456182805E8BCDB7E2
:1011E4000111975700009387675A22CC03A4070B79
:1011F40026CA06CE2AC42EC6854419E40145F24007
:101204006244D244056182808347910003471400FD
:10121400858B6304F7000044CDB719469305A100FC
:1012240013052400EFF0CFDDE31795FE0545C1BF9C
:10123400011122CC175400001304C44A18402AC6D2
:101244002EC432C206CE3C4B93F7F7F73CCB97B093
:1012540001E0E780802118409756000093860646F7
:101264003C4B93E707083CCB9C423245A24523A064
:101274000700034715000348250022074208429748
:10128400034805004297034835006208429798D7FF
:101294000347550003486500220742084297034864
:1012A400450042970348750062084297D8D7034720
:1012B40095000348A5002207420842970348850089
:1012C40042970348B5006208429798DB0347D5006C
:1012D4000348E5002207420842970348C500034536
:1012E400F500429762052A97D8DB03C7150003C5AA
:1012F4002500220742052A9703C505002A9703C53E
:10130400350062052A9798CF03C7550003C56500C9
:10131400220742052A9703C545002A9703C575008D
:1013240062052A97D8CF03C7950003C5A5002207F5
:1013340042052A9703C585002A9703C5B5006205AF
:101344002A9798D303C7D50003C5E50022074205B1
:101354002A9703C5C50083C5F5002A97E2052E9791
:10136400D8D3D843759BD8C3D84313671700D8C3C1
:1013740098431367170098C3124698425C43858BC1
:10138400D1E71C4F01452300F6009C429C4FA183EA
:10139400A300F6009C429C4FC1832301F6009C42AB
:1013A4009C4FE183A301F6009C42D84F2302E60040
:1013B400D84F2183A302E600D84F41832303E600DC
:1013C400D84F6183A303E60098532304E60098539F
:1013D4002183A304E600985341832305E600985330
:1013E4006183A305E600D8532306E600D85321837E
:1013F400A306E600D85341832307E600DC53E183C8
:10140400A307F600F2406244056182800100B5B78B
:101414005D713AD2175700001307872A36D4144354
:101424003ED022DE9C5E4ACA86C6998396C49AC27E
:101434009EC026DC2ADA2ED832D642CE46CC72C8DA
:1014440076C67AC47EC2858B3A8417590000130984
:10145400E926D1CB9C5E975400009384E42693F74D
:10146400F7F99CDE17570000034767269307000827
:10147400631BF700832709009C4393F7070417575E
:1014840000002306F72483C7040093F707049DC3D1
:10149400975700009387470E9C4382979757000005
:1014A40023ACA72283C7040093F7F70B1757000058
:1014B400230CF72083C7440093F707048DE785477F
:1014C40017570000A304F72097570000938787213C
:1014D4009C43096798C7130700FC975600002387AD
:1014E400E61ED844F8D31C40985F1183058B09CBC2
:1014F400985F3D9B98DF0547975600002388E61CBC
:10150400985F1D83058B11CB985F1377F7F798DFEE
:10151400854717570000230BF71A83270900D84380
:101524000583058B19C7D843759BD8C3D843799BCA
:10153400D8C37254B640A64216438643E254525569
:10154400C2553256A256125782577248E24852493F
:10155400424EB24E224F924F616173002030975732
:101564000000938727189443975700009387C71563
:1015740003C70700058B11CB975700002388071476
:1015840097570000A3840714828003C71700058BB4
:1015940065F7F85271FF83C75700DDB7175800008D
:1015A40013080812032708001C5F9583858BD5EB6D
:1015B4001DC6975700009387671D8398670403032C
:1015C40006001C5BBD83630B030893F7F71FB38707
:1015D40017419A970947B3C7E7022300F60085CA63
:1015E40083270800985B46079357670163560700F3
:1015F40093E707C0C207C18303970600C207C187E8
:1016040009C7BA970947B3C7E7022390F6009DC9F3
:101614008347150085CB9756000083C6460B93F687
:10162400060413879700914785CA3A950347050036
:1016340085461376F7066311D60262076187B147C0
:10164400634C0700832708009C5FED838D8B17573D
:101654000000A300F70881473E858280B3871741C5
:10166400ADBF8947D5BF411122C406C61754000037
:1016740013044407184049E9AE877453FDFE3E85C0
:10168400B285975700002382070497B001E0E780F2
:1016940000BB975700009387A7029C43B7068000BE
:1016A4009843558F98C3D857719BD8D79757000044
:1016B400A38E070097570000A38807001C40094722
:1016C40098C3B7F700E003A707D16D9B23A8E7D021
:1016D40003A707D15D9B23A8E7D0730050101440E3
:1016E40017570000130747FE83472700858B89EBB4
:1016F40083473700858BD9C797570000238807FC99
:10170400B2402244410182808D476310F50297570D
:1017140000009387E7FA9C43B70680009843558FEF
:1017240098C3D857719BD8D75DBF8547E319F5FA9D
:10173400B567BD075CC70F1000001C400967094668
:1017440098C7130700F8975600002381E6F8175747
:1017540000001307E7F61443984231830D8B631995
:10176400C7001307E043F8D33D673D07D8C785BFDB
:10177400984231830D8B01E713076019EDB7130706
:10178400E01BD5B7FC52ADF3A5BF5D714EDE975992
:1017940000009389E9F203A7090086C6A2C4A6C281
:1017A400CAC052DC1C43175900001309E9F7175A41
:1017B4000000130A2AF393F7F7E793E707081CC31B
:1017C400832609003707CEFF7D179C461306800247
:1017D4002A84F98F9CC683270A001307000828006F
:1017E400B8CBAE8493051008EFE01FFC97B001E07E
:1017F400E780A0C797B001E0E780A0D483A70900E1
:101804009376F41FB70EFCFF23A40700984B13052F
:1018140010F8CE851367F70398CBF84F4A88B70FB3
:101824000400137707E0558FF8CF9843F576FD163B
:10183400758F98C39843B706330091421377F7E73F
:1018440098C39843FD1E85431377F7E71367071082
:1018540098C303270900130F80021C47D58F1CC7A8
:1018640083270A001307900D3400B8CB014793581F
:101874003700A69883C7080013767700B3D7C7400C
:10188400858BDDC79C41032E0800239C070423900D
:1018940007060323CE021373D3FF23266E0203AE7F
:1018A40007001373F707137E0EF833636E0023A04B
:1018B400670003A347023363F30123A267020143D2
:1018C40003DE07066307C30303A30703038E0600AF
:1018D4001353F30062031353834163586E0003A34D
:1018E40007031353F3002380660003D3070613731F
:1018F400F30F03DE8705E3F5C2FD03A34702337349
:10190400D30123A2670283870600635CF40003C348
:1019140008003396C3001346F6FF3376660023802F
:10192400C8003E8663D3A7002A8613158601618505
:1019340005071377F70F8506E31BE7F3B640264444
:1019440096440649F259625A61618280011136C88F
:1019540097560000938606D93EC49C423AC632CAC2
:10196400D8472ACE2ECC1316170163550602984782
:1019740013161701635006027D57B8D71757000096
:101984001307C7B5584F0507175600002326E6B6B8
:10199400116798C798470D83058B1DC3175700001F
:1019A4000347A7D21367170017560000230FE6D08A
:1019B400130700F817560000230AE6D0214798C7FA
:1019C4009847058B09CF175700000347F7CF1367D4
:1019D400170017560000A309E6CE054798C7984795
:1019E4000983058B09E798470583058B39CF984709
:1019F40017560000130646CD17550000130545CCB5
:101A04000983058B630C07101841184331830D8B30
:101A140063130710AC4B184E93F5050203471700E8
:101A2400E9C57DE713077006D8CF0347060013679F
:101A34001700175600002309E6C8114798C7184134
:101A44005C57F19B93E717005CD79C429847931629
:101A5400370163D606029756000083C626DAC18A88
:101A640017570000130787D2E1C603470707136718
:101A74000702975600002383E6D8056798C798475E
:101A84009316270163D1060217570000034707C4C2
:101A9400620761876357070005479756000023874D
:101AA400E6C2096798C798479316070163D60602EA
:101AB4009756000083C696D4858A175700001307EB
:101AC400E7CCC9C6034717071367270097560000DA
:101AD400A386E6D2216798C77245E2455246C246BC
:101AE4003247A2470561730020300DDF8545631539
:101AF400B7001307B0060DBF89456315B700130778
:101B0400F0061DB78D456315B7001307300729BFCD
:101B14001307500711BF1307600739B7034736008F
:101B24001367170017560000A301E6BA094739B72F
:101B3400834607070946BD8A6388C600034707072B
:101B44008D463D8BE31BD7F2114725B78346170714
:101B5400918AC9D2034717071367870085BF1757B0
:101B64000000130767B88346B7019757000083C77F
:101B740077BAB69793F7F70FFD4663EAF6044C4B32
:101B840097560000A382F6B69757000083C7D7B5CF
:101B940005473317F70097560000A38DF6B66D8FEF
:101BA4001DEF9756000083C636B7B3F6D702130568
:101BB4000002814733D6F500058A13F8F70F09CEE2
:101BC4006399E60097570000A38007B382808117CA
:101BD4007DB705071377F70F8507E39DA7FC828080
:101BE40097570000938747999C43011122CC4EC616
:101BF40006CE26CA4AC852C456C2829797570000D6
:101C0400938787B0804781496305A406BE849757AC
:101C1400000093872792038767013E89635507066F
:101C2400018D135455009757000083C787AD9379EE
:101C3400F501636DF402370AC0A8B70A40570537A7
:101C44009C449756000083C6C6AB139756003E9734
:101C540083076901158C63C50700636347015697C1
:101C64009757000023A6E7AAE37BD4FC1604B369C4
:101C74003401F24062444E85D2444249B249224A78
:101C8400924A05618280E37D85F8B707C0A8338452
:101C94008740229579B7975700009387E78D9C4337
:101CA400411122C406C626C2829797570000938723
:101CB400A7A580476309A406BE84975700009387AD
:101CC40067878387670163D80704018D1354550020
:101CD4009757000083C7E7A26367F4044935984423
:101CE4009757000083C7E7A19396570036971D8C3A
:101CF4009756000023AEE6A0E372F4FE2244B240FD
:101D04009244175500000345359E8145410117B3A0
:101D140001E0670023C7E37A85FAB707C0A83384D4
:101D24008740229565B7B2402244924441018280A3
:101D3400975700009387479F9843B75702009387AC
:101D4400079F8326070913965600635806008326C7
:101D540007091396660063440600FD17FDF38280AD
:101D640071C5AA870145E9C58D07C207C183F19BE7
:101D7400C207C18313074003636FF70217570000BC
:101D8400130747A00843175700001307279F14435E
:101D94006398A602174700001307C779185B01452B
:101DA40041CB4111C20706C60545DD8D0297B240FD
:101DB400014541018280175700001307679CD9B77A
:101DC4000357650035E303574500636FF704B30613
:101DD400F7402146637CD6020328050093868700DA
:101DE4001D8FAA966117174600000356866F23922B
:101DF400E60023A006012393060014C12312F50074
:101E0400130786FF97460000239DE66C2313B50055
:101E14009745000083D5E56CB387F540174700006C
:101E24002311F76C2105828008419DB7014582800A
:101E340082800DC1975700009387C79403A30700BE
:101E4400975700009387879383A8070081469A8752
:101E540063E31701828003A80700636DF50A636BCF
:101E6400A80A13878700E367E5FE03D667002167A6
:101E740005076317E60003C7419E05072382E19E19
:101E8400974500009385856503D6470003D7650011
:101E9400239307003297420741831745000023121A
:101EA400E564638A6702175500001305658D0841D0
:101EB4006303F50203D5660019ED83D7460023A01A
:101EC400060121073E9621062392C600974700008B
:101ED4002399E760B6879843E30E17F797560000F7
:101EE4009386068A9442E307D7F683566700BDF2C9
:101EF40083D64700035647001843A106B29623929F
:101F0400D70098C383D76500A10717470000231A99
:101F1400F75C8280BE86C28725BF011197570000F7
:101F24009387C78622CC03A4870B26CA4AC84EC609
:101F340006CEAA8413092500854915C083C7140059
:101F440003473400858B6304F700405CFDB71946F2
:101F5400930544004A85EFE0BF8AE31835FF2285E4
:101F6400F2406244D2444249B2490561828041113F
:101F7400975700009387878122C403A4870B26C246
:101F84004AC006C693042500054901E82285B240EB
:101F940022449244024941018280A6851305A40289
:101FA400974002E0E780C0FFE30225FF405CF1BFF9
:101FB4004111974700009387677D22C403A4870BD0
:101FC40026C24AC006C693042500054901E82285B5
:101FD400B24022449244024941018280A6851305FD
:101FE400A401974002E0E780A0FBE30225FF405CE8
:041FF400F1BF000039
:101FF80097110020938181DB1761002013010100F4
:102008001305400097E5FF1F938545FF170600203D
:10201800130606FE63FAC5008322050023A05500B7
:1020280011059105E3EAC5FE177502001305050DB4
:10203800970500209385C5FB1386018C63FAC500BC
:102048008322050023A0550011059105E3EAC5FE8A
:102058001385018C97550020938585846377B50097
:10206800232005001105E36DB5FEFD42739002BC07
:102078008D42739042809302800873A0023097E2E9
:10208800FF1F9382A2F793E2320073905230975267
:1020980000009382023273901234730020303D4363
:1020A8002A876373C3029377F700BDEFADE5937694
:1020B80006FF3D8ABA960CC34CC30CC74CC74107F0
:1020C800E36BD7FE11E28280B306C3408A0697020B
:1020D800000096966780A6002307B700A306B700FE
:1020E8002306B700A305B7002305B700A304B7006C
:1020F8002304B700A303B7002303B700A302B70064
:102108002302B700A301B7002301B700A300B7005B
:102118002300B700828093F5F50F93968500D58D3F
:1021280093960501D58D61B7939627009702000015
:1021380096968682E78086FA9680C1171D8F3E960E
:10214800E374C3F8A5B782803D897D15954763EE92
:10215800A70E17670200130767D60A053A951C41B0
:10216800011106CEBA97828797050020938505440A
:102178000545EF90106117650200130525DAEF4059
:10218800425111A803C725008D47176502001305A2
:10219800E5D9E306F7FEF2400561828003C7250012
:1021A8009547E31AF7FE03D5A500239CA18083C7B2
:1021B800818299E3EFF0517D85472382F18C176581
:1021C80002001305A5D765BF03C725008D47E31493
:1021D800F7FC17650200130525D755B783C72500F7
:1021E8001147176502001305A5D76384E70419474B
:1021F800639AE70283C5650017650200130505D8D1
:102208002382018CEF40A234F957239CF180854743
:102218001306F100854513055030A307F100EFF0D0
:10222800314B95BF1547E394E7FE17650200130588
:10223800A5D6EF400246E1BF83C525001765020019
:10224800130505D7EF40A230B9B7828001112305E5
:10225800A1003400214685450D4506CE2314010012
:10226800A305010002C6EF10B063F2400561828049
:10227800011106CE22CC3A883E87B1E28D6793875A
:10228800D7A42A8EAE88328383460800631EF600E0
:102298008947639BF50085473544639DF60083476E
:1022A8000700898BA383F18C1A86C6857285EF2077
:1022B800202A2A842285F24062440561828085476B
:1022C8006396F600C286EF20402EE5B789470144A1
:1022D800E392F6FE1306F100854513055030A30777
:1022E8000100EFF0F13EF9B701119397050122CCF7
:1022F80006CE26CAC1872E8463DC070003C5A181E8
:10230800EF50A05319C1EF50204C2165218D3DA0FD
:1023180093F7150013C5150095E393F7450085C796
:1023280083C7A1811307803E814613060005C14576
:1023380003D58181EFF0510213454400F240624415
:10234800D2440561828093F785009DC30147894681
:102358000946814503D58181EFF05165AA85176546
:102368000200130525B7EF40821E13458400F9B714
:1023780093F70501C5C36C0013055030A305010090
:10238800EFF071220347C10085476319F700130670
:10239800B100854513055030EFF0913397040020C4
:1023A8009384C420A6850545EF90B03D31ED83C5E3
:1023B800518017650200130565B3EF303029130506
:1023C8004006EF30103283C7540003D58181FD17D2
:1023D800A382F18CC167F9176307F500EFF0D15AB2
:1023E800F957239CF1808347C1000547639BE700A9
:1023F8001306B100854513055030A305F100EFF031
:10240800312D134504011DBF83C7518C8507A38255
:10241800F180D1BF93F72500B9C703C5B1813D3518
:1024280083C7B181850793F7F70F7147636BF7028D
:102438000145A38DF180193DB70702009387072056
:1024480074001146854505453EC6EF1070451306D4
:10245800007D894503C5A181EF50901813452400DC
:10246800F1BD9147F1B79397350163DC0700938776
:1024780001829443114685450545EF107042056574
:1024880071B59397250163DC07009387C181944355
:10249800214685450D45EF10B040096585BD9397E8
:1024A800150163DC070093874182944305468545FF
:1024B8000945EF10F03E116591BD93F7050285C3FC
:1024C8000145EF30A05B176502001305E5A2EF3068
:1024D800F01785472383F18C1345040285B593F7DC
:1024E80005040145E38C07E49387018C90438145FB
:1024F80003D58181EFE0B1331345040481B501119F
:102508008D6585461306F100938545802D4506CED9
:1025180097E0FF1FE780E0EE8347F10019476373F8
:10252800F7008547F240A382F180056182807971C6
:1025380022D40D6406D6A307A1001304448085465F
:102548001306F100A285294597E0FF1FE78060EB9D
:1025580085461306F101A2852D4597E0FF1FE78008
:1025680040EA0347F1018347F100E31AF7FCB25050
:10257800225445618280011117050000130505D713
:1025880006CE22CC26CAEF5010469384A18105447A
:102598002380A40070008545130550302306810070
:1025A800EFF01113138681809D4513056030EFF01D
:1025B8003112170600201306A6A4D545130570305E
:1025C800EFF01111176602001306C693D5450145B1
:1025D800EFA06040894770009145130570402305BE
:1025E800F10023048100A3048100A305810002C631
:1025F800EFE0E1433000854513050040EFE021435B
:1026080013069100854513051040EFE0414213067B
:10261800A100854513052040EFE061411306B10094
:10262800854513055040EFE08140A9477000854576
:1026380005452306F100EF106042EF10105E970584
:1026480000209385E59A13850181EF10302403C596
:1026580004008545EF504067F2406244D24405616A
:102668008280411106C6EF20B04683C7B1939DC74B
:1026780023AC018CA38D0192EF20006905C19777E7
:1026880002009387A7A29C431D4783C72700638442
:10269800E7046362F7021147638DE7029387C18CF1
:1026A8009C431307200385076369F702B24023A6FA
:1026B800F18C410182805947638BE7006947E39FAA
:1026C800E7FC8547172700202326F726C1BF89473F
:1026D800D5BF8D47C5BF9147F5B7B24023A6018C3A
:1026E80041016F401069411106C622C483C7919504
:1026F80003C7418D6309F706238AF18C1765020029
:10270800130545F7A1C3EF30700003C7919583C740
:10271800418C6304F7002385E18219CF03C7C18D7B
:102728005D8F19CB03C7A1820DC3976502009385FE
:1027380065F42E85EF3090052244B2401D454101D5
:102748006F300079EF30007FC9B76382070E83C509
:102758005180D9479105B385F502976702009387A1
:1027680067F1BE95F9B783C7418C03C7518D6301E3
:10277800F708A38AF18C03C5518011055947330521
:10278800E502976502009385E5EE2E842E9585CBAC
:10279800EF30C07783C7919503C7418C6384E70006
:1027A8002385F182D1DB49DB83C7A182BDFF83C5C5
:1027B80051809105D947B385F502A2959DBFEF30A9
:1027C800607703C7618C8547E316F7FC05452383CB
:1027D800018C23A0018CEF30602A176502001305D5
:1027E800A583EF30A06613054006EF30806F5DB714
:1027F80083C7C18D03C7618D6303F704238BF18CF5
:1028080017650200130565E885CBEF30207083C794
:10281800919503C7C18D6384E7002385F182E38D19
:1028280007F0E30B07F083C7A182E39007F09765F1
:102838000200938585E5F5BDEF30C06FC9BFB24092
:10284800224441018280411106C6EF10507483C7AB
:10285800618C99E3EF10D077371700408327470C36
:1028680083C60193B98393C71700858B638FF600DE
:102878008327470C11672145F98F13B71700238861
:10288800E19291C32545EF30A064B24041016F1039
:10289800506903C7919585476314F7006F40102B63
:1028A800828015456F00B000411193962500AA85D6
:1028B8002D4506C697E0FF1FE780A0B4B24001454A
:1028C80041018280411122C426C24AC02A842E892D
:1028D800B284AA85930600200146254506C697E0DE
:1028E800FF1FE78000B2931629002686A285294596
:1028F80097E0FF1FE780E0B0B240224492440249CB
:10290800014541018280011122CC06CE37140040D6
:1029180026CA4AC84EC652C483447405034AB4053D
:102928008349840503499405EF00E0758347A405AE
:1029380093F4F40F137AFA0F93E71700230DF404B6
:1029480093F9F90F1379F90FB717004003C7A705D3
:10295800058B6DFF03D5C705A38D4705238C370568
:10296800A38C2705A38B9704F2406244D2444249C2
:10297800B249224A0561828083C76195B1C7238B1A
:10298800019423AC018C83C791950547639BE700AD
:1029980003C7A1826317F700894503C5D1876F5024
:1029A800A03203C7418C85476316F700856503C5C8
:1029B800A181F5B703C7C18D6318F700C145172575
:1029C80000200345A5FEE1BF828023AC018C83C7AC
:1029D80091950547639BE70003C7A1826317F7003A
:1029E800A14503C5D1876F50202E03C7418C854769
:1029F800630DF70003C7C18D6319F7009305000243
:102A080017250020034585FAF9BF8280411106C6C3
:102A180022C4EF20F00B83C7B1936384070EA38D04
:102A2800019223AC018C83C7618C054463958702AE
:102A38001385018CEF2050446315050C2244B240E5
:102A48002383018C03C5A181130600199305000493
:102A580041016F50E038EF20202B11CD83C79195AD
:102A6800639B870403C7A1826317F704914503C5D5
:102A7800D187EF50602583C7C193C1C7238E0192C8
:102A88009387018288430D468145050597E0FF1F1E
:102A9800E78040D183C7919505476391E70403C751
:102AA800A182631DF702894503C5D1872244B2403C
:102AB80041016F50602103C7418C85476316F700B9
:102AC800896503C5A18175B703C7C18DE315F7FAF9
:102AD800A14517250020034565ED61BF03C7418C5B
:102AE80085476316F700856503C5A181C1B703C78C
:102AF800C18D6318F700C14517250020034505EB74
:102B080075B7B24022444101828083C7919585CF31
:102B180083C7A1828DCB83C7118D03C7818C6304C2
:102B2800F7022384F18C411106C683C7818C17658F
:102B38000200130545B8A9C3EF30403DB2401D451A
:102B480041016F30E03883C7418C91CB83C7A182A4
:102B580099E783C7718C03C7818CE314F7FC83C79B
:102B6800C18D91CB83C7A18299E783C7018D03C724
:102B7800818CE318F7FA8280EF30C03BC1B70111AE
:102B88001306000B9305F100094506CE22CCEF1081
:102B9800906321ED8347F100A9CB1306000B814513
:102BA8000945EF103057138401820C4091461306F3
:102BB800000B3145EF1010721C4017550200130529
:102BC800254503C6270083C51700EF30202883C793
:102BD80091950547639FE70003C7A182631BF70030
:102BE800894503C5D187EF50200EF2406244056144
:102BF800828003C7418C85476316F700856503C546
:102C0800A181D5B703C7C18DE311F7FEC1451725CB
:102C180000200345A5D9C1BF41119397050122C4DE
:102C280006C626C2C1872E8463DA0700EF40F0404B
:102C380019C1EF4070392165218D35A893F715002A
:102C480013C515008DEB93F7250013C5250085E7FF
:102C580093F7850095C797F7FF1F9387A73D9C4378
:102C680082970966130606F4A14503C59182EF50C1
:102C7800201713458400B2402244924441018280C7
:102C880093F7052013C50520FDF793F745008DCB75
:102C980003C71194854797F4FF1F9384A43A631DD3
:102CA800F7009C4082972146914503C59182EF50D9
:102CB800201313454400C1B79C448297DC40DDB71C
:102CC80093F70510A9C79387818D9C431307F00ECE
:102CD8008507636FF70023ACF18C13060032930568
:102CE800001003C59182EF50A00F1345041061B77F
:102CF800130680079305E00A014523AC018CEF1009
:102D080070410D4597D0FF1FE780A05FF9B793F793
:102D180005018DC397F7FF1F9387C731DC4382975F
:102D280013060006C14503C59182EF50600B134599
:102D3800040191B793F7050881CF130600029305A4
:102D4800000803C59182EF50A0091345040825B770
:102D580093F7050291CFEF30603513060003930512
:102D6800000203C59182EF50A0071345040221B762
:102D780093F7050499C78547A38CF19413C50504F7
:102D8800DDBD9397250163D00702EF903126113EF0
:102D980037F60200130606E0896503C59182EF50F5
:102DA8002004096551BD939715010145E3D507EC4A
:102DB8001755020013058525EF30B20D1306006480
:102DC800916503C59182EF50A0011165B5B583C720
:102DD8007195A1C7A38B019483C791950547639B00
:102DE800E70003C7A1826317F700894503C5D187A8
:102DF8006F40906D03C7418C85476316F700856562
:102E080003C5A181F5B703C7C18D6318F700C14594
:102E180017250020034585B9E1BF82801D71494609
:102E2800975502009385C51917650200130545ECEF
:102E380086CE97E0FF1FE780609C01E917550200E6
:102E480013054519EF30F20401A0B7F600E07957F1
:102E580098CAFD57DCCA0567B7E700E023A0E7106A
:102E68001306F00290C223A0E71801000100130620
:102E7800C0038145480897E0FF1FE780A092972785
:102E880000209387E7E43ECA896793870780231C5D
:102E9800F100ED472312F1029547A301F10285479E
:102EA8002303F102B5472304F102A167938707E0E2
:102EB8003ECE970700009387679FBEC49707000020
:102EC800938787A0BEC68567938727D02315F1020D
:102ED800970700009387C77D3EDAB7F50700970785
:102EE8000000938787A23EDE8146970700009387FC
:102EF800879B7000E1051945BEC097D0FF1FE7808A
:102F0800405058088147994670003E96034606008F
:102F180085070507A30CC700E398D7FED24791C7DA
:102F28000357810185676373F70001A04808EF50D4
:102F3800402FAA8501C9175502001305E50AEF308D
:102F4800026101A0F6402561828075712D46975572
:102F580002009385A5ED0A8506C722C526C34AC186
:102F6800EF3082531306500781451305B100EFF087
:102F78000F9317050000130565CAEF50C026938408
:102F880091822380A40037140040EF30E02BEF102B
:102F9800D015EF20F03BEF10207BEF30203EEF40C4
:102FA800402B0327840C370904008D45336727011C
:102FB8002324E40C37050400C9268327C40C37F6FC
:102FC8000200130606E0B3E727012326F40C03C525
:102FD80004008965EF40D0600A85EF30826BEFF01E
:102FE8000FD2EF30600B014885470947C14661465B
:102FF8009D451D45EF20D0298A85175502001305E8
:10300800A500EF20B06413054006EF20906DBA408C
:103018002A449A440A4949618280797122D40D640C
:1030280006D6A307A1001304848085461306F10081
:10303800A285294597D0FF1FE780A03C8546130647
:10304800F101A2852D4597D0FF1FE780803B0347FC
:10305800F1018347F100E31AF7FCB25022544561AD
:103068008280B717004003C777051A0592054D8D72
:103078001377E70F13653500A38BE7041375F50F76
:10308800A38CA7048280B717004003C7770513777E
:10309800E70FA38BE704130700F8A38DE7043D4768
:1030A800238CE70413075003A38CE7048280B71628
:1030B8000040130670052380C604930780FA238016
:1030C800F6040100010003C7F60213678700A3870F
:1030D800E60203C7F6021377770FA387E60203C752
:1030E800E6021377C70F2387E60203C7E6021367D2
:1030F80017002387E6022380C6042380F604010014
:10310800010003C736057D78930E481F1377870F94
:10311800A389E60403C7360537160040116E136706
:103128001700A389E6042380F60483C736051167D0
:10313800130F400893E70702A389F60483D706050F
:103148001308281B930F3004D98F11672398F604AE
:103158007D179147894213037005930880FA8346C7
:103168003605A18AEDDE8356060583463605A18A13
:10317800EDFE83560605B3E6C6012318D60483463A
:103188003605A18AEDDE8355060583462605F98DA9
:10319800B306D702B695B386D5016371DF04FD1770
:1031A80093F7F70F85CFC29593961500B3C6F6032C
:1031B8006352B0028506858623006604230016053F
:1031C800010001008355C602AE96C206C1822316CD
:1031D800D60271B7FD16B3C65602F9BFB71600403E
:1031E80083C7360513873605A18BFDDB83D7060514
:1031F80083D706051166D18F2398F60493077005C7
:103208002380F604930780FA2380F6040100010066
:103218008347070093F7870F2300F70083470700CA
:10322800C98F93F7F70F2300F7003717004083473C
:103238003705A18BEDFFB717004003C73705218B72
:103248006DDF83D6070583C7270511667D16F18EC6
:103258003306F60285659307C003138705C83696BB
:10326800938605FAB396A600B386F602A1679385FE
:10327800559CB3C6F6029307803EB386F602B35751
:10328800A740B306D640B387D702B3C7B702635186
:10329800D0048507094793067005B3C7E7023717B7
:1032A80000402300D704930680FA2300D70496072A
:1032B800010001008356C702B697C207C1832316CF
:1032C800F7028347370593F7F70DA309F7048280C0
:1032D800FD17C9B7914763EEB702175702001307E6
:1032E80027D48A05BA959C41BA978287B7170040B8
:1032F80003A7470B1345F5FF698F23AAE70A03A71E
:10330800070B698F23A8E70A03A7070A798D23A06B
:10331800A70A8280B717004083A6470B1347F5FF1B
:10332800F98E23AAD70A83A6070B558D23A8A70AC7
:1033380083A6070A758F23A0E70A8280B717004083
:1033480003A7470B498F23AAE70A03A7070B1345CF
:10335800F5FF45BFB717004083A6470B1347F5FF96
:10336800758F23AAE70A03A7070A598D4DB7B71720
:10337800004003A7470B498FEDB7914763EEB702AB
:1033880017570200130707CB8A05BA959C41BA97CD
:103398008287B717004003A7470D1345F5FF698FCC
:1033A80023AAE70C03A7070D698F23A8E70C03A737
:1033B800070C798D23A0A70C8280B717004083A63D
:1033C800470D1347F5FFF98E23AAD70C83A6070DDF
:1033D800558D23A8A70C83A6070C758F23A0E70C8F
:1033E8008280B717004003A7470D498F23AAE70C2F
:1033F80003A7070D1345F5FF45BFB717004083A680
:10340800470D1347F5FF758F23AAE70C03A7070C91
:10341800598D4DB7B717004003A7470D498FEDB732
:10342800B717004003D7870109C5D98D239CB7007A
:10343800828093C5F5FFF98DD5BF011122CC26CA2C
:103448002E8432C636C43AC23EC006CEAA84312C77
:1034580037480F001308082433580503B7580040AD
:1034680083D5488082471247C205C18193F505FC80
:10347800C205C1812392B88083D54880A2463246CE
:10348800B365B800C205C1812392B88083D508808E
:10349800C205C181F999C205C1812390B880E1654F
:1034A8009385056A63EB850806043354850205662F
:1034B8009305C6FF114542044180E18D81C513057E
:1034C800F6FF618D05081306F003637406011308FF
:1034D800F0034208375600401358080123100683AA
:1034E80037560040231EA68083550680F24062446A
:1034F80093E515002310B68083550680C205C18167
:1035080093F555BFC205C1812310B6808355068047
:10351800CD8EC58EC206C1822310D6808356868082
:103528002314068083568680D244D58FD98FC2074C
:10353800C1832314F6800561828015E68D45B305A5
:10354800B4023355B5025205518111E10545216692
:10355800518D1306C0123308C8021306803E335833
:10356800C8020508BDB7E5453304B40211663355F2
:10357800850252055181518DD9BF37570040835775
:10358800078011C593E707102310F7808280C207D0
:10359800C18393F7F7EFC207C183FDB737570040E0
:1035A8008357078011C593E707202310F78082808F
:1035B800C207C18393F7F7DFC207C183FDB7375747
:1035C80000408357078011C593E707402310F78011
:1035D8008280C207C18393F7F7BFC207C183FDB7D3
:1035E800B75700402398A7808280B757004003D57B
:1035F80007811375F50F82809377E50F99C193675B
:103608001500C207C183375700402318F78082800E
:10361800375700408356478183578781C207D58F24
:10362800E98FA207A1833385A7401335150082804F
:10363800411102C4B757004002C6938707803EC6AF
:103648009357C5013EC4A2472205218199CBB247B1
:10365800D1073EC6B2479C4341017D8D3335A0005A
:103668008280B2474181E107EDB7B717004003D523
:103678008700420541819377050491EB9377F50123
:103688003755E801130505803345F50282809377A5
:10369800050C130700046397E7009377F501374596
:1036A8009C1CCDB72165130505D08280B7F700E0D3
:1036B8008847CC478280814737470040A14663C48A
:1036C800C700328582800345B7C0E38EA6FE3385E6
:1036D800F5000345050085072304A7C0CDB71205EB
:1036E8009A054D8D1365C5001375F50FB727004072
:1036F8002380A7408280B727004001E5A3800740C8
:103708008280239CB740239EC740154791E2054716
:10371800A380E7408280411122C406C62A84B137BB
:103728002947B307E502B2408D83B3D78702224405
:103738009507B3D7E70237470040C207C18323166E
:10374800F7C041018280716541111305052006C645
:10375800D937B7470040130770F82381E7C00D47F2
:10376800A381E7C013070004A380E7C005472387A8
:10377800E7C0B24041018280B7870040238007003C
:103788001307C0FC2386E700A386E700171700206D
:10379800035787222398E7001717002003570722AB
:1037A800239AE7001717002003578720239CE70078
:1037B8001717002003570720239EE7008946238117
:1037C800D70249472383E7022385E7022387E702D5
:1037D8002389D702A3810700130790022380E700FB
:1037E800B716004003D7A6011367070C239DE60010
:1037F8007D572383E700130710F8A380E7001D47D0
:103808002381E7008280B78700402382A70203C78D
:1038180067021377C70F2383E7028280B7870040C8
:103828002384A70203C7A7021377C70F2385E702DC
:103838008280B78700402386A70203C7E702137771
:10384800C70F2387E7028280B78700402388A70233
:1038580003C727031377C70F2389E702828093875B
:10386800818E9C43011106CE22CC91C38297938707
:10387800C19280439387C18E9C43131504014181F3
:1038880081C72AC68297324583D7E1826379F504D6
:1038980003D701836378A7049386418E03A30600A8
:1038A800630603006244F240056102838507998F2D
:1038B8001395070141819357250013150401418190
:1038C8006544198D330585021384F7FF2295334526
:1038D800F5021375F50FF240624405618280130505
:1038E8004006D5BF0145C5BF03A84500411126C202
:1038F80006C622C48347180003480800A944A20743
:10390800B3E70701C2070D68C187130828906396BB
:10391800070385473284EF90F01AAA8419ED93873C
:10392800018E9C4399CB03451400034704002205EC
:10393800598D1335150005058297B2402244268516
:103948009244410182802D453DE7D841411122C46E
:1039580026C206C68347170003470700B684A20796
:10396800D98F0D67930697A132846396D702C53D18
:1039780083C7B1826374F500A385A182854723902C
:10398800F40083C7B1822300F4000145B240224409
:10399800924441018280130787902945E398E7FE06
:1039A800CC4589472390F4000946228597D0FF1F0C
:1039B800E780C0DBD9BF828083474500858BADC7D0
:1039C800011122CC2A8403552500938581A606CEB1
:1039D800EF90100A058929C503552400014781463F
:1039E8000546ED45EF9000452AC61DC997E7FF1F1C
:1039F8009387076683D7A70201462C002314F1009A
:103A080085472315F10083C7B1822300F5000355CC
:103A18002400EFA0606309C5ED452800EF904059E8
:103A2800F24062440561828082804165411193853C
:103A380081A67D1506C6EFB04051B24097E6FF1F3C
:103A4800938606664146954517E5FF1F13054560B1
:103A580041016FB0A04423A0A18E8280411122C4ED
:103A680006C6854709446311F502834706000144E9
:103A7800A38EF18C03C7B1826378F70017050000A5
:103A88001305C5F3EFD0D0022285B240224441018C
:103A9800828085476301F50209C909476302E50287
:103AA8000D476306E5020945828083C7B1822380FA
:103AB800F500014582809387D18D83C70700C5BF74
:103AC80097E7FF1F83D767592390F500DDB7138762
:103AD8004183035707002392E50017E7FF1F1307E9
:103AE80027578356A7020357A7032383F50023907C
:103AF800D5002391E50075BF411106C68D3383C7F4
:103B0800B182637AF500A385A18217050000130529
:103B1800E5EAEFD0E079B240014541018280416792
:103B28007917630CE502411122C406C685472A8429
:103B3800639AF50022852244B240938581A641010B
:103B48006FB0A04089476396F5008545EFD0C070F7
:103B580075D1B2402244410182808280CC4141111A
:103B680006C6328503C6150083C5050022064D8E9C
:103B780042068D654186138875A2630C060F63485B
:103B8800C804138845A26306060B634AC8009385D8
:103B980035A26309B60623900600294679A0138842
:103BA80055A26308060B938565A2E316B6FEC145C8
:103BB8001D4663ECE5064546198E63F3C7003E864D
:103BC8002390C600974502009385054989A8138864
:103BD80095A26300060F634E060B1388A5A2630A1D
:103BE800060F938505A5E318B6FA99451D4663EEB9
:103BF800E502198E63F3C7003E862390C6009385BD
:103C0800C18331A89D451D4663E1E5022146198E11
:103C180063F3C7003E862390C6009385018FBA954B
:103C280097D0FF1FE78080B40146B240328541013A
:103C38008280AD451D46E3EAE5FE3146198E63F301
:103C4800C7003E862390C6009745020093858544A9
:103C5800F9B7B1451D46E3EAE5FC3546198E63F32D
:103C6800C7003E862390C60097450200938585438A
:103C78007DB7C1451D46E3EAE5FA4546198E63F36B
:103C8800C7003E862390C600974502009385053EEF
:103C980079B7C1451D46E3EAE5F84546198E63F351
:103CA800C7003E862390C60097450200938585404D
:103CB800BDB7C1451D46E3EAE5F64546198E63F3EF
:103CC800C7003E862390C600974502009385453B72
:103CD800B9B7B5451D46E3EAE5F43946198E63F3ED
:103CE800C7003E862390C600974502009385C535D8
:103CF8003DB797E6FF1F9386664E4146CD4517E5CB
:103D0800FF1F1305A53A6FB0601982809387C19091
:103D18009C4303C7019083C6718501E781473E85AF
:103D2800828003D607006316A60003C66700E3086F
:103D3800D6FE7D171377F70FA107C5B7B2862E8673
:103D4800AA85174502001305A53B6F2052000111F3
:103D5800930500030D4506CEEF602022930500056C
:103D68001145EF6080219305C0030545EF60E02011
:103D780085471306F100854513055030A307F10068
:103D8800EFE00115F24005618280938741909C43E2
:103D9800328791C703A3870063030300028309CB1B
:103DA800130600199305000203C5A1816F40400363
:103DB80082808547631CF5001166130686A989452C
:103DC800171500200345C5BF6F4080018947631957
:103DD800F500894517150020034585BE6F40A01CD6
:103DE800828085476398F50019E2238DB18E238878
:103DF800C190828009476399E50019E6238DF18E09
:103E080003D5818F6F0050088280011193970501B7
:103E180026CA06CE22CC4AC84EC652C4C187AE8432
:103E280063D9070817150020034585B9EF30F0203E
:103E38002A8439C9034705009307000D6313F70463
:103E4800834725004547638BE7046547639BE70283
:103E58001745020013054527EF20626F1309540028
:103E68009309B400174A0200130A4A278345090038
:103E780052850509EF20A26DE39A29FF2945EF2015
:103E880002712285EF3050142165258DF24062447D
:103E9800D2444249B249224A0561828003466500FC
:103EA80083457500174502001305C523EF20226AD4
:103EB800C9BF93F7150085C317E6FF1F1306C6325F
:103EC8009385818417150020034585AFEFD0714F86
:103ED80013C5140065BF93F725000145C5DB2939D3
:103EE8001166130686A9894517150020034545ADB7
:103EF800EF30106F13C5240051BF797126D24ECE12
:103F080006D622D44AD052CC9147AA84AE896314EB
:103F1800F50483D7A5001306E10085451305503045
:103F2800239CF18E23070100238D018EEFD0517A57
:103F3800938741909C4391C7DC4781C7CE852685EE
:103F48008297B250225423AE918E02599254F2496C
:103F5800624A456182801387C18F1843E31AF7FCD0
:103F6800854503D5818F653E854503D5818FEF0053
:103F78006077C16703DA818FF917631BFA0205447A
:103F88009305E10013055041238D018EA38B818495
:103F980023070100EFC071028347E100B1E303C7C3
:103FA80001919147E316F7F85D332388019049B7EB
:103FB8009387C19003A9070003C4019069D00355F2
:103FC800290011C99305E100EF90901009C54C45EF
:103FD8005285EFA090777D141374F40F2109F9BF6F
:103FE800938781909C4383C74700898BCDDB9305DA
:103FF800000A0D45EF5070789305000A1145EF50FF
:10400800D07781450545EF5050771306E100854587
:104018001305503023078100EFD0916B49B7011188
:10402800170500001305A5DE06CE22CCEF40A01B25
:10403800171400201304C49885471306F10085451A
:104048002300A40013054041A307F100EFC0311E6F
:104058007D55EF8070267D55EFA0106C5939EFF033
:10406800DF9CD52B170500001305E5D4EFF0BF9EA4
:10407800170500001305A5C9292503450400854532
:10408800EF309044F24062440561828023A2B190EF
:1040980023A4A190828023A6B1902380A19082803E
:1040A8009387C18F9C43797106D622D426D24AD0F1
:1040B8004ECE52CC1147639BE70483C7A18F41447E
:1040C80081CF9387C1908043B284B68983C701901A
:1040D80003C7718599EB55442285B25022549254F6
:1040E8000259F249624A4561828083464400639AD4
:1040F800A600834654006396B60083466400638036
:10410800E606FD1793F7F70F2104E9B7094741447D
:10411800E384E7FC2C001305504123040100EFC0A1
:10412800C169834781008DCB930500020D45EF508F
:10413800D064930500031145EF503064954505455B
:10414800EF50B06385473000854513055030230490
:10415800F100EFD0F15749B7DD3E4144B5BF0355F3
:10416800240093056100EF90A07635D54C4503D522
:10417800818FEF90E00F058939DD139904011359F8
:104188000901014781464A86ED4503D5818F035AC7
:104198000400EF80304A2AC64D441DDD2686CE85B0
:1041A800231441012315210197C0FF1FE780005CFC
:1041B80001462C0003D5818FEF9010692A84E30D06
:1041C80005F0ED452800EF80B05E39B7C841011110
:1041D80022CC06CE3284034615000345050022068C
:1041E800498E19CB0D681308B8A42D45630A060734
:1041F800F2406244056182800D651308D5A463000E
:104208000603130825A2630C060175781308E85CF9
:104218003298420813580801854863EF080303D50C
:10422800A50036C632C4EFF07FAEB24615C19387FB
:1042380041909C4322468345550003A30700A2876B
:104248006244F2400345450036878546056102838E
:1042580023900600014569BF1308B5A46317060338
:1042680003D6E1851D45E375C7F8198E63D3C700EA
:104278003E86CC452390C60042064182BA952285E7
:1042880097C0FF1FE780804EF1B79307A5A4631876
:10429800F60091472390F6001146CC45CDB7930719
:1042A80085906317F60089472390F6000946F5B70D
:1042B8009307E5A4631AF600DC452390160183C72B
:1042C80007002300F40079B713057590E314A6F8E6
:1042D800D9BF011122CC06CE26CA4AC82317D1005D
:1042E8002D4431EBDC412E89B28403C4170083C707
:1042F800070022045D8C8D679386D7A46306D400DB
:10430800938627A36310D4040355A900EFF01FA0D8
:1043180019E101440DA0938741909C4383455500C2
:104328000345450003A807002286A6871307E10076
:10433800814602982A842285F2406244D244424946
:10434800056182809386C7A46314D4028357E10071
:1043580005473544E391E7FE0345060013040008CA
:10436800E3EBA7FC938741909C43DC43829755B7C6
:1043780093862790631AD4028356E1008547EF801D
:1043880070742A844DF99387C1908356A9009C4381
:1043980003C701903DDF03D627006302D6047D17CB
:1043A8001377F70FA107FDB79387E7A4E313F4F694
:1043B8008357E10005473544E39FE7F603450600C8
:1043C80013040008E3E9A7F6DC452380A7009387D8
:1043D80041909C433335A0000905DC4341BF138756
:1043E8004190184303C5470083C5570083C714008D
:1043F8000328070003C70400A2078946D98FC2070C
:10440800C18705476383E7008D460D66A6871307B6
:10441800E10013062690029839BF411122C4416475
:104428001305F4FF938581A906C626C24AC0EFA0EA
:10443800D0311305F4FF938581A8EFA0103113053F
:10444800F4FF938581A797E4FF1F9384A4DAEFA074
:10445800D02F97E6FF1F9386E6F74146F945268554
:10446800EFA0D023CC4C2A890945EFF08FE21387BF
:10447800818693870187834507000346170083D702
:10448800070003D7A410138481AA2312F40023146D
:10449800E40083D7A40C03D7A411A306C400A30E79
:1044A800C40003D6A4172310F4002315E40083D70F
:1044B800A40D1387C1868346070003D5A4140347B8
:1044C8001700231CC40003D6A4182311F400854741
:1044D8002303F4002307F400230AD400230BF40079
:1044E800231DC4002302D4022306B400A30AE40057
:1044F8002318A400230EB40023190400230F04007A
:10450800A302E40203D7A41A2307F4022311040226
:104518002310E4021387418603570700230304028C
:10452800231504022316E40203D7A41C938581AD46
:104538000D452314E402EFF0CFD5A2852145EFF015
:104548009FB5B24022444A85924402494101828083
:104558008D67138527A36301A6049387D7A4014514
:10456800631EF6008947639CF500854735456397C8
:10457800F60083470700238BF190014582808D4721
:104588002945E39DF5FE85473545E399F6FE8347C2
:104598000700238AF190D5B785473545E390F6FEA5
:1045A80083470700A389F190C9BF8D67138527A3A7
:1045B8006308A6029387D7A46317F6028947639B0B
:1045C800F50083C761912300F70085472390F60023
:1045D800014582808D476398F50083C74191E5B70F
:1045E80083C73191CDB723900600DDB7014582809E
:1045F80025E303A84500AE88834718000348080050
:10460800A207B3E707010D68930EF8A4639AD703CE
:1046180091473548639FF60203A5C8004111B2854A
:10462800114606C697C0FF1FE78040149387419242
:104638009C4305458297B2400148428541018280EA
:104648009308289029486396170185476F809047FB
:104658002D484285828041654111938581AE7D1543
:1046680006C6EFA0900EB24097E6FF1F938646DD80
:104678004146994517E5FF1F130585D641016FA0EF
:10468800F00123A2A19282800111938581AE22CCF0
:1046980006CE2A84EF80D03D058929C1014781468D
:1046A8000546ED452285EF80E0782AC605C997E7DB
:1046B800FF1F9387E7D283D7A70501462C00231451
:1046C800F10085472315F100230005002285EF90AE
:1046D800B01709C5ED452800EF80900DF2406244FF
:1046E8000561828041677917630CE502411122C494
:1046F80006C685472A84639AF50022852244B2407B
:10470800938581AE41016FA0500489476396F500F7
:104718008545EFC0703475D1B24022444101828092
:104728008280B717004017070020130787292394B2
:10473800E706170700201307072A2396E70613073B
:1047480010FCA380E706828041118545116506C6E5
:10475800EFE0BFC2814513050010EFE0BFB7894500
:104768000145EFE01F90B71700403147238CE7045D
:104778000547238DE704A38107066537B24003C5C3
:10478800918213060064A14541016F3060651707E7
:10479800002013070723970600209386C623814726
:1047A800035607000907B297E31CD7FE2947B3D77A
:1047B800E7021387819218439386870C63E9E60022
:1047C8001387C192184323A4E19223A6F192828011
:1047D8009386C1929C424111056726C206C622C42F
:1047E800130697E7B6840145637CF600930697EDB8
:1047F800054563F7F6001305B7F33335F5000905EA
:10480800138781921443B387F64013D7F741334493
:10481800F700198C0567130697E78147637CD60074
:10482800130697ED85476377D6009307B7F3B3B7B9
:10483800D70089076385A7002905EF1060699307EA
:10484800100381451305800763D18704EF00D074F6
:10485800130680079305100E130500046528130638
:104868008007AD451305000475208D451305F00537
:10487800EF00907222449040B240924491468D4598
:104888001305F00541016F102002EF00F0701306C8
:1048980080079305000E13050004AD281306800752
:1048A8008145C9B701119307F00F22CC26CA06CE5D
:1048B8003EC62A84AE8409CE2685029419CDB24715
:1048C80089CFB247FD173EC6C5BFB247FD173EC6E2
:1048D8002685029419E1B247EDFB3245F240624465
:1048E800D2441335150005618280411185450D6557
:1048F80006C6EFE09FA8B240B7250600930720053B
:104908001167930600400146938505A801454101BA
:104918006FE0BFB2011126CA4AC84EC62E89AA89BD
:10492800B284B7050200054617F5FFFF130585D0C9
:1049380006CE22CC853F2A840545EFE01FC4B70583
:1049480003000146850517F5FFFF1305A5CC993F20
:104958002A9481452685EFE03FCAB704070093856E
:104968002408014617F5FFFF1305C5CA253F137430
:10497800F40F2A944E85EFE0BFC6938504080146DC
:1049880017F5FFFF130505C9313F1374F40F2A9477
:104998004A85EFE0FFC493850408014617F5FFFF39
:1049A800130545C701371374F40F2A940545EFE042
:1049B800FFBE1374F40F2285F2406244D244424988
:1049C800B2490561828001114AC852C456C232896F
:1049D800AA8A2E8A0546B705020017F5FFFF1305B8
:1049E80065C506CE22CC26CA4EC66D3D2A8405452D
:1049F800EFE0BFB8B704030001469385140017F52C
:104A0800FFFF130525C1793D2A9481454A85EFE0CA
:104A1800BFBEB709070093852908014617F5FFFFB0
:104A2800130545BF41351374F40F2A945685EFE0FA
:104A38003FBB93850908014617F5FFFF130585BDA0
:104A480095351374F40F2A940545EFE01FB301461A
:104A58009385140017F5FFFF1305C5BBA135137423
:104A6800F40F2A9485454A85EFE01FB99385240001
:104A7800014617F5FFFF1305E5B92D351374F40F3B
:104A88002A940145EFE09FB10145EFE05FB3B70518
:104A9800001001469385050417F5FFFF130585B936
:104AA80011351374F40F2A94EFE03FB42300AA00E1
:104AB8000545EFE0BFAE0545EFE07FB01374F40F96
:104AC8002285F2406244D2444249B249224A924A7B
:104AD8000561828001114AC84EC65AC0B2892A8B24
:104AE80005462E8917F5FFFF1305C5B4B705020063
:104AF80006CE22CC26CA52C4B68456C265332A844E
:104B08000545EFE09FA7370A0300014693051A0001
:104B180017F5FFFF130505B071332A9481454E85BB
:104B2800EFE09FADB70A070093852A08014617F5FD
:104B3800FFFF130525AEBD331374F40F2A945A856D
:104B4800EFE01FAA93850A08014617F5FFFF130532
:104B580065AC893B1374F40F2A940545EFE0FFA177
:104B6800014693051A0017F5FFFF1305A5AA1D3B7B
:104B78001374F40F2A9485454E85EFE0FFA793053B
:104B88002A00014617F5FFFF1305C5A8213B13743A
:104B9800F40F2A94B709001001451374F40FEFE0DD
:104BA800FF9F130AF00F9389090497FAFFFF938A6E
:104BB8006AA8FD1493F4F40F639344030545EFE0EA
:104BC800FF9D0545EFE0BF9F2285F2406244D24435
:104BD8004249B249224A924A024B05618280014504
:104BE80091C00545EFE0BF9D0146CE8556855D39EC
:104BF8002A940509EFE07F9F1374F40FA30FA9FE11
:104C08004DBF41119306400517060020130606E222
:104C18008965294506C622C497B0FF1FE780607ED4
:104C280089651374F50F93064005170600201306CF
:104C3800A6DA93850540294597B0FF1FE780607C79
:104C4800418DB24022441375F50F41018280011154
:104C580013064005973502009385856317050020E4
:104C68001305C5DC06CE22CCEF101203130640054F
:104C7800973502009385C555170500201305C5D53E
:104C8800EF109201BD3F0D641306F10093050480F7
:104C980085462945A307010097B0FF1FE780607686
:104CA80085471306F1009305448085462945A307E7
:104CB800F10097B0FF1FE780C0741306F100930559
:104CC800848085462945A307010097B0FF1FE78028
:104CD8004073F24062440561828097070020938701
:104CE800E7D497060020938626CF03C737056318B5
:104CF800B700A389A704FD17E399D7FE19B7E31CEA
:104D0800A7FEA389B704C5BF411106C622C483C73D
:104D1800A193638B072217D7FF1F034777306315CB
:104D280007228546A382D19497D7FF1F83C7472FB1
:104D380003C7819385E311C70145B240224441016D
:104D48008280238CD19283C7919393F7070FA38C0A
:104D5800F192DDB789466310D70203C79193914654
:104D68006315D700A38AF194C1BFA146E316D7FC07
:104D7800A381F194D1B719466398C700238CD192C7
:104D880083C79193B18BE1B7D546639BD70093074F
:104D9800100B6308F71A930710FB238CF19295A860
:104DA800C5466399D7009307200B630CF718930740
:104DB80020FBE5B7C1466399D7009307300B630220
:104DC800F718930730FBD1BF95466399D70093072F
:104DD800000B6308F716930700FBC1B79306D002D0
:104DE800639CD7029307100C630DF714930710FC0C
:104DF800238CF1929387418298438347070093E776
:104E080007012300F70097D7FF1F9387E7219C47E7
:104E18008297A38C01920DB79306E0026392D702A2
:104E28009307000C630FF710930700FC238CF19293
:104E38009387418298438347070093E78700D1B758
:104E48009306C0046398D7009307E00F630BF70E2F
:104E5800F957A1B7930650036399D7009307000D3C
:104E68006301F70E930700FD0DBFDD466399D70078
:104E78009307100D6307F70C930710FD39BF9306CE
:104E880070026398D7009307000E630CF70A8157E6
:104E980029B7F9466398D7009307100E6303F70AFA
:104EA8008557E5BDFD466398D7009307200E630A32
:104EB800F7088957DDB5930600026398D700930772
:104EC800300E6300F7088D57C9BD9306100263982A
:104ED800D7009307400E6306F70691577DBD9306EA
:104EE800A0036398D7009307000F630CF704C1571A
:104EF8006DB59306B0036398D7009307100F63024C
:104F0800F704C55759BD9306C0036398D7009307A4
:104F1800200F6308F702C95749B59306D003639871
:104F2800D7009307300F630EF700CD57BDB5930632
:104F3800E0036398D7009307400F6304F700D15745
:104F4800A9BD238C0192F1B503C751940545E31619
:104F5800A7DEE39407DEA382019483C781939306B7
:104F6800100D638BD72E63E9F60E9306200B638032
:104F7800D72463E0F6060947638EE71E636CF702E1
:104F8800E39CA7DA83C59193C10593F5F50FA38C2C
:104F9800B19293070005639FF51AA38C0192238CA5
:104FA8000192EFF0DFCA173502001305A527EF00BD
:104FB800F06945A01307000B6386E7201307100B61
:104FC800E39CE7D6238C019297B0FF1FE7806030FF
:104FD800A5B39306000C638FD72063E5F60293060A
:104FE800300BE39BD7D4238C019283C7C18DE39503
:104FF800E7D493050004170500200345259BEF20FF
:10500800B04C1DBB1307100C6385E71C1307000D7C
:10501800E394E7D2238C019283C7418C03C7C18DE7
:10502800D98FE39B07D083C7818293B71700854543
:1050380013868182130550302384F182EFC05169B1
:10504800AA85630E051E173502001305E51FEF003C
:10505800F05F1305400621AA1307100F638FE7229C
:105068006365F70A1307400E6362F7081307100E0B
:1050780063F7E7201307000EE390E7CC03C5A1828E
:1050880013351500238C01922385A18283C791953E
:105098008DCB83C7418C03C7C18DD98F9DC3F94779
:1050A8003305F502014681456905EF00504483C781
:1050B800A1821305800391C3694505468145EF0028
:1050C800104383C7A182173502001305651AE390C0
:1050D80007EE83C7C18D173502001305E519E3886C
:1050E80007EC173502001305A519D1B51307000FF2
:1050F800E394E7C4238C01922380A19497270000AE
:10510800938707B523A0F18805B91307400F638873
:10511800E71A6364F7021307200F6389E718130778
:10512800300FE39BE7C0238C019285472380F194DD
:1051380097270000938727CDF1B71307E00F638403
:10514800E70C1307F00FE399E7BEA38C0192238CB9
:105158000192DDB69307F002E3F0B7BE91811735EF
:1051680002001305E50CEF00704E13052003EF0055
:105178005057D9B683C79193910793F7F70F3147E3
:10518800E397E7BC173502001305450BA38C019282
:10519800238C0192EF00904B13054006EF007054EA
:1051A80083C5519503C53194EFF03FB371B6238C95
:1051B800019283C7C18D01456383E7000545EFD0A0
:1051C800DFE519B5238C019297B0FF1FE780C00B6C
:1051D800A5B6238C019293874182984383470700A1
:1051E800BD9B2300F70097D7FF1F9387E7E39C47F2
:1051F800829799B6238C019293874182984383477B
:105208000700DD9BF9BF238C019283C7119495E3B6
:10521800054423808194972700009387670823A07B
:10522800F188EF20602E0545EF00905DA380819402
:1052380021B60145EF00D05CA3800194F5BC83C77B
:105248008182173502001305A500E39207D61735AA
:10525800020013056500A1BB238C019283C7C18797
:1052680013B71700238EE18617350200130545FF93
:10527800E38F07D217350200130505FF0DBB93878F
:1052880007021306401FC14503C5A181A382F1800F
:10529800238C0192EF20D03445B4238C01922380D3
:1052A800A194972700009387679CA9BD238C01923E
:1052B8002380A19497270000938767AAA1B5238C20
:1052C80001922380A19497270000938787C01DBD72
:1052D80083D7E1931387F7FF5D71420786C6A2C49F
:1052E800A6C2CAC04EDE52DC56DA5AD85ED662D49E
:1052F80066D26AD06ECE4183DD4663EAE614614722
:105308006398E70017F7FF1F1307076D23ACE186C3
:105318008507239FF192138B81AF173A0200130A76
:10532800AAE701495A8C938B818797FAFF1F938AC2
:10533800EA6F97FCFF1F938C2C6A138D418797D9CE
:10534800FF1F938969CD19473307E90203C42194E4
:10535800B716004003260A0083A6460AF18EB30753
:10536800EB00A29783C50700639A051ED1E683A7C1
:105378000B0083C641873E979D47229763F8D70065
:10538800034607009307F00D63F8C70699473306ED
:10539800F9028545B307CC00A2972380B70093870D
:1053A80001888C43972700009387E7A5639BF50244
:1053B80097370200938707F3B297A29783C707002E
:1053C8001306F00F638FC7000D463386C702938715
:1053D80001D1B2973D462381C700A380C70023802F
:1053E800C7000546A38DC192834707009305F00FB8
:1053F800639EB70C238DC1920509B947110AE314BE
:10540800F9F4130714001377F70F2381E194973702
:105418000200938767F20A04371600403E948326F9
:10542800860C0C40CD8E2324D60C954663F4E600FA
:105438002381019483C621948A0637160040B697C3
:105448000327C60C9C43D98F2326F60C8DA083C74F
:105458003195E38207ECFD1793F7F70FA389F194D1
:10546800E39B07EA17D4FF1F130404BB8144930985
:105478009003154A194983478400639E3701330610
:105488009A409305940013058400EF10E20097D723
:10549800FF1FA38907B885040504E39E24FD83C77D
:1054A8004187FD17238AF1868547A38DF192B6407F
:1054B800264496440649F259625AD25A425BB25B74
:1054C800225C925C025DF24D616182801306F00EEF
:1054D8006374F60217470200130787BD14439387C6
:1054E80007F1054703C60600B317F700D18F2380DD
:1054F800F600238EE19209B71306F00D637FF600DC
:105508000547938707F2B317F70003C76900D98FD8
:1055180017D7FF1F2305F7B0C5B59947B307F90299
:10552800D697A29703C60700930790036316F60061
:105538008547239FF192C9B593871600238AF18680
:1055480083470700CE962383F60083D7E19393B76A
:10555800970193C71700238AF19479BDE38E06E873
:10556800238007008547A38DF19283A70B0093063C
:10557800F00FBA97A29783C707006395D700238DCA
:1055880001929DBD9306F00E63F2F60217470200E2
:10559800130707B21443938707F1054703C60600AC
:1055A800B317F70093C7F7FFF18F91B79306F00D84
:1055B80063FDF6000547938707F2B317F70003C7A3
:1055C800690093C7F7FFF98FA1B7B387EA00A297DD
:1055D80083C60700930790036395F60483D7E19386
:1055E80061476374F70023AC518703C7419501C72E
:1055F80061476363F70283C741871D47636EF700FE
:105608001147A389E19413871700238AE186CE976F
:10561800130790032383E700239F0192238A0194B1
:10562800E1BB669797DDFF1F938D0D9F9547B304E8
:1056380087007D5803C78D006386E60003C6040013
:105648006312E6023E8693859D0013858D003EC455
:1056580036C6EF00726497D7FF1FA385079CB24632
:10566800A2477D58FD17850DE39607FD83470D007A
:10567800FD17238AF18649B3B707030401119387FD
:1056880017203EC2B7070708938757603EC4A5474F
:105698002316F10006CE22CC26CA17D7FF1F0347D0
:1056A80027989306A00283C74194631CD7041387E5
:1056B800C1948DC3FD1793F7F70F2382F194BA971E
:1056C80023800700938781949C43A946B3D7D702C8
:1056D80023A4F1948307070089EF17350200130507
:1056E800A581A52505442285F2406244D24405617E
:1056F80082809385C194173502001305E590B12582
:10570800D5B79946639FD702930780020544E31CE7
:10571800F7FCAA8405459D26173502001305C5B672
:105728002D2513054006EF00C07B938781949C4389
:1057380001449CC0238601942382019423A40194EC
:105748005DB7930627FE93F6F60F25460544E36CEE
:10575800D6F814083697834667FD1387819410435B
:1057680029479385C1943307C702173502001305EB
:10577800A589369723A4E194138717001377F70FA9
:10578800AE97938606032382E1942380D7002E9751
:10579800230007005D2B81BF411113050502938586
:1057A80005FB22C4130680071374F50F93F5F50F54
:1057B800014506C6EFF00F9693554400130680077F
:1057C80093E505010145EFF0EF949375E400224459
:1057D800B2401306800793E51500014541016FF0BB
:1057E8006F93411122C44AC006C626C21304000B97
:1057F8001309800B13068007A2850145EFF08F91EE
:105808001306800781450145EFF0CF901306800706
:10581800C1450145EFF00F90930400081306800777
:10582800814513050004FD14EFF0CF8EE5F805045B
:105838001374F40FE31024FDB24022449244024949
:105848004101828001119317850122CC06CE1304F1
:1058580006FE26CA4AC84EC6E1871374F40F63D6FB
:105868000700850593F5F50F01453D3719463304C3
:10587800C402814497390200938909BC1949B307C6
:105888009400CE9783C5070013068007130500040C
:105898008504EFF02F88E39424FFF2406244D24459
:1058A8004249B24905618280797152CC138AF6FF68
:1058B80022D426D24AD04ECE56CA5AC85EC662C430
:1058C80066C206D62A8BAE89B28B1374FA0F814C46
:1058D80001499304F00FA94A194C631F9404B2506C
:1058E800225492540259F249624AD24A424BB24B6C
:1058F800224C924C45618280B38757037D171377FA
:10590800F70FE31B97FEB3D7FB02B3F757033385B3
:105918008C0313F6F70F5A951375F50F63120902E6
:1059280063D04C0389EF13060002CE857D14193F1E
:10593800850C1374F40F55B722878547C1B70549FD
:1059480013060603DDB7011122CC26CA4AC84EC683
:1059580052C406CE2A842E89B2898144130A80074C
:10596800B387990003C6070009EAF2406244D244AB
:105978004249B249224A0561828022851904CA85B2
:105988001374F40FC13563768A0009091379F90F86
:105998000144850493F4F40FE1B7011122CC26CA1F
:1059A8004AC84EC652C456C206CE5AC02A89AE84C8
:1059B800328AB689BA8A014463EC3401F2406244FF
:1059C800D2444249B249224A924A024B0561828036
:1059D800A6854A85D133330B8940B3078B0093F7EB
:1059E800F70F63E64701850493F4F40FF1B7B38723
:1059F8008A0083C507001306800713050004EFE03B
:105A08007FF10504D9BF011122CC4AC84EC652C441
:105A180006CE26CA2A892E84328AB689636A340158
:105A2800F2406244D2444249B249224A0561828026
:105A3800A2854A859533CA8463E644010504137434
:105A4800F40FE9BF13068007814513050004850498
:105A5800EFE05FEC93F4F40FC5B799473305F5020F
:105A68000D8E634BA6003305A64009463345C50293
:105A7800AA9513F5F50F82800145828013068007E9
:105A88009305E00201C59305F00201456FE09FE828
:105A9800011122CC26CA4AC8AA842E8432899305C9
:105AA800E00213068007014506CE3EC23AC442C052
:105AB80036C6EFE03FE6130680079305300A014536
:105AC800EFE05FE5CA85130680070145EFE09FE434
