:040000006F2000333A
:10000400000000000000000090000020BA0400205E
:10001400A9BDF9F5940000200000000000000000D4
:10002400960000209800002000000000000000005E
:100034009A000020000000009C0000200000000046
:100044009E0000206E0600207E060020A4000020F2
:10005400A6000020A80000205A060020AC000020C2
:10006400AE000020B0000020B2000020B400002048
:1000740040060020B8000020BA000020BC00002088
:10008400BE000020C0000020C2000020C4000020E8
:1000940001A001A001A001A001A001A001A001A054
:1000A40001A001A001A001A001A001A001A001A044
:1000B40001A001A001A001A001A001A001A001A034
:1000C40001A001A001A041118146014681451145CD
:1000D40006C6B525B727004011472383E780B7F745
:1000E40000E003A707D16D9B23A8E7D003A707D19E
:1000F4005D9B23A8E7D07300501001000100B240BB
:10010400410182804111814601468145114506C65F
:100114003D25B727004011472383E780B7170040E8
:1001240003C7E70283C6E70483D7870311661377FF
:10013400F70F93E6360063E5C700719B136717005A
:10014400B7170040930570052380B704130680FA9F
:100154002380C70401000100238207022387E702EA
:100164002387D70403C7B70413670702A385E704EB
:100174002380070437F700E0832607D193E646007F
:100184002328D7D0832607D1DD9A2328D7D073001C
:100194005010010001002380B7042380C70401002C
:1001A400010003C7B7041377F70DA385E704238081
:1001B4000704B24041018280B717004083C6E702BA
:1001C40003C8E70483D78703116793F6F60F136810
:1001D400380063E5E700F19A93E61600B71700408C
:1001E400930570052380B704130680FA2380C7049F
:1001F40001000100238207022387D7022387070512
:1002040023800704B7F600E003A806D1136848006A
:1002140023A806D103D7070213770760498F6575B2
:100224001105498F4207418301002380B7042380CD
:10023400C7040100010003C5F70013650504A38783
:10024400A70003C5B70413650502A385A70423907B
:10025400E70203A706D15D9B23A8E6D073005010E4
:10026400010001002380B7042380C70401000100BA
:1002740003C7B7041377F70DA385E70423800704A6
:10028400828001114EC681460146AA8981451145E5
:1002940006CE22CC26CA4AC85D21B716004083C7C1
:1002A400E60203C7E60483D68603116693F7F70FC5
:1002B4001367370063E5C600F19B93E71700371413
:1002C40000401309700523002405930480FA2300D9
:1002D400940401000100230204022307F40223070B
:1002E400E4042300040413055002AD28B7F700E02A
:1002F40003A707D11367470023A8E7D023002405E9
:1003040023009404010001000347F4001367070469
:10031400A307E4002567B3E9E9002310340303A726
:1003240007D15D9B23A8E7D07300501001000100A2
:1003340081460146814511451921230024052300E6
:100344009404010001008347640493E71700230326
:10035400F40423000404F2406244D2444249B24902
:1003640005618280B7170040930670052380D70487
:10037400130780FA2380E7040100010003C6B704D1
:100384001376F60DA385C7042380070413760502AC
:1003940051CE03C6A700118A1DE22380D70423800F
:1003A400E7040100010003C7A70013674700238582
:1003B400E7009307004B01000100FD17EDFFB7179D
:1003C4000040930670052380D704130780FA238026
:1003D400E704010001007D892394A70001000100C6
:1003E40001000100238007042380D7042380E7044D
:1003F40001000100372700408546A303D7802380EE
:100404000704B7170040130770052380E704130798
:1004140080FA2380E7040100010003C7B7041367CF
:100424000708A385E7042380070482801376050464
:1004340025CA03C6A700418A1DE22380D70423806E
:10044400E7040100010003C7A70013670701238520
:10045400E7009307007D01000100FD17EDFFB717CA
:100464000040930670052380D704130780FA238085
:10047400E704010001007D89136505042394A700A6
:100484000100010001000100238007042380D70438
:100494002380E70401000100372700408946B1BFEB
:1004A4002380D7042380E7040100010003D78700D9
:1004B4001367070C2394E700A9B7814601468145D9
:1004C4001145B52CB7170040130770052380E704C6
:1004D400130780FA2380E704010001007D57239667
:1004E400E70203C76704136717002383E704238025
:1004F400070401A0BD473305F50201007D1575FD14
:100504008280411122C426C206C6AA84014463170C
:100514009400B240224492444101828005041305B0
:10052400803E4204C13F4180DDB7411106C6856665
:1005340001468145054521247DF9814601468145D1
:100544001145F52AB7170040130770052380E70407
:10055400130780FA2380E704010001007D572396E6
:10056400E70203C76704136717002383E7042380A4
:10057400070401A0B7170040130770052380E704A0
:10058400130780FA2380E704010001007D572396B6
:10059400E70203C76704136717002383E704238074
:1005A400070401A0411126C206C622C44AC08D44D4
:1005B40063E2A408138941932A8403250900894529
:1005C400973000E0E7804007032509008D45973008
:1005D40000E0E780201BB7E700E03707020023A014
:1005E400E7100146C1450545973000E0E7804046E5
:1005F40089476303F4026308940285476308F4009F
:100604002244B24092440249410175BC2244B240A2
:10061400924402494101FDB42244B2409244024949
:100624004945410151BE2244B24092440249014528
:10063400410181B9B240224492440249410182807D
:10064400B7170040130700032388E70285471747BD
:1006540000002321F77673002030976000E0E780E4
:10066400404A73002030411106C65125FDBF03D70F
:100674004193B7170040239EE708730020307300AE
:1006840020302303048015472303E4800100230260
:10069400A480828083076480E3CE07FE2303048062
:1006A400828083076480E3CE07FE03454480828012
:1006B40083076480E3CE07FE2302A4808280411175
:1006C40026C44AC24EC006C61377F50BAD47AA89A5
:1006D4002E8995446306F70019456537653F8D44B7
:1006E4004E854537FD59FD1463983401B240A24448
:1006F4001249824941018280135509011375F50F8E
:10070400453F2209CDB7011126CC06CEB704080017
:1007140051371545BD37713769372AC6A53F32456C
:100724009377150089EB136515001375F50FF240E7
:10073400E24405618280FD14E9FC0145CDBF3971B5
:1007440026DC4ADA4ED852D656D45AD25ED006DEC9
:1007540062CE66CCB7E700E07D5783AA070022C6C5
:1007640003AA470023A0E71823A2E718B7170040FD
:10077400130770052380E704130780FA2380E70436
:1007840083C74704930B75FFB684E20793FBFB0F03
:100794008546AA892E8B328937240040E187015788
:1007A40063FA76016308D5008946130700026313D0
:1007B400D5000157D98F93F7F70FB71C0040238258
:1007C400FC0411472303E4801305F00F5D3D094C3D
:1007D400D135636D7C11B7050700DA9537870700BB
:1007E400795563F2E504B3879500636EF702370B1E
:1007F4000800A94733EB65016399F90689E481444C
:10080400513D26850DA0DA850945553D0509034569
:10081400F9FFFD14050B693D81C49377FB0FFDF7C8
:10082400DD3569FD7D55B71700401307700523803A
:10083400E704130780FA2380E70403C74704418BC6
:100844002382E704F250B7E700E023A0571123A264
:100854004711E25432445259C259325AA25A125BD5
:10086400825B724CE24C21618280A5476395F90654
:1008740085691309F00FB3069900B3742B01B6947C
:100884001349F9FFB3749900856B33796901416B9E
:100894009387F9FFB3F7270199E363FC340193D9F4
:1008A4004900C147E3E637FF99BF0569C1697D196E
:1008B400D9B71305800D63886901130500026384A9
:1008C400790113051008CA85DD3B353D21DD4E99BC
:1008D400B3843441D9B7DA852D45D533CA94E300BE
:1008E40099F205097D3BA30FA9FED5BF9387F9FFB4
:1008F40093F7F70F6361FC0C83C71C0413073008DC
:10090400631FF70437070800636BEB04B3079B000E
:10091400B706100063F5D704334BEB0089476393A4
:10092400F9068980D549E38C04ECDA850945413B15
:1009340011090327C9FF91472320E480030764803A
:10094400E34E07FE23033481FD17EDFBFD14110B69
:1009540081C49377FB0FE9FF7D3371F5E1B5B717D8
:10096400004003C75704B70708001377070219E3C9
:10097400B78707007955E378FBEA33079B00E3FF69
:10098400E7F855B58547E382F9F2DA852D45053B4D
:100994009389F4FFE38504E6293393F7390091EB57
:1009A400832604800327090093074900E39AE6E4B9
:1009B4003E89CE84F1BFB5476396F9001305900BC9
:1009C400C93135BDB1471305B00AE38BF9FE994728
:1009D4006391F904B7050800B365BB002D45C53123
:1009E40081448D4BA1497539639674018327048032
:1009F4002320F9008504E39834FF83270480131728
:100A04002B01635507002312F900D5BB2322F900FB
:100A1400FDB39D476399F90281451305B00445313F
:100A2400BD442320090023220900FD599D3993F771
:100A34007400CA9703C70700FD14398D2380A700EB
:100A4400E39634FF6DBBA1476392F9046D39814489
:100A5400630D0B008D479304C0036308FB009304EC
:100A6400000563048B01930440041375C507E30870
:100A740095D81945393139390545213126850D393E
:100A840009453D314931E31C05D669BB914763995A
:100A9400F90013056006F536F53E130590090DB708
:100AA400E38F09D4F154A9BB19CD91CD09CE814767
:100AB4003387F500834607003307F50085072300D5
:100AC400D700E397C7FE828019C991C909CA910565
:100AD40083A7C5FF11057D16232EF5FEC5BF8280B1
:100AE40001C919C62A960505A30FB5FEE31DA6FE86
:100AF400828081473307F5000307070019E33E8529
:100B040082808507C5BF01112E8626CAAA841315C3
:100B140006019305F004418122CC06CE32C6EF10C3
:100B2400A0572A8401C53246A685BD3F2285F240DE
:100B34006244D24405618280854715C18DC105C2D6
:100B44008147B306F5003387F50083C606000347E3
:100B540007006398E6008507E315F6FE85473E85A2
:100B640082808147EDBF9307F6FFBE952A966313F3
:100B7400C5008280FD1583C715000505A30FF5FE8A
:100B8400FDB7AA87014581CF09CE3E96850703C7E5
:100B9400F7FF6317B700E31BF6FE054582808280EA
:100BA40001458280797197670000938727CB22D40F
:100BB400804306D626D24AD04ECE52CC56CA5AC804
:100BC4005EC662C45DCC37C9C901814B176A000097
:100BD400130A4ACD97640000938484C81309F93733
:100BE400976A0000938A4AC2B709C0A8370B4057D6
:100BF4008357240095E35C44639D0B001767000052
:100C0400232EF7C4032CC4002285EF1000566284FF
:100C140099A823A6FB00FDB783270A008297838641
:100C240064011C4463DB06063307F5406367E90887
:100C34009767000023A207BE8355240003450400E0
:100C4400977000E0E78040545C405844A9CF1444B6
:100C5400B6978386640163C5060063E33701DA97B8
:100C64001CC4A28B3A8449F4976700009387C7B9E0
:100C74009C4B09476378F706F91717670000232D83
:100C8400F7B8B250225492540259F249624AD24AF5
:100C9400424BB24B224C45618280E377F5F83387AF
:100CA400F9402A9761B763970B009767000023A761
:100CB400E7BA89BF23A6EB00B1B7D85009CF63DFE9
:100CC40006003385A74083A70A016376F50097677A
:100CD400000023A3A7B4A28B404471B7E3F3A7FE9B
:100CE400CE97C5B79767000023A807B259BF411133
:100CF40022C417640000130424B41C4006C626C290
:100D04004AC091C782979767000023A707B25C4047
:100D140091C382971C406391071C9767000083C7A7
:100D2400B7CD858B9DC797670000A38707CC17674E
:100D34000000034797CC914763FDE700EF00B0350F
:100D44009767000083C777CBF9178A07A2979C435C
:100D54008297176900001309E9CD8347C900918B75
:100D640099C3EF10C0261C4491C382979764000076
:100D7400938484AE9840176600000346F6A89767EC
:100D8400000083C767A893961700BA9683D6060017
:100D9400D5CA9767000083C727A763EFC70A976779
:100DA4000000238307A61C4063980712976700007E
:100DB40083C7D7C491CF9767000083C717C489EB53
:100DC40097670000A38C07C297C001E0E78060B872
:100DD40097670000938707AD9C43638F070EB7079F
:100DE400C0A8176700002329F7A26D3B976700008E
:100DF400938707A7DC53EDC3176700001307C7A049
:100E0400184B9767000083C7F7A66367F70C17674B
:100E14000000034797BE914763E0E70C8347C9008E
:100E2400918BDDEB90409766000083C6F69D63CB03
:100E3400D70A2244B240924402494101177300E0A8
:100E44006700A311850793F7F70F97660000238DBA
:100E5400F69AE3E6C7F235BF86073E978355070047
:100E640023100700976700002396079E97670000EA
:100E74009387479C9C43176500000345E598131727
:100E84002500BA979C4382979767000083D7879C75
:100E9400176700000347479793C7F7FF7D8D9317A4
:100EA400170098403E97835707005D8D2310A700D5
:100EB4009767000083C7479591C7850717670000A8
:100EC4002304F7941767000003470794976700000B
:100ED40083C79793E375F7ECB240224492440249E6
:100EE40041018280139717003297035707006DF76B
:100EF400850735BFAD6737C70040BD072326F720F8
:100F04000F1000009767000093870790C84F83274E
:100F14008726BD66BD0693C7F7FF99836A05232616
:100F2400D7205D8D82804111B7170040985F3AC683
:100F3400945F3247E39CE6FE324541018280828021
:100F44000327851163000712411122C406C6834793
:100F5400C5008345C5042A8493F7C70F2306F5000B
:100F6400834697000356C70013958601618563F194
:100F7400C508635A05060345870093F6F607A304DC
:100F8400D700054693E627006314C50093E61700CF
:100F94002306D4005C4389075CC3A30AB400032579
:100FA40004112E864C430905013683278411034618
:100FB4005401D44303D7C700B296118FD4C32396E8
:100FC400E7008947A30DF400034744039767000033
:100FD40083C7278A6378F7048347C40093E707012C
:100FE4002306F40081A093E717002306F40075B7E5
:100FF4009376F60F635D050203458700854513E686
:1010040027006314B50013E617002306C400A30ADF
:10101400D400A30407008547A30DF400832784119B
:101024009C43DDF3B240224401454101828093E7B1
:1010340017002306F400A30AD400A3040700032521
:1010440004114C4309058D3483278411034654014C
:10105400D44303D7C700B296118FD4C32396E700B5
:101064008D475DBF0545828097670000938787970A
:101074009C43411122C406C6858B2A84C5EF416571
:10108400130525F5976001E0E780C0D145C5834786
:10109400A5002315F50083270412BDE72320A4121D
:1010A4002322A41285472310F40423200500834738
:1010B400640154412316F5000347D4002304E500DA
:1010C4000547A304E500176700001307A792184F0C
:1010D4001385170215811C437D151375F50F9CC2EA
:1010E4005C43DCC21C479CC65C47DCC61C4B9CCAE8
:1010F4005C4BDCCA1C4F9CCE5C4FDCCE19CD938676
:10110400060213070702C1BF8327441288C383570B
:1011140004042322A412850779B79767000083D7B4
:10112400E799850717670000231AF798B24022440D
:10113400410182808347C40023090400054593C705
:1011440047002306F400DDB78347850193F7E70FD3
:10115400CDEB83479501D5E7034625018346C500BA
:1011640009CA83454503175700000347977063E78F
:10117400E50013F7060159C7014709C6C18A035799
:10118400851B81C68356C51B36972DCFB7470F00E5
:101194009756000083D6C66993870724B3C7D7023E
:1011A4001307C712411126C222C406C67D54335701
:1011B400F7029757000083C7376CB384E70097673B
:1011C40000009387278F83A6C70883A7060963F3C4
:1011D40087003E849442F5FA975700009387876C02
:1011E4009C43829781476364A400B307A440B24040
:1011F4002244B3B7970093C7170092443E85410138
:10120400828081473E858280797126D206D622D497
:101214004AD04ECE52CC56CA5AC85EC6834735030E
:1012240003447513AA843E941374F40F9307400285
:1012340063F687001304B4FD1374F40F03AA841334
:1012440083AAC413A38B841222865285D685975011
:1012540002E0E780E06A058915E503CBD412014971
:101264008149337B6403930B50024A865285D685A9
:10127400975002E0E780C068058915C5639169034A
:101284001374F90F238B8412B250225492540259CE
:10129400F249624AD24A424BB24B45618280850987
:1012A400E20993D989410509E31179FDE1BF832757
:1012B40085090356E503797193D60701BD8EC206ED
:1012C400C182358E1357764093575640898B058BD0
:1012D4005D8F93573640918B5D8F93571640A18B4A
:1012E4005D8F93171600C18B5D8F9317360093F7AC
:1012F40007025D8F931756009355860093F70704F2
:101304001E065D8F1376F60F518F93D7554013D673
:101314003540118A898BD18F13D67540D18F13D65E
:101324001540218AD18F13961500418AD18F1396C7
:10133400350013760602D18F1396550013760604F2
:101344009E05D18F93F5F50FCD8FA20745465D8F8E
:101354003307C70222D42A8426D252CC56CA032A7F
:101364008413832AC4135AC806D636974207418386
:1013740093577740135557400989858BC98F135567
:1013840037401189C98F135517402189C98F131507
:1013940017004189C98F1315370013750502C98FCA
:1013A4001315570093558700137505041E07C98F3D
:1013B4001377F70FD98F13D5354013D755401189BB
:1013C400098B498F13D57540498F13D51540218951
:1013D400498F139515004189498F1395350013756D
:1013E4000502498F13955500137505049E05498F11
:1013F40093F5F50F4D8F2207D98FB387C7024AD0D3
:101404004ECE5EC662C4B697C207C18313D7774077
:1014140013D557400989058B498F13D53740118956
:10142400498F13D517402189498F13951700418996
:10143400498F1395370013750502498F139557008B
:1014440093D58700137505049E07498F93F7F70F0B
:10145400D98F13D5354013D755401189098B498F3E
:1014640013D57540498F13D515402189498F13959C
:1014740015004189498F1395350013750502498F6D
:1014840013955500137505049E05498F93F5F50FC3
:101494004D8F2207D98FB387C70213065002528596
:1014A400D685B697BD8E93940601C18033F6C402E7
:1014B400137BF60F975002E0E780804405890DED19
:1014C4008347D41201498149B3849702130C500213
:1014D400C1804A865285D685975002E0E780404213
:1014E4000589937BF90F11C563863403850993F944
:1014F400F90F0509E31F89FD230B6413B25022542D
:1015040092540259F249624AD24A424BB24B224C9B
:10151400456182805E8BCDB7011197570000938798
:10152400675922CC03A4070B26CA06CE2AC42EC6AA
:10153400854419E40145F2406244D2440561828045
:101544008347910003471400858B6304F70000442C
:10155400CDB719469305A10013052400EFF0CFDDA4
:10156400E31795FE0545C1BF011122CC17540000B5
:101574001304044A18402AC62EC432C206CE3C4B79
:1015840093F7F7F73CCB97B001E0E7804039184078
:1015940097560000938646453C4B93E707083CCB9F
:1015A4009C423245A24523A0070003471500034887
:1015B4002500220742084297034805004297034842
:1015C40035006208429798D70347550003486500E1
:1015D4002207420842970348450042970348750092
:1015E40062084297D8D7034795000348A50022070D
:1015F400420842970348850042970348B5006208B1
:10160400429798DB0347D5000348E50022074208C8
:1016140042970348C5000345F500429762052A979F
:10162400D8DB03C7150003C52500220742052A9706
:1016340003C505002A9703C5350062052A9798CF8C
:1016440003C7550003C56500220742052A9703C551
:1016540045002A9703C5750062052A97D8CF03C7AA
:10166400950003C5A500220742052A9703C58500F6
:101674002A9703C5B50062052A9798D303C7D500F6
:1016840003C5E500220742052A9703C5C50083C5A3
:10169400F5002A97E2052E97D8D3D843759BD8C373
:1016A400D84313671700D8C398431367170098C328
:1016B400124698425C43858BD1E71C4F01452300B9
:1016C400F6009C429C4FA183A300F6009C429C4FD1
:1016D400C1832301F6009C429C4FE183A301F600E1
:1016E4009C42D84F2302E600D84F2183A302E60090
:1016F400D84F41832303E600D84F6183A303E60058
:1017040098532304E60098532183A304E6009853D6
:1017140041832305E60098536183A305E600D8536B
:101724002306E600D8532183A306E600D853418359
:101734002307E600DC53E183A307F600F24062448A
:10174400056182800100B5B75D713AD21757000078
:101754001307C72936D414433ED022DE9C5E4ACAFE
:1017640086C6998396C49AC29EC026DC2ADA2ED8ED
:1017740032D642CE46CC72C876C67AC47EC2858B37
:101784003A841759000013092926D1CB9C5E97543B
:1017940000009384242693F7F7F99CDE1757000082
:1017A4000347A72593070008631BF7008327090055
:1017B4009C4393F70704175700002300F72483C7BB
:1017C400040093F707049DC3975700009387870D80
:1017D4009C4382979757000023A6A72283C704003F
:1017E40093F7F70B175700002306F72083C744002D
:1017F40093F707048DE7854717570000A30EF71EDC
:10180400975700009387C7209C43096798C713071D
:1018140000FC975600002381E61ED844F8D31C40F0
:10182400985F1183058B09CB985F3D9B98DF054733
:10183400975600002382E61C985F1D83058B11CB0D
:10184400985F1377F7F798DF85471757000023054C
:10185400F71A83270900D8430583058B19C7D84392
:10186400759BD8C3D843799BD8C37254B640A6425B
:1018740016438643E2545255C2553256A256125765
:1018840082577248E2485249424EB24E224F924F1A
:101894006161730020309757000093876717944362
:1018A400975700009387071503C70700058B11CBD3
:1018B400975700002382071497570000A38E07123E
:1018C400828003C71700058B65F7F85271FF83C741
:1018D4005700DDB717580000130848110327080004
:1018E4001C5F9583858BD5EB1DC6975700009387A6
:1018F400671C83986704030306001C5BBD83630BAA
:10190400030893F7F71FB38717419A970947B3C79B
:10191400E7022300F60085CA83270800985B460780
:10192400935767016356070093E707C0C207C18353
:1019340003970600C207C18709C7BA970947B3C707
:10194400E7022390F6009DC98347150085CB97567F
:10195400000083C6860A93F606041387970091470E
:1019640085CA3A950347050085461376F706631141
:10197400D60262076187B147634C070083270800DA
:101984009C5FED838D8B17570000A30AF7068147F0
:101994003E858280B3871741ADBF8947D5BF4111CA
:1019A40022C406C61754000013048406184049E9EB
:1019B400AE877453FDFE3E85B28597570000238C95
:1019C400070297B001E0E780C0D2975700009387E1
:1019D400E7019C43B70680009843558F98C3D857B6
:1019E400719BD8D797570000A3880700975700002A
:1019F400A38207001C40094798C3B7F700E003A778
:101A040007D16D9B23A8E7D003A707D15D9B23A82B
:101A1400E7D073005010144017570000130787FDD8
:101A240083472700858B89EB83473700858BD9C78C
:101A340097570000238207FCB24022444101828070
:101A44008D476310F50297570000938727FA9C434C
:101A5400B70680009843558F98C3D857719BD8D741
:101A64005DBF8547E319F5FAB567BD075CC70F107D
:101A740000001C400967094698C7130700F89756E9
:101A84000000238BE6F617570000130727F61443CC
:101A9400984231830D8B6319C7001307E043F8D3D1
:101AA4003D673D07D8C785BF984231830D8B01E759
:101AB40013076019EDB71307E01BD5B7FC52ADF35C
:101AC400A5BF5D714EDE97590000938929F203A7E3
:101AD400090086C6A2C4A6C2CAC052DC1C43175958
:101AE4000000130929F7175A0000130A6AF293F742
:101AF400F7E793E707081CC3832609003707CEFFDF
:101B04007D179C46130680022A84F98F9CC683277E
:101B14000A00130700082800B8CBAE849305100808
:101B2400EFE01FFC97B001E0E78060DF97B001E0D1
:101B3400E78060EC83A709009376F41FB70EFCFFDF
:101B440023A40700984B130510F8CE851367F703F9
:101B540098CBF84F4A88B70F0400137707E0558FE6
:101B6400F8CF9843F576FD16758F98C39843B7065A
:101B7400330091421377F7E798C39843FD1E8543DA
:101B84001377F7E71367071098C303270900130FA8
:101B940080021C47D58F1CC783270A001307900DAA
:101BA4003400B8CB014793583700A69883C7080080
:101BB40013767700B3D7C740858BDDC79C41032ECE
:101BC4000800239C0704239007060323CE02137303
:101BD400D3FF23266E0203AE07001373F707137EA9
:101BE4000EF833636E0023A0670003A34702336338
:101BF400F30123A26702014303DE07066307C3035D
:101C040003A30703038E06001353F3006203135365
:101C1400834163586E0003A307031353F300238027
:101C2400660003D307061373F30F03DE8705E3F59A
:101C3400C2FD03A347023373D30123A26702838740
:101C44000600635CF40003C308003396C300134624
:101C5400F6FF337666002380C8003E8663D3A70070
:101C64002A8613158601618505071377F70F850604
:101C7400E31BE7F3B640264496440649F259625AF8
:101C840061618280011136C897560000938646D858
:101C94003EC49C423AC632CAD8472ACE2ECC13162A
:101CA400170163550602984713161701635006027D
:101CB4007D57B8D717570000130707B5584F0507C6
:101CC400175600002320E6B6116798C798470D837E
:101CD400058B1DC3175700000347E7D1136717008F
:101CE400175600002309E6D0130700F81756000022
:101CF4002304E6D0214798C79847058B09CF175787
:101D04000000034737CF1367170017560000A303DB
:101D1400E6CE054798C798470983058B09E7984796
:101D24000583058B39CF984717560000130686CCD8
:101D340017550000130585CB0983058B630C071029
:101D44001841184331830D8B63130710AC4B184EA5
:101D540093F5050203471700E9C57DE713077006ED
:101D6400D8CF034706001367170017560000230354
:101D7400E6C8114798C718415C57F19B93E71700D1
:101D84005CD79C4298479316370163D60602975650
:101D9400000083C626D9C18A17570000130787D1CC
:101DA400E1C6034707071367070297560000238B12
:101DB400E6D6056798C798479316270163D10602AC
:101DC40017570000034747C362076187635707003B
:101DD4000547975600002381E6C2096798C79847CC
:101DE4009316070163D606029756000083C696D35E
:101DF400858A175700001307E7CBC9C6034717079F
:101E04001367270097560000A38EE6D0216798C772
:101E14007245E2455246C2463247A2470561730005
:101E240020300DDF85456315B7001307B0060DBFDD
:101E340089456315B7001307F0061DB78D45631573
:101E4400B7001307300729BF1307500711BF130743
:101E5400600739B7034736001367170017560000A9
:101E6400A30BE6B8094739B7834607070946BD8A75
:101E74006388C600034707078D463D8BE31BD7F2F3
:101E8400114725B783461707918AC9D20347170715
:101E94001367870085BF175700001307A7B783464A
:101EA400B7019757000083C7B7B9B69793F7F70FF1
:101EB400FD4663EAF6044C4B97560000A38CF6B437
:101EC4009757000083C717B505473317F700975690
:101ED4000000A387F6B66D8F1DEF9756000083C6EA
:101EE40076B6B3F6D70213050002814733D6F50060
:101EF400058A13F8F70F09CE6399E6009757000097
:101F0400A38A07B1828081177DB705071377F70F7E
:101F14008507E39DA7FC82809757000093878798E5
:101F24009C43011122CC4EC606CE26CA4AC852C4CE
:101F340056C28297975700009387C7AF804781495D
:101F44006305A406BE8497570000938767910387AF
:101F540067013E8963550706018D13545500975751
:101F6400000083C7C7AC9379F501636DF402370AA7
:101F7400C0A8B70A405705379C449756000083C64B
:101F840006AB139756003E9783076901158C63C50A
:101F940007006363470156979757000023A0E7AAF9
:101FA400E37BD4FC1604B3693401F24062444E85E9
:101FB400D2444249B249224A924A05618280E37D71
:101FC40085F8B707C0A833848740229579B7975717
:101FD40000009387278D9C43411122C406C626C264
:101FE4008297975700009387E7A480476309A40664
:101FF400BE84975700009387A7868387670163D8B9
:102004000704018D135455009757000083C727A276
:102014006367F404493598449757000083C727A1A0
:102024009396570036971D8C9756000023A8E6A078
:10203400E372F4FE2244B240924417550000034573
:10204400759D8145410117B301E06700E3DEE37A42
:1020540085FAB707C0A833848740229565B7B24094
:102064002244924441018280975700009387879EBF
:102074009843B75702009387079F8326070913964F
:1020840056006358060083260709139666006344C6
:102094000600FD17FDF3828071C5AA870145E9C5D5
:1020A4008D07C207C183F19BC207C1831307400395
:1020B400636FF702175700001307879F08431757EA
:1020C40000001307679E14436398A6021747000095
:1020D40013070779185B014541CB4111C20706C6B6
:1020E4000545DD8D0297B2400145410182801757B5
:1020F40000001307A79BD9B70357650035E30357BF
:102104004500636FF704B306F7402146637CD602AB
:1021140003280500938687001D8FAA96611717462A
:1021240000000356C66E2392E60023A00601239303
:10213400060014C12312F500130786FF974600001A
:102144002397E66C2313B5009745000083D5256CCF
:10215400B387F54017470000231BF76A21058280E7
:1021640008419DB70145828082800DC197570000C8
:102174009387079403A30700975700009387C79298
:1021840083A8070081469A8763E31701828003A826
:102194000700636DF50A636BA80A13878700E3677A
:1021A400E5FE03D66700216705076317E60003C74A
:1021B400819E05072384E19E974500009385C564AD
:1021C40003D6470003D765002393070032974207DD
:1021D400418317450000231CE562638A6702175593
:1021E40000001305A58C08416303F50203D56600BE
:1021F40019ED83D7460023A0060121073E96210648
:102204002392C600974700002393E760B68798435C
:10221400E30E17F797560000938646899442E30726
:10222400D7F683566700BDF283D6470003564700AE
:102234001843A106B2962392D70098C383D76500AA
:10224400A107174700002314F75C8280BE86C2876B
:1022540025BF0111975700009387C78522CC03A49B
:10226400870B26CA4AC84EC606CEAA84130925007F
:10227400854915C083C7140003473400858B630464
:10228400F700405CFDB71946930544004A85EFE02A
:10229400BF8AE31835FF2285F2406244D2444249A2
:1022A400B249056182804111975700009387878066
:1022B40022C403A4870B26C24AC006C69304250081
:1022C400054901E82285B240224492440249410171
:1022D4008280A6851305A402974002E0E780801758
:1022E400E30225FF405CF1BF41119747000093874B
:1022F400677C22C403A4870B26C24AC006C6930483
:102304002500054901E82285B2402244924402494D
:1023140041018280A6851305A401974002E0E7806D
:0C2324006013E30225FF405CF1BF0000E5
:1023300097110020938181DB17610020130181CC6C
:102340001305400097E5FF1F9385C5CB17060020B6
:10235000130606FE63FAC5008322050023A055007C
:1023600011059105E3EAC5FE177502001305050E78
:10237000970500209385C5FB1386018C63FAC50081
:102380008322050023A0550011059105E3EAC5FE4F
:102390001385018C97550020938585836377B5005D
:1023A000232005001105E36DB5FEFD42739002BCCC
:1023B0008D42739042809302800873A0023097E2AE
:1023C000FF1F938222C493E23200739052309752DF
:1023D00000009382824973901234730020303D4391
:1023E0002A876373C3029377F700BDEFADE5937659
:1023F00006FF3D8ABA960CC34CC30CC74CC74107B5
:10240000E36BD7FE11E28280B306C3408A069702CF
:10241000000096966780A6002307B700A306B700C2
:102420002306B700A305B7002305B700A304B70030
:102430002304B700A303B7002303B700A302B70028
:102440002302B700A301B7002301B700A300B70020
:102450002300B700828093F5F50F93968500D58D04
:1024600093960501D58D61B79396270097020000DA
:1024700096968682E78086FA9680C1171D8F3E96D3
:10248000E374C3F8A5B782803D897D15954763EE57
:10249000A70E17670200130727EE0A053A951C419D
:1024A000011106CEBA9782879705002093850544CF
:1024B0000545EF90D07817650200130525F1EF4030
:1024C000026911A803C725008D471765020013058F
:1024D000E5F0E306F7FEF2400561828003C72500C0
:1024E0009547E31AF7FE03D5A500239CA18083C777
:1024F000818299E3EF00021585472382F18C1765ED
:1025000002001305A5EE65BF03C725008D47E31440
:10251000F7FC17650200130525EE55B783C72500A4
:102520001147176502001305A5EE6384E7041947F8
:10253000639AE70283C5650017650200130505EF7E
:102540002382018CEF40624CF957239CF180854730
:102550001306F100854513055030A307F100EFF095
:10256000F16295BF1547E394E7FE17650200130576
:10257000A5EDEF40C25DE1BF83C5250017650200F0
:10258000130505EEEF406248B9B7828001112305BB
:10259000A1003400214685450D4506CE23140100D7
:1025A000A305010002C6EF10D076F24005618280DB
:1025B000011106CE22CC3A883E87B1E28D6793871F
:1025C000D7A42A8EAE88328383460800631EF600A5
:1025D0008947639BF50085473544639DF600834733
:1025E0000700898BA383F18C1A86C6857285EF203C
:1025F000403D2A842285F2406244056182808547FD
:102600006396F600C286EF206041E5B78947014432
:10261000E392F6FE1306F100854513055030A3073B
:102620000100EFF0B156F9B701119397050122CCE3
:1026300006CE26CAC1872E8463DC070003C5A181AC
:10264000EF50606B19C1EF50E0632165218D3DA013
:1026500093F7150013C5150095E393F7450085C75B
:1026600083C7A1811307803E814613060005C1453B
:1026700003D58181EFF0111A13454400F240624402
:10268000D2440561828093F785009DC30147894646
:102690000946814503D58181EFF0117DAA85176533
:1026A00002001305E5CEEF40423613458400F9B72A
:1026B00093F70501C1CF6C0013055030A30501004D
:1026C000EFF0313A0347C10085476319F70013065D
:1026D000B100854513055030EFF0514B97040020B1
:1026E0009384C420A6850545EF90705531E9130504
:1026F000C002854603C651808545EF30B00083C7D0
:10270000540003D58181FD17A382F18CC167F917AD
:102710006307F500EFF01173F957239CF1808347AD
:10272000C1000547639BE7001306B100854513050B
:102730005030A305F100EFF07145134504013DBF92
:1027400083C7518C8507A382F180D1BF93F7250001
:10275000B9C703C5B1811D3D83C7B181850793F713
:10276000F70F7147636BF7020145A38DF180393D87
:10277000B707020093870720740011468545054579
:102780003EC6EF1010591306007D894503C5A1818F
:10279000EF50D03013452400D5B59147F1B793974A
:1027A000350163DC07009387018294431146854518
:1027B0000545EF101056056551BD9397250163DC63
:1027C00007009387C1819443214685450D45EF104D
:1027D00050540965A5BD9397150163DC07009387E5
:1027E00041829443054685450945EF109052116595
:1027F000B1BD93F7050289CF176502001305C5BA6D
:10280000EF30304785472383F18C13450402BDB573
:1028100093F705040145E38307E69387018C904312
:10282000814503D58181EFE0514C13450404B9B5CE
:1028300001118D6585461306F100938545802D4570
:1028400006CE97E0FF1FE780C0EF8347F1001947EE
:102850006373F7008547F240A382F18005618280AF
:10286000797122D40D6406D6A307A1001304448015
:1028700085461306F100A285294597E0FF1FE780F2
:1028800040EC85461306F101A2852D4597E0FF1F18
:10289000E78020EB0347F1018347F100E31AF7FCDF
:1028A000B2502254456182800111170500001305C2
:1028B000E5D706CE22CC26CAEF50B05E9384A18124
:1028C00005442380A400700085451305503023067D
:1028D0008100EFF0B12B138681809D451305603098
:1028E000EFF0D12A17060020130686A5D54513055B
:1028F0007030EFF0B129176602001306A6ABD5457C
:102900000145EFA000598D477000914513057040B7
:102910002305F10023048100A305810002C6A3045E
:102920000100EFE0815C3000854513050040EFE0D9
:10293000C15B13069100854513051040EFE0E15A95
:102940001306A100854513052040EFE0015A130648
:10295000B100854513055040EFE02159A9477000AB
:10296000854505452306F100EF106056EF10107203
:10297000970500209385C59B13850181EF103038A2
:1029800003C504008545EF50E07FF2406244D24425
:1029900005618280411106C6EF20307783C7B1936D
:1029A0009DC723AC018CA38D0192EF20B00E05C111
:1029B00097770200938787A49C431D4783C727000E
:1029C0006384E7046362F7021147638DE70293872C
:1029D000C18C9C431307200385076369F702B2404B
:1029E00023A6F18C410182805947638BE700694738
:1029F000E39FE7FC8547172700202327F726C1BF61
:102A00008947D5BF8D47C5BF9147F5B7B24023A6CB
:102A1000018C41016F50A001411106C683C7D195B9
:102A200003C7418D6307F704238AF18C1766020000
:102A3000130646CF89E717660200130626A98145CB
:102A40002145EF30301903C7D19583C7418C63040A
:102A5000F7002385E18231CB03C7C18DD98FB1C780
:102A600083C7A1821305800391C36945054681454B
:102A7000B1A083C7418C03C7518D6302F708A38AB5
:102A8000F18CA9C317660200130646CA81451305D7
:102A90006002EF30301483C7D19503C7418C638443
:102AA000E7002385F18291C345FF014681456945D1
:102AB000EF30807C0146814513058003B24041011F
:102AC0006F30807B17660200130646A08145130510
:102AD0006002EF30301003C7618C8547E31DF7FAC1
:102AE000176502001305C59E2383018C23A0018C6A
:102AF000EF30301813054006EF30F01F69BF83C771
:102B0000C18D03C7618D6307F702238BF18C1766B4
:102B10000200130626C289E7176602001306C69B49
:102B2000814513059002EF30F00A83C7D19503C7A2
:102B3000C18DB5B7B24041018280411106C6EF2078
:102B4000C00F83C7618C99E3EF2040133717004013
:102B50008327470C83C60193B98393C71700858BDE
:102B60006387F6028327470C1167F98F13B71700A5
:102B70002388E1928DE3176702001307E7C99146A6
:102B800013061005814513058004EF30C046B2409E
:102B900041016F20C00391461306100581451305BE
:102BA0008004EF30004CE5B703C7D1958547631427
:102BB000F7006F403045828015456F005005411188
:102BC00093962500AA852D4506C697E0FF1FE7804E
:102BD00040B7B240014541018280411122C426C262
:102BE0004AC02A842E89B284AA8593060020014611
:102BF000254506C697E0FF1FE780A0B4931629007D
:102C00002686A285294597E0FF1FE78080B3B24062
:102C1000224492440249014541018280011122CCA3
:102C200006CE3714004026CA4AC84EC652C4834452
:102C30007405034AB4058349840503499405EF00EC
:102C4000807A8347A40593F4F40F137AFA0F93E77D
:102C50001700230DF40493F9F90F1379F90FB7173F
:102C6000004003C7A705058B6DFF03D5C705A38DDE
:102C70004705238C3705A38C2705A38B9704F240C7
:102C80006244D2444249B249224A0561828083C7E4
:102C9000A195B1C7238D019423AC018C83C7D19535
:102CA0000547639BE70003C7A1826317F7008945C7
:102CB00003C5D1876F50004D03C7418C854763160C
:102CC000F700856503C5A181F5B703C7C18D6318FA
:102CD000F700C1451725002003458500E1BF82802C
:102CE00023AC018C83C7D1950547639BE70003C7DD
:102CF000A1826317F700A14503C5D1876F508048B3
:102D000003C7418C8547630DF70003C7C18D631965
:102D1000F7009305000217250020034565FCF9BF65
:102D20008280411106C622C4EF20303E83C7B19392
:102D30006384070EA38D019223AC018C83C7618C41
:102D40000544639587021385018CEF20F0786315A5
:102D5000050C2244B2402383018C03C5A1811306D4
:102D600000199305000441016F504053EF20805239
:102D700011CD83C7D195639B870403C7A1826317D5
:102D8000F704914503C5D187EF50C03F83C7C19376
:102D9000C1C7238E01929387018288430D468145E6
:102DA000050597E0FF1FE780E0D383C7D19505476E
:102DB0006391E70403C7A182631DF702894503C538
:102DC000D1872244B24041016F50C03B03C7418CC0
:102DD00085476316F700896503C5A18175B703C7E9
:102DE000C18DE315F7FAA14517250020034545EFEE
:102DF00061BF03C7418C85476316F700856503C52E
:102E0000A181C1B703C7C18D6318F700C14517255C
:102E100000200345E5EC75B7B240224441018280B1
:102E200083C7D1958DC383C7A18291CF03C6118D6E
:102E300083C7818C6389C7002384C18C85451305B2
:102E400080036F30204983C7418C91CB83C7A18217
:102E500099E703C6718C83C7818CE39FC7FC83C746
:102E6000C18D91CB83C7A18299E703C6018D83C72A
:102E7000818CE393C7FC828001111306000B93053C
:102E8000F100094506CE22CCEF20E00821ED834772
:102E9000F100A9CB1306000B81450945EF10907C8A
:102EA000138401820C4091461306000B3145EF203C
:102EB00060171C40175502001305C56003C62700A4
:102EC00083C51700EF30E05A83C7D1950547639F4C
:102ED000E70003C7A182631BF700894503C5D187BB
:102EE000EF50402AF24062440561828003C7418C62
:102EF00085476316F700856503C5A181D5B703C76C
:102F0000C18DE311F7FEC14517250020034545DDBE
:102F1000C1BF41119397050122C406C626C2C187CD
:102F20002E8463DA0700EF40105D19C1EF40905521
:102F30002165218D35A893F7150013C515008DEB7C
:102F400093F7250013C5250085E793F7850095C7FE
:102F500097F7FF1F938707429C43829709661306E2
:102F600006F4A14503C59182EF5040331345840018
:102F7000B240224492444101828093F7052013C558
:102F80000520FDF793F745009DCF03C711948547B2
:102F900097F4FF1F9384043F631DF7009C408297C2
:102FA0002146914503C59182EF50402F13454400BF
:102FB000C1B797F7FF1F9387273B9C4382979C4499
:102FC0008297DC40E9BF93F7051095CF9387818DF9
:102FD0009C431307F00E8507636FF70023ACF18C59
:102FE000130600329305001003C59182EF50002BA9
:102FF00013450410B5BF0D4523AC018C97D0FF1FBE
:10300000E780805AF1BF93F705018DC397F7FF1F43
:1030100093874736DC43829713060006C14503C5F4
:103020009182EF50A0271345040199B793F7050843
:1030300081CF130600029305000803C59182EF506B
:10304000E025134504082DB793F7050291CFEF3023
:10305000204D130600039305000203C59182EF5033
:10306000E0231345040229B793F7050499C7854760
:10307000A38EF19413C50504E5BD9397250163D094
:103080000702EF9071420D3E37F60200130606E08C
:10309000896503C59182EF506020096559BD9397FA
:1030A00015010145E3D607EC17550200130545410C
:1030B000EF30F22913060064916503C59182EF5049
:1030C000E01D1165BDB583C7B195A1C7A38D01945E
:1030D00083C7D1950547639BE70003C7A1826317A8
:1030E000F700894503C5D1876F50C00903C7418CDC
:1030F00085476316F700856503C5A181F5B703C74A
:10310000C18D6318F700C14517250020034545BD53
:10311000E1BF82801D714946975502009385453570
:10312000176502001305C5F186CE97E0FF1FE78003
:10313000E0A001E9175502001305C534EF30322134
:1031400001A0B7F600E0795798CAFD57DCCA0567B9
:10315000B7E700E023A0E7101306F00290C223A017
:10316000E718010001001306C0038145480897E0F5
:10317000FF1FE7802097972700209387A7E83ECA84
:10318000896793870780231CF100ED472312F10222
:103190009547A301F10285472303F102B5472304B4
:1031A000F102A167938707E03ECE9707000093875F
:1031B00047A1BEC497070000938767A2BEC6856774
:1031C000938727D02315F1029717000093876795FF
:1031D0003EDAB7F5070097070000938767A43EDE45
:1031E0008146970700009387679D7000E1051945A8
:1031F000BEC097D0FF1FE780C0545808814799464A
:1032000070003E960346060085070507A30CC7001D
:10321000E398D7FED24791C703578101856763734F
:10322000F70001A04808EF50804BAA8501C9175547
:10323000020013056526EF30427D01A0F6402561AE
:10324000828075712D46975502009385E5090A85A0
:1032500006C722C526C34AC1EF30C26F1306500706
:1032600081451305B100EFF08F9717050000130596
:1032700085CAEF500043938491822380A4003714C1
:103280000040EF30203FEF10503BEF201065EF1073
:103290007016EF306051EF20805EEF40004703274B
:1032A000840C370904008D45336727012324E40C7F
:1032B000370504001D218327C40C37F602001306CE
:1032C00006E0B3E727012326F40C03C50400896553
:1032D000EF40D07C0A85EF309207175602001306A4
:1032E000A61D85450945EF20D04B130630058545C1
:1032F0005145EF20F03AEF40003485462A86854557
:103300006945EF20304013064004854513056002EF
:10331000EF201039EFF0CFD1854603C651808545A7
:103320001305C002EF20103E0146854513058003BA
:10333000EF20507A17570200130707518D461306E6
:10334000B00781451305B005EF20F04A8A8517556F
:1033500002001305A516EF30C01113054006EF302B
:10336000801903C5040029469165EF403073BA40C7
:103370002A449A440A4949618280797122D40D64B1
:1033800006D6A307A1001304848085461306F10026
:10339000A285294597D0FF1FE780A03A85461306EE
:1033A000F101A2852D4597D0FF1FE78080390347A3
:1033B000F1018347F100E31AF7FCB2502254456152
:1033C0008280B717004003C777051A0592054D8D17
:1033D0001377E70F13653500A38BE7041375F50F1B
:1033E000A38CA7048280B717004003C77705137723
:1033F000E70FA38BE704130700F8A38DE7043D470D
:10340000238CE70413075003A38CE7048280B716CC
:103410000040130670052380C604930780FA2380BA
:10342000F6040100010003C7F60213678700A387B3
:10343000E60203C7F6021377770FA387E60203C7F6
:10344000E6021377C70F2387E60203C7E602136776
:1034500017002387E6022380C6042380F6040100B8
:10346000010003C736057D78930E481F1377870F39
:10347000A389E60403C7360537160040116E1367AB
:103480001700A389E6042380F60483C73605116775
:10349000130F400893E70702A389F60483D70605B4
:1034A0001308281B930F3004D98F11672398F60453
:1034B0007D179147894213037005930880FA83466C
:1034C0003605A18AEDDE8356060583463605A18AB8
:1034D000EDFE83560605B3E6C6012318D6048346DF
:1034E0003605A18AEDDE8355060583462605F98D4E
:1034F000B306D702B695B386D5016371DF04FD1715
:1035000093F7F70F85CFC29593961500B3C6F603D0
:103510006352B002850685862300660423001605E3
:10352000010001008355C602AE96C206C182231671
:10353000D60271B7FD16B3C65602F9BFB7160040E2
:1035400083C7360513873605A18BFDDB83D70605B8
:1035500083D706051166D18F2398F604930770056B
:103560002380F604930780FA2380F604010001000B
:103570008347070093F7870F2300F700834707006F
:10358000C98F93F7F70F2300F700371700408347E1
:103590003705A18BEDFFB717004003C73705218B17
:1035A0006DDF83D6070583C7270511667D16F18E6B
:1035B0003306F60285659307C003138705C8369660
:1035C000938605FAB396A600B386F602A1679385A3
:1035D000559CB3C6F6029307803EB386F602B357F6
:1035E000A740B306D640B387D702B3C7B70263512B
:1035F000D0048507094793067005B3C7E70237175C
:1036000000402300D704930680FA2300D7049607CE
:10361000010001008356C702B697C207C183231673
:10362000F7028347370593F7F70DA309F704828064
:10363000FD17C9B7914763EEB7021757020013078A
:10364000E7E98A05BA959C41BA978287B717004087
:1036500003A7470B1345F5FF698F23AAE70A03A7C2
:10366000070B698F23A8E70A03A7070A798D23A010
:10367000A70A8280B717004083A6470B1347F5FFC0
:10368000F98E23AAD70A83A6070B558D23A8A70A6C
:1036900083A6070A758F23A0E70A8280B717004028
:1036A00003A7470B498F23AAE70A03A7070B134574
:1036B000F5FF45BFB717004083A6470B1347F5FF3B
:1036C000758F23AAE70A03A7070A598D4DB7B717C5
:1036D000004003A7470B498FEDB7914763EEB70250
:1036E000175702001307C7E08A05BA959C41BA979D
:1036F0008287B717004003A7470D1345F5FF698F71
:1037000023AAE70C03A7070D698F23A8E70C03A7DB
:10371000070C798D23A0A70C8280B717004083A6E1
:10372000470D1347F5FFF98E23AAD70C83A6070D83
:10373000558D23A8A70C83A6070C758F23A0E70C33
:103740008280B717004003A7470D498F23AAE70CD3
:1037500003A7070D1345F5FF45BFB717004083A624
:10376000470D1347F5FF758F23AAE70C03A7070C36
:10377000598D4DB7B717004003A7470D498FEDB7D7
:10378000931705010547C1836382E5048DC109478D
:10379000638DE5040D476380E50637170040231E5F
:1037A000F70883560709D58F2318F7088280371743
:1037B00000400356470993C6F7FFF18E231AD70836
:1037C0008326C70A558D2326A70AC1BF3717004095
:1037D0000356470993C6F7FFF18E231AD7088326AD
:1037E000870A558D2324A70A4DBF371700408356FB
:1037F0004709DD8EE1B73717004083564709DD8E54
:10380000E9BFB717004003D7870109C5D98D239CAD
:10381000B700828093C5F5FFF98DD5BF011122CC89
:1038200026CA2E8432C636C43AC23EC006CEAA8408
:10383000752437480F001308082433580503B75878
:10384000004083D5488082471247C205C18193F565
:1038500005FCC205C1812392B88083D54880A24669
:103860003246B365B800C205C1812392B88083D5C2
:103870000880C205C181F999C205C1812390B88031
:10388000E1659385056A63EB850806043354850278
:1038900005669305C6FF114542044180E18D81C54F
:1038A0001305F6FF618D05081306F0036374060126
:1038B0001308F0034208375600401358080123103C
:1038C000068337560040231EA68083550680F240AB
:1038D000624493E515002310B68083550680C20527
:1038E000C18193F555BFC205C1812310B6808355B0
:1038F0000680CD8EC58EC206C1822310D680835627
:1039000086802314068083568680D244D58FD98F33
:10391000C207C1832314F6800561828015E68D45B8
:10392000B305B4023355B5025205518111E1054585
:103930002166518D1306C0123308C8021306803E5B
:103940003358C8020508BDB7E5453304B402116613
:103950003355850252055181518DD9BF37570040EB
:103960008357078011C593E707102310F7808280E3
:10397000C207C18393F7F7EFC207C183FDB737577B
:1039800000408357078011C593E707202310F78075
:103990008280C207C18393F7F7DFC207C183FDB7F7
:1039A000375700408357078011C593E7074023101E
:1039B000F7808280C207C18393F7F7BFC207C18334
:1039C000FDB7B75700402398A7808280B7570040C3
:1039D00003D507811375F50F82809377E50F99C1A1
:1039E00093671500C207C183375700402318F7803B
:1039F0008280375700408356478183578781C207AB
:103A0000D58FE98FA207A1833385A7401335150011
:103A10008280411102C4B757004002C693870780D5
:103A20003EC69357C5013EC4A2472205218199CBCA
:103A3000B247D1073EC6B2479C4341017D8D333525
:103A4000A0008280B2474181E107EDB70DE9B717C9
:103A50000040130770052380E704130780FA2380D2
:103A6000E7040100010003C7E70093C5F5FFF98DE6
:103A70002387B700B7170040238007048280010026
:103A8000B7170040930670052380D704130780FA08
:103A90002380E7040100010003C5E700C98D93E519
:103AA00005042387B7002380D7042380E70401009F
:103AB000010083C5F70093F5C50FA387B7002380E6
:103AC000D7042380E7040100010003C7F7007D1637
:103AD0003336C000598EA387C70069BFB7170040AF
:103AE00003D58700420541819377050491EB9377D5
:103AF000F5013755E801130505803345F50282804D
:103B00009377050C130700046397E7009377F5019B
:103B100037459C1CCDB72165130505D08280B7F7CA
:103B200000E08847CC478280814737470040A14664
:103B300063C4C700328582800345B7C0E38EA6FE0A
:103B40003385F5000345050085072304A7C0CDB7DD
:103B500012059A054D8D1365C5001375F50FB7272E
:103B600000402380A7408280B727004001E5A38062
:103B700007408280239CB740239EC740154791E2AF
:103B80000547A380E7408280411122C406C62A84EB
:103B9000B1372947B307E502B2408D83B3D7870217
:103BA00022449507B3D7E70237470040C207C183D5
:103BB0002316F7C04101828071654111130505206C
:103BC00006C6D937B7470040130770F82381E7C00E
:103BD0000D47A381E7C013070004A380E7C0054792
:103BE0002387E7C0B24041018280B787004023802D
:103BF00007001307C0FC2386E700A386E70017171A
:103C000000200357A70E2398E7001717002003573B
:103C1000270E239AE700171700200357A70C239CB1
:103C2000E700171700200357270C239EE70089465B
:103C30002381D70249472383E7022385E7022387AD
:103C4000E7022389D702A38107001307900223808C
:103C5000E700B716004003D7A6011367070C239DA2
:103C6000E6007D572383E700130710F8A380E700E1
:103C70001D472381E7008280B78700402382A70287
:103C800003C767021377C70F2383E7028280B787D2
:103C900000402384A70203C7A7021377C70F238519
:103CA000E7028280B78700402386A70203C7E702A6
:103CB0001377C70F2387E7028280B78700402388E6
:103CC000A70203C727031377C70F2389E702828060
:103CD0009387818E9C43011106CE22CC91C382979B
:103CE0009387C19280439387C18E9C43131504012F
:103CF000418181C72AC68297324583D7E1826379A1
:103D0000F50403D701836378A7049386418E03A348
:103D10000600630603006244F240056102838507E2
:103D2000998F1395070141819357250013150401BD
:103D300041816544198D330585021384F7FF22956F
:103D40003345F5021375F50FF24062440561828038
:103D500013054006D5BF0145C5BF03A84500411165
:103D600026C206C622C48347180003480800A94497
:103D7000A207B3E70701C2070D68C187130828909F
:103D80006396070385473284EF90901FAA8419ED4C
:103D90009387018E9C4399CB03451400034704008D
:103DA0002205598D1335150005058297B24022442E
:103DB00026859244410182802D453DE7D84141113D
:103DC00022C426C206C68347170003470700B684ED
:103DD000A207D98F0D67930697A132846396D70205
:103DE000C53D83C7B1826374F500A385A182854771
:103DF0002390F40083C7B1822300F4000145B24050
:103E00002244924441018280130787902945E39818
:103E1000E7FECC4589472390F4000946228597D0D8
:103E2000FF1FE780A0C8D9BF828083474500858BEC
:103E3000ADC7011122CC2A84035525009385C1A664
:103E400006CEEF90B00E058929C503552400014721
:103E500081460546ED45EF90A0492AC61DC997E762
:103E6000FF1F9387E75283D7A70201462C00231434
:103E7000F10085472315F10083C7B1822300F500C7
:103E800003552400EFA0006809C5ED452800EF9018
:103E9000E05DF240624405618280828041654111AB
:103EA0009385C1A67D1506C6EFB0E055B24097E6F2
:103EB000FF1F9386E6524146954517E5FF1F130500
:103EC000254D41016FB0404923A0A18E8280411150
:103ED00022C406C6854709446311F50283470600DC
:103EE0000144A38EF18C03C7B1826378F7001705F4
:103EF00000001305C5F3EFD070072285B2402244BD
:103F00004101828085476301F50209C909476302BF
:103F1000E5020D476306E5020945828083C7B18249
:103F20002380F500014582809387D18D83C70700E8
:103F3000C5BF97E7FF1F83D747462390F500DDB73E
:103F400013874183035707002392E50017E7FF1FFC
:103F5000130707448356A7020357A7032383F500DB
:103F60002390D5002391E50075BF411106C68D331E
:103F700083C7B182637AF500A385A182170500008B
:103F80001305E5EAEFD0807EB24001454101828011
:103F900041677917630CE502411122C406C68547C3
:103FA0002A84639AF50022852244B2409385C1A6F3
:103FB00041016FB0404589476396F5008545EFD0D4
:103FC000607575D1B2402244410182808280CC412B
:103FD000411106C6328503C6150083C505002206B9
:103FE0004D8E42068D654186138875A2630C060FBF
:103FF0006348C804138845A26306060B634AC800D9
:10400000938535A26309B60623900600294679A058
:10401000138855A26308060B938565A2E316B6FEC6
:10402000C1451D4663ECE5064546198E63F3C7009E
:104030003E862390C600974502009385A54D89A82A
:10404000138895A26300060F634E060B1388A5A282
:10405000630A060F938505A5E318B6FA99451D4630
:1040600063EEE502198E63F3C7003E862390C60017
:104070009385C18331A89D451D4663E1E502214634
:10408000198E63F3C7003E862390C6009385018F87
:10409000BA9597D0FF1FE78060A10146B2403285F4
:1040A00041018280AD451D46E3EAE5FE3146198EA9
:1040B00063F3C7003E862390C600974502009385B0
:1040C0002549F9B7B1451D46E3EAE5FC3546198EA9
:1040D00063F3C7003E862390C60097450200938590
:1040E00025487DB7C1451D46E3EAE5FA4546198EE8
:1040F00063F3C7003E862390C60097450200938570
:10410000A54279B7C1451D46E3EAE5F84546198E53
:1041100063F3C7003E862390C6009745020093854F
:104120002545BDB7C1451D46E3EAE5F64546198E6E
:1041300063F3C7003E862390C6009745020093852F
:10414000E53FB9B7B5451D46E3EAE5F43946198EB2
:1041500063F3C7003E862390C6009745020093850F
:10416000653A3DB797E6FF1F9386463B4146CD45EE
:1041700017E5FF1F130585276FB0001E8280938708
:10418000C1909C4303C7019083C6718501E78147B5
:104190003E85828003D607006316A60003C667002B
:1041A000E308D6FE7D171377F70FA107C5B7B286D0
:1041B0002E86AA8517450200130545406F20F2049C
:1041C0000111930500030D4506CEEF60C02693054F
:1041D00000051145EF6020269305C0030545EF60FB
:1041E000802585471306F100854513055030A30748
:1041F000F100EFE0A119F2400561828093874190C0
:104200009C43328791C703A38700630303000283A3
:1042100009CB130600199305000203C5A1816F4065
:10422000E00782808547631CF5001166130686A9A6
:104230008945171500200345E5AB6F4020068947E7
:104240006319F5008945171500200345A5AA6F409D
:104250004021828085476398F50019E2238DB18E55
:104260002388C190828009476399E50019E6238D70
:10427000F18E03D5818F6F005008828001119397D2
:10428000050126CA06CE22CC4AC84EC652C4C187F2
:10429000AE8463D90708171500200345A5A5EF30A4
:1042A00090252A8439C9034705009307000D63133D
:1042B000F704834725004547638BE7046547639B05
:1042C000E702174502001305E52BEF2002741309DE
:1042D00054009309B400174A0200130AEA2B8345DD
:1042E000090052850509EF204272E39A29FF29450A
:1042F000EF20A2752285EF30F0182165258DF24060
:104300006244D2444249B249224A0561828003464E
:104310006500834575001745020013056528EF20E9
:10432000C26EC9BF93F7150085C317E6FF1F1306BA
:10433000A61F93858184171500200345A59BEFD008
:10434000115413C5140065BF93F725000145C5DB63
:1043500029391166130686A98945171500200345DA
:104360006599EF30B07313C5240051BF797126D21F
:104370004ECE06D622D44AD052CC9147AA84AE89DA
:104380006314F50483D7A5001306E10085451305E2
:104390005030239CF18E23070100238D018EEFD036
:1043A000F17E938741909C4391C7DC4781C7CE85BE
:1043B00026858297B250225423AE918E0259925490
:1043C000F249624A456182801387C18F1843E31A1C
:1043D000F7FC854503D5818F653E854503D5818FE3
:1043E000EF006077C16703DA818FF917631BFA0268
:1043F00005449305E10013055041238D018EA38BE5
:10440000818423070100EFC011078347E100B1E376
:1044100003C701919147E316F7F85D3323880190B4
:1044200049B79387C19003A9070003C4019069D0DD
:104430000355290011C99305E100EF90301509C516
:104440004C455285EFA0307C7D141374F40F210984
:10445000F9BF938781909C4383C74700898BCDDB4D
:104460009305000A0D45EF50107D9305000A114594
:10447000EF50707C81450545EF50F07B1306E1005D
:1044800085451305503023078100EFD0317049B7BF
:104490000111170500001305A5DE06CE22CCEF4062
:1044A0004020171400201304E48485471306F1000C
:1044B00085452300A40013054041A307F100EFC088
:1044C000D1227D55EF80102B7D55EFA0B07059396A
:1044D000EFF0DF9CD52B170500001305E5D4EFF0B6
:1044E000BF9E170500001305A5C929250345040033
:1044F0008545EF303049F24062440561828023A255
:10450000B19023A4A190828023A6B1902380A19092
:1045100082809387C18F9C43797106D622D426D29C
:104520004AD04ECE52CC1147639BE70483C7A18F7C
:10453000414481CF9387C1908043B284B68983C7B9
:10454000019003C7718599EB55442285B2502254DE
:1045500092540259F249624A45618280834644007E
:10456000639AA600834654006396B60083466400AF
:104570006380E606FD1793F7F70F2104E9B70947B3
:104580004144E384E7FC2C0013055041230401005F
:10459000EFC0616E834781008DCB930500020D450E
:1045A000EF507069930500031145EF50D0689545B1
:1045B0000545EF505068854730008545130550305C
:1045C0002304F100EFD0915C49B7DD3E4144B5BF13
:1045D0000355240093056100EF90407B35D54C4591
:1045E00003D5818FEF908014058939DD139904017B
:1045F00013590901014781464A86ED4503D5818F4C
:10460000035A0400EF80D04E2AC64D441DDD268695
:10461000CE85231441012315210197C0FF1FE78098
:10462000E04801462C0003D5818FEF90B06D2A84BD
:10463000E30D05F0ED452800EF80506339B7C84120
:10464000011122CC06CE3284034615000345050035
:104650002206498E19CB0D681308B8A42D45630AAC
:104660000607F2406244056182800D651308D5A4F7
:1046700063000603130825A2630C0601757813086E
:10468000E85C3298420813580801854863EF080334
:1046900003D5A50036C632C4EFF07FAEB24615C1D1
:1046A000938741909C4322468345550003A307000E
:1046B000A2876244F240034545003687854605617E
:1046C000028323900600014569BF1308B5A4631750
:1046D000060303D6E1851D45E375C7F8198E63D33C
:1046E000C7003E86CC452390C60042064182BA955B
:1046F000228597C0FF1FE780603BF1B79307A5A411
:104700006318F60091472390F6001146CC45CDB7CB
:10471000930785906317F60089472390F6000946B2
:10472000F5B79307E5A4631AF600DC45239016015C
:1047300083C707002300F40079B713057590E314CD
:10474000A6F8D9BF011122CC06CE26CA4AC8231723
:10475000D1002D4431EBDC412E89B28403C4170013
:1047600083C7070022045D8C8D679386D7A46306F8
:10477000D400938627A36310D4040355A900EFF057
:104780001FA019E101440DA0938741909C438345EC
:1047900055000345450003A807002286A687130796
:1047A000E100814602982A842285F2406244D24484
:1047B0004249056182809386C7A46314D40283575B
:1047C000E10005473544E391E7FE03450600130485
:1047D0000008E3EBA7FC938741909C43DC4382975E
:1047E00055B793862790631AD4028356E100854714
:1047F000EF8010792A844DF99387C1908356A900E0
:104800009C4303C701903DDF03D627006302D60413
:104810007D171377F70FA107FDB79387E7A4E3137D
:10482000F4F68357E10005473544E39FE7F6034577
:10483000060013040008E3E9A7F6DC452380A7007F
:10484000938741909C433335A0000905DC4341BF69
:1048500013874190184303C5470083C5570083C79A
:1048600014000328070003C70400A2078946D98F54
:10487000C207C18705476383E7008D460D66A6879B
:104880001307E10013062690029839BF411122C494
:1048900041641305F4FF9385C1A906C626C24AC028
:1048A000EFA070361305F4FF9385C1A8EFA0B035D3
:1048B0001305F4FF9385C1A797E4FF1F938484C772
:1048C000EFA0703497E6FF1F9386C6E44146F94592
:1048D0002685EFA07028CC4C2A890945EFF08FE29D
:1048E0001387818693870187834507000346170056
:1048F00083D7070003D7A4101384C1AA2312F4009E
:104900002314E40083D7A40C03D7A411A306C40086
:10491000A30EC40003D6A4172310F4002315E4004B
:1049200083D7A40D1387C1868346070003D5A4143B
:1049300003471700231CC40003D6A4182311F40056
:1049400085472303F4002307F400230AD400230B34
:10495000F400231DC4002302D4022306B400A30ADA
:10496000E4002318A400230EB40023190400230F2D
:104970000400A302E40203D7A41A2307F4022311BC
:1049800004022310E4021387418603570700230320
:104990000402231504022316E40203D7A41C938502
:1049A000C1AD0D452314E402EFF0CFD5A28521451A
:1049B000EFF09FB5B24022444A859244024941013A
:1049C00082808D67138527A36301A6049387D7A4EC
:1049D0000145631EF6008947639CF5008547354510
:1049E0006397F60083470700238BF190014582808F
:1049F0008D472945E39DF5FE85473545E399F6FE4C
:104A000083470700238AF190D5B785473545E39062
:104A1000F6FE83470700A389F190C9BF8D67138510
:104A200027A36308A6029387D7A46317F6028947D2
:104A3000639BF50083C761912300F70085472390AE
:104A4000F600014582808D476398F50083C7419148
:104A5000E5B783C73191CDB723900600DDB7014597
:104A6000828025E303A84500AE88834718000348E9
:104A70000800A207B3E707010D68930EF8A4639A34
:104A8000D70391473548639FF60203A5C80041113B
:104A9000B285114606C697C0FF1FE78020019387A5
:104AA00041929C4305458297B240014842854101AD
:104AB00082809308289029486396170185476F8064
:104AC000304C2D4842858280416541119385C1AEAD
:104AD0007D1506C6EFA03013B24097E6FF1F938600
:104AE00026CA4146994517E5FF1F130565C34101D5
:104AF0006FA0900623A2A192828001119385C1AE7E
:104B000022CC06CE2A84EF807042058929C1014754
:104B100081460546ED452285EF80807D2AC605C980
:104B200097E7FF1F9387C7BF83D7A70501462C00D0
:104B30002314F10085472315F10023000500228589
:104B4000EF90501C09C5ED452800EF803012F2406F
:104B500062440561828041677917630CE502411167
:104B600022C406C685472A84639AF500228522441A
:104B7000B2409385C1AE41016FA0F00889476396AA
:104B8000F5008545EFC0103975D1B240224441018E
:104B9000828082800567930797E763F8A7029306F0
:104BA00017EC854763F1A6029306B7F0894763FCCB
:104BB000A600930637F58D4763F7A6009307D7F94C
:104BC000B3B7A70091073E8582808147EDBFB71735
:104BD000004017070020130707122394E706170762
:104BE0000020130787122396E706130710FCA38003
:104BF000E706828041118545116506C6EFE0FFADED
:104C0000814513050010EFE0FFA289450145EFE063
:104C10004FFBB71700403147238CE7040547238D2E
:104C2000E704A38107066537B24003C591821306E6
:104C30000064A14541016F3060661707002013072B
:104C4000870B970600209386460C81470356070082
:104C50000907B297E31CD7FE2947B3D7E7021387AA
:104C6000819218439386870C63E9E6001387C1920B
:104C7000184323A4E19223A6F192828001114EC62B
:104C80009389C19222CC03A4090052C406CE228586
:104C900026CA4AC80137938781922A8A88433304F7
:104CA00085409357F4413D8C1D8CED3563164503CB
:104CB0009307100363CA870E814513058007EF1021
:104CC0006013130680079305000E13050004592A8C
:104CD000130680078145C5A8174702001307C7B60A
:104CE0008D461306B00781451305B005EF10A030BF
:104CF00081451305D005EF10E00F8144639844050A
:104D000085451305D005EF10E00E814463974407F5
:104D100089451305D005EF10E00D8144E38A44F97D
:104D200013068007A145130500042D2A11497D199A
:104D300013068007AD45130500041379F90F1D22F2
:104D4000E31709FE850493F4F40FC9BF1306800727
:104D5000C14513050004392211497D191306800746
:104D60009305000D130500041379F90FE528E316E8
:104D700009FE850493F4F40F51B7130680078145AB
:104D800013050004C52011497D19130680079305FA
:104D9000F00F130500041379F90FE920E31609FE5B
:104DA000850493F4F40F9DB7814513058007EF1038
:104DB0006004130680079305100E130500045D20A0
:104DC00013068007AD451305000469288D451305BA
:104DD000F005EF102002624403A60900F240D2441D
:104DE0004249B249224A91468D451305F0050561B5
:104DF0006F10401101119307F00F22CC26CA06CE86
:104E00003EC62A84AE8409CE2685029419CDB247C7
:104E100089CFB247FD173EC6C5BFB247FD173EC694
:104E20002685029419E1B247EDFB3245F240624417
:104E3000D2441335150005618280411185450D6509
:104E400006C6EFE09F89B240B7250600930720050C
:104E50001167930600400146938505A8014541016D
:104E60006FE0DF9B011126CA4AC84EC62E89AA8967
:104E7000B284B7050200054617F5FFFF1305A5B973
:104E800006CE22CC853F2A840545EFE03FADB7052D
:104E900003000146850517F5FFFF1305C5B5993FCA
:104EA0002A9481452685EFE05FB3B7040700938518
:104EB0002408014617F5FFFF1305E5B3253F1374DA
:104EC000F40F2A944E85EFE0DFAF93850408014686
:104ED00017F5FFFF130525B2313F1374F40F2A9421
:104EE0004A85EFE01FAE93850408014617F5FFFFE2
:104EF000130565B001371374F40F2A940545EFE0EC
:104F00001FA81374F40F2285F2406244D244424930
:104F1000B2490561828001114AC852C456C2328921
:104F2000AA8A2E8A0546B705020017F5FFFF13056A
:104F300085AE06CE22CC26CA4EC66D3D2A840545D6
:104F4000EFE0DFA1B704030001469385140017F5D5
:104F5000FFFF130545AA793D2A9481454A85EFE074
:104F6000DFA7B709070093852908014617F5FFFF5A
:104F7000130565A841351374F40F2A945685EFE0A4
:104F80005FA493850908014617F5FFFF1305A5A641
:104F900095351374F40F2A940545EFE03F9C0146C4
:104FA0009385140017F5FFFF1305E5A4A1351374CD
:104FB000F40F2A9485454A85EFE03FA293852400AB
:104FC000014617F5FFFF130505A32D351374F40FE4
:104FD0002A940145EFE0BF9A0145EFE07F9CB705B9
:104FE000001001469385050417F5FFFF1305A5A2E0
:104FF00011351374F40F2A94EFE05F9D2300AA008B
:105000000545EFE0DF970545EFE09F991374F40F36
:105010002285F2406244D2444249B249224A924A2D
:105020000561828001114AC84EC65AC0B2892A8BD6
:1050300005462E8917F5FFFF1305E59DB70502000C
:1050400006CE22CC26CA52C4B68456C265332A8400
:105050000545EFE0BF90370A0300014693051A00AB
:1050600017F5FFFF1305259971332A9481454E8565
:10507000EFE0BF96B70A070093852A08014617F5A7
:10508000FFFF13054597BD331374F40F2A945A8517
:10509000EFE03F9393850A08014617F5FFFF1305DC
:1050A0008595893B1374F40F2A940545EFE01F8B17
:1050B000014693051A0017F5FFFF1305C5931D3B25
:1050C0001374F40F2A9485454E85EFE01F919305E4
:1050D0002A00014617F5FFFF1305E591213B1374E4
:1050E000F40F2A94B709001001451374F40FEFE090
:1050F0001F89130AF00F9389090497FAFFFF938A17
:105100008A91FD1493F4F40F639344030545EFE093
:105110001F870545EFE0DF882285F2406244D244D4
:105120004249B249224A924A024B056182800145B6
:1051300091C00545EFE0DF860146CE8556855D3995
:105140002A940509EFE09F881374F40FA30FA9FEBA
:105150004DBF41119306400517060020130646C0B7
:1051600089652D4506C697B0FF1FE780805DB24078
:1051700089659306400517060020130626B9938516
:1051800005402D45410117B3FF1F6700835B4111A7
:105190009306400517060020130686BC896529453D
:1051A00006C622C497B0FF1FE780A0598965137413
:1051B000F50F9306400517060020130626B59385C4
:1051C0000540294597B0FF1FE780A057418DB240A9
:1051D00022441375F50F4101828001111306400529
:1051E000973502009385455717050020130545B7ED
:1051F00006CE22CCEF10027613064005973502004A
:105200009385C54817050020130545B0EF1082743B
:10521000BD3F0D641306F1009305048085462945C2
:10522000A307010097B0FF1FE780A0518547130631
:10523000F1009305448085462945A307F10097B006
:10524000FF1FE78000501306F10093058480854618
:105250002945A307010097B0FF1FE780804EF24069
:1052600062440561828097070020938767AF9706A5
:1052700000209386A6A903C737056318B700A38942
:10528000A704FD17E399D7FE19B7E31CA7FEA3896E
:10529000B704C5BF411106C683C7A193638A07221D
:1052A00017D7FF1F0347D70B631407228546A38533
:1052B000D19497D7FF1F83C7A70A03C7819399EF9C
:1052C00009C70145B24041018280238CD19283C736
:1052D000919393F7070FA38CF192E5B7894663107A
:1052E000D70203C7919391466315D700A38CF1941D
:1052F000C9BFA146E317D7FCA384F194D9B71946D7
:105300006398C700238CD19283C79193B18BE1B787
:10531000D546639BD7009307100B6308F71A9307D2
:1053200010FB238CF19295A8C5466399D70093078B
:10533000200B630CF718930720FBE5B7C146639970
:10534000D7009307300B6302F718930730FBD1BFE8
:1053500095466399D7009307000B6308F7169307E8
:1053600000FBC1B79306D002639CD7029307100CD1
:10537000630DF714930710FC238CF19293874182FD
:1053800098438347070093E707012300F70097D767
:10539000FF1F938767FD9C478297A38C019215B7E7
:1053A0009306E0026392D7029307000C630FF71095
:1053B000930700FC238CF1929387418298438347A3
:1053C000070093E78700D1B79306C0046398D7001E
:1053D0009307E00F630BF70EF957A1B7930650033D
:1053E0006399D7009307000D6301F70E930700FD43
:1053F0000DBFDD466399D7009307100D6307F70CC7
:10540000930710FD39BF930670026398D700930786
:10541000000E630CF70A815729B7F9466398D70045
:105420009307100E6303F70A8557E5BDFD466398A1
:10543000D7009307200E630AF7088957DDB5930656
:1054400000026398D7009307300E6300F7088D576A
:10545000C9BD930610026398D7009307400E6306F8
:10546000F70691577DBD9306A0036398D700930775
:10547000000F630CF704C1576DB59306B003639832
:10548000D7009307100F6302F704C55759BD930661
:10549000C0036398D7009307200F6308F702C9572A
:1054A00049B59306D0036398D7009307300F630E76
:1054B000F700CD57BDB59306E0036398D700930777
:1054C000400F6304F700D157A9BD238C0192F1B5B9
:1054D00003C7B1940545E317A7DEE39507DEA3856F
:1054E000019483C781939306100D6386D72E63E9D9
:1054F000F60E9306200B6380D72463EEF60409476B
:10550000638EE71E636AF702E39DA7DA83C7919370
:10551000C10793F7F70F13070005E39EE7DAA38CA3
:105520000192238C0192EFF05FCB17350200130537
:10553000251BEF00107445A01307000B6388E720BC
:105540001307100BE39FE7D6238C019297B0FF1F40
:10555000E7808002BDB39306000C6381D72263E528
:10556000F6029306300BE39ED7D4238C019283C7B7
:10557000C18DE398E7D49305000417F5FF1F034599
:105580002576EF20304035BB1307100C6387E71CEE
:105590001307000DE397E7D2238C019283C7418C58
:1055A00003C7C18DD98FE39E07D083C7818293B78C
:1055B0001700854513868182130550302384F182BC
:1055C000EFC0D15CAA85630B051E173502001305D9
:1055D000A512EF00106A13054006EF00D071D5B197
:1055E0001307100F638AE722636DF70A1307400E53
:1055F0006362F7081307100E63F2E7201307000E2B
:10560000E391E7CC03C5A18213351500238C0192E9
:105610002385A18283C7D1958DCB83C7418C03C7D6
:10562000C18DD98F9DC3F9473305F50201468145E8
:105630006905EF00704483C7A1821305800391C3FD
:10564000694505468145EF00304383C7A182173580
:1056500002001305E50CE39E07EC83C7C18D1735E7
:1056600002001305650CE38607EC173502001305ED
:10567000250CC1B51307000FE395E7C42380A1945F
:10568000173602001306460B85455145238C0192BF
:10569000EF005054972700009387479E23A0F1887E
:1056A0000DB11307400F638BE71A636CF702130702
:1056B000200F6384E7181307300FE394E7C0238CAF
:1056C00001928547173602001306C60785455145E6
:1056D0002380F194EF00105097270000938767B55F
:1056E00075BF1307E00F6384E70A1307F00FE39A0F
:1056F000E7BCA38C0192238C0192E1B683C79193FE
:10570000910793F7F70F3147E397E7BC173502008E
:105710001305C5FDA38C0192238C0192EF007055F7
:1057200013054006EF00305D83C5919503C5919444
:10573000EFF07FB379B6238C019283C7C18D014509
:105740006383E7000545EFD05FC309B5238C019261
:1057500097B0FF1FE780A0DDADB6238C0192938741
:105760004182984383470700BD9B2300F70097D7EA
:10577000FF1F938767BF9C478297A1B6238C019236
:1057800093874182984383470700DD9BF9BF238CB1
:10579000019283C7119481EF85472380F194972765
:1057A0000000938767FB23A0F188EF20A02183C727
:1057B000119493B71700A380F19421B683C7818217
:1057C000173502001305C5F3E39507D61735020018
:1057D000130585F3B9BB238C019283C7C18713B727
:1057E0001700238EE18617350200130565F2E38268
:1057F00007D417350200130525F225BB938707024E
:105800001306401FC14503C5A181A382F180238CEB
:105810000192EF20B02875B42380A19417360200BE
:105820001306C6F185455145238C0192EF00903A4D
:10583000972700009387478695B52380A194173654
:1058400002001306E6EF85455145238C0192EF00D7
:105850007038972700009387479389B52380A194D8
:1058600017360200130646EE85455145238C0192FA
:10587000EF00503697270000938767A805B54111C0
:1058800006C622C426C2EFF0DF8C93844194FD57F4
:1058900017F7FF1FA30CF7509C40371400409145A9
:1058A00093E7C73623A2F1940327840CD98F2324CE
:1058B000F40C8840EFD07FE29C400327840C97369D
:1058C0000200938626D993F7F7DFD98F2324F40CAF
:1058D000138741931C4317360200130626DB8C42C4
:1058E0009106CD8FE39DC6FE23AAF192B716004024
:1058F00003A6860A2244B240D18F23A4F60A92441A
:105900000843854541016FD0FFD203D7E193930748
:10591000F7FF5D71C20786C6A2C4A6C2CAC04EDE2A
:1059200052DC56DA5AD85ED662D466D26AD06ECECF
:10593000C183DD4663E6F616E1476310F70297F789
:10594000FF1F9387A73C17360200130626E0854504
:10595000094523ACF186EF00F02783D7E193850753
:10596000239FF1921384C1AF973B0200938B8BCEA0
:10597000814AA284938C818717FCFF1F130C4C3E35
:1059800017F9FF1F130989389389418717DBFF1F18
:10599000130B8B9C19473387EA0203CA8194B7160D
:1059A000004003A60B0083A6460AF18EB307E4006D
:1059B000D29783C50700639C051ED1E683A70C0020
:1059C00083C641873E979D47529763F8D7000346A9
:1059D00007009307F00D63F8C70699473386FA026C
:1059E0008545B387C400D2972380B7009387018889
:1059F0008C43972700009387C783639BF5029737F3
:105A000002009387A7DAB297D29783C707001306DD
:105A1000F00F638FC7000D463386C702938741D0CE
:105A2000B2973D462381C700A380C7002380C700EB
:105A30000546A38DC192834707009305F00F63903D
:105A4000B70E238DC192850AB947910BE394FAF4FE
:105A500003C781949306170093F6F60F2384D1941D
:105A6000973702009387C7D90A07B71500403E97BA
:105A700003A6850C1843518F23A4E50C15476374C6
:105A8000D7002384019483C681948A063716004088
:105A9000B6970327C60C9C43D98F2326F60C8DA0FE
:105AA00083C77195E38007ECFD1793F7F70FA38B7E
:105AB000F194E39907EA17D4FF1F1304E4898144A2
:105AC00093099003154A194983478400639E37015F
:105AD00033069A409305940013058400EF00926703
