:040000006F20003C31
:100004000000000000000000900000201C020020FE
:10001400A9BDF9F5940000200000000000000000D4
:10002400960000209800002000000000000000005E
:100034009A000020000000009C0000200000000046
:10004400A2060020FE0600200E070020A4000020C7
:10005400A6000020A80000208C020020AC00002094
:10006400AE000020B0000020B2000020B400002048
:1000740088060020B8000020BA000020BC00002040
:10008400BE000020C0000020C2000020C4000020E8
:1000940001A001A001A001A001A001A001A001A054
:1000A40001A001A001A001A001A001A001A001A044
:1000B40001A001A001A001A001A001A001A001A034
:1000C40001A001A001A0B71700409306700523808A
:1000D400D704130780FA2380E7040100010003C654
:1000E400B7041376F60DA385C7042380070413769B
:1000F400050251CE03C6A700118A1DE22380D7044E
:100104002380E7040100010003C7A7001367470029
:100114002385E7009307004B01000100FD17EDFF65
:10012400B7170040930670052380D704130780FA9D
:100134002380E704010001007D892394A7000100C6
:10014400010001000100238007042380D7042380D9
:10015400E70401000100372700408546A303D78048
:1001640023800704B7170040130770052380E704B2
:10017400130780FA2380E7040100010003C7B704D2
:1001840013670708A385E704238007048280137696
:10019400050425CA03C6A700418A1DE22380D704AB
:1001A4002380E7040100010003C7A70013670701C8
:1001B4002385E7009307007D01000100FD17EDFF93
:1001C400B7170040930670052380D704130780FAFD
:1001D4002380E704010001007D891365050423944D
:1001E400A70001000100010001002380070423800F
:1001F400D7042380E7040100010037270040894623
:10020400B1BF2380D7042380E7040100010003D792
:1002140087001367070C2394E700A9B781460146BA
:10022400814511456D23B7170040130770052380DE
:10023400E704130780FA2380E704010001007D57D7
:100244002396E70203C76704136717002383E704B1
:100254002380070401A0BD473305F50201007D1585
:1002640075FD8280411122C426C206C6AA840144B7
:1002740063179400B24022449244410182800504F1
:100284001305803E4204C13F4180DDB70111A3073D
:10029400010022CE26CC4ACA4EC837840040834788
:1002A400640093F7F70FA307F1008347F100898BEC
:1002B400638D072E834774001307000393F7070326
:1002C400638EE7068344740083477400BD8893F704
:1002D4000703638A071C13070002639CE70413895E
:1002E400C1EA6399041083C701039D83F9C7834757
:1002F400240293C707042301F4028347240293F7DB
:10030400C70F93E727002301F4028327490183C51C
:1003140001EB63FCF5088D8F23A0F1EC83278901A1
:10032400BE9523A2B1EC13050008976000E0E780B6
:10033400C06CB787004009472383E7003784004037
:1003440083477400E207E18763D6072A930720FCFA
:100354002301F4029384C1EA83A5840C2146138506
:10036400010397B002E0E78000E28387441863CA80
:100374000700230004028347240293F7C70F2301D5
:10038400F40237840040834724021385010393F762
:10039400370F93E787002301F402976000E0E780BA
:1003A400605689472303F400B1A483258901BE95CF
:1003B40023A2B1EC23A001ECBDB703C711039547F9
:1003C400631BF700834734000347090093F70708CA
:1003D400D98FA301F4008347240293F7C70F93E74F
:1003E40027002301F4028347240293F7370F2301E4
:1003F400F40281B791476398F4008347240393C7B9
:1004040007042309F402154433D484029307000338
:100414003304F402939724003E94B78700409387F3
:1004240027023E948347040093F7C70F93E72700FE
:100434002300F400E147B387F402CA97D84B03C6FC
:100444004700944F6379E6048C4B118FB296B295B2
:100454008CCBD8CB94CF88476376E60297B002E082
:10046400E78060D2E147B384F4028547CA9403C7A6
:100474005400630BF7008347040093F7C70F23006E
:10048400F40045BD3A86D9BF8347040093F7C70FEC
:1004940093E71700EDB7B305D7008CCF23AA070065
:1004A40013E5040859B5B1E4834724028344840066
:1004B4001389C1EA93C707082301F4028325890C31
:1004C4000325090D268697B002E0E780C0CB83257B
:1004D400890D0145A69523A2B1F88327490D858F7F
:1004E40023A0F1F8976000E0E7802053E39304E44D
:1004F400DDBD8347740093F70704E38C07E291475B
:100504006398F4008347240393C707082309F4027C
:100514006144B3878402B78900401384C1EA03C9E4
:1005240089004A863E948325840C0325040D97B0E4
:1005340002E0E78040C58327040D8325840D03472B
:10054400440CCA972328F40C8327440DCA95232C02
:10055400B40CB3872741232AF40C6363E90099E7B9
:100564002685976000E0E780404BE1B39547B3D719
:10057400F402130700038A0493892902B387E7026C
:100584000347540CBE948547CE946309F70083C790
:10059400040093F7370F2380F40061BB83C7040082
:1005A40093F7370F93E74700FDB78347F100858B37
:1005B40099CFA3010400976000E0E78040318347AE
:1005C400240293F7370F2301F4028547E1BB8347E5
:1005D400F100918B9DC7834754000145918B91E3B2
:1005E400054597A000E0E780803AB78700401147AF
:1005F4002383E7007244E2445249C249056173000F
:1006040020308347F10093F7F70F69BB411106C609
:1006140085660146814505455D2A7DF98146014689
:10062400814511456D22B7170040130770052380DB
:10063400E704130780FA2380E704010001007D57D3
:100644002396E70203C76704136717002383E704AD
:100654002380070401A0B717004013077005238007
:10066400E704130780FA2380E704010001007D57A3
:100674002396E70203C76704136717002383E7047D
:100684002380070401A08280B717004013070003EA
:100694002388E7028547175700002321F7FA7300E0
:1006A4002030411122C63724004083476400858BE3
:1006B4009DCF85472303F4009387C1CF9C438507CF
:1006C40023AEF1CE972000E0E780A0429307803E5E
:1006D4003355F502894748C42300F40091472300A9
:1006E400F4008347240093E717002301F400324405
:1006F400410173002030411106C65125FDBF03D7C7
:1007040001CDB7170040239EE70873002030730023
:1007140020302303048015472303E48001002302CF
:10072400A480828083076480E3CE07FE23030480D1
:10073400828083076480E3CE07FE03454480828081
:1007440083076480E3CE07FE2302A48082804111E4
:1007540026C44AC24EC006C61377F50BAD47AA8914
:100764002E8995446306F70019456537653F8D4426
:100774004E854537FD59FD1463983401B240A244B7
:100784001249824941018280135509011375F50FFD
:10079400453F2209CDB7011126CC06CEB704080087
:1007A40051371545BD37713769372AC6A53F3245DC
:1007B4009377150089EB136515001375F50FF24057
:1007C400E24405618280FD14E9FC0145CDBF397125
:1007D40026DC4ADA4ED852D656D45AD25ED006DE39
:1007E40062CE66CCB7E700E07D5783AA070022C635
:1007F40003AA470023A0E71823A2E718B71700406D
:10080400130770052380E704130780FA2380E704A5
:1008140083C74704930B75FFB684E20793FBFB0F72
:100824008546AA892E8B328937240040E1870157F7
:1008340063FA76016308D50089461307000263133F
:10084400D5000157D98F93F7F70FB71C00402382C7
:10085400FC0411472303E4801305F00F5D3D094CAC
:10086400D135636D7C11B7050700DA95378707002A
:10087400795563F2E504B3879500636EF702370B8D
:100884000800A94733EB65016399F90689E48144BB
:10089400513D26850DA0DA850945553D05090345D9
:1008A400F9FFFD14050B693D81C49377FB0FFDF738
:1008B400DD3569FD7D55B7170040130770052380AA
:1008C400E704130780FA2380E70403C74704418B36
:1008D4002382E704F250B7E700E023A0571123A2D4
:1008E4004711E25432445259C259325AA25A125B45
:1008F400825B724CE24C21618280A5476395F906C4
:1009040085691309F00FB3069900B3742B01B694EB
:100914001349F9FFB3749900856B33796901416B0D
:100924009387F9FFB3F7270199E363FC340193D963
:100934004900C147E3E637FF99BF0569C1697D19DD
:10094400D9B71305800D6388690113050002638418
:10095400790113051008CA85DD3B353D21DD4E992B
:10096400B3843441D9B7DA852D45D533CA94E3002D
:1009740099F205097D3BA30FA9FED5BF9387F9FF23
:1009840093F7F70F6361FC0C83C71C04130730084B
:10099400631FF70437070800636BEB04B3079B007E
:1009A400B706100063F5D704334BEB008947639314
:1009B400F9068980D549E38C04ECDA850945413B85
:1009C40011090327C9FF91472320E48003076480AA
:1009D400E34E07FE23033481FD17EDFBFD14110BD9
:1009E40081C49377FB0FE9FF7D3371F5E1B5B71748
:1009F400004003C75704B70708001377070219E339
:100A0400B78707007955E378FBEA33079B00E3FFD8
:100A1400E7F855B58547E382F9F2DA852D45053BBC
:100A24009389F4FFE38504E6293393F7390091EBC6
:100A3400832604800327090093074900E39AE6E428
:100A44003E89CE84F1BFB5476396F9001305900B38
:100A5400C93135BDB1471305B00AE38BF9FE994797
:100A64006391F904B7050800B365BB002D45C53192
:100A740081448D4BA14975396396740183270480A1
:100A84002320F9008504E39834FF83270480131797
:100A94002B01635507002312F900D5BB2322F9006B
:100AA400FDB39D476399F90281451305B0044531AF
:100AB400BD442320090023220900FD599D3993F7E1
:100AC4007400CA9703C70700FD14398D2380A7005B
:100AD400E39634FF6DBBA1476392F9046D398144F9
:100AE400630D0B008D479304C0036308FB0093045C
:100AF400000563048B01930440041375C507E308E0
:100B040095D81945393139390545213126850D39AD
:100B140009453D314931E31C05D669BB91476399C9
:100B2400F90013056006F536F53E130590090DB777
:100B3400E38F09D4F154A9BB19CD91CD09CE8147D6
:100B44003387F500834607003307F5008507230044
:100B5400D700E397C7FE828019C991C909CA9105D4
:100B640083A7C5FF11057D16232EF5FEC5BF828020
:100B740001C919C62A960505A30FB5FEE31DA6FEF5
:100B8400828081473307F5000307070019E33E8598
:100B940082808507C5BF01112E8626CAAA84131533
:100BA40006019305F004418122CC06CE32C6EF1033
:100BB400A0572A8401C53246A685BD3F2285F2404E
:100BC4006244D24405618280854715C18DC105C246
:100BD4008147B306F5003387F50083C60600034753
:100BE40007006398E6008507E315F6FE85473E8512
:100BF40082808147EDBF9307F6FFBE952A96631363
:100C0400C5008280FD1583C715000505A30FF5FEF9
:100C1400FDB7AA87014581CF09CE3E96850703C754
:100C2400F7FF6317B700E31BF6FE05458280828059
:100C3400014582807971976700009387E72F22D45A
:100C4400804306D626D24AD04ECE52CC56CA5AC873
:100C54005EC662C45DCC37C9C901814B176A000006
:100C6400130A0A32976400009384442D1309F93758
:100C7400976A0000938A0A27B709C0A8370B405720
:100C84008357240095E35C44639D0B0017670000C1
:100C94002324F72A032CC4002285EF100056628413
:100CA40099A823A6FB00FDB783270A0082978386B1
:100CB40064011C4463DB06063307F5406367E908F7
:100CC4009767000023A807228355240003450400E6
:100CD40097B000E0E780E0DF5C405844A9CF1444BB
:100CE400B6978386640163C5060063E33701DA9728
:100CF4001CC4A28B3A8449F4976700009387871E2B
:100D04009C4B09476378F706F917176700002323FC
:100D1400F71EB250225492540259F249624AD24AFE
:100D2400424BB24B224C45618280E377F5F833871E
:100D3400F9402A9761B763970B009767000023ADCA
:100D4400E71E89BF23A6EB00B1B7D85009CF63DFF4
:100D540006003385A74083A70A016376F5009767E9
:100D6400000023A9A718A28B404471B7E3F3A7FEA0
:100D7400CE97C5B79767000023AE071659BF411138
:100D840022C4176400001304E4181C4006C626C2DB
:100D94004AC091C782979767000023AD07165C404D
:100DA40091C382971C406391071C9767000083C717
:100DB4007732858B9DC797670000A38D073017672F
:100DC400000003475731914763FDE700EF00B0355A
:100DD4009767000083C73730F9178A07A2979C43A7
:100DE4008297176900001309A9328347C900918BC0
:100DF40099C3EF10C0261C4491C3829797640000E6
:100E0400938444139840176600000346B60D976711
:100E1400000083C7270D93961700BA9683D6060061
:100E2400D5CA9767000083C7E70B63EFC70A9767C4
:100E340000002389070A1C40639807129767000083
:100E440083C7972991CF9767000083C7D72889EB79
:100E540097670000A382072897F001E0E780004429
:100E6400976700009387C7119C43638F070EB707EA
:100E7400C0A817670000232FF7066D3B9767000093
:100E84009387C70BDC53EDC317670000130787056F
:100E9400184B9767000083C7B70B6367F70C176796
:100EA400000003475723914763E0E70C8347C900D9
:100EB400918BDDEB90409766000083C6B60263CB4E
:100EC400D70A2244B24092440249410117B300E0D8
:100ED4006700439D850793F7F70F97660000238308
:100EE400F600E3E6C7F235BF86073E978355070051
:100EF4002310070097670000239C070297670000F0
:100F0400938707019C43176500000345A5FD13174C
:100F14002500BA979C4382979767000083D74701BF
:100F240017670000034707FC93C7F7FF7D8D9317EE
:100F3400170098403E97835707005D8D2310A70044
:100F44009767000083C707FA91C7850717670000F2
:100F5400230AF7F8176700000347C7F897670000EC
:100F640083C757F8E375F7ECB24022449244024930
:100F740041018280139717003297035707006DF7DA
:100F8400850735BFAD6737C70040BD072326F72067
:100F94000F100000976700009387C7F4C84F83279A
:100FA4008726BD66BD0693C7F7FF99836A05232686
:100FB400D7205D8D82804111B7170040985F3AC6F3
:100FC400945F3247E39CE6FE324541018280828091
:100FD4000327851163000712411122C406C6834703
:100FE400C5008345C5042A8493F7C70F2306F5007B
:100FF400834697000356C70013958601618563F104
:10100400C508635A05060345870093F6F607A3044B
:10101400D700054693E627006314C50093E617003E
:101024002306D4005C4389075CC3A30AB4000325E8
:1010340004112E864C430905013683278411034687
:101044005401D44303D7C700B296118FD4C3239657
:10105400E7008947A30DF4000347440397670000A2
:1010640083C7E7EE6378F7048347C40093E7070177
:101074002306F40081A093E717002306F40075B754
:101084009376F60F635D050203458700854513E6F5
:1010940027006314B50013E617002306C400A30A4F
:1010A400D400A30407008547A30DF400832784110B
:1010B4009C43DDF3B240224401454101828093E721
:1010C40017002306F400A30AD400A3040700032591
:1010D40004114C4309058D348327841103465401BC
:1010E400D44303D7C700B296118FD4C32396E70025
:1010F4008D475DBF0545828097670000938747FC55
:101104009C43411122C406C6858B2A84C5EF4165E0
:10111400130525F5979001E0E780605D45C5834799
:10112400A5002315F50083270412BDE72320A4128C
:101134002322A41285472310F404232005008347A7
:10114400640154412316F5000347D4002304E50049
:101154000547A304E50017670000130767F7184F56
:101164001385170215811C437D151375F50F9CC259
:101174005C43DCC21C479CC65C47DCC61C4B9CCA57
:101184005C4BDCCA1C4F9CCE5C4FDCCE19CD9386E5
:10119400060213070702C1BF8327441288C383577B
:1011A40004042322A412850779B79767000083D724
:1011B400E7FE8507176700002312F7FEB2402244BA
:1011C400410182808347C40023090400054593C775
:1011D40047002306F400DDB78347850193F7E70F43
:1011E400CDEB83479501D5E7034625018346C5002A
:1011F40009CA8345450317670000034757D563E7CA
:10120400E50013F7060159C7014709C6C18A035708
:10121400851B81C68356C51B36972DCFB7470F0054
:101224009766000083D686CE93870724B3C7D70278
:101234001307C712411126C222C406C67D54335770
:10124400F7029767000083C7F7D0B384E700976776
:101254000000938727F483A6C70883A7060963F3CE
:1012640087003E849442F5FA97670000938747D13C
:101274009C43829781476364A400B307A440B240AF
:101284002244B3B7970093C7170092443E854101A7
:10129400828081473E858280797126D206D622D407
:1012A4004AD04ECE52CC56CA5AC85EC6834735037E
:1012B40003447513AA843E941374F40F93074002F5
:1012C40063F687001304B4FD1374F40F03AA8413A4
:1012D40083AAC413A38B841222865285D68597A031
:1012E40002E0E780C0E4058915E503CBD412014987
:1012F4008149337B6403930B50024A865285D68519
:1013040097A002E0E780A0E2058915C5639169030F
:101314001374F90F238B8412B2502254925402593D
:10132400F249624AD24A424BB24B456182808509F6
:10133400E20993D989410509E31179FDE1BF8327C6
:1013440085090356E503797193D60701BD8EC2065C
:10135400C182358E1357764093575640898B058B3F
:101364005D8F93573640918B5D8F93571640A18BB9
:101374005D8F93171600C18B5D8F9317360093F71B
:1013840007025D8F931756009355860093F7070461
:101394001E065D8F1376F60F518F93D7554013D6E3
:1013A4003540118A898BD18F13D67540D18F13D6CE
:1013B4001540218AD18F13961500418AD18F139637
:1013C400350013760602D18F139655001376060462
:1013D4009E05D18F93F5F50FCD8FA20745465D8FFE
:1013E4003307C70222D42A8426D252CC56CA032AEF
:1013F4008413832AC4135AC806D6369742074183F6
:1014040093577740135557400989858BC98F1355D6
:1014140037401189C98F135517402189C98F131576
:1014240017004189C98F1315370013750502C98F39
:101434001315570093558700137505041E07C98FAC
:101444001377F70FD98F13D5354013D7554011892A
:10145400098B498F13D57540498F13D515402189C0
:10146400498F139515004189498F139535001375DC
:101474000502498F13955500137505049E05498F80
:1014840093F5F50F4D8F2207D98FB387C7024AD042
:101494004ECE5EC662C4B697C207C18313D77740E7
:1014A40013D557400989058B498F13D537401189C6
:1014B400498F13D517402189498F13951700418906
:1014C400498F1395370013750502498F13955700FB
:1014D40093D58700137505049E07498F93F7F70F7B
:1014E400D98F13D5354013D755401189098B498FAE
:1014F40013D57540498F13D515402189498F13950C
:1015040015004189498F1395350013750502498FDC
:1015140013955500137505049E05498F93F5F50F32
:101524004D8F2207D98FB387C70213065002528505
:10153400D685B697BD8E93940601C18033F6C40256
:10154400137BF60F97A002E0E78060BE05890DEDDE
:101554008347D41201498149B3849702130C500282
:10156400C1804A865285D68597A002E0E78020BCD8
:101574000589937BF90F11C563863403850993F9B3
:10158400F90F0509E31F89FD230B6413B25022549C
:1015940092540259F249624AD24A424BB24B224C0B
:1015A400456182805E8BCDB70111976700009387F8
:1015B40067BE22CC03A4070B26CA06CE2AC42EC6B5
:1015C400854419E40145F2406244D24405618280B5
:1015D4008347910003471400858B6304F70000449C
:1015E400CDB719469305A10013052400EFF0CFDD14
:1015F400E31795FE0545C1BF011122CC1764000015
:101604001304C4AE18402AC62EC432C206CE3C4BC4
:1016140093F7F7F73CCB97F001E0E780E0C418407C
:1016240097660000938606AA3C4B93E707083CCBD9
:101634009C423245A24523A00700034715000348F6
:1016440025002207420842970348050042970348B1
:1016540035006208429798D7034755000348650050
:101664002207420842970348450042970348750001
:1016740062084297D8D7034795000348A50022077C
:10168400420842970348850042970348B500620820
:10169400429798DB0347D5000348E5002207420838
:1016A40042970348C5000345F500429762052A970F
:1016B400D8DB03C7150003C52500220742052A9776
:1016C40003C505002A9703C5350062052A9798CFFC
:1016D40003C7550003C56500220742052A9703C5C1
:1016E40045002A9703C5750062052A97D8CF03C71A
:1016F400950003C5A500220742052A9703C5850066
:101704002A9703C5B50062052A9798D303C7D50065
:1017140003C5E500220742052A9703C5C50083C512
:10172400F5002A97E2052E97D8D3D843759BD8C3E2
:10173400D84313671700D8C398431367170098C397
:10174400124698425C43858BD1E71C4F0145230028
:10175400F6009C429C4FA183A300F6009C429C4F40
:10176400C1832301F6009C429C4FE183A301F60050
:101774009C42D84F2302E600D84F2183A302E600FF
:10178400D84F41832303E600D84F6183A303E600C7
:1017940098532304E60098532183A304E600985346
:1017A40041832305E60098536183A305E600D853DB
:1017B4002306E600D8532183A306E600D8534183C9
:1017C4002307E600DC53E183A307F600F2406244FA
:1017D400056182800100B5B75D713AD217670000D8
:1017E4001307878E36D414433ED022DE9C5E4ACA49
:1017F40086C6998396C49AC29EC026DC2ADA2ED85D
:1018040032D642CE46CC72C876C67AC47EC2858BA6
:101814003A84176900001309E98AD1CB9C5E976466
:1018240000009384E48A93F7F7F99CDE17670000BD
:101834000347678A93070008631BF700832709009F
:101844009C4393F70704176700002306F78883C7B0
:10185400040093F707049DC39757000093874772CA
:101864009C4382979767000023ACA78683C7040034
:1018740093F7F70B17670000230CF78483C7440022
:1018840093F707048DE7854717670000A304F784DF
:1018940097670000938787859C43096798C7130758
:1018A40000FC976600002387E682D844F8D31C40E6
:1018B400985F1183058B09CB985F3D9B98DF0547A3
:1018C400976600002388E680985F1D83058B11CB03
:1018D400985F1377F7F798DF854717570000230BB6
:1018E400F77E83270900D8430583058B19C7D8439E
:1018F400759BD8C3D843799BD8C37254B640A642CB
:1019040016438643E2545255C2553256A2561257D4
:1019140082577248E2485249424EB24E224F924F89
:10192400616173002030975700009387277C9443AC
:10193400975700009387C77903C70700058B11CB1E
:10194400975700002388077897570000A3840778E7
:10195400828003C71700058B65F7F85271FF83C7B0
:101964005700DDB71758000013080876032708004E
:101974001C5F9583858BD5EB1DC697670000938705
:10198400678183986704030306001C5BBD83630BB4
:10199400030893F7F71FB38717419A970947B3C70B
:1019A400E7022300F60085CA83270800985B4607F0
:1019B400935767016356070093E707C0C207C183C3
:1019C40003970600C207C18709C7BA970947B3C777
:1019D400E7022390F6009DC98347150085CB9756EF
:1019E400000083C6466F93F6060413879700914759
:1019F40085CA3A950347050085461376F7066311B1
:101A0400D60262076187B147634C07008327080049
:101A14009C5FED838D8B17570000A300F76C814703
:101A24003E858280B3871741ADBF8947D5BF411139
:101A340022C406C6175400001304446B184049E935
:101A4400AE877453FDFE3E85B2859757000023820E
:101A5400076897E001E0E780605E9757000093878E
:101A6400A7669C43B70680009843558F98C3D85700
:101A7400719BD8D797570000A38E0764975700002F
:101A8400A38807641C40094798C3B7F700E003A77D
:101A940007D16D9B23A8E7D003A707D15D9B23A89B
:101AA400E7D0730050101440175700001307476223
:101AB40083472700858B89EB83473700858BD9C7FC
:101AC4009757000023880760B24022444101828076
:101AD4008D476310F502975700009387E75E9C4398
:101AE400B70680009843558F98C3D857719BD8D7B1
:101AF4005DBF8547E319F5FAB567BD075CC70F10ED
:101B040000001C400967094698C7130700F8975658
:101B140000002381E65C175700001307E75A1443BB
:101B2400984231830D8B6319C7001307E043F8D340
:101B34003D673D07D8C785BF984231830D8B01E7C8
:101B440013076019EDB71307E01BD5B7FC52ADF3CB
:101B5400A5BF5D714EDE975900009389E95603A72E
:101B6400090086C6A2C4A6C2CAC052DC1C431759C7
:101B740000001309E95B175A0000130A2A5793F768
:101B8400F7E793E707081CC3832609003707CEFF4E
:101B94007D179C46130680022A84F98F9CC68327EE
:101BA4000A00130700082800B8CBAE849305100878
:101BB400EFE01FFC97E001E0E780006B97E001E0B5
:101BC400E780207883A709009376F41FB70EFCFF03
:101BD40023A40700984B130510F8CE851367F70369
:101BE40098CBF84F4A88B70F0400137707E0558F56
:101BF400F8CF9843F576FD16758F98C39843B706CA
:101C0400330091421377F7E798C39843FD1E854349
:101C14001377F7E71367071098C303270900130F17
:101C240080021C47D58F1CC783270A001307900D19
:101C34003400B8CB014793583700A69883C70800EF
:101C440013767700B3D7C740858BDDC79C41032E3D
:101C54000800239C0704239007060323CE02137372
:101C6400D3FF23266E0203AE07001373F707137E18
:101C74000EF833636E0023A0670003A347023363A7
:101C8400F30123A26702014303DE07066307C303CC
:101C940003A30703038E06001353F30062031353D5
:101CA400834163586E0003A307031353F300238097
:101CB400660003D307061373F30F03DE8705E3F50A
:101CC400C2FD03A347023373D30123A267028387B0
:101CD4000600635CF40003C308003396C300134694
:101CE400F6FF337666002380C8003E8663D3A700E0
:101CF4002A8613158601618505071377F70F850674
:101D0400E31BE7F3B640264496440649F259625A67
:101D140061618280011136C8975600009386063DA2
:101D24003EC49C423AC632CAD8472ACE2ECC131699
:101D340017016355060298471316170163500602EC
:101D44007D57B8D7175700001307C719584F050711
:101D5400175600002326E61A116798C798470D8383
:101D6400058B1DC3175700000347A73613671700D9
:101D740017560000230FE634130700F81756000027
:101D8400230AE634214798C79847058B09CF17578C
:101D940000000347F7331367170017560000A30921
:101DA400E632054798C798470983058B09E79847A2
:101DB4000583058B39CF9847175600001306463123
:101DC40017550000130545300983058B630C071074
:101DD4001841184331830D8B63130710AC4B184E15
:101DE40093F5050203471700E9C57DE7130770065D
:101DF400D8CF0347060013671700175600002309BE
:101E0400E62C114798C718415C57F19B93E71700DC
:101E14005CD79C4298479316370163D606029756BF
:101E2400000083C6263EC18A175700001307873671
:101E3400E1C6034707071367070297560000238389
:101E4400E63C056798C798479316270163D10602B5
:101E54001757000003470728620761876357070085
:101E64000547975600002387E626096798C79847D1
:101E74009316070163D606029756000083C6963868
:101E8400858A175700001307E730C9C603471707A9
:101E94001367270097560000A386E636216798C784
:101EA4007245E2455246C2463247A2470561730075
:101EB40020300DDF85456315B7001307B0060DBF4D
:101EC40089456315B7001307F0061DB78D456315E3
:101ED400B7001307300729BF1307500711BF1307B3
:101EE400600739B703473600136717001756000019
:101EF400A301E61E094739B7834607070946BD8A89
:101F04006388C600034707078D463D8BE31BD7F262
:101F1400114725B783461707918AC9D20347170784
:101F24001367870085BF175700001307671C834694
:101F3400B7019757000083C7771EB69793F7F70F3B
:101F4400FD4663EAF6044C4B97560000A382F61A4A
:101F54009757000083C7D71905473317F7009756DB
:101F64000000A38DF61A6D8F1DEF9756000083C6EF
:101F7400361BB3F6D70213050002814733D6F500AA
:101F8400058A13F8F70F09CE6399E6009757000006
:101F9400A3800717828081177DB705071377F70F92
:101FA4008507E39DA7FC828097570000938747FD30
:101FB4009C43011122CC4EC606CE26CA4AC852C43E
:101FC40056C28297975700009387871480478149A8
:101FD4006305A406BE8497570000938727F60387FA
:101FE40067013E8963550706018D135455009757C1
:101FF400000083C787119379F501636DF402370AF2
:10200400C0A8B70A405705379C449756000083C6BA
:10201400C60F139756003E9783076901158C63C555
:1020240007006363470156979757000023A6E70EFE
:10203400E37BD4FC1604B3693401F24062444E8558
:10204400D2444249B249224A924A05618280E37DE0
:1020540085F8B707C0A833848740229579B7975786
:1020640000009387E7F19C43411122C406C626C2AF
:102074008297975700009387A70980476309A406AE
:10208400BE8497570000938767EB8387670163D803
:102094000704018D135455009757000083C7E706C2
:1020A4006367F404493598449757000083C7E705EC
:1020B4009396570036971D8C9756000023AEE6047E
:1020C400E372F4FE2244B2409244175500000345E3
:1020D40035028145410117E301E06700236BE37A90
:1020E40085FAB707C0A833848740229565B7B24004
:1020F400224492444101828097570000938747030A
:102104009843B75702009387079F832607091396BE
:102114005600635806008326070913966600634435
:102124000600FD17FDF3828071C5AA870145E9C544
:102134008D07C207C183F19BC207C1831307400304
:10214400636FF70217570000130747040843175734
:1021540000001307270314436398A60217570000CF
:102164001307C7DD185B014541CB4111C20706C601
:102174000545DD8D0297B240014541018280175724
:10218400000013076700D9B70357650035E3035709
:102194004500636FF704B306F7402146637CD6021B
:1021A40003280500938687001D8FAA96611717568A
:1021B4000000035686D32392E60023A0060123934E
:1021C400060014C12312F500130786FF975600007A
:1021D400239DE6D02313B5009755000083D5E5D0A1
:1021E400B387F540175700002311F7D021058280EB
:1021F40008419DB70145828082800DC19757000038
:102204009387C7F803A3070097570000938787F7BE
:1022140083A8070081469A8763E31701828003A895
:102224000700636DF50A636BA80A13878700E367E9
:10223400E5FE03D66700216705076317E60003C7B9
:1022440081D805072384E1D897550000938585C973
:1022540003D6470003D7650023930700329742074C
:102264004183175500002312E5C8638A6702175596
:102274000000130565F108416303F50203D5660008
:1022840019ED83D7460023A0060121073E962106B7
:102294002392C600975700002399E7C4B687984352
:1022A400E30E17F797560000938606EE9442E30771
:1022B400D7F683566700BDF283D64700035647001E
:1022C4001843A106B2962392D70098C383D765001A
:1022D400A10717570000231AF7C08280BE86C28761
:1022E40025BF0111975700009387C7EA22CC03A4A6
:1022F400870B26CA4AC84EC606CEAA8413092500EF
:10230400854915C083C7140003473400858B6304D3
:10231400F700405CFDB71946930544004A85EFE099
:10232400BF8AE31835FF2285F2406244D244424911
:10233400B24905618280411197570000938787E570
:1023440022C403A4870B26C24AC006C693042500F0
:10235400054901E82285B2402244924402494101E0
:102364008280A6851305A402979002E0E78060911D
:10237400E30225FF405CF1BF4111975700009387AA
:1023840067E122C403A4870B26C24AC006C693048D
:102394002500054901E82285B240224492440249BD
:1023A40041018280A6851305A401979002E0E7808D
:0C23B400408DE30225FF405CF1BF0000FB
:1023C00097110020938101D917610020130181C367
:1023D0001305400097E5FF1F9385C5C2170600202F
:1023E000130606FE63FAC5008322050023A05500EC
:1023F00011059105E3EAC5FE17D5020013054580D6
:10240000970500209385C5FB1386018F63FAC500ED
:102410008322050023A0550011059105E3EAC5FEBE
:10242000138581C597550020938585E86377B500AE
:10243000232005001105E36DB5FEFD42739002BC3B
:102440008D42739042809302800873A0023097E21D
:10245000FF1F938222BB93E2320073905230979217
:102460000000938222D473901234730020303D43D5
:102470002A876373C3029377F700BDEFADE59376C8
:1024800006FF3D8ABA960CC34CC30CC74CC7410724
:10249000E36BD7FE11E28280B306C3408A0697023F
:1024A000000096966780A6002307B700A306B70032
:1024B0002306B700A305B7002305B700A304B700A0
:1024C0002304B700A303B7002303B700A302B70098
:1024D0002302B700A301B7002301B700A300B70090
:1024E0002300B700828093F5F50F93968500D58D74
:1024F00093960501D58D61B793962700970200004A
:1025000096968682E78086FA9680C1171D8F3E9642
:10251000E374C3F8A5B7B717004003C777051A05DA
:1025200092054D8D1377E70F13653500A38BE704F4
:102530001375F50FA38CA7048280B717004003C75B
:1025400077051377E70FA38BE704130700F8A38D34
:10255000E7043D47238CE70413075003A38CE704EB
:102560008280B7160040130670052380C6049307C7
:1025700080FA2380F6040100010003C7F602136706
:102580008700A387E60203C7F6021377770FA387B6
:10259000E60203C7E6021377C70F2387E60203C7E5
:1025A000E602136717002387E6022380C604238010
:1025B000F6040100010003C736057D78930E481F1D
:1025C0001377870FA389E60403C736053716004043
:1025D000116E13671700A389E6042380F60483C7EE
:1025E00036051167130F400893E70702A389F60425
:1025F00083D706051308281B930F3004D98F116762
:102600002398F6047D1791478942130370059308B8
:1026100080FA83463605A18AEDDE83560605834699
:102620003605A18AEDFE83560605B3E6C6012318DA
:10263000D60483463605A18AEDDE8355060583461A
:102640002605F98DB306D702B695B386D501637119
:10265000DF04FD1793F7F70F85CFC295939615000A
:10266000B3C6F6036352B00285068586230066046E
:1026700023001605010001008355C602AE96C2066E
:10268000C1822316D60271B7FD16B3C65602F9BF32
:10269000B716004083C7360513873605A18BFDDBCF
:1026A00083D7060583D706051166D18F2398F604D4
:1026B000930770052380F604930780FA2380F604BD
:1026C000010001008347070093F7870F2300F700FD
:1026D00083470700C98F93F7F70F2300F7003717D9
:1026E000004083473705A18BEDFFB717004003C7B4
:1026F0003705218B6DDF83D6070583C72705116654
:102700007D16F18E3306F60285659307C0031387A5
:1027100005C83696938605FAB396A600B386F602E8
:10272000A1679385559CB3C6F6029307803EB38696
:10273000F602B357A740B306D640B387D702B3C754
:10274000B7026351D0048507094793067005B3C7E4
:10275000E702371700402300D704930680FA2300CE
:10276000D7049607010001008356C702B697C20737
:10277000C1832316F7028347370593F7F70DA309A3
:10278000F7048280FD17C9B7914763EEB70217A718
:1027900002001307A7438A05BA959C41BA9782871E
:1027A000B717004003A7470B1345F5FF698F23AA0E
:1027B000E70A03A7070B698F23A8E70A03A7070AFD
:1027C000798D23A0A70A8280B717004083A6470B04
:1027D0001347F5FFF98E23AAD70A83A6070B558D59
:1027E00023A8A70A83A6070A758F23A0E70A828079
:1027F000B717004003A7470B498F23AAE70A03A78F
:10280000070B1345F5FF45BFB717004083A6470BDD
:102810001347F5FF758F23AAE70A03A7070A598D07
:102820004DB7B717004003A7470B498FEDB7914746
:1028300063EEB70217A702001307873A8A05BA9515
:102840009C41BA978287B717004003A7470D1345ED
:10285000F5FF698F23AAE70C03A7070D698F23A84B
:10286000E70C03A7070C798D23A0A70C8280B7176C
:10287000004083A6470D1347F5FFF98E23AAD70C16
:1028800083A6070D558D23A8A70C83A6070C758F6B
:1028900023A0E70C8280B717004003A7470D498F9C
:1028A00023AAE70C03A7070D1345F5FF45BFB7178C
:1028B000004083A6470D1347F5FF758F23AAE70C49
:1028C00003A7070C598D4DB7B717004003A7470D55
:1028D000498FEDB7B717004003D7870109C5D98DD8
:1028E000239CB700828093C5F5FFF98DD5BF0111F8
:1028F00022CC26CA2E8432C636C43AC23EC006CE88
:10290000AA84F52237480F0013080824335805031A
:10291000B758004083D5488082471247C205C1811D
:1029200093F505FCC205C1812392B88083D5488008
:10293000A2463246B365B800C205C1812392B88071
:1029400083D50880C205C181F999C205C181239050
:10295000B880E1659385056A63EB85080604335406
:10296000850205669305C6FF114542044180E18D4D
:1029700081C51305F6FF618D05081306F003637426
:1029800006011308F00342083756004013580801A7
:102990002310068337560040231EA68083550680E9
:1029A000F240624493E515002310B68083550680FB
:1029B000C205C18193F555BFC205C1812310B68000
:1029C00083550680CD8EC58EC206C1822310D68067
:1029D000835686802314068083568680D244D58F02
:1029E000D98FC207C1832314F6800561828015E662
:1029F0008D45B305B4023355B5025205518111E13D
:102A000005452166518D1306C0123308C80213060E
:102A1000803E3358C8020508BDB7E5453304B4020B
:102A200011663355850252055181518DD9BF3757F3
:102A300000408357078011C593E707102310F780E4
:102A40008280C207C18393F7F7EFC207C183FDB746
:102A5000375700408357078011C593E7072023109D
:102A6000F7808280C207C18393F7F7DFC207C18373
:102A7000FDB7B75700402398A78082809377E50F72
:102A800099C193671500C207C183375700402318C7
:102A9000F78082803757004083564781835787816C
:102AA000C207D58FE98FA207A1833385A7401335CD
:102AB00015008280411102C4B757004002C69387B7
:102AC00007803EC69357C5013EC4A2472205218117
:102AD00099CBB247D1073EC6B2479C4341017D8D99
:102AE0003335A0008280B2474181E107EDB7B717C7
:102AF000004003D58700420541819377050491EB9F
:102B00009377F5013755E801130505803345F50244
:102B100082809377050C130700046397E70093778F
:102B2000F50137459C1CCDB72165130505D0828082
:102B3000B7F700E08847CC4782808147374700409D
:102B4000A14663C4C700328582800345B7C0E38EC7
:102B5000A6FE3385F5000345050085072304A7C0BD
:102B6000CDB7B7270040C8C709472380E700114702
:102B70002380E700828012059A054D8D1365C500FC
:102B80001375F50FB72700402380A7408280B72731
:102B9000004001E5A38007408280239CB740239E2C
:102BA000C740154791E20547A380E7408280411165
:102BB00022C406C62A84253F2947B307E502B2404E
:102BC0008D83B3D7870222449507B3D7E7023747EF
:102BD0000040C207C1832316F7C04101828071659E
:102BE00041111305052006C6D937B7470040130722
:102BF00070F82381E7C00D47A381E7C013070004E5
:102C0000A380E7C005472387E7C0B2404101828027
:102C1000938741C69C43011106CE22CC91C3829773
:102C2000938701CC8043938781C69C43131504018D
:102C3000418181C72AC6829732459707002083D7F2
:102C400087D16379F50403D741806378A70493861D
:102C500001C603A30600630603006244F240056157
:102C600002838507998F13950701418193572500AA
:102C70001315040141816544198D330585021384C0
:102C8000F7FF22953345F5021375F50FF2406244C4
:102C90000561828013054006D5BF0145C5BF03A865
:102CA0004500411126C206C622C4834718000348C6
:102CB0000800A944A207B3E70701C2070D68C1874E
:102CC000130828906396070385473284EFE0E03FBE
:102CD000AA8419ED9387C1C59C4399CB0345140081
:102CE000034704002205598D133515000505829709
:102CF000B240224426859244410182802D452DEF29
:102D0000D841411122C426C206C683471700034793
:102D10000700B684A207D98F0D67930697A1328466
:102D2000639CD702F5359707002083C7A7C2637657
:102D3000F50097070020238FA7C085472390F40054
:102D40009707002083C707C12300F4000145B24064
:102D50002244924441018280130787902945E398D9
:102D6000E7FECC4589472390F4000946228597E089
:102D7000FF1FE780A0DCD9BF828083474500858B99
:102D8000BDC7011122CC2A84035525009385C1E0DB
:102D900006CEEFE0402E058939C5035524000147D2
:102DA00081460546ED45EFD050692AC60DCD97F70F
:102DB000FF1F9387E76083D7A70201462C002314E7
:102DC000F10085472315F1009707002083C787B8D6
:102DD0002300F50003552400EFF0600709C5ED4519
:102DE0002800EFD0507DF2406244056182808280ED
:102DF000416541119385C1E07D1506C6EFF0507520
:102E0000B24097F6FF1F9386A6604146954517F599
:102E1000FF1F1305E55A41016FF0B06823AEA1C44E
:102E20008280411122C406C6854709446313F50216
:102E3000834706000144238CF1C417070020034791
:102E400067B16378F70017050000130545F3EF201D
:102E500081262285B2402244410182808547630356
:102E6000F50209C909476304E5020D476308E50255
:102E7000094582809707002083C7C7AD2380F500EE
:102E800001458280938781C583C70700C5BF97F737
:102E9000FF1F83D787532390F500DDB71387818009
:102EA000035707002392E50017F7FF1F1307475149
:102EB0008356A7020357A7032383F5002390D50069
:102EC0002391E50075BF411106C69933970700208D
:102ED00083C747A8637CF50097070020238CA7A62B
:102EE000170500001305A5E9EF20E11CB2400145DC
:102EF0004101828041677917630CE502411122C4C8
:102F000006C685472A84639AF50022852244B2408A
:102F10009385C1E041016FF0B06389476396F50086
:102F20008545EF20C11375D1B24022444101828012
:102F30008280CC41411106C6328503C6150083C587
:102F4000050022064D8E42068D654186138875A2C6
:102F5000630C060F6348C804138845A26306060B7A
:102F6000634AC800938535A26309B606239006001C
:102F7000294679A0138855A26308060B938565A29C
:102F8000E316B6FEC1451D4663ECE5064546198EBF
:102F900063F3C7003E862390C60097A50200938581
:102FA00065C689A8138895A26300060F634E060BB9
:102FB0001388A5A2630A060F938505A5E318B6FA40
:102FC00099451D4663EEE502198E63F3C7003E8600
:102FD0002390C6009385018131A89D451D4663E17C
:102FE000E5022146198E63F3C7003E862390C60092
:102FF0009385C1C6BA9597E0FF1FE78020B40146CC
:10300000B240328541018280AD451D46E3EAE5FECE
:103010003146198E63F3C7003E862390C60097A5FC
:1030200002009385E5C1F9B7B1451D46E3EAE5FC29
:103030003546198E63F3C7003E862390C60097A5D8
:1030400002009385E5C07DB7C1451D46E3EAE5FA78
:103050004546198E63F3C7003E862390C60097A5A8
:103060000200938565BB79B7C1451D46E3EAE5F8E3
:103070004546198E63F3C7003E862390C60097A588
:1030800002009385E5BDBDB7C1451D46E3EAE5F6FF
:103090004546198E63F3C7003E862390C60097A568
:1030A00002009385A5B8B9B7B5451D46E3EAE5F436
:1030B0003946198E63F3C7003E862390C60097A554
:1030C0000200938525B33DB797F6FF1F9386064808
:1030D0004146CD4517F5FF1F130545346FF0703C91
:1030E0008280938781C89C4303C7C1C783C6B182CE
:1030F00001E781473E85828003D607006316A6005C
:1031000003C66700E308D6FE7D171377F70FA10704
:10311000C5B7B2862E86AA8517A50200130505B984
:103120006F8082110111930500030D4506CEEFA0BB
:103130003045930500051145EFA090449305C00369
:103140000545EFA0F04385471306F10085451305BB
:103150005030A307F100EF305226F2400561828023
:10316000938701C89C43328791C703A387006303F9
:103170000300028309CB130600199305000203C55F
:1031800021866F80502682808547631CF50011667A
:10319000130686A98945172500200345A50D6F80D4
:1031A000902489476319F5008945172500200345B8
:1031B000650C6F80B03F828085476398F50019E207
:1031C000238BB1C62386C1C8828009476399E50075
:1031D00019E6238BF1C603D541C76F00B007828083
:1031E00001119397050126CA06CE22CC4AC84EC6C5
:1031F00052C4C187AE8463D9070817250020034550
:103200006507EF80E0432A8439C903470500930727
:10321000000D6313F704834725004547638BE704DC
:103220006547639BE70217A502001305A5A4EF807D
:10323000A200130954009309B40017AA0200130A4C
:10324000AAA48345090052850509EF70F27EE39A2E
:1032500029FF2945EF8042022285EF804037216512
:10326000258DF2406244D2444249B249224A056166
:103270008280034665008345750017A5020013058B
:1032800025A1EF70727BC9BF93F7150085C317F6B0
:10329000FF1F1306662C9385C18117250020034567
:1032A00065FDEF30A26013C5140065BF93F72500DC
:1032B0000145C5DB09391166130686A9894517251D
:1032C0000020034525FBEF80101213C5240051BFD9
:1032D000797126D24ECE06D622D44AD052CC91470E
:1032E000AA84AE896314F50483D7A5001306E10010
:1032F000854513055030239AF1C623070100238B1F
:1033000001C6EF30920B938701C89C4391C7DC47FD
:1033100081C7CE8526858297B250225423AC91C6B0
:1033200002599254F249624A45618280138781C7EB
:103330001843E31AF7FC854503D541C7653E85452B
:1033400003D541C7EF00C076C16703DA41C7F9175B
:10335000631BFA0205449305E10013055041238BDA
:1033600001C6A385818223070100EF20A2138347B2
:10337000E100B1E303C7C1C89147E316F7F85D3335
:10338000238601C849B7938781C803A9070003C4EE
:10339000C1C769D00355290011C99305E100EFE0C9
:1033A000803309C54C455285EFF0901A7D14137493
:1033B000F40F2109F9BF938741C89C4383C7470095
:1033C000898BCDDB9305000A0D45EFA0701B93059B
:1033D000000A1145EFA0D01A81450545EFA0501A0B
:1033E0001306E10085451305503023078100EF30B7
:1033F000C27C49B70111170500001305A5DE06CEF2
:1034000022CCEF80B03E172400201304A4E68547A9
:103410001306F10085452300A40013054041A307CE
:10342000F100EF20622F7D55EFD060497D55EFF020
:10343000100F5939753AF52317050000130505D506
:10344000F13A170500001305E5C9112503450400ED
:103450008545EF80C067F24062440561828023A009
:10346000B1C823A2A1C8828023A4B1C8238EA1C65B
:103470008280938781C79C43797106D622D426D255
:103480004AD04ECE52CC1147639BE70483C761C735
:10349000414481CF938781C88043B284B68983C772
:1034A000C1C703C7B18299EB55442285B25022545B
:1034B00092540259F249624A45618280834644002F
:1034C000639AA600834654006396B6008346640060
:1034D0006380E606FD1793F7F70F2104E9B7094764
:1034E0004144E384E7FC2C00130550412304010010
:1034F000EF10527B834781008DCB930500020D4571
:10350000EFA01008930500031145EFA07007954543
:103510000545EFA0F006854730008545130550307E
:103520002304F100EF30626949B7ED3E4144B5BF75
:103530000355240093056100EFE0E01935D54C45B3
:1035400003D541C7EFD03033058939DD1399040124
:1035500013590901014781464A86ED4503D541C704
:10356000035A0400EFD0606D2AC64D441DDD268647
:10357000CE85231441012315210197D0FF1FE78039
:10358000E05B01462C0003D541C7EFE0500C2A84D4
:10359000E30D05F0ED452800EFD0F00139B7C84143
:1035A000011122CC06CE32840346150003450500E6
:1035B0002206498E19CB0D681308B8A42D4563095E
:1035C0000607F2406244056182800D651308D5A4A8
:1035D00063000603130825A2630C0601757813081F
:1035E000E85C3298420813580801854863EE0803E6
:1035F00003D5A50036C632C4ED34B24615C1938753
:1036000001C89C4322468345550003A30700A287B7
:103610006244F240034545003687854605610283D2
:1036200023900600014571BF1308B5A46317060374
:1036300003D621831D45E376C7F8198E63D3C700EF
:103640003E86CC452390C60042064182BA9522852B
:1036500097D0FF1FE780804EF1B79307A5A46318AA
:10366000F60091472390F6001146CC45CDB793075D
:1036700085906317F60089472390F6000946F5B751
:103680009307E5A4631AF600DC452390160183C76F
:1036900007002300F40079B713057590E314A6F82A
:1036A000D9BF011122CC06CE26CA4AC82317D100A1
:1036B0002D4429EBDC412E89B28403C4170083C753
:1036C000070022045D8C8D679386D7A46306D4001F
:1036D000938627A3631FD4020355A900193419E167
:1036E00001440DA0938701C89C43834555000345C1
:1036F000450003A807002286A6871307E10081463C
:1037000002982A842285F2406244D24442490561EB
:1037100082809386C7A46314D4028357E1000547CF
:103720003544E391E7FE0345060013040008E3EB8C
:10373000A7FC938701C89C43DC43829755B79386C7
:103740002790631AD4028356E1008547EFD0F01723
:103750002A844DF9938781C88356A9009C4303C7E7
:10376000C1C73DDF03D627006302D6047D17137758
:10377000F70FA107FDB79387E7A4E313F4F6835788
:10378000E10005473544E39FE7F6034506001304CF
:103790000008E3E9A7F6DC452380A700938701C86A
:1037A0009C433335A0000905DC4341BF138701C8A2
:1037B000184303C5470083C5570083C71400032877
:1037C000070003C70400A2078946D98FC207C18733
:1037D00005476383E7008D460D66A6871307E10062
:1037E00013062690029839BF411122C44164130583
:1037F000F4FF9385C1E306C626C24AC0EFF04055E8
:103800001305F4FF9385C1E2EFF080541305F4FF34
:103810009385C1E197F4FF1F9384C4D4EFF0405324
:1038200097F6FF1F938606F24146F9452685EFF08D
:103830004047CC4C2A890945EFF04FE21387C183FA
:1038400093874184834507000346170083D7070009
:1038500003D7A4101384C1E42312F4002314E4005A
:1038600083D7A40C03D7A411A306C400A30EC400DD
:1038700003D6A4172310F4002315E40083D7A40D66
:10388000138701848346070003D5A4140347170058
:10389000231CC40003D6A4182311F4008547230376
:1038A000F4002307F400230AD400230BF400231DA3
:1038B000C4002302D4022306B400A30AE4002318A0
:1038C000A400230EB40023190400230F0400A30254
:1038D000E40203D7A41A2307F402231104022310DD
:1038E000E40213878183035707002303040223158F
:1038F00004022316E40203D7A41C9385C1E70D45F7
:103900002314E402EFF08FD5A2852145B13EB240E9
:1039100022444A8592440249410182808D67138581
:1039200027A36301A6049387D7A40145631EF6006D
:103930008947639CF500854735456397F6008347C3
:1039400007002389F1C8014582808D472945E39D01
:10395000F5FE85473545E399F6FE83470700238842
:10396000F1C8D5B785473545E390F6FE8347070094
:10397000A387F1C8C9BF8D67138527A36308A60273
:103980009387D7A46317F6028947639BF50083C723
:1039900021C92300F70085472390F6000145828066
:1039A0008D476398F50083C701C9E5B783C7F1C8A0
:1039B000CDB723900600DDB70145828025E303A83B
:1039C0004500AE888347180003480800A207B3E704
:1039D00007010D68930EF8A4639AD7039147354801
:1039E000639FF60203A5C8004111B285114606C6C1
:1039F00097D0FF1FE7808014938701CA9C43054539
:103A00008297B24001484285410182809308289004
:103A100029486396170185476FD0206B2D48428552
:103A20008280416541119385C1E87D1506C6EFF09E
:103A30002032B24097F6FF1F938686D741469945BC
:103A400017F5FF1F1305C5D041016FF0802523A096
:103A5000A1CA828001119385C1E822CC06CE2A84B6
:103A6000EFD06061058929C1014781460546ED45D2
:103A70002285EFD0801C2AC605C997F7FF1F9387C0
:103A800027CD83D7A70501462C002314F1008547D5
:103A90002315F100230005002285EFE0403B09C516
:103AA000ED452800EFD02031F2406244056182806C
:103AB00041677917630CE502411122C406C68547A8
:103AC0002A84639AF50022852244B2409385C1E896
:103AD00041016FF0E02789476396F5008545EF10B7
:103AE000015875D1B2402244410182808280014553
:103AF0008280014582804111B286A6052A862D4525
:103B000006C697D0FF1FE780C0CCB24001454101F7
:103B10008280411122C41394950026C24AC0B28407
:103B20002A89B286A2850146254506C697D0FF1F81
:103B3000E78020CAA6864A86A285294597D0FF1F1E
:103B4000E78020C9B2402244924402490145410124
:103B5000828005476305E502814701C989476308FB
:103B6000F5008D47630BF50091473E8582809307F2
:103B700000202390F5008147CDBF98C1EDBF93078A
:103B800000049CC1CDBF09E9411106C68D37B24082
:103B90001375F50F410182800545828009E94111C5
:103BA00006C6813FB2401375F50F4101828005457D
:103BB0008280AE87B28509E5139696003E8525BFC3
:103BC00011458280AE87B28509E5139696003E8541
:103BD00089B711458280AE8701E5B2853E8595BFE4
:103BE00011458280014582808347350003472500C7
:103BF000A207D98F03471500A20703450500D98FF7
:103C0000A2075D8D828093D785002300B500A300B5
:103C1000F50093D70501E1812301F500A301B5006B
:103C200082802A960505A30FB5FEE31DC5FE82809E
:103C3000184DF915791763F9E5008357A500485524
:103C4000B387B7023E958280014582809306B50016
:103C5000814713D7170005059E07D98F0347F5FF46
:103C6000BA9793F7F70FE316D5FE3E8582801C4185
:103C700095C33E87FD451306A00305078306F7FF9E
:103C800013F8F60F63F20503E399C6FE9386270047
:103C90006304D700FD5711A80386070093060003AD
:103CA000FD576314D60018C181473E85828001ED1F
:103CB000814725459CC1828025458147F240624469
:103CC0009CC1056182801C41011122CC06CE2A8450
:103CD000E5D703C707006DD38356450003D76700B8
:103CE000E39CE6FC03C517002EC6713D0589B2456D
:103CF00061F51C40E1B781473387F5008346070033
:103D00003307F50085072300D700E317F6FE82800E
:103D100083C7B50103C7A501A207D98F0D47631A51
:103D2000E50003C7550183C645012207558F4207A9
:103D3000D98F3E85828093170601C183A183A38D0D
:103D4000F500238DC500034705008D476318F70074
:103D50004182238AC5002182A38AC5008280411145
:103D600022C426C24AC006C61309450310592A8434
:103D7000034515008546CA85B135854415E51058BB
:103D80005C50584CA3010400B307F640814463FD26
:103D9000E7008346240089476398F6000345140032
:103DA00085463A96CA85393DB24022442685024965
:103DB0009244410182801C596381B704411122C49D
:103DC00026C206C6834735002A84AE8491EF034598
:103DD00014008546268693054403E13B814719C1BB
:103DE0008547FD5404D821A09D3FAA876DD1B240DC
:103DF000224492443E854101828081473E858280F3
:103E0000411122C406C6FD57A30105001CD92A840E
:103E10005D3761E503473423834724239306B00EBF
:103E200022075D8F834744036388D700E10793F738
:103E3000F70F854663E5F608AD67938757A56314CA
:103E4000F702930664089305E40817960200130628
:103E500066F08506050683C7F6FF0345F6FF898FE2
:103E60006387B606FDD7834704048346F403A2079D
:103E7000D58F9386F7FFFD8EB9E2930600206390FD
:103E8000D7048346140485CE9387F6FFF58F85EB20
:103E9000834744048546FD1793F7F70F63E1F60265
:103EA0008347640483465404A207D58F89CB834794
:103EB000B4048346A4040145A207D58F99EBAD67EE
:103EC000938757A509456306F7000D4519A00145DD
:103ED000D9FBB2402244410182801145DDBF01116E
:103EE0004EC652C406CE22CC26CA4AC856C25AC0B2
:103EF000054A8949637EBA081C4D2A89894963F9B4
:103F0000F508834705000947B2842E846384E70AD5
:103F10000D476387E70C639D470713DA15005C5173
:103F20002E9A93559A00BE957935AA8935E1930A60
:103F30004903130B1A000588137AFA1F569A93F750
:103F4000F40F09CC83470A008566C11613F7F70002
:103F500093974400F58FD98F93F7F70F2300FA005A
:103F60008547A301F9008327490293559B004A85A1
:103F7000BE959135AA8909ED137BFB1FDA9A05C41A
:103F8000918093F4F40F23809A008547A301F900F0
:103F9000F24062444E85D2444249B249224A924A92
:103FA000024B0561828083C70A00A180BD88C19B46
:103FB000DD8CD1BF5C51A181BE95F53BAA8969F921
:103FC0000604930749031374E41F3E9423009400EE
:103FD000C204C180A180A3009400A30149014DBF88
:103FE0005C519D81BE95C13BAA895DF10A0493078E
:103FF00049031374C41F3E942285FD369204B7050D
:1040000000F09180E98DC58D2285F53EF9B7854791
:1040100063F8B70C184D011122CC06CE26CA4AC847
:104020004EC62A8463F7E502034705008946AE843D
:104030006306D7068D466305D708631CF70013D9BE
:1040400015005C512E9993559900BE95AD3311C959
:10405000FD57F2406244D2444249B2493E8505616F
:1040600082805C509309190093D599001379F91F48
:104070002299BE95228503494903353B71F993F98D
:10408000F91F4E94834744038588A207B3E72701AD
:1040900099C091837DBFD207D18365BF5C51A18157
:1040A000BE95113B55F586041304440393F4E41FB5
:1040B00026948347140003470400A207D98F51BFF9
:1040C0005C519D81BE95C53941F5139524001304BB
:1040D00044031375C51F2295013E9317450055BF34
:1040E00085473E858280B707200063EFF5000945CC
:1040F00082800945F2406244D2444249B249224A90
:10410000924A024B05618280011126CA06CE22CC5A
:104110004AC84EC652C456C25AC093F7F501AE847F
:10412000E9FB832985002A8900412328B900639689
:10413000090403470400894763F4E7001C548DEF2A
:104140000357840093D75400E3F5E7FA1C54232C5B
:10415000F90003278901232A390141DF93D794000D
:104160001304440393F4F41FBA972694232CF90004
:10417000232E89000145BDBFBE89035AA400FD5A04
:10418000054B260ACE8563F7440122855534232C3E
:10419000A900C1B7032509009D3DAA89630A5501FD
:1041A000E379ABF41C4CE376F5F4B3844441D9BF16
:1041B000054589B7011126CA4EC652C406CE22CC87
:1041C0004AC856C25AC02A8AAE89044191E903A955
:1041D0000401630509009C4C636DF902054915A8AB
:1041E0002685353585472A8463EEA7000544228558
:1041F000F2406244D2444249B249224A924A024BB6
:1042000005618280FD576307F50A9C4C4E89E36087
:10421000F5FEDC4899E30144D9BF631A39039C4C8D
:10422000130419006363F400094403250A00A285FE
:10423000F93B0547E30CE5FAFD57630DF50615CD8F
:104240009C486376F700984C63F3E7003E894A8404
:10425000854A7D5B9C4C05046365F400E3FD2AFB05
:10426000094403250A00A2855D3309C9E30055F915
:1042700063026505E31024FF79BF71D87D56A285DE
:104280002685B1390DE5639F0900984CDC4880C84C
:1042900079176373F70283C7440093E717002382FB
:1042A000F400B1B72286CE852685153979DD85479C
:1042B000E31EF5F27D5425BFFD17DCC8E9BF0111EF
:1042C00022CC26CA06CE4AC84EC652C456C285471C
:1042D000AE84004163FAB7061C4C63F7F506AA8961
:1042E000B28519EA054AFD5A03A50900A6850533DA
:1042F0002A8905E1014529A07D562285CD367DD14B
:10430000F2406244D2444249B249224A924A05618B
:104310008280630B4503630B55030146A685228506
:104320007D3E79FD184C5C489306E7FF63FAD700A1
:1043300085075CC88347440093E717002302F40015
:10434000CA84E363E9FA7DB709455DBF05454DBF02
:1043500039714AD806DE22DC26DA4ED652D456D23D
:104360005AD023A0050032892EC6EFF05F90AD47EA
:10437000634E050213172500938741CABA978043FD
:10438000AA84B14705C4B2451379E90F80C18347B8
:10439000040085CB03451400EFF0EFFE9377150082
:1043A0008DE363050900118911C1A947F2506254D8
:1043B000D2544259B259225A925A025B3E85216127
:1043C000828013F5F40F23000400A300A400EFF093
:1043D000EFFC137715008D4771FB63040900118909
:1043E00069F581452285EFF0BFA189476314F50483
:1043F00004081309A41F130AA423A6894A85EFF011
:10440000AFFE23A0A90041099109E3192AFF1389EE
:10441000040185498C400D4591C52285EFF05F9ED2
:1044200063F2A9029104E31799FE114785476319C6
:10443000E500ADBF11478547E30AE5F663F4A70041
:10444000B547ADB7834704040347F403A207D98FE8
:10445000C207C18713070020E394E7FE8349B40431
:104460008347A404A209B3E9F9006397090013057F
:104470008405EFF06FF7AA8983444404232E3401A6
:1044800005479387F4FF2301940093F7F70F032A5E
:104490000403E367F7FA0349140493170901C1837E
:1044A0002315F400D1DF9307F9FFB3F72701C9FB08
:1044B00083476404834A5404A207B3E75701939ADD
:1044C000070193DA0A41139B0A01135B0B012314C2
:1044D00064019377FB00ADF70345840483477404BC
:1044E00022055D8D09E513054405EFF0EFEF8347E5
:1044F000340403472404A207D98FB9D3B386340305
:1045000013574B003E973697E36CE5F2198DB35481
:104510002503E36725F3370600105516E36296F28C
:1045200041665516637996100D4952978904D297C2
:1045300058D404CC232044035CD00D47631EE90CFF
:104540008347F4050347E405A207D98FB3E7FA00D0
:10455000C207C187E39607EE13050406EFF0CFE824
:1045600008D48A049384F41FA580E3EB99ECFD57EB
:104570005CC81CC8930700F82302F4008D47631041
:10458000F9088347540603474406A207D98FC20798
:10459000C18705476395E70693051A002285EFF06A
:1045A0009F8131ED834734230347242323020400F2
:1045B000A207D98FC2076D77C187130757A56390EC
:1045C000E70413054403EFF02FE2B75761419387E7
:1045D00027256316F50213058421EFF0EFE0B77786
:1045E000416193872727631CF5001305C421EFF071
:1045F000AFDF48C813050422EFF00FDF08C883D7E8
:1046000081CA8507C207C1832394F1CA2313F4002A
:1046100023002401814759BBE3040BE2B6971CD465
:1046200089476314F900860435BF3387E40285881F
:104630000583BA9405BF05695519333999000509F1
:10464000EDB5411122C406C626C2834735002A842F
:10465000CDE3034704008D476314F7080347440084
:104660008547631FF7069304440313060020814522
:104670002685EFF00FDB930750052309F4229307FB
:10468000A0FAA309F4224C4893072005130710044D
:1046900093062007230AF402A30AF40293071006E4
:1046A000230BF402A30BE402230CD420A30CD4208C
:1046B000230DE420A30DF4201305C421EFF0AFD4A3
:1046C0000C4813050422EFF00FD4105003451400DA
:1046D0008546050610D8A685EFF0CFCE230204004C
:1046E0000345140001468145EFF0EFCE3335A000BD
:1046F00021A0EFF0CFE631DDB240224492444101E7
:104700008280797122D406D626D24AD04ECE8347F3
:1047100035002A848DEB2285EFF08FD113094403F5
:1047200008D8AA891306002081454A85EFF06FCF8B
:1047300081448357A40063E6F4028357A400858F65
:10474000B337F00039A02EC6EFF06FE18547B245D0
:1047500079D1B250225492540259F2493E854561B2
:10476000828003451400854633869900CA85EFF0A0
:104770006FC561F5850475BF01114EC6832905011A
:1047800022CC26CA06CE4AC852C456C25AC0938901
:104790000902B70720002A84044163E4F900232CAE
:1047A00005001C4C11459DC313FAF91FAE8A631B0B
:1047B0000A084C4885071CCC85E503D7840093D7AD
:1047C000590063E1E708232C04001145F2406244DC
:1047D000D2444249B249224A924A024B0561828040
:1047E00083D7A40013D79900FD17F98FA1EF268571
:1047F000EFF0FF81054B2A896364AB000945F9B7E7
:10480000FD576314F5000545D1B79C4C6365F5026F
:10481000E38B0AFA4C482285EFF0DF992A891D457F
:10482000E30609FAE30C69FDFD57E30EF9FCCA85BE
:104830002685C13D69F9232A2401CA852685EFF022
:104840002FBF08CC93844403D2942328340144CC52
:104850000145ADBF5D718145A6C252DC62D486C6FA
:10486000A2C4CAC04EDE56DA5AD85ED666D26AD024
:104870006ECE2A8C032A0500EFF0FF86AA8463120D
:104880000518FD57C1692326FC021309F00F130414
:10489000F00F130BF00FB54A978B0200938B8B4AE6
:1048A000FD1983258C015285EFF0EFD0AA84631A9D
:1048B0000514832CCC0103CD0C0063040D1683C7B3
:1048C000BC009306500E13F7F7032303EC006307B5
:1048D000DD00A18B81CBBD476309F700FD5723267F
:1048E000FC02F1A8BD476312F70E8347BC0293F7A1
:1048F0000704CDEF93770D04E9C383270C0103C9A7
:10490000DC00137DFD0B2326FC0283C7DC001304AF
:10491000F00F639D270983C7BC0103C7AC01A20741
:10492000D98FC9E703C40C008324CA0085461374D9
:10493000F4037D14330454030147B387EB0083C7AA
:104940000700E69783CD170083C70700A20DB3EDDC
:10495000FD00ADCA3AC663648B066E85EF10007425
:1049600093171400A6972AC403D507001306140052
:1049700032C2EF10A072A2466393A60412463247D9
:10498000EE8632840507E31A57FB83C70C0093F7C2
:10499000070489CB81CA06042694835704001304B4
:1049A000F00F89E71304FDFF1374F40F814562854E
:1049B000E133AA84E30705EEA9A0E308A4F51304F4
:1049C000F00FEDB7E3803DFDDDBF11E46685EFF04C
:1049D000EFA7630825038347BC02858BE39007F0AC
:1049E000A9463387FC003306FC0003470700034653
:1049F0000602118F6385D700850765D7C5B5E31F0C
:104A000007ECB6402644268506499644F259625A78
:104A1000D25A425BB25B225C925C025DF24D6161F4
:104A200082809144F9BF5D71A6C286C6A2C4CAC085
:104A30004EDE52DC56DA5AD85ED662D466D283474E
:104A4000B502994493F7070AF5E383290500014B62
:104A500003A7C90093171B00BA9783D70700EDE798
:104A6000130A05022A843146D2854808EFF0AFA820
:104A70008347F101858B638F071293070004456913
:104A8000A305F402854A130919022D464C085285E4
:104A900083A4C900EFF02FA6954763EC570DD68786
:104AA00070009D46130890033D4513F7F7009305EA
:104AB00007036374B80093057703A303B600138755
:104AC000F6FF93D547007D166367F50A1C101306A1
:104AD000E007BA972386C7FE9305000281471305B6
:104AE000D0071386E6FFB306FA0063F6E70083C635
:104AF00006006395B6089D461306000263E7E600CC
:104B000010103A960346C6FE05078507B305F40064
:104B1000A38FC500E3F2F6FE22852D3BAA8441E572
:104B2000850A93074006E392FAF69D44B640264470
:104B3000268506499644F259625AD25A425BB25BC4
:104B4000225C925C61618280050B29B78904C146B1
:104B5000137617008607B2971396F7000583635400
:104B60000600B3C72701FD16E5F603D7040079FF59
:104B700005BFD687DDBFBA86AE8705BF9386F60729
:104B800093F6F60F6365D500E307F6F6850785070C
:104B900099BF814A85452285C536AA8431C191478E
:104BA000E385F4F861B79147E312F5F88347F10123
:104BB000A305F4028347F1010549898B99C71309BD
:104BC000CB00B5473359F902050981452285032BEE
:104BD0000400EFF04FD1AA8479F1814A930B500E73
:104BE0000C4C5A85EFF02F9DAA8455F95C4C83C775
:104BF000070063837701D1FF850AE31D59F97D1909
:104C00006305090C1C48931559002285B385B740EC
:104C1000EFF06FCDAA8419F95285EFF02F83C16CA4
:104C20002A8BBD4BB54AFD1C178C0200130C8C114E
:104C30000C4C4E85EFF02F98AA84E31905EE93777C
:104C4000F90FFD17B3875703584C03A6C900137813
:104C5000F90FA3066701A305770123060700230DBB
:104C60000700A30D0700814681456388960193964E
:104C70001700B29683D6060085073305BC000345AE
:104C8000050093D886003A952300D500A3001501AE
:104C900091E2E6868505E39A55FD638796018607CE
:104CA000B29783D7070099E313680804230007012C
:104CB0008547A381F90081452285EFF0FFABAA84E7
:104CC000E31605E67D19E31509F60C4C4E85EFF069
:104CD0008F8EAA84E31C05E4484C1306000281452C
:104CE000EFE03FF4484C2D46D285EFF0CF8083476C
:104CF000B402584CE18B2306F7008547A381F900E5
:104D000035B55D715ED6832B05004EDE86C6A2C426
:104D1000A6C2CAC052DC56DA5AD862D466D26AD069
:104D20006ECEAA899306F0021307C005838705009B
:104D30006380D70A638EE70823A4090003C7050030
:104D4000FD4763F9E708130BF00F930CE007138D91
:104D5000090283A7090001491304000803ACC70036
:104D6000FD44130AF002930DC00583C70500938A22
:104D700015001395070141816374F4086385670981
:104D8000838615001307F003938A250093F7F60F27
:104D90006374F70863F6FC0063D00608638E670748
:104DA00022053E95420541819305803AEF10402A45
:104DB00025C563F8A404630245156300B515930780
:104DC000F00763EBA706978702009387A7FF81A0F0
:104DD0008505A9BF2644930700F8A385F902B640CC
:104DE00096440649625AD25A425BB25B225C925C9C
:104DF000025DF24D4E85F259814561616FF0AFAEB3
:104E0000C5F71144A1A81305F00F79BF8507838664
:104E100007009DC2E31CD5FE1945B64026449644C2
:104E20000649F259625AD25A425BB25B225C925CEA
:104E3000025DF24D61618280E30069FF9317190002
:104E4000E2972390A7000509D68505B7850A8387D1
:104E50000A00E38DC7FEE38BD7FE01441306000270
:104E60009305E00293171900631E0908E297239047
:104E70000700E30309FA814D9306000293971D0092
:104E8000E29783D7070013861D006387D7086396D0
:104E90000D009306E0026394D70013643400930678
:104EA000E00293171900E29783D7E7FF6385D700E5
:104EB0007D19E31809FE2D46930500026A85EFE08F
:104EC0005FD6A147014A8144930800021303E00220
:104ED0002D46130EF007654893861D00860DE29D52
:104EE00003D50D0021C96306150163196502630B23
:104EF000D90213643400B68DC5B71306F0029306C9
:104F0000C005B1B7B306FC0083D6E6FF6384C600D4
:104F1000E39EB6F47D19B9B7B28D8DB76377FA0009
:104F20006312D9086399C70619A06390C706136472
:104F30003400AD4783C609021307500E6395E6009F
:104F400015472380E90221476395E7008A0493F41B
:104F5000F40F93F7C40031476387E70093F73400F9
:104F60000D476397E70E13642400A38589024E85DD
:104F7000EFF05F8E83C7B90275C91147E31FE5E8FB
:104F8000918BE39C07E8154549BD6306D90013647E
:104F90003400E361D9FA8A0493F4F40FCA86AD476A
:104FA000214A91BF6370AE063EC636C4EF10000FB3
:104FB0009305803AEF10C003936D2400A246B247D8
:104FC000930800021303E0022D46130EF007654814
:104FD0006378AB029385F7FF6366BA00136434000D
:104FE0003E8A11BFB3854901935E85002380D503B6
:104FF000050A6E84B38549012380A502050AE5BD33
:105000006E8419C997850200938585DC838E05001F
:10501000638B0E006317D501136434001305F0058C
:10502000D1BF8505E5B79305F5FBC205C181636571
:10503000B80093E424007DBF9305F5F9C205C18152
:10504000E36AB8FA0115420593E4140041815DB7A3
:105050009377240099FB93F7140099C31364040118
:105060009188E38404F01364840001B7918BE39684
:1050700007DA83C76900C18B99D783A7090103C5E4
:105080000B0093854B0393F7F71FBE95EFE05FC8C6
:1050900023A4A900D68575B979712AC6680806D6F1
:1050A0002EC432C22ECEEFE09FBC634C0502938724
:1050B00041CA0A053387A7001843124619C32300C3
:1050C0000700324719C323000700AA9798C3014578
:1050D00011C601466C002800EFF08FA7B250456161
:1050E00082802D45E5BF130101D9232E31252326CA
:1050F0001126232481262322912623202127232CB5
:105100004125232A5125232861252EC6A54931C9C9
:105110001379F603B2842A844A866C086800EFF09B
:105120002FA3AA8905EDF247B2459808D8C7081001
:105130003ED0C13E11E58307B10463D30700194592
:1051400093F7C4016383071829C191476318F500D9
:105150000810EFF05F8D1369890039C12320040026
:10516000AA898320C126032481264E8583244126D3
:10517000032901268329C125032A8125832A412564
:10518000032B012513010127828083476102C58B10
:105190006398071493F7440063940716A188ADCC75
:1051A000EFE05FA4AA84AA8572553905EFE0BFA598
:1051B0007255A6855905EFE01FA5724AF25A0345BC
:1051C0000A00D685EFE0DFB493070002A385FA005A
:1051D000F255AA8401465285EFE0FFB5F257054724
:1051E000238E0700A38E0700238F0700A38F0700DD
:1051F000F247A381E7008DC00146A685081003AAE7
:105200000703EFF0CF8B39F97245D285FD14EFE03B
:105210009FBAF24784CB39F19377890099C3136918
:105220000904F244725A9C5823224403D2851CD0AC
:1052300003C50400EFE0DFAD08C41305CA01EFE0C9
:10524000BF9A83D76400130A840248C42308240148
:1052500004C02312F400A3080400232E0400232A10
:105260000400130600208145528513790902EFE0FE
:105270005F9BE30809EE4444E38504EEF2470C44E7
:1052800044C803D9A700854A7D5B2609636C99044D
:1052900001450CCCE31405EC93F7F41FE38307EC12
:1052A00072494A85EFE0DF982A860945E30806EA55
:1052B000A580269650CC034519008546D285EFE09F
:1052C0005F8FE30005EA054551BDE31905E8834713
:1052D000610213F707011DE789889DDC858B8DDF4F
:1052E0001D45ADBD0840B3842441EFE05FD2AA85DF
:1052F00063F6AA00E31C65F9054561BF094551BF86
:105300002145A9BD114599BD1D71A2CCD2C4D6C2FB
:105310005EDE86CEA6CACAC8CEC6DAC062DC66DA4F
:105320006AD86ED6AE8A23A006006C082A8432C6DC
:10533000B68BEFE0DF972A8A25E5034A1401631153
:105340000A0683470401858B638307160329C4007B
:105350005C4832463309F940637326013289130CE5
:105360000020130B8402930CF01F7D5D630A090279
:105370005C4813F7F71F631D07107247835DA70092
:1053800013D79700FD1DB3FDED0063980D048DEB61
:105390000844854763EBA7028947A308F400094A3C
:1053A000F64066445285D6444649B649264A964A4E
:1053B000064BF25B625CD25C425DB25D256182802D
:1053C0000C4C0840EFE0BFC4E9B76317A50185475F
:1053D000A308F400054AE9B708CCF2470C4C3E8517
:1053E0003EC6EFE0FF844DD9B389AD00B24763F20A
:1053F0002C0703D7A70093549900B3869D006374CC
:10540000D700B304B74103C51700A6864E86D685DC
:10541000EFE02FFA4DFD8307040163DF0700484CDE
:10542000B309354163FA9900A60913060020DA850D
:1054300033853A01EFE03F8CA60483A70B003309C4
:105440009940A69AA69723A0FB005C48BE9444C846
:1054500031BF504C630C360303070401635F070040
:1054600003C517008546DA85EFE0CFF52DF18347B8
:10547000040193F7F7072308F400F24785464E86A8
:1054800003C51700DA85EFE0CFF231F1232E3401A6
:105490004C48CA8493F5F51FB307BC4063F327015A
:1054A000BE842686DA955685EFE0FF8479B71D4ADB
:1054B000C5BD1D71A2CCCAC8CEC6D2C4DAC086CEC4
:1054C000A6CAD6C25EDE62DC66DA6AD86ED62E8ADC
:1054D00023A006006C082A843289368BEFE02FFD6A
:1054E000AA8929E5834914016392090483470401C9
:1054F000898B6382071A5C48338727016374F7003E
:1055000013C9F7FF930B0020930A8402130CF01FBA
:10551000FD5CEDA80C4C2285EFE0DFC9631E051091
:105520008347040193E707042308F400F640664428
:105530004E85D6444649B649264A964A064BF25B02
:10554000625CD25C425DB25D256182806317950129
:105550008547A308F4008549D1BF1C4408CC91E3DA
:1055600008C48307040163D10702F247504C854603
:1055700003C51700D685EFE0EFE479F9834704010E
:1055800093F7F7072308F400F2470C4C3E853EC61C
:10559000EFE00FEA4DC5338DAD00B24763762C0BBB
:1055A00003D7A70093549900B3869D006374D70076
:1055B000B304B74103C51700A6866A86D285EFE01B
:1055C0006FE059F54C4C338DA54163709D02260D5B
:1055D00013060020B305AA015685EFE0CFF18347FB
:1055E000040193F7F7072308F400A60483270B00B0
:1055F00033099940269AA6972320FB005C48BE9465
:105600005C4444C863F39700A6875CC4E30A09F0CE
:105610005C4813F7F71F39EB7247835DA70013D778
:105620009700FD1DB3FDED00E39D0DF2E39407EE41
:1056300008448145E30105EE8547E319F5F0894704
:10564000A308F4008949DDB5584C630FA701544401
:105650005848637BD70003C5170085466A86D68500
:10566000EFE02FD5E31605EE232EA4014848CA84A7
:105670001375F51FB387AB4063F32701BE842686FD
:10568000D2855695EFE02FE78347040193E707F8AB
:105690002308F400A1BF9D4951BD01116C0022CC2B
:1056A00006CE26CA4AC82A84EFE06FE0AA8759E9E5
:1056B0000347040193760704D1C6620761876353E9
:1056C0000702B247504C854603C517009305840274
:1056D000EFE04FCF85473DE58347040193F7F70798
:1056E0002308F400EFE00FD02A890C503245EFE098
:1056F0008FECAA8721E9445083C7B400A68593E7BD
:105700000702A385F40010440840EFE0CFE24C44C8
:105710001385C401EFE02FCFCA8513856401EFE044
:105720008FCE3245854723890400A3890400A30155
:10573000F500EFE01FF103470401AA871377F7FB99
:105740002308E400F2406244D24442493E850561A8
:105750008280011122CC06CE2A84813701E96C00B7
:105760002285EFE0CFD419E123200400F240624407
:1057700005618280797126D2AE846C0022D44ECE2F
:1057800006D64AD052CC56CA2A84EFE04FD2AA8914
:1057900075E5834914016393090E584463779700B4
:1057A00083470401898B91E3BA845C48232A04006F
:1057B000B5E081445C4858446379F700034704012D
:1057C0005CC4136707042308E40093F7F71FDDC7E1
:1057D000504C6305960A830704011309840263D0C1
:1057E0000702B2478546CA8503C51700EFE08FBDA3
:1057F0005DE18347040193F7F7072308F400B247FC
:105800008546268603C51700CA85EFE08FBA41E5B5
:1058100044CCADA032470359A7002609B9C3FD17F0
:105820001387F4FF33572703B3D62703636BD702DD
:10583000330720410C4CF98F5CC89D8CBDD97D5A33
:10584000854A5C48636199065C48A6975CC893F7F3
:10585000F41FA5D33245EFE0AFBD09CDA580AA94D2
:1058600091BF0C449DED2285EFE0DF948547AA852A
:105870006310F5028947A308F4008949B250225405
:105880004E8592540259F249624AD24A4561828059
:10589000FD576317F5008547A308F4008549F9BF54
:1058A00008C40CCC61BFCA975CC883470401B384A9
:1058B0002441898B81CB2285EFE0DF8FAA8519E512
:1058C000814459B70840EFE08FF4AA85E38545FD90
:1058D000E3F2BAFAB2479C4FE3FEF5F80CCC95B769
:1058E00059712AC66800A6D2E6C2EAC086D6368DAD
:1058F000A2D4CAD0CECED2CCD6CADAC8DEC6E2C4D2
:105900006EDEAE84B28CEFE08FB6AD46634D05140B
:1059100093162500138741CA3697184319C32300ED
:1059200007001379F50F89E49774020093844445C6
:105930004A85EFE0AFA6137715008D466315071271
:105940001189A94663110512D8403ACE09EB7008B7
:105950008D454A85EFE02FA819C105473ACE724719
:1059600021669306F7FF63F4C600758F19C30547D8
:105970003ACE83CB140085461387FBFF1377F70FCE
:1059800063F3E600854B83AD840021679386FDFFBA
:1059900063F5E60013F7FD0019C3930D0020C04422
:1059A00037070001636D870A1307F4FF618F45EB2A
:1059B0001307F01FC5466378A70B63860C0A101007
:1059C00085454A8583C4040002D0EFE0CFA0854618
:1059D00059E993F784003EC4014B81EF02579306C7
:1059E000F0033E8B63F7E600130717FC3AD0130B66
:1059F000F00302561307F007B9466376C706C1667F
:105A00009386F61F1307000863E48600135794007B
:105A100093F524008588B1C563810452BA8411EFDF
:105A20001358C6009776020093868633854403D5C3
:105A3000060001C58906637AA80433549602856678
:105A4000D51663F686040904060489491304F41F75
:105A5000139C5D002580135C9C00054825A3014430
:105A600081BFCD46C5FCB650265496540659F6491A
:105A7000664AD64A464BB64B264C964C064DF25DCE
:105A80003685656182800607D1A186044DB78D46B3
:105A90003304D4028549050405800D0445BFB3F8DD
:105AA000760363850800FD160508050AB3D676035C
:105AB0003694EDA989466394D904C166D51663F37B
:105AC0005603631A07461397140093060004E3F77E
:105AD000E6F46396054693060008BA84E3FFE6F40D
