:040000006F10907F6E
:100004000000000000000000900000201C020020FE
:10001400A9BDF9F5940000200000000000000000D4
:10002400960000209800002000000000000000005E
:100034009A000020000000009C0000200000000046
:100044009E0000203603002046030020A400002068
:10005400A6000020A800002022030020AC000020FD
:10006400AE000020B0000020B2000020B400002048
:1000740008030020B8000020BA000020BC000020C3
:10008400BE000020C0000020C2000020C4000020E8
:1000940001A001A001A001A001A001A001A001A054
:1000A40001A001A001A001A001A001A001A001A044
:1000B40001A001A001A001A001A001A001A001A034
:1000C40001A001A001A0B71700409306700523808A
:1000D400D704130780FA2380E7040100010003C654
:1000E400B7041376F60DA385C7042380070413769B
:1000F400050251CE03C6A700118A1DE22380D7044E
:100104002380E7040100010003C7A7001367470029
:100114002385E7009307004B01000100FD17EDFF65
:10012400B7170040930670052380D704130780FA9D
:100134002380E704010001007D892394A7000100C6
:10014400010001000100238007042380D7042380D9
:10015400E70401000100372700408546A303D78048
:1001640023800704B7170040130770052380E704B2
:10017400130780FA2380E7040100010003C7B704D2
:1001840013670708A385E704238007048280137696
:10019400050425CA03C6A700418A1DE22380D704AB
:1001A4002380E7040100010003C7A70013670701C8
:1001B4002385E7009307007D01000100FD17EDFF93
:1001C400B7170040930670052380D704130780FAFD
:1001D4002380E704010001007D891365050423944D
:1001E400A70001000100010001002380070423800F
:1001F400D7042380E7040100010037270040894623
:10020400B1BF2380D7042380E7040100010003D792
:1002140087001367070C2394E700A9B781460146BA
:1002240081451145CD22B71700401307700523807F
:10023400E704130780FA2380E704010001007D57D7
:100244002396E70203C76704136717002383E704B1
:100254002380070401A0BD473305F50201007D1585
:1002640075FD8280411122C426C206C6AA840144B7
:1002740063179400B24022449244410182800504F1
:100284001305803E4204C13F4180DDB7411106C6DB
:100294008566014681450545BD227DF981460146B5
:1002A400814511458D22B71700401307700523803F
:1002B400E704130780FA2380E704010001007D5757
:1002C4002396E70203C76704136717002383E70431
:1002D4002380070401A0B71700401307700523808B
:1002E400E704130780FA2380E704010001007D5727
:1002F4002396E70203C76704136717002383E70401
:100304002380070401A08280B7170040130700036D
:100314002388E7028547175700002323F7967300C5
:100324002030977000E0E780C09B730020304111BB
:1003340006C65125FDBF03D7C193B7170040239EBE
:10034400E70873002030730020302303048015472E
:100354002303E48001002302A48082808307648055
:10036400E3CE07FE23030480828083076480E3CE08
:1003740007FE03454480828083076480E3CE07FE42
:100384002302A4808280411126C44AC24EC006C6FC
:100394001377F50BAD47AA892E8995446306F700B8
:1003A40019456537653F8D444E854537FD59FD1424
:1003B40063983401B240A2441249824941018280C7
:1003C400135509011375F50F453F2209CDB70111E6
:1003D40026CC06CEB704080051371545BD37713712
:1003E40069372AC6A53F32459377150089EB136513
:1003F40015001375F50FF240E24405618280FD1487
:10040400E9FC0145CDBF397126DC4ADA4ED852D613
:1004140056D45AD25ED006DE62CE66CCB7E700E090
:100424007D5783AA070022C603AA470023A0E71822
:1004340023A2E718B7170040130770052380E704C9
:10044400130780FA2380E70483C74704930B75FFDF
:10045400B684E20793FBFB0F8546AA892E8B32896B
:1004640037240040E187015763FA76016308D50019
:100474008946130700026313D5000157D98F93F7F8
:10048400F70FB71C00402382FC0411472303E480C8
:100494001305F00F5D3D094CD135636D7C11B70533
:1004A4000700DA9537870700795563F2E504B387C7
:1004B4009500636EF702370B0800A94733EB65011B
:1004C4006399F90689E48144513D26850DA0DA85B6
:1004D4000945553D05090345F9FFFD14050B693D23
:1004E40081C49377FB0FFDF7DD3569FD7D55B717A3
:1004F4000040130770052380E704130780FA238064
:10050400E70403C74704418B2382E704F250B7E7AB
:1005140000E023A0571123A24711E2543244525958
:10052400C259325AA25A125B825B724CE24C21616C
:100534008280A5476395F90685691309F00FB30610
:100544009900B3742B01B6941349F9FFB37499005D
:10055400856B33796901416B9387F9FFB3F7270101
:1005640099E363FC340193D94900C147E3E637FFBB
:1005740099BF0569C1697D19D9B71305800D6388D1
:100584006901130500026384790113051008CA8503
:10059400DD3B353D21DD4E99B3843441D9B7DA854D
:1005A4002D45D533CA94E30099F205097D3BA30F89
:1005B400A9FED5BF9387F9FF93F7F70F6361FC0C8E
:1005C40083C71C0413073008631FF70437070800A8
:1005D400636BEB04B3079B00B706100063F5D70405
:1005E400334BEB0089476393F9068980D549E38C43
:1005F40004ECDA850945413B11090327C9FF9147FA
:100604002320E48003076480E34E07FE2303348140
:10061400FD17EDFBFD14110B81C49377FB0FE9FF6C
:100624007D3371F5E1B5B717004003C75704B70729
:1006340008001377070219E3B78707007955E378B1
:10064400FBEA33079B00E3FFE7F855B58547E382F0
:10065400F9F2DA852D45053B9389F4FFE38504E639
:10066400293393F7390091EB83260480032709008B
:1006740093074900E39AE6E43E89CE84F1BFB54787
:100684006396F9001305900BC93135BDB1471305C5
:10069400B00AE38BF9FE99476391F904B7050800A2
:1006A400B365BB002D45C53181448D4BA1497539D6
:1006B40063967401832704802320F9008504E3985A
:1006C40034FF8327048013172B016355070023127B
:1006D400F900D5BB2322F900FDB39D476399F902C4
:1006E40081451305B0044531BD442320090023226C
:1006F4000900FD599D3993F77400CA9703C7070091
:10070400FD14398D2380A700E39634FF6DBBA14708
:100714006392F9046D398144630D0B008D47930492
:10072400C0036308FB009304000563048B01930476
:1007340040041375C507E30895D81945393139398B
:100744000545213126850D3909453D314931E31CE3
:1007540005D669BB91476399F90013056006F53620
:10076400F53E130590090DB7E38F09D4F154A9BBE5
:1007740019CD91CD09CE81473387F5008346070013
:100784003307F50085072300D700E397C7FE82806F
:1007940019C991C909CA910583A7C5FF11057D1619
:1007A400232EF5FEC5BF828001C919C62A96050508
:1007B400A30FB5FEE31DA6FE828081473307F50033
:1007C4000307070019E33E8582808507C5BF011131
:1007D4002E8626CAAA84131506019305F0044181C6
:1007E40022CC06CE32C6EF10A0572A8401C5324669
:1007F400A685BD3F2285F2406244D24405618280D1
:10080400854715C18DC105C28147B306F5003387FD
:10081400F50083C60600034707006398E6008507D2
:10082400E315F6FE85473E8582808147EDBF930739
:10083400F6FFBE952A966313C5008280FD1583C713
:1008440015000505A30FF5FEFDB7AA87014581CF65
:1008540009CE3E96850703C7F7FF6317B700E31B6E
:10086400F6FE054582808280014582807971976712
:100874000000938767EB22D4804306D626D24AD061
:100884004ECE52CC56CA5AC85EC662C45DCC37C975
:10089400C901814B176A0000130A8AED97640000AE
:1008A4009384C4E81309F937976A0000938A8AE2AB
:1008B400B709C0A8370B40578357240095E35C441D
:1008C400639D0B00176700002320F7E6032CC40088
:1008D4002285EF100056628499A823A6FB00FDB779
:1008E40083270A008297838664011C4463DB06061F
:1008F4003307F5406367E9089767000023A407DE20
:100904008355240003450400978000E0E780C09EDF
:100914005C405844A9CF1444B6978386640163C5E8
:10092400060063E33701DA971CC4A28B3A8449F4C6
:1009340097670000938707DA9C4B09476378F706AB
:10094400F91717670000232FF7D8B2502254925496
:100954000259F249624AD24A424BB24B224C456197
:100964008280E377F5F83387F9402A9761B7639774
:100974000B009767000023A9E7DA89BF23A6EB00E1
:10098400B1B7D85009CF63DF06003385A74083A7EA
:100994000A016376F5009767000023A5A7D4A28B0C
:1009A400404471B7E3F3A7FECE97C5B7976700003D
:1009B40023AA07D259BF411122C4176400001304AB
:1009C40064D41C4006C626C24AC091C78297976762
:1009D400000023A907D25C4091C382971C40639115
:1009E400071C9767000083C7F7ED858B9DC7976742
:1009F4000000A38907EC176700000347D7EC914771
:100A040063FDE700EF00B0359767000083C7B7EBDD
:100A1400F9178A07A2979C43829717690000130964
:100A240029EE8347C900918B99C3EF10C0261C445B
:100A340091C38297976400009384C4CE984017664C
:100A44000000034636C99767000083C7A7C893967A
:100A54001700BA9683D60600D5CA9767000083C7E5
:100A640067C763EFC70A97670000238507C61C4062
:100A7400639807129767000083C717E591CF9767BC
:100A8400000083C757E489EB97670000A38E07E251
:100A940097C001E0E780E00297670000938747CDA5
:100AA4009C43638F070EB707C0A817670000232B6A
:100AB400F7C26D3B97670000938747C7DC53EDC3CC
:100AC40017670000130707C1184B9767000083C717
:100AD40037C76367F70C176700000347D7DE9147F2
:100AE40063E0E70C8347C900918BDDEB9040976688
:100AF400000083C636BE63CBD70A2244B240924478
:100B040002494101177300E06700235C850793F7EE
:100B1400F70F97660000238FF6BAE3E6C7F235BFF6
:100B240086073E9783550700231007009767000048
:100B3400239807BE97670000938787BC9C4317657B
:100B44000000034525B913172500BA979C438297E3
:100B54009767000083D7C7BC17670000034787B7B0
:100B640093C7F7FF7D8D9317170098403E978357DF
:100B740007005D8D2310A7009767000083C787B522
:100B840091C78507176700002306F7B417670000AD
:100B9400034747B49767000083C7D7B3E375F7ECFF
:100BA400B2402244924402494101828013971700C3
:100BB4003297035707006DF7850735BFAD6737C711
:100BC4000040BD072326F7200F10000097670000A0
:100BD400938747B0C84F83278726BD66BD0693C752
:100BE400F7FF99836A052326D7205D8D8280411102
:100BF400B7170040985F3AC6945F3247E39CE6FE1D
:100C040032454101828082800327851163000712E7
:100C1400411122C406C68347C5008345C5042A84FE
:100C240093F7C70F2306F500834697000356C700C2
:100C340013958601618563F1C508635A050603456A
:100C4400870093F6F607A304D700054693E627002A
:100C54006314C50093E617002306D4005C43890798
:100C64005CC3A30AB400032504112E864C43090572
:100C740001368327841103465401D44303D7C700A4
:100C8400B296118FD4C32396E7008947A30DF400CD
:100C9400034744039767000083C767AA6378F70490
:100CA4008347C40093E707012306F40081A093E778
:100CB40017002306F40075B79376F60F635D0502FB
:100CC40003458700854513E627006314B50013E642
:100CD40017002306C400A30AD400A3040700854711
:100CE400A30DF400832784119C43DDF3B240224416
:100CF40001454101828093E717002306F400A30A0B
:100D0400D400A3040700032504114C4309058D34C2
:100D14008327841103465401D44303D7C700B296F2
:100D2400118FD4C32396E7008D475DBF05458280AC
:100D3400976700009387C7B79C43411122C406C636
:100D4400858B2A84C5EF4165130525F5976001E07D
:100D5400E780401C45C58347A5002315F50083277C
:100D64000412BDE72320A4122322A41285472310D2
:100D7400F404232005008347640154412316F5003D
:100D84000347D4002304E5000547A304E5001767DF
:100D940000001307E7B2184F1385170215811C438F
:100DA4007D151375F50F9CC25C43DCC21C479CC6C1
:100DB4005C47DCC61C4B9CCA5C4BDCCA1C4F9CCEFB
:100DC4005C4FDCCE19CD9386060213070702C1BF20
:100DD4008327441288C3835704042322A41285075B
:100DE40079B79767000083D767BA8507176700004C
:100DF400231EF7B8B2402244410182808347C400D5
:100E040023090400054593C747002306F400DDB712
:100E14008347850193F7E70FCDEB83479501D5E72A
:100E2400034625018346C50009CA83454503176760
:100E340000000347D79063E7E50013F7060159C79D
:100E4400014709C6C18A0357851B81C68356C51B42
:100E540036972DCFB7470F009766000083D6068AD2
:100E640093870724B3C7D7021307C712411126C2B9
:100E740022C406C67D543357F7029767000083C720
:100E8400778CB384E700976700009387A7AF83A6A6
:100E9400C70883A7060963F387003E849442F5FAE2
:100EA400976700009387C78C9C438297814763644C
:100EB400A400B307A440B2402244B3B7970093C739
:100EC400170092443E854101828081473E8582809D
:100ED400797126D206D622D44AD04ECE52CC56CAE6
:100EE4005AC85EC68347350303447513AA843E94E7
:100EF4001374F40F9307400263F687001304B4FDE0
:100F04001374F40F03AA841383AAC413A38B841247
:100F140022865285D685976002E0E78060B5058910
:100F240015E503CBD41201498149337B6403930B48
:100F340050024A865285D685976002E0E78040B326
:100F4400058915C5639169031374F90F238B841202
:100F5400B250225492540259F249624AD24A424B44
:100F6400B24B456182808509E20993D9894105091B
:100F7400E31179FDE1BF832785090356E503797100
:100F840093D60701BD8EC206C182358E13577640B3
:100F940093575640898B058B5D8F93573640918BC1
:100FA4005D8F93571640A18B5D8F93171600C18BED
:100FB4005D8F9317360093F707025D8F93175600E2
:100FC4009355860093F707041E065D8F1376F60F7C
:100FD400518F93D7554013D63540118A898BD18FC1
:100FE40013D67540D18F13D61540218AD18F13960D
:100FF4001500418AD18F1396350013760602D18FDE
:1010040013965500137606049E05D18F93F5F50FBC
:10101400CD8FA20745465D8F3307C70222D42A84A9
:1010240026D252CC56CA032A8413832AC4135AC81C
:1010340006D6369742074183935777401355574056
:101044000989858BC98F135537401189C98F135569
:1010540017402189C98F131517004189C98F1315AA
:10106400370013750502C98F131557009355870070
:10107400137505041E07C98F1377F70FD98F13D57E
:10108400354013D755401189098B498F13D57540C5
:10109400498F13D515402189498F1395150041892E
:1010A400498F1395350013750502498F1395550023
:1010B400137505049E05498F93F5F50F4D8F22078F
:1010C400D98FB387C7024AD04ECE5EC662C4B697E4
:1010D400C207C18313D7774013D557400989058BBD
:1010E400498F13D537401189498F13D5174021896A
:1010F400498F139517004189498F1395370013754C
:101104000502498F1395570093D58700137505047D
:101114009E07498F93F7F70FD98F13D5354013D70F
:1011240055401189098B498F13D57540498F13D5C3
:1011340015402189498F139515004189498F1395CD
:10114400350013750502498F139555001375050471
:101154009E05498F93F5F50F4D8F2207D98FB387DD
:10116400C702130650025285D685B697BD8E939456
:101174000601C18033F6C402137BF60F976002E0C8
:10118400E780008F05890DED8347D4120149814919
:10119400B3849702130C5002C1804A865285D685C7
:1011A400976002E0E780C08C0589937BF90F11C535
:1011B40063863403850993F9F90F0509E31F89FD53
:1011C400230B6413B250225492540259F249624AD6
:1011D400D24A424BB24B224C456182805E8BCDB7E2
:1011E4000111975700009387E77922CC03A4070BDA
:1011F40026CA06CE2AC42EC6854419E40145F24007
:101204006244D244056182808347910003471400FD
:10121400858B6304F7000044CDB719469305A100FC
:1012240013052400EFF0CFDDE31795FE0545C1BF9C
:10123400011122CC175400001304446A18402AC632
:101244002EC432C206CE3C4B93F7F7F73CCB97C083
:1012540001E0E780C08318409756000093868665B6
:101264003C4B93E707083CCB9C423245A24523A064
:101274000700034715000348250022074208429748
:10128400034805004297034835006208429798D7FF
:101294000347550003486500220742084297034864
:1012A400450042970348750062084297D8D7034720
:1012B40095000348A5002207420842970348850089
:1012C40042970348B5006208429798DB0347D5006C
:1012D4000348E5002207420842970348C500034536
:1012E400F500429762052A97D8DB03C7150003C5AA
:1012F4002500220742052A9703C505002A9703C53E
:10130400350062052A9798CF03C7550003C56500C9
:10131400220742052A9703C545002A9703C575008D
:1013240062052A97D8CF03C7950003C5A5002207F5
:1013340042052A9703C585002A9703C5B5006205AF
:101344002A9798D303C7D50003C5E50022074205B1
:101354002A9703C5C50083C5F5002A97E2052E9791
:10136400D8D3D843759BD8C3D84313671700D8C3C1
:1013740098431367170098C3124698425C43858BC1
:10138400D1E71C4F01452300F6009C429C4FA183EA
:10139400A300F6009C429C4FC1832301F6009C42AB
:1013A4009C4FE183A301F6009C42D84F2302E60040
:1013B400D84F2183A302E600D84F41832303E600DC
:1013C400D84F6183A303E60098532304E60098539F
:1013D4002183A304E600985341832305E600985330
:1013E4006183A305E600D8532306E600D85321837E
:1013F400A306E600D85341832307E600DC53E183C8
:10140400A307F600F2406244056182800100B5B78B
:101414005D713AD2175700001307074A36D41443B4
:101424003ED022DE9C5E4ACA86C6998396C49AC27E
:101434009EC026DC2ADA2ED832D642CE46CC72C8DA
:1014440076C67AC47EC2858B3A8417590000130984
:101454006946D1CB9C5E975400009384644693F70D
:10146400F7F99CDE175700000347E7459307000888
:10147400631BF700832709009C4393F7070417575E
:1014840000002302F74483C7040093F707049DC3B5
:10149400975700009387C72D9C4382979757000066
:1014A40023A8A74283C7040093F7F70B175700003C
:1014B4002308F74083C7440093F707048DE7854763
:1014C40017570000A300F740975700009387074180
:1014D4009C43096798C7130700FC975600002383B1
:1014E400E63ED844F8D31C40985F1183058B09CBA2
:1014F400985F3D9B98DF0547975600002384E63CA0
:10150400985F1D83058B11CB985F1377F7F798DFEE
:101514008547175700002307F73A83270900D84364
:101524000583058B19C7D843759BD8C3D843799BCA
:10153400D8C37254B640A64216438643E254525569
:10154400C2553256A256125782577248E24852493F
:10155400424EB24E224F924F616173002030975732
:1015640000009387A7379443975700009387473524
:1015740003C70700058B11CB97570000238407345A
:1015840097570000A3800734828003C71700058B98
:1015940065F7F85271FF83C75700DDB7175800008D
:1015A40013088831032708001C5F9583858BD5EBCE
:1015B4001DC6975700009387E73C8398670403038D
:1015C40006001C5BBD83630B030893F7F71FB38707
:1015D40017419A970947B3C7E7022300F60085CA63
:1015E40083270800985B46079357670163560700F3
:1015F40093E707C0C207C18303970600C207C187E8
:1016040009C7BA970947B3C7E7022390F6009DC9F3
:101614008347150085CB9756000083C6C62A93F6E8
:10162400060413879700914785CA3A950347050036
:1016340085461376F7066311D60262076187B147C0
:10164400634C0700832708009C5FED838D8B17573D
:101654000000A30CF72681473E858280B38717419B
:10166400ADBF8947D5BF411122C406C61754000037
:101674001304C426184049E9AE877453FDFE3E8521
:10168400B28597570000238E072297B001E0E780C8
:10169400401D97570000938727229C43B70680007C
:1016A4009843558F98C3D857719BD8D79757000044
:1016B400A38A072097570000A38407201C400947EA
:1016C40098C3B7F700E003A707D16D9B23A8E7D021
:1016D40003A707D15D9B23A8E7D0730050101440E3
:1016E400175700001307C71D83472700858B89EB15
:1016F40083473700858BD9C7975700002384071C7D
:10170400B2402244410182808D476310F50297570D
:1017140000009387671A9C43B70680009843558F4F
:1017240098C3D857719BD8D75DBF8547E319F5FA9D
:10173400B567BD075CC70F1000001C400967094668
:1017440098C7130700F897560000238DE61617571D
:101754000000130767161443984231830D8B6319F5
:10176400C7001307E043F8D33D673D07D8C785BFDB
:10177400984231830D8B01E713076019EDB7130706
:10178400E01BD5B7FC52ADF3A5BF5D714EDE975992
:1017940000009389691203A7090086C6A2C4A6C2E1
:1017A400CAC052DC1C431759000013096917175AA1
:1017B4000000130AAA1293F7F7E793E707081CC37C
:1017C400832609003707CEFF7D179C461306800247
:1017D4002A84F98F9CC683270A001307000828006F
:1017E400B8CBAE8493051008EFE01FFC97B001E07E
:1017F400E780E02997B001E0E780E03683A709009D
:101804009376F41FB70EFCFF23A40700984B13052F
:1018140010F8CE851367F70398CBF84F4A88B70FB3
:101824000400137707E0558FF8CF9843F576FD163B
:10183400758F98C39843B706330091421377F7E73F
:1018440098C39843FD1E85431377F7E71367071082
:1018540098C303270900130F80021C47D58F1CC7A8
:1018640083270A001307900D3400B8CB014793581F
:101874003700A69883C7080013767700B3D7C7400C
:10188400858BDDC79C41032E0800239C070423900D
:1018940007060323CE021373D3FF23266E0203AE7F
:1018A40007001373F707137E0EF833636E0023A04B
:1018B400670003A347023363F30123A267020143D2
:1018C40003DE07066307C30303A30703038E0600AF
:1018D4001353F30062031353834163586E0003A34D
:1018E40007031353F3002380660003D3070613731F
:1018F400F30F03DE8705E3F5C2FD03A34702337349
:10190400D30123A2670283870600635CF40003C348
:1019140008003396C3001346F6FF3376660023802F
:10192400C8003E8663D3A7002A8613158601618505
:1019340005071377F70F8506E31BE7F3B640264444
:1019440096440649F259625A61618280011136C88F
:1019540097560000938686F83EC49C423AC632CA23
:10196400D8472ACE2ECC1316170163550602984782
:1019740013161701635006027D57B8D71757000096
:10198400130747D5584F0507175600002322E6D6FC
:10199400116798C798470D83058B1DC3175700001F
:1019A400034727F21367170017560000230BE6F0CE
:1019B400130700F8175600002306E6F0214798C7DE
:1019C4009847058B09CF17570000034777EF136734
:1019D400170017560000A305E6EE054798C7984779
:1019E4000983058B09E798470583058B39CF984709
:1019F400175600001306C6EC175500001305C5EB77
:101A04000983058B630C07101841184331830D8B30
:101A140063130710AC4B184E93F5050203471700E8
:101A2400E9C57DE713077006D8CF0347060013679F
:101A34001700175600002305E6E8114798C7184118
:101A44005C57F19B93E717005CD79C429847931629
:101A5400370163D606029756000083C6A6F9C18AE9
:101A640017570000130707F2E1C603470707136778
:101A7400070297560000238FE6F6056798C7984734
:101A84009316270163D1060217570000034787E323
:101A94006207618763570700054797560000238351
:101AA400E6E2096798C798479316070163D60602CA
:101AB4009756000083C616F4858A1757000013074B
:101AC40067ECC9C60347170713672700975600003A
:101AD400A382E6F2216798C77245E2455246C246A0
:101AE4003247A2470561730020300DDF8545631539
:101AF400B7001307B0060DBF89456315B700130778
:101B0400F0061DB78D456315B7001307300729BFCD
:101B14001307500711BF1307600739B7034736008F
:101B24001367170017560000A30DE6D8094739B705
:101B3400834607070946BD8A6388C600034707072B
:101B44008D463D8BE31BD7F2114725B78346170714
:101B5400918AC9D2034717071367870085BF1757B0
:101B640000001307E7D78346B7019757000083C7E0
:101B7400F7D9B69793F7F70FFD4663EAF6044C4B93
:101B840097560000A38EF6D49757000083C757D505
:101B940005473317F70097560000A389F6D66D8FD3
:101BA4001DEF9756000083C6B6D6B3F6D7021305C9
:101BB4000002814733D6F500058A13F8F70F09CEE2
:101BC4006399E60097570000A38C07D182808117A0
:101BD4007DB705071377F70F8507E39DA7FC828080
:101BE400975700009387C7B89C43011122CC4EC677
:101BF40006CE26CA4AC852C456C2829797570000D6
:101C0400938707D0804781496305A406BE8497570C
:101C140000009387A7B1038767013E8963550706D0
:101C2400018D135455009757000083C707CD93794E
:101C3400F501636DF402370AC0A8B70A40570537A7
:101C44009C449756000083C646CB139756003E9794
:101C540083076901158C63C50700636347015697C1
:101C64009757000023A2E7CAE37BD4FC1604B369A8
:101C74003401F24062444E85D2444249B249224A78
:101C8400924A05618280E37D85F8B707C0A8338452
:101C94008740229579B797570000938767AD9C4397
:101CA400411122C406C626C2829797570000938723
:101CB40027C580476309A406BE849757000093870D
:101CC400E7A68387670163D80704018D1354550081
:101CD4009757000083C767C26367F4044935984483
:101CE4009757000083C767C19396570036971D8C9A
:101CF4009756000023AAE6C0E372F4FE2244B240E1
:101D04009244175500000345B5BD8145410117B301
:101D140001E067006329E37A85FAB707C0A8338432
:101D24008740229565B7B2402244924441018280A3
:101D3400975700009387C7BE9843B757020093870D
:101D4400079F8326070913965600635806008326C7
:101D540007091396660063440600FD17FDF38280AD
:101D640071C5AA870145E9C58D07C207C183F19BE7
:101D7400C207C18313074003636FF70217570000BC
:101D84001307C7BF0843175700001307A7BE144320
:101D94006398A6021757000013074799185B01457B
:101DA40041CB4111C20706C60545DD8D0297B240FD
:101DB400014541018280175700001307E7BBD9B7DB
:101DC4000357650035E303574500636FF704B30613
:101DD400F7402146637CD6020328050093868700DA
:101DE4001D8FAA966117175600000356068F23927B
:101DF400E60023A006012393060014C12312F50074
:101E0400130786FF975600002399E68C2313B50029
:101E14009755000083D5658CB387F54017570000AC
:101E2400231DF78A2105828008419DB701458280E0
:101E340082800DC197570000938747B403A307001E
:101E440097570000938707B383A8070081469A87B2
:101E540063E31701828003A80700636DF50A636BCF
:101E6400A80A13878700E367E5FE03D667002167A6
:101E740005076317E60003C7819F0507238CE19ECE
:101E8400975500009385058503D6470003D7650061
:101E94002393070032974207418317550000231EFE
:101EA400E582638A6702175500001305E5AC084113
:101EB4006303F50203D5660019ED83D7460023A01A
:101EC400060121073E9621062392C600975700007B
:101ED4002395E780B6879843E30E17F797560000DB
:101EE400938686A99442E307D7F683566700BDF22A
:101EF40083D64700035647001843A106B29623929F
:101F0400D70098C383D76500A1071747000023169D
:101F1400F77C8280BE86C28725BF011197570000D7
:101F2400938747A622CC03A4870B26CA4AC84EC669
:101F340006CEAA8413092500854915C083C7140059
:101F440003473400858B6304F700405CFDB71946F2
:101F5400930544004A85EFE0BF8AE31835FF2285E4
:101F6400F2406244D2444249B2490561828041113F
:101F740097570000938707A122C403A4870B26C2A6
:101F84004AC006C693042500054901E82285B240EB
:101F940022449244024941018280A6851305A40289
:101FA400974002E0E7800062E30225FF405CF1BF56
:101FB4004111975700009387E79C22C403A4870B21
:101FC40026C24AC006C693042500054901E82285B5
:101FD400B24022449244024941018280A6851305FD
:101FE400A401974002E0E780E05DE30225FF405C46
:041FF400F1BF000039
:101FF80097110020938181E41761002013010100EB
:102008001305400097E5FF1F938545FF170600203D
:10201800130606FE63FAC5008322050023A05500B7
:1020280011059105E3EAC5FE178502001305C5CD24
:10203800970500209385C5FB1386818C63FAC5003C
:102048008322050023A0550011059105E3EAC5FE8A
:102058001385818C97550020938505A46377B50077
:10206800232005001105E36DB5FEFD42739002BC07
:102078008D42739042809302800873A0023097E2E9
:10208800FF1F9382A2F793E2320073905230976257
:1020980000009382429473901234730020303D43C1
:1020A8002A876373C3029377F700BDEFADE5937694
:1020B80006FF3D8ABA960CC34CC30CC74CC74107F0
:1020C800E36BD7FE11E28280B306C3408A0697020B
:1020D800000096966780A6002307B700A306B700FE
:1020E8002306B700A305B7002305B700A304B7006C
:1020F8002304B700A303B7002303B700A302B70064
:102108002302B700A301B7002301B700A300B7005B
:102118002300B700828093F5F50F93968500D58D3F
:1021280093960501D58D61B7939627009702000015
:1021380096968682E78086FA9680C1171D8F3E960E
:10214800E374C3F8A5B782803D897D15954763EE92
:10215800A70E176702001307A7380A053A951C410E
:10216800011106CEBA978287970500209385054D01
:102178000545EFA04043176502001305653CEF4095
:10218800923311A803C725008D4717650200130570
:10219800253CE306F7FEF2400561828003C725006F
:1021A8009547E31AF7FE03D5A500239CA18083C7B2
:1021B800818299E3EF00825F85472386F18C17655A
:1021C80002001305E53965BF03C725008D47E314F1
:1021D800F7FC176502001305653955B783C7250055
:1021E8001147176502001305E5396384E7041947A9
:1021F800639AE70283C56500176502001305453A2F
:102208002386018CEF40F216F957239CF18085470D
:102218001306F100854513055030A307F100EF00C0
:10222800622D95BF1547E394E7FE17650200130575
:10223800E538EF405228E1BF83C525001765020045
:1022480013054539EF40F212B9B782800111230511
:10225800A1003400214685450D4506CE2314010012
:10226800A305010002C6EF107068F2400561828084
:10227800011106CE22CC3A883E87B1E28D6793875A
:10228800D7A42A8EAE88328383460800631EF600E0
:102298008947639BF50085473544639DF60083476E
:1022A8000700898BA387F18C1A86C6857285EF2073
:1022B800E02E2A842285F2406244056182808547A7
:1022C8006396F600C286EF200033E5B789470144DC
:1022D800E392F6FE1306F100854513055030A30777
:1022E8000100EF002221F9B701119397050122CCD3
:1022F80006CE26CAC1872E8463DC070003C5A181E8
:10230800EF50F03519C1EF50702E2165218D3DA099
:1023180093F7150013C5150095E393F7450085C796
:1023280083C7A1811307803E814613060005C14576
:1023380003D58181EFF0916413454400F240624473
:10234800D2440561828093F785009DC30147894681
:102358000946814503D58181EF008247AA85176523
:10236800020013056519EF40D20013458400F9B740
:1023780093F70501C5C36C0013055030A305010090
:10238800EF00A2040347C10085476319F70013064D
:10239800B100854513055030EF00C21597040020A1
:1023A8009384C429A6850545EFA0E01F31ED83C5B8
:1023B8005180176502001305A515EF30D0391305B4
:1023C8004006EF30D04983C7540003D58181FD17FB
:1023D800A386F18CC167F9176307F500EF00023D8A
:1023E800F957239CF1808347C1000547639BE700A9
:1023F8001306B100854513055030A305F100EF0021
:10240800620F134504011DBF83C7D18C8507A382C2
:10241800F180D1BF93F72500B9C703C5B1813D3518
:1024280083C7B181850793F7F70F7147636BF7028D
:102438000145A38DF180193DB70702009387072056
:1024480074001146854505453EC6EF10304A13060F
:10245800007D894503C5A181EF50D07A134524003A
:10246800F1BD9147F1B79397350163DC0700938776
:1024780001829443114685450545EF1030470565AF
:1024880071B59397250163DC07009387C181944355
:10249800214685450D45EF107045096585BD939723
:1024A800150163DC070093874182944305468545FF
:1024B8000945EF10B043116591BD93F7050289CF27
:1024C8001765020013058505EF30F0288547238737
:1024D800F18C134504029DB593F705040145E38F7C
:1024E80007E49387818C9043814503D58181EFF080
:1024F80041161345040499B501118D6585461306E7
:10250800F100938545802D4506CE97E0FF1FE780B3
:1025180040EF8347F10019476373F7008547F2409E
:10252800A382F18005618280797122D40D6406D678
:10253800A307A1001304448085461306F100A28571
:10254800294597E0FF1FE780C0EB85461306F10198
:10255800A2852D4597E0FF1FE780A0EA0347F10118
:102568008347F100E31AF7FCB25022544561828098
:10257800011117050000130565D706CE22CC26CA1F
:10258800EF60A0289384A18105442380A4007000F3
:1025980085451305503023068100EFF0B175138689
:1025A80081809D4513056030EFF0D1741706002037
:1025B800130606A5D54513057030EFF0B1731766FD
:1025C8000200130666F6D5450145EFA0102389479A
:1025D80070009145130570402305F1002304810024
:1025E800A3048100A305810002C6EFE09126300014
:1025F800854513050040EFE0D12513069100854578
:1026080013051040EFE0F1241306A10085451305DA
:102618002040EFE011241306B10085451305504012
:10262800EFE03123A9477000854505452306F100F1
:10263800EF108047EF103063970500209385459B86
:1026480013850181EF10502903C504008545EF501B
:10265800F049F2406244D24405618280411106C6C5
:10266800EF20A01783C7E18C99E3EF20201B3717D1
:1026780000408327470C83C68193B98393C717000B
:10268800858B638FF6008327470C11672D45F98FDB
:1026980013B71700238CE19291C33145EF30D01363
:1026A800B24041016F20A00C03C7F196854763141F
:1026B800F7006F50E029828015456F001024411102
:1026C80093962500AA852D4506C697E0FF1FE7804B
:1026D80040D3B240014541018280411122C426C243
:1026E8004AC02A842E89B284AA859306002001460E
:1026F800254506C697E0FF1FE780A0D0931629005E
:102708002686A285294597E0FF1FE78080CFB24043
:10271800224492440249014541018280011122CCA0
:1027280006CE3714004026CA4AC84EC652C483444F
:102738007405034AB4058349840503499405EF00E9
:1027480050198347A40593F4F40F137AFA0F93E70B
:102758001700230DF40493F9F90F1379F90FB7173C
:10276800004003C7A705058B6DFF03D5C705A38DDB
:102778004705238C3705A38C2705A38B9704F240C4
:102788006244D2444249B249224A05618280938711
:10279800018E98439307F00E63FCE7004111014551
:1027A80006C6EF30F068B24023A0018E4101828056
:1027B800828083C7E195A1CF4111238F019406C67A
:1027C800F93783C7F1960547639DE70003C7A182E0
:1027D8006319F700894503C52188B24041016F504C
:1027E800F03003C7C18C85476316F700856503C5BC
:1027F800A181E5B703C7418E6318F700C1451725C6
:1028080000200345253AD1BFB24041018280828031
:10281800411106C6EF20D03083C7319495C7853F54
:10282800A3810194EF20005305C197770200938795
:10283800A7489C431D4783C727006384E704636256
:10284800F7021147638DE7029387418D9C43130775
:10285800200385076369F702B24023AAF18C41017E
:1028680082805947638BE7006947E39FE7FC854708
:1028780017270020232CF72AC1BF8947D5BF8D47CA
:10288800C5BF9147F5B7B24023AA018C41016F50EB
:102898008030411106C622C403C7C18D83C7F19693
:1028A800630CF706ED3583C7F196238EF18C177507
:1028B80002001305659EA1C3EF30207E03C7F19681
:1028C80083C7C18C6304F7002385E18219CF03C74E
:1028D800418E5D8F19CB03C7A1820DC39775020086
:1028E8009385859B2E85EF3050032244B2401D45C9
:1028F80041016F30606EEF30C07CC9B76388070E46
:1029080083C55180D1479105B385F50297770200B9
:1029180093878798BE95F9B703C7D18D83C7C18CB4
:102928006304F708AD3583C7C18C03C55180A38EF6
:10293800F18C1774020013042496110585CFD14732
:102948003305F5022295EF30407583C7F19603C72A
:10295800C18C6384E7002385F182C1DB59D783C723
:10296800A182ADFF83C551809105D147B385F5029A
:10297800A2958DBFD1473305F5022295EF306074DB
:1029880003C7E18C8547E312F7FC176502001305BE
:10299800A5CA2387018C23A4018CEF30C05B1305E3
:1029A800007DEF30C06B55B703C7E18D83C7418EFB
:1029B8006306F704E93B83C7418E238FF18C1775B3
:1029C80002001305A58E85CBEF30206D83C7F196E5
:1029D80003C7418E6384E7002385F182E38707F00C
:1029E800E30507F083C7A182E39A07EE9775020013
:1029F8009385C58BC5BDEF30C06CC9BFB2402244BA
:102A080041018280411106C622C4EF20701183C79C
:102A180031946383070EA3810194953B83C7E18CAE
:102A28000544639587021385818CEF20F04963156F
:102A3800050C2244B2402387018C03C5A1811306EB
:102A480000199305000441016F50D01BEF2080301E
:102A580011CD83C7F196639B870403C7A1826317CF
:102A6800F704914503C52188EF50500883C7419466
:102A7800C1C7238201949387018288430D4681450B
:102A8800050597E0FF1FE780E0D183C7F19605476A
:102A98006391E70403C7A182631DF702894503C553
:102AA80021882244B24041016F50500403C7C18CB1
:102AB80085476316F700896503C5A18175B703C704
:102AC800418EE315F7FAA145172500200345850D2A
:102AD80061BF03C7C18C85476316F700856503C5C9
:102AE800A181C1B703C7418E6318F700C1451725F7
:102AF80000200345250B75B7B2402244410182806E
:102B0800411106C6693183C7F1960547639DE70001
:102B180003C7A1826319F700A14503C52188B24004
:102B280041016F50A07C03C7C18C8547630DF70036
:102B380003C7418E6319F70093050002172500208B
:102B480003454506E9BFB2404101828083C7F1963B
:102B580085CF83C7A1828DCB83C7918D03C7018D94
:102B68006304F7022388F18C411106C683C7018DDF
:102B78001765020013050576A9C3EF300052B2406D
:102B88001D4541016F30404583C7C18C91CB83C738
:102B9800A18299E783C7F18C03C7018DE314F7FC81
:102BA80083C7418E91CB83C7A18299E783C7818D63
:102BB80003C7018DE318F7FA8280EF308050C1B760
:102BC80001111306000B9305F100094506CE22CC2E
:102BD800EF10306421ED8347F100A9CB1306000BF9
:102BE80081450945EF10D057138401820C40914666
:102BF8001306000B3145EF10B0721C401765020038
:102C0800130505A303C6270083C51700EF30A034BA
:102C180083C7F1960547639FE70003C7A182631B3B
:102C2800F700894503C52188EF50406CF2406244A3
:102C38000561828003C7C18C85476316F7008565E7
:102C480003C5A181D5B703C7418EE311F7FEC1457E
:102C580017250020034505F5C1BF411193970501CC
:102C680022C406C626C2C1872E8463DA0700EF5045
:102C7800001F19C1EF5080172165218D35A893F7E2
:102C8800150013C515008DEB93F7250013C5250016
:102C980085E793F7850095C797F7FF1F93878739CF
:102CA8009C4382970966130606F4A14503C59182E1
:102CB800EF50407513458400B240224492444101CC
:102CC800828093F7052013C50520FDF793F745008B
:102CD8008DCB03C79194854797F4FF1F938484365F
:102CE800631DF7009C4082972146914503C5918258
:102CF800EF50407113454400C1B79C448297DC40B3
:102D0800DDB793F70510A9CF9387018E9843BE844A
:102D1800050723A0E18E9306000F6315D70005452C
:102D2800EF30101198409307F01D63F0E702130687
:102D380080079305E00A014523A0018EEF10504259
:102D48000D4597D0FF1FE780C05B1306003293053F
:102D5800001003C59182EF50E06A13450410A9BF23
:102D680093F705018DC397F7FF1F9387A72CDC43C3
:102D7800829713060006C14503C59182EF5080680B
:102D88001345040115BF93F7050881CF1306000208
:102D98009305000803C59182EF50C06613450408E7
:102DA80021BF93F7050285CBEF30F00A1306803E6A
:102DB80083C70188B347F6029305000203C59182D1
:102DC800B387C7021306102733C6C702EF508063C4
:102DD80013450402D5B593F7050499C78547A3871A
:102DE800F19613C50504C9BD9397250163D1070260
:102DF800EFA00102EFF05F8C37F60200130606E041
:102E0800896503C59182EF50E05F0965BDB5939769
:102E180015010145E3D207EA17650200130505818C
:102E2800EF30726913060064916503C59182EF5013
:102E3800605D116599B583C7F195A1C7A38F01940A
:102E480083C7F1960547639BE70003C7A182631711
:102E5800F700894503C521886F50404903C7C18CD5
:102E680085476316F700856503C5A181F5B703C7D4
:102E7800418E6318F700C14517250020034585D208
:102E8800E1BF82801D71494697550200938585757B
:102E980017750200130585A686CE97E0FF1FE78009
:102EA800E09501E91755020013050575EF30B2608A
:102EB80001A0B7F600E0795798CAFD57DCCA056744
:102EC800B7E700E023A0E7101306F00290C223A0A2
:102ED800E718010001001306C0038145480897E080
:102EE800FF1FE780208C972700209387E7FD3ECAC5
:102EF800896793870780231CF100ED472312F102AD
:102F08009547A301F10285472303F102B54723043E
:102F1800F102A167938707E03ECE97F7FFFF9387FB
:102F2800477ABEC497F7FFFF9387677BBEC685675E
:102F3800938727D02315F102970700009387077C12
:102F48003EDAB7F5070097F7FFFF9387677D3EDE08
:102F5800814697F7FFFF938767767000E10519456B
:102F6800BEC097D0FF1FE780C049580881479946DF
:102F780070003E960346060085070507A30CC700A8
:102F8800E398D7FED24791C70357810185676373DA
:102F9800F70001A04808EF50100BAA8501C9175582
:102FA80002001305A566EF30D23C01A0F64025616A
:102FB800828075712D4697550200938565490A856B
:102FC80006C722C526C34AC1EF30522F1306500741
:102FD80081451305B100EFF08F8C1705000013052C
:102FE80005C8EF509002938491822380A40037147F
:102FF8000040EF30B005EF101014EF201046EF102E
:103008006079EF30F017EF4010050327840C37097B
:1030180004008D45336727012324E40C3705040099
:103028005D268327C40C37F60200130606E0B3E7D3
:1030380027012326F40C03C504008965EF50803C62
:103048000A85EF305247EFF02FCBEF30C01D014516
:10305800EF30E0240D45EF308024BA402A449A44EA
:103068000A4949618280797122D40D6406D6A30782
:10307800A1001304848085461306F100A285294522
:1030880097D0FF1FE780E03785461306F101A28538
:103098002D4597D0FF1FE780C0360347F1018347CE
:1030A800F100E31AF7FCB250225445618280B71749
:1030B800004003C777051A0592054D8D1377E70F72
:1030C80013653500A38BE7041375F50FA38CA704CC
:1030D8008280B717004003C777051377E70FA38BE4
:1030E800E704130700F8A38DE7043D47238CE704A2
:1030F80013075003A38CE7048280B7160040130619
:1031080070052380C604930780FA2380F604010023
:10311800010003C7F60213678700A387E60203C707
:10312800F6021377770FA387E60203C7E602137741
:10313800C70F2387E60203C7E60213671700238732
:10314800E6022380C6042380F6040100010003C7B9
:1031580036057D78930E481F1377870FA389E604F9
:1031680003C7360537160040116E13671700A38989
:10317800E6042380F60483C736051167130F400859
:1031880093E70702A389F60483D706051308281BCB
:10319800930F3004D98F11672398F6047D17914750
:1031A800894213037005930880FA83463605A18A7D
:1031B800EDDE8356060583463605A18AEDFE835665
:1031C8000605B3E6C6012318D60483463605A18A48
:1031D800EDDE8355060583462605F98DB306D7022D
:1031E800B695B386D5016371DF04FD1793F7F70F22
:1031F80085CFC29593961500B3C6F6036352B00205
:103208008506858623006604230016050100010053
:103218008355C602AE96C206C1822316D60271B77E
:10322800FD16B3C65602F9BFB716004083C7360568
:1032380013873605A18BFDDB83D7060583D70605E3
:103248001166D18F2398F604930770052380F6043E
:10325800930780FA2380F6040100010083470700E2
:1032680093F7870F2300F70083470700C98F93F769
:10327800F70F2300F7003717004083473705A18B66
:10328800EDFFB717004003C73705218B6DDF83D6E5
:10329800070583C7270511667D16F18E3306F602EA
:1032A80085659307C003138705C83696938605FA84
:1032B800B396A600B386F602A1679385559CB3C65C
:1032C800F6029307803EB386F602B357A740B306CB
:1032D800D640B387D702B3C7B7026351D004850776
:1032E800094793067005B3C7E70237170040230064
:1032F800D704930680FA2300D7049607010001003B
:103308008356C702B697C207C1832316F7028347BD
:10331800370593F7F70DA309F7048280FD17C9B79E
:10332800914763EEB70217570200130767318A0502
:10333800BA959C41BA978287B717004003A7470BF5
:103348001345F5FF698F23AAE70A03A7070B698FBF
:1033580023A8E70A03A7070A798D23A0A70A828072
:10336800B717004083A6470B1347F5FFF98E23AA2A
:10337800D70A83A6070B558D23A8A70A83A6070A91
:10338800758F23A0E70A8280B717004003A7470B71
:10339800498F23AAE70A03A7070B1345F5FF45BF83
:1033A800B717004083A6470B1347F5FF758F23AA6D
:1033B800E70A03A7070A598D4DB7B717004003A7B7
:1033C800470B498FEDB7914763EEB70217570200D5
:1033D800130747288A05BA959C41BA978287B71779
:1033E800004003A7470D1345F5FF698F23AAE70C93
:1033F80003A7070D698F23A8E70C03A7070C798D8E
:1034080023A0A70C8280B717004083A6470D134757
:10341800F5FFF98E23AAD70C83A6070D558D23A88F
:10342800A70C83A6070C758F23A0E70C8280B7171B
:10343800004003A7470D498F23AAE70C03A7070DF0
:103448001345F5FF45BFB717004083A6470D13473F
:10345800F5FF758F23AAE70C03A7070C598D4DB705
:10346800B717004003A7470D498FEDB7B7170040BE
:1034780003D7870109C5D98D239CB700828093C5DE
:10348800F5FFF98DD5BF011122CC26CA2E8432C68C
:1034980036C43AC23EC006CEAA84312C37480F0043
:1034A8001308082433580503B758004083D54880CB
:1034B80082471247C205C18193F505FCC205C18147
:1034C8002392B88083D54880A2463246B365B800B7
:1034D800C205C1812392B88083D50880C205C18105
:1034E800F999C205C1812390B880E1659385056A81
:1034F80063EB850806043354850205669305C6FF09
:10350800114542044180E18D81C51305F6FF618DA7
:1035180005081306F003637406011308F003420854
:1035280037560040135808012310068337560040C9
:10353800231EA68083550680F240624493E5150059
:103548002310B68083550680C205C18193F555BF07
:10355800C205C1812310B68083550680CD8EC58EE5
:10356800C206C1822310D680835686802314068023
:1035780083568680D244D58FD98FC207C18323143E
:10358800F6800561828015E68D45B305B402335592
:10359800B5025205518111E105452166518D130689
:1035A800C0123308C8021306803E3358C802050803
:1035B800BDB7E5453304B40211663355850252059B
:1035C8005181518DD9BF375700408357078011C5A6
:1035D80093E707102310F7808280C207C18393F70F
:1035E800F7EFC207C183FDB73757004083570780FD
:1035F80011C593E707202310F7808280C207C18393
:1036080093F7F7DFC207C183FDB7375700408357E9
:10361800078011C593E707402310F7808280C2070F
:10362800C18393F7F7BFC207C183FDB7B7570040FF
:103638002398A7808280B757004003D50781137568
:10364800F50F82809377E50F99C193671500C2073C
:10365800C183375700402318F780828037570040CE
:103668008356478183578781C207D58FE98FA20781
:10367800A1833385A740133515008280411102C408
:10368800B757004002C6938707803EC69357C501C7
:103698003EC4A2472205218199CBB247D1073EC635
:1036A800B2479C4341017D8D3335A0008280B247EB
:1036B8004181E107EDB7B717004003D58700420500
:1036C80041819377050491EB9377F5013755E8012C
:1036D800130505803345F50282809377050C13079F
:1036E80000046397E7009377F50137459C1CCDB735
:1036F8002165130505D08280B7F700E08847CC47DD
:103708008280814737470040A14663C4C70032859D
:1037180082800345B7C0E38EA6FE3385F5000345D6
:10372800050085072304A7C0CDB712059A054D8D5E
:103738001365C5001375F50FB72700402380A74010
:103748008280B727004001E5A38007408280239C40
:10375800B740239EC740154791E20547A380E7403D
:103768008280411122C406C62A84B1372947B3078B
:10377800E502B2408D83B3D7870222449507B3D7B9
:10378800E70237470040C207C1832316F7C041014B
:103798008280716541111305052006C6D937B747E0
:1037A8000040130770F82381E7C00D47A381E7C0E5
:1037B80013070004A380E7C005472387E7C0B2408A
:1037C80041018280B7870040238007001307C0FCAF
:1037D8002386E700A386E700171700200357473D15
:1037E8002398E700171700200357C73C239AE700E0
:1037F800171700200357473B239CE70017170020A3
:103808000357C73A239EE70089462381D7024947D1
:103818002383E7022385E7022387E7022389D70268
:10382800A3810700130790022380E700B716004022
:1038380003D7A6011367070C239DE6007D57238352
:10384800E700130710F8A380E7001D472381E7006E
:103858008280B78700402382A70203C767021377D5
:10386800C70F2383E7028280B78700402384A7021B
:1038780003C7A7021377C70F2385E7028280B7879C
:1038880000402386A70203C7E7021377C70F2387E1
:10389800E7028280B78700402388A70203C727036F
:1038A8001377C70F2389E70282809387018F9C4390
:1038B800011106CE22CC91C382979387419380430E
:1038C8009387418F9C4313150401418181C72AC600
:1038D8008297324583D7E1826379F50403D7018360
:1038E8006378A7049386C18E03A3060063060300CA
:1038F8006244F240056102838507998F1395070199
:103908004181935725001315040141816544198DA0
:10391800330585021384F7FF22953345F5021375A5
:10392800F50FF24062440561828013054006D5BF59
:103938000145C5BF03A84500411126C206C622C4D9
:103948008347180003480800A944A207B3E7070102
:10395800C2070D68C1871308289063960703854737
:103968003284EF907078AA8419ED9387818E9C43F6
:1039780099CB03451400034704002205598D1335DC
:10398800150005058297B2402244268592444101DC
:1039980082802D453DE7D841411122C426C206C682
:1039A8008347170003470700B684A207D98F0D671E
:1039B800930697A132846396D702C53D83C7B18227
:1039C8006374F500A385A18285472390F40083C71B
:1039D800B1822300F4000145B240224492444101DF
:1039E8008280130787902945E398E7FECC458947ED
:1039F8002390F4000946228597D0FF1FE78000D75F
:103A0800D9BF828083474500858BADC7011122CC81
:103A18002A84035525009385C1A706CEEF909067A9
:103A2800058929C503552400014781460546ED450A
:103A3800EF9090222AC61DC997E7FF1F9387476119
:103A480083D7A70201462C002314F10085472315CC
:103A5800F10083C7B1822300F50003552400EFA0CD
:103A6800F04009C5ED452800EF90D036F240624499
:103A7800056182808280416541119385C1A77D15CA
:103A880006C6EFB0D02EB24097E6FF1F9386466178
:103A98004146954517E5FF1F1305855B41016FB04A
:103AA800302223A4A18E8280411122C406C68547F4
:103AB80009446311F502834706000144A382F18E8D
:103AC80003C7B1826378F700170500001305C5F333
:103AD800EFD050602285B240224441018280854760
:103AE8006301F50209C909476302E5020D47630648
:103AF800E5020945828083C7B1822380F50001452C
:103B080082809387518E83C70700C5BF97E7FF1F41
:103B180083D7A7542390F500DDB713874183035754
:103B280007002392E50017E7FF1F13076752835624
:103B3800A7020357A7032383F5002390D5002391F9
:103B4800E50075BF411106C68D3383C7B182637A1C
:103B5800F500A385A182170500001305E5EAEFD05B
:103B68007057B24001454101828041677917630C63
:103B7800E502411122C406C685472A84639AF500E6
:103B880022852244B2409385C1A741016FB0301EFF
:103B980089476396F5008545EFD0504E75D1B24000
:103BA8002244410182808280CC41411106C632857F
:103BB80003C6150083C5050022064D8E42068D6595
:103BC8004186138875A2630C060F6348C8041388DE
:103BD80045A26306060B634AC800938535A26309AC
:103BE800B60623900600294679A0138855A26308D3
:103BF800060B938565A2E316B6FEC1451D4663EC28
:103C0800E5064546198E63F3C7003E862390C60035
:103C180097550200938545A689A8138895A2630045
:103C2800060F634E060B1388A5A2630A060F938539
:103C380005A5E318B6FA99451D4663EEE502198E07
:103C480063F3C7003E862390C6009385C18331A8DD
:103C58009D451D4663E1E5022146198E63F3C700C1
:103C68003E862390C6009385818FBA9597D0FF1F13
:103C7800E780C0AF0146B240328541018280AD4540
:103C88001D46E3EAE5FE3146198E63F3C7003E861A
:103C98002390C600975502009385C5A1F9B7B14591
:103CA8001D46E3EAE5FC3546198E63F3C7003E86F8
:103CB8002390C600975502009385C5A07DB7C145DE
:103CC8001D46E3EAE5FA4546198E63F3C7003E86CA
:103CD8002390C600975502009385459B79B7C14547
:103CE8001D46E3EAE5F84546198E63F3C7003E86AC
:103CF8002390C600975502009385C59DBDB7C14561
:103D08001D46E3EAE5F64546198E63F3C7003E868D
:103D18002390C6009755020093858598B9B7B54595
:103D28001D46E3EAE5F43946198E63F3C7003E867B
:103D38002390C60097550200938505933DB797E6F3
:103D4800FF1F9386A6494146CD4517E5FF1F13057A
:103D5800E5356FB0E0768280938741919C4303C735
:103D6800819083C6718501E781473E85828003D6AD
:103D780007006316A60003C66700E308D6FE7D1792
:103D88001377F70FA107C5B7B2862E86AA851755F0
:103D980002001305E5986F20D25D01119305000319
:103DA8000D4506CEEF60A07F930500051145EF6035
:103DB800007F9305C0030545EF60607E85471306C5
:103DC800F100854513055030A307F100EFE081723B
:103DD800F240056182809387C1909C43328791C7E6
:103DE80003A3870063030300028309CB13060019AA
:103DF8009305000203C5A1816F40C060828085479A
:103E0800631CF5001166130686A98945171500205D
:103E1800034585DA6F40005F89476319F5008945D6
:103E280017150020034545D96F40207A82808547C1
:103E38006398F50019E22381B190238CC1908280A8
:103E480009476399E50019E62381F19003D50190AC
:103E58006F005008828001119397050126CA06CE8B
:103E680022CC4AC84EC652C4C187AE8463D907085B
:103E780017150020034545D4EF30707E2A8439C9D0
:103E8800034705009307000D6313F70483472500D4
:103E98004547638BE7046547639BE70217550200B4
:103EA80013058584EF20F24C130954009309B400DC
:103EB800175A0200130A8A848345090052850509A6
:103EC800EF20324BE39A29FF2945EF20924E2285B5
:103ED800EF30D0712165258DF2406244D2444249C9
:103EE800B249224A05618280034665008345750010
:103EF8001755020013050581EF20B247C9BF93F794
:103F0800150085C317E6FF1F1306062E93858184C7
:103F180017150020034545CAEFE0E12C13C514002E
:103F280065BF93F725000145C5DB293911661306DE
:103F380086A9894517150020034505C8EF40804C20
:103F480013C5240051BF797126D24ECE06D622D48D
:103F58004AD052CC9147AA84AE896314F50483D71A
:103F6800A5001306E1008545130550302390F19014
:103F78002307010023810190EFE0C1579387C19087
:103F88009C4391C7DC4781C7CE8526858297B2506E
:103F9800225423A2919002599254F249624A4561EF
:103FA8008280138741901843E31AF7FC854503D5AF
:103FB8000190653E854503D50190EF006077C167A4
:103FC80003DA0190F917631BFA0205449305E1002F
:103FD8001305504123810190A38B8184230701009D
:103FE800EFC0F15F8347E100B1E303C781919147D7
:103FF800E316F7F85D33238C019049B79387419115
:1040080003A9070003C4819069D00355290011C989
:104018009305E100EF90106E09C54C455285EFB04D
:1040280000557D141374F40F2109F9BF938701918A
:104038009C4383C74700898BCDDB9305000A0D4558
:10404800EF60E0559305000A1145EF604055814542
:104058000545EF60C0541306E1008545130550304F
:1040680023078100EFE0014949B701111705000056
:104078001305A5DE06CE22CCEF40207917140020C8
:10408800130484B385471306F10085452300A40073
:1040980013054041A307F100EFC0B17B7D55EF90B8
:1040A800E0037D55EFB080495939EFF0DF9CD52BFF
:1040B800170500001305E5D4EFF0BF9E17050000B3
:1040C8001305A5C92925034504008545EF400022AD
:1040D800F24062440561828023A6B19023A8A19092
:1040E800828023AAB1902384A190828093874190F3
:1040F8009C43797106D622D426D24AD04ECE52CCD1
:104108001147639BE70483C72190414481CF93877C
:1041180041918043B284B68983C7819003C7718572
:1041280099EB55442285B250225492540259F249CF
:10413800624A4561828083464400639AA6008346AA
:1041480054006396B600834664006380E606FD1754
:1041580093F7F70F2104E9B709474144E384E7FCE3
:104168002C001305504123040100EFC05147834739
:1041780081008DCB930500020D45EF604042930509
:1041880000031145EF60A04195450545EF602041CA
:10419800854730008545130550302304F100EFE0D2
:1041A800613549B7DD3E4144B5BF03552400930549
:1041B8006100EF90305435D54C4503D50190EF9010
:1041C800606D058939DD1399040113590901014707
:1041D80081464A86ED4503D50190035A0400EF90C5
:1041E800A0272AC64D441DDD2686CE85231441010D
:1041F8002315210197C0FF1FE780405701462C0077
:1042080003D50190EFA080462A84E30D05F0ED4523
:104218002800EF90203C39B7C841011122CC06CEC6
:10422800328403461500034505002206498E19CB42
:104238000D681308B8A42D45630A0607F2406244C6
:10424800056182800D651308D5A463000603130871
:1042580025A2630C060175781308E85C32984208B9
:1042680013580801854863EF080303D5A50036C62F
:1042780032C4EFF07FAEB24615C19387C1909C431C
:1042880022468345550003A30700A2876244F240F3
:10429800034545003687854605610283239006005D
:1042A800014569BF1308B5A46317060303D6E18562
:1042B8001D45E375C7F8198E63D3C7003E86CC4504
:1042C8002390C60042064182BA95228597C0FF1FF7
:1042D800E780C049F1B79307A5A46318F600914792
:1042E8002390F6001146CC45CDB793078590631708
:1042F800F60089472390F6000946F5B79307E5A429
:10430800631AF600DC452390160183C707002300D3
:10431800F40079B713057590E314A6F8D9BF011115
:1043280022CC06CE26CA4AC82317D1002D4431EB29
:10433800DC412E89B28403C4170083C70700220416
:104348005D8C8D679386D7A46306D400938627A3D4
:104358006310D4040355A900EFF01FA019E101442C
:104368000DA09387C1909C438345550003454500A4
:1043780003A807002286A6871307E1008146029852
:104388002A842285F2406244D244424905618280EF
:104398009386C7A46314D4028357E10005473544C4
:1043A800E391E7FE0345060013040008E3EBA7FCCE
:1043B8009387C1909C43DC43829755B79386279097
:1043C800631AD4028356E1008547EF90E0512A84AE
:1043D8004DF9938741918356A9009C4303C7819067
:1043E8003DDF03D627006302D6047D171377F70F46
:1043F800A107FDB79387E7A4E313F4F68357E10019
:1044080005473544E39FE7F6034506001304000813
:10441800E3E9A7F6DC452380A7009387C1909C4376
:104428003335A0000905DC4341BF1387C190184309
:1044380003C5470083C5570083C714000328070036
:1044480003C70400A2078946D98FC207C187054759
:104458006383E7008D460D66A6871307E100130600
:104468002690029839BF411122C441641305F4FF14
:104478009385C1AA06C626C24AC0EFB0400F1305ED
:10448800F4FF9385C1A9EFB0800E1305F4FF93855F
:10449800C1A897E4FF1F9384E4D5EFB0400D97E6D9
:1044A800FF1F938626F34146F9452685EFB0400164
:1044B800CC4C2A890945EFF08FE2138781869387D0
:1044C8000187834507000346170083D7070003D7F2
:1044D800A4101384C1AB2312F4002314E40083D77F
:1044E800A40C03D7A411A306C400A30EC40003D6CA
:1044F800A4172310F4002315E40083D7A40D138711
:10450800C1868346070003D5A41403471700231C5C
:10451800C40003D6A4182311F40085472303F4002C
:104528002307F400230AD400230BF400231DC4003E
:104538002302D4022306B400A30AE4002318A4002B
:10454800230EB40023190400230F0400A302E4027D
:1045580003D7A41A2307F402231104022310E40248
:104568001387418603570700230304022315040217
:104578002316E40203D7A41C9385C1AE0D4523146A
:10458800E402EFF0CFD5A2852145EFF09FB5B24008
:1045980022444A8592440249410182808D671385ED
:1045A80027A36301A6049387D7A40145631EF600D9
:1045B8008947639CF500854735456397F60083472F
:1045C8000700238FF190014582808D472945E39D9F
:1045D800F5FE85473545E399F6FE83470700238EA8
:1045E800F190D5B785473545E390F6FE8347070038
:1045F800A38DF190C9BF8D67138527A36308A60211
:104608009387D7A46317F6028947639BF50083C78E
:10461800E1912300F70085472390F6000145828049
:104628008D476398F50083C7C191E5B783C7B191FA
:10463800CDB723900600DDB70145828025E303A8A6
:104648004500AE888347180003480800A207B3E76F
:1046580007010D68930EF8A4639AD703914735486C
:10466800639FF60203A5C8004111B285114606C62C
:1046780097C0FF1FE780800F9387C1929C43054531
:104688008297B24001484285410182809308289070
:1046980029486396170185476F9000252D48428564
:1046A8008280416541119385C1AF7D1506C6EFA093
:1046B800106CB24097E6FF1F938686D8414699450D
:1046C80017E5FF1F1305C5D141016FA0705F23A631
:1046D800A192828001119385C1AF22CC06CE2A8493
:1046E800EF90401B058929C1014781460546ED45E4
:1046F8002285EF8070562AC605C997E7FF1F938762
:1047080027CE83D7A70501462C002314F10085473F
:104718002315F100230005002285EF90307509C5A7
:10472800ED452800EF80106BF240624405618280FD
:1047380041677917630CE502411122C406C6854713
:104748002A84639AF50022852244B2409385C1AF3A
:1047580041016FA0D06189476396F5008545EFD088
:10476800E01175D1B2402244410182808280B7179E
:10477800004017070020130747442394E70617074C
:1047880000201307C7442396E706130710FCA380ED
:10479800E706828041118545116506C6EFE0BFC274
:1047A800814513050010EFE0BFB789450145EFE0EB
:1047B8001F90B71700403147238CE7040547238D26
:1047C800E704A38107066537B24003C59182130643
:1047D8000064A14541016F30F0421707002013071C
:1047E800C73D970600209386863E814703560700FB
:1047F8000907B297E31CD7FE2947B3D7E702138707
:10480800019318439386870C63E9E6001387419365
:10481800184323A8E19223AAF192828093864193B8
:104828009C424111056726C206C622C4130697E7B3
:10483800B6840145637CF600930697ED054563F75A
:10484800F6001305B7F33335F5000905138701930F
:104858001443B387F64013D7F7413344F700198C54
:104868000567130697E78147637CD600130697ED23
:1048780085476377D6009307B7F3B3B7D70089079F
:104888006385A7003505EF10207593071003814550
:104898001305800763D18704EF005075130680075E
:1048A8009305100E13050004652813068007AD450F
:1048B8001305000475208D451305F005EF001073EE
:1048C80022449040B240924491468D451305F0052C
:1048D80041016F10A002EF00707113068007930565
:1048E800000E13050004AD28130680078145C9B7DB
:1048F80001119307F00F22CC26CA06CE3EC62A84A1
:10490800AE8409CE2685029419CDB24789CFB24725
:10491800FD173EC6C5BFB247FD173EC626850294A1
:1049280019E1B247EDFB3245F2406244D2441335F7
:10493800150005618280411185450D6506C6EFE0C9
:104948009FA8B240B7250600930720051167930674
:1049580000400146938505A8014541016FE0BFB2BB
:10496800011126CA4AC84EC62E89AA89B284B7053B
:104978000200054617F5FFFF130585D006CE22CCA9
:10498800853F2A840545EFE01FC4B70503000146AB
:10499800850517F5FFFF1305A5CC993F2A94814596
:1049A8002685EFE03FCAB70407009385240801462F
:1049B80017F5FFFF1305C5CA253F1374F40F2A9492
:1049C8004E85EFE0BFC693850408014617F5FFFF43
:1049D800130505C9313F1374F40F2A944A85EFE093
:1049E800FFC493850408014617F5FFFF130545C763
:1049F80001371374F40F2A940545EFE0FFBE1374D2
:104A0800F40F2285F2406244D2444249B24905611A
:104A1800828001114AC852C456C23289AA8A2E8A93
:104A28000546B705020017F5FFFF130565C506CE55
:104A380022CC26CA4EC66D3D2A840545EFE0BFB894
:104A4800B704030001469385140017F5FFFF13050B
:104A580025C1793D2A9481454A85EFE0BFBEB70953
:104A6800070093852908014617F5FFFF130545BF81
:104A780041351374F40F2A945685EFE03FBB9385B4
:104A88000908014617F5FFFF130585BD9535137411
:104A9800F40F2A940545EFE01FB3014693851400EF
:104AA80017F5FFFF1305C5BBA1351374F40F2A943E
:104AB80085454A85EFE01FB993852400014617F51F
:104AC800FFFF1305E5B92D351374F40F2A9401453A
:104AD800EFE09FB10145EFE05FB3B7050010014675
:104AE8009385050417F5FFFF130585B91135137470
:104AF800F40F2A94EFE03FB42300AA000545EFE045
:104B0800BFAE0545EFE07FB01374F40F2285F24085
:104B18006244D2444249B249224A924A056182809B
:104B280001114AC84EC65AC0B2892A8B05462E8939
:104B380017F5FFFF1305C5B4B705020006CE22CC52
:104B480026CA52C4B68456C265332A840545EFE0A6
:104B58009FA7370A0300014693051A0017F5FFFFC0
:104B6800130505B071332A9481454E85EFE09FAD5A
:104B7800B70A070093852A08014617F5FFFF1305B2
:104B880025AEBD331374F40F2A945A85EFE01FAA9B
:104B980093850A08014617F5FFFF130565AC893BA5
:104BA8001374F40F2A940545EFE0FFA1014693051D
:104BB8001A0017F5FFFF1305A5AA1D3B1374F40F80
:104BC8002A9485454E85EFE0FFA793052A00014604
:104BD80017F5FFFF1305C5A8213B1374F40F2A949A
:104BE800B709001001451374F40FEFE0FF9F130A93
:104BF800F00F9389090497FAFFFF938A6AA8FD14B6
:104C080093F4F40F639344030545EFE0FF9D0545D6
:104C1800EFE0BF9F2285F2406244D2444249B24944
:104C2800224A924A024B05618280014591C005459E
:104C3800EFE0BF9D0146CE8556855D392A9405096A
:104C4800EFE07F9F1374F40FA30FA9FE4DBF41112E
:104C580093064005170600201306C6FC89652945FA
:104C680006C622C497B0FF1FE780A0798965137430
:104C7800F50F9306400517060020130666F5938581
:104C88000540294597B0FF1FE780A077418DB240C6
:104C980022441375F50F4101828001111306400566
:104CA80097450200938505C117050020130585F770
:104CB80006CE22CCEF1092601306400597450200FD
:104CC800938505B317050020130585F0EF10125FD3
:104CD800BD3F0D641306F100930504808546294500
:104CE800A307010097B0FF1FE780A071854713064F
:104CF800F1009305448085462945A307F10097B044
:104D0800FF1FE78000701306F10093058480854635
:104D18002945A307010097B0FF1FE780806EF24086
:104D2800624405618280970700209387A7EF970662
:104D380000209386E6E903C737056318B700A389FF
:104D4800A704FD17E399D7FE19B7E31CA7FEA389AB
:104D5800B704C5BF411106C622C483C72194638B1B
:104D6800072217D7FF1F0347B72B6315072285466E
:104D7800A386D19497D7FF1F83C7872A03C70194B7
:104D880085E311C70145B240224441018280238056
:104D9800D19483C7119493F7070FA380F194DDB7DB
:104DA80089466310D70203C7119491466315D7004B
:104DB800A38EF194C1BFA146E316D7FCA385F19455
:104DC800D1B719466398C7002380D19483C711943B
:104DD800B18BE1B7D546639BD7009307100B6308E7
:104DE800F71A930710FB2380F19495A8C546639999
:104DF800D7009307200B630CF718930720FBE5B740
:104E0800C1466399D7009307300B6302F7189307DD
:104E180030FBD1BF95466399D7009307000B630811
:104E2800F716930700FBC1B79306D002639CD7021D
:104E38009307100C630DF714930710FC2380F1946B
:104E48009387418298438347070093E7070123002C
:104E5800F70097D7FF1F9387271D9C478297A3804A
:104E680001940DB79306E0026392D7029307000CF2
:104E7800630FF710930700FC2380F1949387418216
:104E880098438347070093E78700D1B79306C00488
:104E98006398D7009307E00F630BF70EF957A1B794
:104EA800930650036399D7009307000D6301F70E2B
:104EB800930700FD0DBFDD466399D7009307100DDA
:104EC8006307F70C930710FD39BF930670026398C8
:104ED800D7009307000E630CF70A815729B7F946E4
:104EE8006398D7009307100E6303F70A8557E5BD4B
:104EF800FD466398D7009307200E630AF708895781
:104F0800DDB5930600026398D7009307300E63005F
:104F1800F7088D57C9BD930610026398D700930709
:104F2800400E6306F70691577DBD9306A00363986C
:104F3800D7009307000F630CF704C1576DB59306AC
:104F4800B0036398D7009307100F6302F704C5579F
:104F580059BD9306C0036398D7009307200F6308D1
:104F6800F702C95749B59306D0036398D70093074A
:104F7800300F630EF700CD57BDB59306E003639875
:104F8800D7009307400F6304F700D157A9BD2380CA
:104F98000194F1B503C7D1940545E316A7DEE39460
:104FA80007DEA386019483C701949306100D638DD1
:104FB800D72E63EAF60E9306200B6382D72463E0AC
:104FC800F6060947638FE71E636CF702E39CA7DACE
:104FD80083C51194C10593F5F50FA380B194930788
:104FE80000056390F51CA380019423800194EFF0E1
:104FF800DFCA174502001305E584EF00D07545A008
:105008001307000B6388E7201307100BE39CE7D610
:105018002380019497B0FF1FE780A02BA5B39306C8
:10502800000C6381D72263E5F6029306300BE39BFD
:10503800D7D42380019483C7418EE395E7D49305A1
:105048000004170500200345E5B5EF30202A1DBBF5
:105058001307100C6387E71C1307000DE394E7D2CE
:105068002380019483C7C18C03C7418ED98FE39BEA
:1050780007D083C7818293B717008545138681823D
:10508800130550302384F182EFD0C146AA8563000E
:105098000520173502001305257DEF00D06B056547
:1050A800130585BB21AA1307100F6380E7246365E6
:1050B800F70A1307400E6362F7081307100E63F828
:1050C800E7201307000EE39FE7CA03C5A182133543
:1050D8001500238001942385A18283C7F1968DCB87
:1050E80083C7C18C03C7418ED98F9DC3F947330548
:1050F800F502014681456905EF00105083C7A1827A
:105108001305800391C3694505468145EF00D04EDC
:1051180083C7A1821735020013058577E39F07EC43
:1051280083C7418E1735020013050577E38707EC1F
:10513800173502001305C576C9B51307000FE393A9
:10514800E7C4238001942384A194972700009387C0
:10515800671023A2F1883DB11307400F6389E71A4E
:105168006364F7021307200F638AE7181307300FE9
:10517800E39AE7C02380019485472384F194972715
:10518800000093878728F1B71307E00F6385E70CC2
:105198001307F00FE398E7BEA380019423800194DE
:1051A800D5B69307F002E3FFB7BC9181173502002B
:1051B8001305056AEF00305A1305C05DEF00306A29
:1051C800D1B683C71194910793F7F70F3147E39648
:1051D800E7BC1735020013056568A3800194238096
:1051E8000194EF0050570565130585BBEF00306744
:1051F80083C5D19503C5B194EFF0FFB261B62380A2
:10520800019483C7418E01456383E7000545EFD0CC
:105218009FE509B52380019497B0FF1FE780C0067A
:1052280095B623800194938741829843834707006A
:10523800BD9B2300F70097D7FF1F9387E7DE9C47A6
:10524800829789B623800194938741829843834744
:105258000700DD9BF9BF2380019483C7919495E3F0
:10526800054423848194972700009387A76323A28A
:10527800F188EF20B00B0545EF007071A38481948D
:1052880011B60145EF00B070A3840194E5BC83C753
:105298008182173502001305A55DE39007D61735FF
:1052A80002001305655D91BB2380019483C71188B3
:1052B80013B71700A380E188173502001305455C72
:1052C800E38D07D2173502001305055C3DB39387BC
:1052D80007021306401FC14503C5A181A382F180BF
:1052E80023800194EF30001271BC23800194238441
:1052F800A194972700009387A7F7A1BD2380019465
:105308002384A194972700009387A70599B5238044
:1053180001942384A194972700009387C71B15BD88
:1053280083D761941387F7FF5D71420786C6A2C4CD
:10533800A6C2CAC04EDE52DC56DA5AD85ED662D44D
:1053480066D26AD06ECE4183DD4663EAE6146147D1
:105358006398E700170700201307878723ACE186C7
:1053680085072393F194138BC1B0173A0200130AEF
:10537800AA4401495A8C938B8187970A0020938A03
:105388006A8A970C0020938CAC84138D418797D937
:10539800FF1F938969C819473307E90203C4A19419
:1053A800B716004003260A0083A6460AF18EB30703
:1053B800EB00A29783C50700639A051ED1E683A771
:1053C8000B0083C641873E979D47229763F8D70015
:1053D800034607009307F00D63F8C706994733069D
:1053E800F9028545B307CC00A2972380B7009387BD
:1053F80041888C439727000093872701639BF50218
:105408009737020093874750B297A29783C7070040
:105418001306F00F638FC7000D463386C7029387C4
:1054280001DEB2973D462381C700A380C7002380D1
:10543800C7000546A381C194834707009305F00F71
:10544800639EB70C2381C1940509B947110AE31477
:10545800F9F4130714001377F70F2385E1949737AE
:1054680002009387A74F0A04371600403E9483260C
:10547800860C0C40CD8E2324D60C954663F4E600AA
:105488002385019483C6A1948A0637160040B697EF
:105498000327C60C9C43D98F2326F60C8DA083C7FF
:1054A800B195E38207ECFD1793F7F70FA38DF194FD
:1054B800E39B07EA17D4FF1F130404B6814493093A
:1054C8009003154A194983478400639E37013306C0
:1054D8009A409305940013058400EF10225E97D735
:1054E800FF1FA38107B485040504E39E24FD83C739
:1054F8004187FD17238AF1868547A381F194B64039
:10550800264496440649F259625AD25A425BB25B23
:10551800225C925C025DF24D616182801306F00E9E
:105528006374F602174702001307477914439387F9
:1055380007F1054703C60600B317F700D18F23808C
:10554800F6002382E19409B71306F00D637FF60095
:105558000547938707F2B317F70003C76900D98F88
:1055680017D7FF1F230DF7AAC5B59947B307F90247
:10557800D697A29703C60700930790036316F60011
:1055880085472393F194C9B593871600238AF1863A
:1055980083470700CE962383F60083D7619493B799
:1055A800970193C71700238EF19479BDE38E06E81F
:1055B800238007008547A381F19483A70B009306F6
:1055C800F00FBA97A29783C707006395D700238186
:1055D80001949DBD9306F00E63F2F6021747020090
:1055E8001307C76D1443938707F1054703C60600E1
:1055F800B317F70093C7F7FFF18F91B79306F00D34
:1056080063FDF6000547938707F2B317F70003C752
:10561800690093C7F7FFF98FA1B7B387EA00A2978C
:1056280083C60700930790036395F60483D76194B4
:1056380061476374F70023AC518703C7C19501C75D
:1056480061476363F70283C741871D47636EF700AD
:105658001147A38DE19413871700238AE186CE971B
:10566800130790032383E70023930194238E019467
:10567800E1BB669797DDFF1F938D0D9A9547B3049D
:1056880087007D5803C78D006386E60003C60400C3
:105698006312E6023E8693859D0013858D003EC405
:1056A80036C6EF10A24197D7FF1FA38D0796B246C3
:1056B800A2477D58FD17850DE39607FD83470D002A
:1056C800FD17238AF18649B3B707030401119387AD
:1056D80017203EC2B7070708938757603EC4A547FF
:1056E8002316F10006CE22CC26CA17D7FF1F034780
:1056F80027939306A00283C7C194631ED704138718
:1057080041958DC3FD1793F7F70F2386F194BA9748
:1057180023800700938701959C43A946B3D7D702F6
:1057280023A8F1948307070091EF173502001305AA
:10573800E5DEEF00207205442285F2406244D2443F
:105748000561828093854195173502001305C515BB
:10575800EF004070CDB79946639FD7029307800248
:105768000544E31BF7FCAA8417350200130505144A
:10577800EF00406E0565130585BBEF00500E93875B
:1057880001959C4301449CC0238A0194238601947B
:1057980023A8019455B7930627FE93F6F60F2546DE
:1057A8000544E36BD6F814083697834667FD1387DC
:1057B800019510432947938541953307C70217354B
:1057C80002001305650E369723A8E1941387170086
:1057D8001377F70FAE97938606032386E194238009
:1057E800D7002E9723000700B525B9B74111130537
:1057F8000502938505FB22C4130680071374F50F71
:1058080093F5F50F014506C6EFF08F9593554400C3
:105818001306800793E505010145EFF06F94937532
:10582800E4002244B2401306800793E515000145C1
:1058380041016FF0EF92411122C44AC006C626C248
:105848001304000B1309800B13068007A28501457A
:10585800EFF00F911306800781450145EFF04F9057
:1058680013068007C1450145EFF08F8F93040008A8
:1058780013068007814513050004FD14EFF04F8ED1
:10588800E5F805041374F40FE31024FDB240224434
:10589800924402494101828001119317850122CC6B
:1058A80006CE130406FE26CA4AC84EC6E1871374FC
:1058B800F40F63D60700850593F5F50F01453D37CD
:1058C80019463304C402814497390200938909199F
:1058D8001949B3079400CE9783C5070013068007BC
:1058E800130500048504EFF0AF87E39424FFF2402A
:1058F8006244D2444249B24905618280797152CCEE
:10590800138AF6FF22D426D24AD04ECE56CA5AC897
:105918005EC662C466C206D62A8BAE89B28B137481
:10592800FA0F814C01499304F00FA94A194C631FDF
:105938009404B250225492540259F249624AD24A0B
:10594800424BB24B224C924C45618280B38757033D
:105958007D171377F70FE31B97FEB3D7FB02B3F757
:10596800570333858C0313F6F70F5A951375F50F04
:105978006312090263D04C0389EF13060002CE8537
:105988007D14193F850C1374F40F55B7228785478A
:10599800C1B7054913060603DDB7011122CC26CA93
:1059A8004AC84EC652C406CE2A842E89B28981447A
:1059B800130AA007B387990003C6070009EAF24053
:1059C8006244D2444249B249224A05618280228512
:1059D8001904CA851374F40FC13563768A00050962
:1059E8001379F90F0144850493F4F40FE1B7797141
:1059F80022D426D24ECE52CC56CA5AC85EC606D635
:105A08004AD062C42A84AE84328A814B9949973A33
:105A18000200938AAA04130BA007B3077A0183C76D
:105A2800070089EFB250225492540259F249624A4F
:105A3800D24A424BB24B224C45618280138907FE01
:105A480093178401E1871379F90F63D6070085045A
:105A580093F4F40F014433093903A6852285793379
:105A6800014CB3078901D69783C507001306800741
:105A78001305000493C5F5FF93F5F50F050CEFE04A
:105A88003FEEE3103CFF19041374F40F63768B00A8
:105A9800850493F4F40F0144850B93FBFB0FB5BF0A
:105AA800011122CC26CA4AC84EC652C456C206CED6
:105AB8005AC02A89AE84328AB689BA8A014463EC0C
:105AC8003401F2406244D2444249B249224A924ADD
