:040000006F10907F6E
:100004000000000000000000900000201C020020FE
:10001400A9BDF9F5940000200000000000000000D4
:10002400960000209800002000000000000000005E
:100034009A000020000000009C0000200000000046
:100044009E0000203603002046030020A400002068
:10005400A6000020A800002022030020AC000020FD
:10006400AE000020B0000020B2000020B400002048
:1000740008030020B8000020BA000020BC000020C3
:10008400BE000020C0000020C2000020C4000020E8
:1000940001A001A001A001A001A001A001A001A054
:1000A40001A001A001A001A001A001A001A001A044
:1000B40001A001A001A001A001A001A001A001A034
:1000C40001A001A001A0B71700409306700523808A
:1000D400D704130780FA2380E7040100010003C654
:1000E400B7041376F60DA385C7042380070413769B
:1000F400050251CE03C6A700118A1DE22380D7044E
:100104002380E7040100010003C7A7001367470029
:100114002385E7009307004B01000100FD17EDFF65
:10012400B7170040930670052380D704130780FA9D
:100134002380E704010001007D892394A7000100C6
:10014400010001000100238007042380D7042380D9
:10015400E70401000100372700408546A303D78048
:1001640023800704B7170040130770052380E704B2
:10017400130780FA2380E7040100010003C7B704D2
:1001840013670708A385E704238007048280137696
:10019400050425CA03C6A700418A1DE22380D704AB
:1001A4002380E7040100010003C7A70013670701C8
:1001B4002385E7009307007D01000100FD17EDFF93
:1001C400B7170040930670052380D704130780FAFD
:1001D4002380E704010001007D891365050423944D
:1001E400A70001000100010001002380070423800F
:1001F400D7042380E7040100010037270040894623
:10020400B1BF2380D7042380E7040100010003D792
:1002140087001367070C2394E700A9B781460146BA
:1002240081451145CD22B71700401307700523807F
:10023400E704130780FA2380E704010001007D57D7
:100244002396E70203C76704136717002383E704B1
:100254002380070401A0BD473305F50201007D1585
:1002640075FD8280411122C426C206C6AA840144B7
:1002740063179400B24022449244410182800504F1
:100284001305803E4204C13F4180DDB7411106C6DB
:100294008566014681450545BD227DF981460146B5
:1002A400814511458D22B71700401307700523803F
:1002B400E704130780FA2380E704010001007D5757
:1002C4002396E70203C76704136717002383E70431
:1002D4002380070401A0B71700401307700523808B
:1002E400E704130780FA2380E704010001007D5727
:1002F4002396E70203C76704136717002383E70401
:100304002380070401A08280B7170040130700036D
:100314002388E7028547175700002323F7827300D9
:100324002030977000E0E78080897300203041110D
:1003340006C65125FDBF03D74194B7170040239E3D
:10034400E70873002030730020302303048015472E
:100354002303E48001002302A48082808307648055
:10036400E3CE07FE23030480828083076480E3CE08
:1003740007FE03454480828083076480E3CE07FE42
:100384002302A4808280411126C44AC24EC006C6FC
:100394001377F50BAD47AA892E8995446306F700B8
:1003A40019456537653F8D444E854537FD59FD1424
:1003B40063983401B240A2441249824941018280C7
:1003C400135509011375F50F453F2209CDB70111E6
:1003D40026CC06CEB704080051371545BD37713712
:1003E40069372AC6A53F32459377150089EB136513
:1003F40015001375F50FF240E24405618280FD1487
:10040400E9FC0145CDBF397126DC4ADA4ED852D613
:1004140056D45AD25ED006DE62CE66CCB7E700E090
:100424007D5783AA070022C603AA470023A0E71822
:1004340023A2E718B7170040130770052380E704C9
:10044400130780FA2380E70483C74704930B75FFDF
:10045400B684E20793FBFB0F8546AA892E8B32896B
:1004640037240040E187015763FA76016308D50019
:100474008946130700026313D5000157D98F93F7F8
:10048400F70FB71C00402382FC0411472303E480C8
:100494001305F00F5D3D094CD135636D7C11B70533
:1004A4000700DA9537870700795563F2E504B387C7
:1004B4009500636EF702370B0800A94733EB65011B
:1004C4006399F90689E48144513D26850DA0DA85B6
:1004D4000945553D05090345F9FFFD14050B693D23
:1004E40081C49377FB0FFDF7DD3569FD7D55B717A3
:1004F4000040130770052380E704130780FA238064
:10050400E70403C74704418B2382E704F250B7E7AB
:1005140000E023A0571123A24711E2543244525958
:10052400C259325AA25A125B825B724CE24C21616C
:100534008280A5476395F90685691309F00FB30610
:100544009900B3742B01B6941349F9FFB37499005D
:10055400856B33796901416B9387F9FFB3F7270101
:1005640099E363FC340193D94900C147E3E637FFBB
:1005740099BF0569C1697D19D9B71305800D6388D1
:100584006901130500026384790113051008CA8503
:10059400DD3B353D21DD4E99B3843441D9B7DA854D
:1005A4002D45D533CA94E30099F205097D3BA30F89
:1005B400A9FED5BF9387F9FF93F7F70F6361FC0C8E
:1005C40083C71C0413073008631FF70437070800A8
:1005D400636BEB04B3079B00B706100063F5D70405
:1005E400334BEB0089476393F9068980D549E38C43
:1005F40004ECDA850945413B11090327C9FF9147FA
:100604002320E48003076480E34E07FE2303348140
:10061400FD17EDFBFD14110B81C49377FB0FE9FF6C
:100624007D3371F5E1B5B717004003C75704B70729
:1006340008001377070219E3B78707007955E378B1
:10064400FBEA33079B00E3FFE7F855B58547E382F0
:10065400F9F2DA852D45053B9389F4FFE38504E639
:10066400293393F7390091EB83260480032709008B
:1006740093074900E39AE6E43E89CE84F1BFB54787
:100684006396F9001305900BC93135BDB1471305C5
:10069400B00AE38BF9FE99476391F904B7050800A2
:1006A400B365BB002D45C53181448D4BA1497539D6
:1006B40063967401832704802320F9008504E3985A
:1006C40034FF8327048013172B016355070023127B
:1006D400F900D5BB2322F900FDB39D476399F902C4
:1006E40081451305B0044531BD442320090023226C
:1006F4000900FD599D3993F77400CA9703C7070091
:10070400FD14398D2380A700E39634FF6DBBA14708
:100714006392F9046D398144630D0B008D47930492
:10072400C0036308FB009304000563048B01930476
:1007340040041375C507E30895D81945393139398B
:100744000545213126850D3909453D314931E31CE3
:1007540005D669BB91476399F90013056006F53620
:10076400F53E130590090DB7E38F09D4F154A9BBE5
:1007740019CD91CD09CE81473387F5008346070013
:100784003307F50085072300D700E397C7FE82806F
:1007940019C991C909CA910583A7C5FF11057D1619
:1007A400232EF5FEC5BF828001C919C62A96050508
:1007B400A30FB5FEE31DA6FE828081473307F50033
:1007C4000307070019E33E8582808507C5BF011131
:1007D4002E8626CAAA84131506019305F0044181C6
:1007E40022CC06CE32C6EF10A0572A8401C5324669
:1007F400A685BD3F2285F2406244D24405618280D1
:10080400854715C18DC105C28147B306F5003387FD
:10081400F50083C60600034707006398E6008507D2
:10082400E315F6FE85473E8582808147EDBF930739
:10083400F6FFBE952A966313C5008280FD1583C713
:1008440015000505A30FF5FEFDB7AA87014581CF65
:1008540009CE3E96850703C7F7FF6317B700E31B6E
:10086400F6FE054582808280014582807971976712
:100874000000938767D722D4804306D626D24AD075
:100884004ECE52CC56CA5AC85EC662C45DCC37C975
:10089400C901814B176A0000130A8AD997640000C2
:1008A4009384C4D41309F937976A0000938A8ACED3
:1008B400B709C0A8370B40578357240095E35C441D
:1008C400639D0B00176700002320F7D2032CC4009C
:1008D4002285EF100056628499A823A6FB00FDB779
:1008E40083270A008297838664011C4463DB06061F
:1008F4003307F5406367E9089767000023A407CA34
:100904008355240003450400978000E0E780A0920B
:100914005C405844A9CF1444B6978386640163C5E8
:10092400060063E33701DA971CC4A28B3A8449F4C6
:1009340097670000938707C69C4B09476378F706BF
:10094400F91717670000232FF7C4B25022549254AA
:100954000259F249624AD24A424BB24B224C456197
:100964008280E377F5F83387F9402A9761B7639774
:100974000B009767000023A9E7C689BF23A6EB00F5
:10098400B1B7D85009CF63DF06003385A74083A7EA
:100994000A016376F5009767000023A5A7C0A28B20
:1009A400404471B7E3F3A7FECE97C5B7976700003D
:1009B40023AA07BE59BF411122C4176400001304BF
:1009C40064C01C4006C626C24AC091C78297976776
:1009D400000023A907BE5C4091C382971C40639129
:1009E400071C9767000083C7F7D9858B9DC7976756
:1009F4000000A38907D8176700000347D7D8914799
:100A040063FDE700EF00B0359767000083C7B7D7F1
:100A1400F9178A07A2979C43829717690000130964
:100A240029DA8347C900918B99C3EF10C0261C446F
:100A340091C38297976400009384C4BA9840176660
:100A44000000034636B59767000083C7A7B49396A2
:100A54001700BA9683D60600D5CA9767000083C7E5
:100A640067B363EFC70A97670000238507B21C408A
:100A7400639807129767000083C717D191CF9767D0
:100A8400000083C757D089EB97670000A38E07CE79
:100A940097C001E0E780C0F697670000938747B9E5
:100AA4009C43638F070EB707C0A817670000232B6A
:100AB400F7AE6D3B97670000938747B3DC53EDC3F4
:100AC40017670000130707AD184B9767000083C72B
:100AD40037B36367F70C176700000347D7CA91471A
:100AE40063E0E70C8347C900918BDDEB9040976688
:100AF400000083C636AA63CBD70A2244B24092448C
:100B040002494101177300E067000350850793F71A
:100B1400F70F97660000238FF6A6E3E6C7F235BF0A
:100B240086073E9783550700231007009767000048
:100B3400239807AA97670000938787A89C431765A3
:100B44000000034525A513172500BA979C438297F7
:100B54009767000083D7C7A817670000034787A3D8
:100B640093C7F7FF7D8D9317170098403E978357DF
:100B740007005D8D2310A7009767000083C787A136
:100B840091C78507176700002306F7A017670000C1
:100B9400034747A09767000083C7D79FE375F7EC27
:100BA400B2402244924402494101828013971700C3
:100BB4003297035707006DF7850735BFAD6737C711
:100BC4000040BD072326F7200F10000097670000A0
:100BD4009387479CC84F83278726BD66BD0693C766
:100BE400F7FF99836A052326D7205D8D8280411102
:100BF400B7170040985F3AC6945F3247E39CE6FE1D
:100C040032454101828082800327851163000712E7
:100C1400411122C406C68347C5008345C5042A84FE
:100C240093F7C70F2306F500834697000356C700C2
:100C340013958601618563F1C508635A050603456A
:100C4400870093F6F607A304D700054693E627002A
:100C54006314C50093E617002306D4005C43890798
:100C64005CC3A30AB400032504112E864C43090572
:100C740001368327841103465401D44303D7C700A4
:100C8400B296118FD4C32396E7008947A30DF400CD
:100C9400034744039767000083C767966378F704A4
:100CA4008347C40093E707012306F40081A093E778
:100CB40017002306F40075B79376F60F635D0502FB
:100CC40003458700854513E627006314B50013E642
:100CD40017002306C400A30AD400A3040700854711
:100CE400A30DF400832784119C43DDF3B240224416
:100CF40001454101828093E717002306F400A30A0B
:100D0400D400A3040700032504114C4309058D34C2
:100D14008327841103465401D44303D7C700B296F2
:100D2400118FD4C32396E7008D475DBF05458280AC
:100D3400976700009387C7A39C43411122C406C64A
:100D4400858B2A84C5EF4165130525F5976001E07D
:100D5400E780201045C58347A5002315F5008327A8
:100D64000412BDE72320A4122322A41285472310D2
:100D7400F404232005008347640154412316F5003D
:100D84000347D4002304E5000547A304E5001767DF
:100D940000001307E79E184F1385170215811C43A3
:100DA4007D151375F50F9CC25C43DCC21C479CC6C1
:100DB4005C47DCC61C4B9CCA5C4BDCCA1C4F9CCEFB
:100DC4005C4FDCCE19CD9386060213070702C1BF20
:100DD4008327441288C3835704042322A41285075B
:100DE40079B79767000083D767A685071767000060
:100DF400231EF7A4B2402244410182808347C400E9
:100E040023090400054593C747002306F400DDB712
:100E14008347850193F7E70FCDEB83479501D5E72A
:100E2400034625018346C50009CA83454503175770
:100E340000000347D77C63E7E50013F7060159C7B1
:100E4400014709C6C18A0357851B81C68356C51B42
:100E540036972DCFB7470F009756000083D60676F6
:100E640093870724B3C7D7021307C712411126C2B9
:100E740022C406C67D543357F7029757000083C730
:100E84007778B384E700976700009387A79B83A6CE
:100E9400C70883A7060963F387003E849442F5FAE2
:100EA400975700009387C7789C4382978147636470
:100EB400A400B307A440B2402244B3B7970093C739
:100EC400170092443E854101828081473E8582809D
:100ED400797126D206D622D44AD04ECE52CC56CAE6
:100EE4005AC85EC68347350303447513AA843E94E7
:100EF4001374F40F9307400263F687001304B4FDE0
:100F04001374F40F03AA841383AAC413A38B841247
:100F140022865285D685976002E0E78040A905893C
:100F240015E503CBD41201498149337B6403930B48
:100F340050024A865285D685976002E0E78020A752
:100F4400058915C5639169031374F90F238B841202
:100F5400B250225492540259F249624AD24A424B44
:100F6400B24B456182808509E20993D9894105091B
:100F7400E31179FDE1BF832785090356E503797100
:100F840093D60701BD8EC206C182358E13577640B3
:100F940093575640898B058B5D8F93573640918BC1
:100FA4005D8F93571640A18B5D8F93171600C18BED
:100FB4005D8F9317360093F707025D8F93175600E2
:100FC4009355860093F707041E065D8F1376F60F7C
:100FD400518F93D7554013D63540118A898BD18FC1
:100FE40013D67540D18F13D61540218AD18F13960D
:100FF4001500418AD18F1396350013760602D18FDE
:1010040013965500137606049E05D18F93F5F50FBC
:10101400CD8FA20745465D8F3307C70222D42A84A9
:1010240026D252CC56CA032A8413832AC4135AC81C
:1010340006D6369742074183935777401355574056
:101044000989858BC98F135537401189C98F135569
:1010540017402189C98F131517004189C98F1315AA
:10106400370013750502C98F131557009355870070
:10107400137505041E07C98F1377F70FD98F13D57E
:10108400354013D755401189098B498F13D57540C5
:10109400498F13D515402189498F1395150041892E
:1010A400498F1395350013750502498F1395550023
:1010B400137505049E05498F93F5F50F4D8F22078F
:1010C400D98FB387C7024AD04ECE5EC662C4B697E4
:1010D400C207C18313D7774013D557400989058BBD
:1010E400498F13D537401189498F13D5174021896A
:1010F400498F139517004189498F1395370013754C
:101104000502498F1395570093D58700137505047D
:101114009E07498F93F7F70FD98F13D5354013D70F
:1011240055401189098B498F13D57540498F13D5C3
:1011340015402189498F139515004189498F1395CD
:10114400350013750502498F139555001375050471
:101154009E05498F93F5F50F4D8F2207D98FB387DD
:10116400C702130650025285D685B697BD8E939456
:101174000601C18033F6C402137BF60F976002E0C8
:10118400E780E08205890DED8347D4120149814946
:10119400B3849702130C5002C1804A865285D685C7
:1011A400976002E0E780A0800589937BF90F11C561
:1011B40063863403850993F9F90F0509E31F89FD53
:1011C400230B6413B250225492540259F249624AD6
:1011D400D24A424BB24B224C456182805E8BCDB7E2
:1011E4000111975700009387E76522CC03A4070BEE
:1011F40026CA06CE2AC42EC6854419E40145F24007
:101204006244D244056182808347910003471400FD
:10121400858B6304F7000044CDB719469305A100FC
:1012240013052400EFF0CFDDE31795FE0545C1BF9C
:10123400011122CC175400001304445618402AC646
:101244002EC432C206CE3C4B93F7F7F73CCB97B093
:1012540001E0E780A07718409756000093868651F6
:101264003C4B93E707083CCB9C423245A24523A064
:101274000700034715000348250022074208429748
:10128400034805004297034835006208429798D7FF
:101294000347550003486500220742084297034864
:1012A400450042970348750062084297D8D7034720
:1012B40095000348A5002207420842970348850089
:1012C40042970348B5006208429798DB0347D5006C
:1012D4000348E5002207420842970348C500034536
:1012E400F500429762052A97D8DB03C7150003C5AA
:1012F4002500220742052A9703C505002A9703C53E
:10130400350062052A9798CF03C7550003C56500C9
:10131400220742052A9703C545002A9703C575008D
:1013240062052A97D8CF03C7950003C5A5002207F5
:1013340042052A9703C585002A9703C5B5006205AF
:101344002A9798D303C7D50003C5E50022074205B1
:101354002A9703C5C50083C5F5002A97E2052E9791
:10136400D8D3D843759BD8C3D84313671700D8C3C1
:1013740098431367170098C3124698425C43858BC1
:10138400D1E71C4F01452300F6009C429C4FA183EA
:10139400A300F6009C429C4FC1832301F6009C42AB
:1013A4009C4FE183A301F6009C42D84F2302E60040
:1013B400D84F2183A302E600D84F41832303E600DC
:1013C400D84F6183A303E60098532304E60098539F
:1013D4002183A304E600985341832305E600985330
:1013E4006183A305E600D8532306E600D85321837E
:1013F400A306E600D85341832307E600DC53E183C8
:10140400A307F600F2406244056182800100B5B78B
:101414005D713AD2175700001307073636D41443C8
:101424003ED022DE9C5E4ACA86C6998396C49AC27E
:101434009EC026DC2ADA2ED832D642CE46CC72C8DA
:1014440076C67AC47EC2858B3A8417590000130984
:101454006932D1CB9C5E975400009384643293F735
:10146400F7F99CDE175700000347E731930700089C
:10147400631BF700832709009C4393F7070417575E
:1014840000002302F73083C7040093F707049DC3C9
:10149400975700009387C7199C438297975700007A
:1014A40023A8A72E83C7040093F7F70B1757000050
:1014B4002308F72C83C7440093F707048DE7854777
:1014C40017570000A300F72C975700009387072DA8
:1014D4009C43096798C7130700FC975600002383B1
:1014E400E62AD844F8D31C40985F1183058B09CBB6
:1014F400985F3D9B98DF0547975600002384E628B4
:10150400985F1D83058B11CB985F1377F7F798DFEE
:101514008547175700002307F72683270900D84378
:101524000583058B19C7D843759BD8C3D843799BCA
:10153400D8C37254B640A64216438643E254525569
:10154400C2553256A256125782577248E24852493F
:10155400424EB24E224F924F616173002030975732
:1015640000009387A723944397570000938747214C
:1015740003C70700058B11CB97570000238407206E
:1015840097570000A3800720828003C71700058BAC
:1015940065F7F85271FF83C75700DDB7175800008D
:1015A4001308881D032708001C5F9583858BD5EBE2
:1015B4001DC6975700009387E728839867040303A1
:1015C40006001C5BBD83630B030893F7F71FB38707
:1015D40017419A970947B3C7E7022300F60085CA63
:1015E40083270800985B46079357670163560700F3
:1015F40093E707C0C207C18303970600C207C187E8
:1016040009C7BA970947B3C7E7022390F6009DC9F3
:101614008347150085CB9756000083C6C61693F6FC
:10162400060413879700914785CA3A950347050036
:1016340085461376F7066311D60262076187B147C0
:10164400634C0700832708009C5FED838D8B17573D
:101654000000A30CF71281473E858280B3871741AF
:10166400ADBF8947D5BF411122C406C61754000037
:101674001304C412184049E9AE877453FDFE3E8535
:10168400B28597570000238E070E97B001E0E780DC
:101694002011975700009387270E9C43B7068000BC
:1016A4009843558F98C3D857719BD8D79757000044
:1016B400A38A070C97570000A384070C1C40094712
:1016C40098C3B7F700E003A707D16D9B23A8E7D021
:1016D40003A707D15D9B23A8E7D0730050101440E3
:1016E400175700001307C70983472700858B89EB29
:1016F40083473700858BD9C7975700002384070891
:10170400B2402244410182808D476310F50297570D
:101714000000938767069C43B70680009843558F63
:1017240098C3D857719BD8D75DBF8547E319F5FA9D
:10173400B567BD075CC70F1000001C400967094668
:1017440098C7130700F897560000238DE602175731
:101754000000130767021443984231830D8B631909
:10176400C7001307E043F8D33D673D07D8C785BFDB
:10177400984231830D8B01E713076019EDB7130706
:10178400E01BD5B7FC52ADF3A5BF5D714EDE975992
:101794000000938969FE03A7090086C6A2C4A6C2F5
:1017A400CAC052DC1C431759000013096903175AB5
:1017B4000000130AAAFE93F7F7E793E707081CC390
:1017C400832609003707CEFF7D179C461306800247
:1017D4002A84F98F9CC683270A001307000828006F
:1017E400B8CBAE8493051008EFE01FFC97B001E07E
:1017F400E780C01D97B001E0E780C02A83A70900F5
:101804009376F41FB70EFCFF23A40700984B13052F
:1018140010F8CE851367F70398CBF84F4A88B70FB3
:101824000400137707E0558FF8CF9843F576FD163B
:10183400758F98C39843B706330091421377F7E73F
:1018440098C39843FD1E85431377F7E71367071082
:1018540098C303270900130F80021C47D58F1CC7A8
:1018640083270A001307900D3400B8CB014793581F
:101874003700A69883C7080013767700B3D7C7400C
:10188400858BDDC79C41032E0800239C070423900D
:1018940007060323CE021373D3FF23266E0203AE7F
:1018A40007001373F707137E0EF833636E0023A04B
:1018B400670003A347023363F30123A267020143D2
:1018C40003DE07066307C30303A30703038E0600AF
:1018D4001353F30062031353834163586E0003A34D
:1018E40007031353F3002380660003D3070613731F
:1018F400F30F03DE8705E3F5C2FD03A34702337349
:10190400D30123A2670283870600635CF40003C348
:1019140008003396C3001346F6FF3376660023802F
:10192400C8003E8663D3A7002A8613158601618505
:1019340005071377F70F8506E31BE7F3B640264444
:1019440096440649F259625A61618280011136C88F
:1019540097560000938686E43EC49C423AC632CA37
:10196400D8472ACE2ECC1316170163550602984782
:1019740013161701635006027D57B8D71757000096
:10198400130747C1584F0507175600002322E6C224
:10199400116798C798470D83058B1DC3175700001F
:1019A400034727DE1367170017560000230BE6DCF6
:1019B400130700F8175600002306E6DC214798C7F2
:1019C4009847058B09CF17570000034777DB136748
:1019D400170017560000A305E6DA054798C798478D
:1019E4000983058B09E798470583058B39CF984709
:1019F400175600001306C6D8175500001305C5D79F
:101A04000983058B630C07101841184331830D8B30
:101A140063130710AC4B184E93F5050203471700E8
:101A2400E9C57DE713077006D8CF0347060013679F
:101A34001700175600002305E6D4114798C718412C
:101A44005C57F19B93E717005CD79C429847931629
:101A5400370163D606029756000083C6A6E5C18AFD
:101A640017570000130707DEE1C60347070713678C
:101A7400070297560000238FE6E2056798C7984748
:101A84009316270163D1060217570000034787CF37
:101A94006207618763570700054797560000238351
:101AA400E6CE096798C798479316070163D60602DE
:101AB4009756000083C616E0858A1757000013075F
:101AC40067D8C9C60347170713672700975600004E
:101AD400A382E6DE216798C77245E2455246C246B4
:101AE4003247A2470561730020300DDF8545631539
:101AF400B7001307B0060DBF89456315B700130778
:101B0400F0061DB78D456315B7001307300729BFCD
:101B14001307500711BF1307600739B7034736008F
:101B24001367170017560000A30DE6C4094739B719
:101B3400834607070946BD8A6388C600034707072B
:101B44008D463D8BE31BD7F2114725B78346170714
:101B5400918AC9D2034717071367870085BF1757B0
:101B640000001307E7C38346B7019757000083C7F4
:101B7400F7C5B69793F7F70FFD4663EAF6044C4BA7
:101B840097560000A38EF6C09757000083C757C12D
:101B940005473317F70097560000A389F6C26D8FE7
:101BA4001DEF9756000083C6B6C2B3F6D7021305DD
:101BB4000002814733D6F500058A13F8F70F09CEE2
:101BC4006399E60097570000A38C07BD82808117B4
:101BD4007DB705071377F70F8507E39DA7FC828080
:101BE400975700009387C7A49C43011122CC4EC68B
:101BF40006CE26CA4AC852C456C2829797570000D6
:101C0400938707BC804781496305A406BE84975720
:101C140000009387A79D038767013E8963550706E4
:101C2400018D135455009757000083C707B9937962
:101C3400F501636DF402370AC0A8B70A40570537A7
:101C44009C449756000083C646B7139756003E97A8
:101C540083076901158C63C50700636347015697C1
:101C64009757000023A2E7B6E37BD4FC1604B369BC
:101C74003401F24062444E85D2444249B249224A78
:101C8400924A05618280E37D85F8B707C0A8338452
:101C94008740229579B797570000938767999C43AB
:101CA400411122C406C626C2829797570000938723
:101CB40027B180476309A406BE8497570000938721
:101CC400E7928387670163D80704018D1354550095
:101CD4009757000083C767AE6367F4044935984497
:101CE4009757000083C767AD9396570036971D8CAE
:101CF4009756000023AAE6ACE372F4FE2244B240F5
:101D04009244175500000345B5A98145410117B315
:101D140001E06700431DE37A85FAB707C0A833845E
:101D24008740229565B7B2402244924441018280A3
:101D3400975700009387C7AA9843B7570200938721
:101D4400079F8326070913965600635806008326C7
:101D540007091396660063440600FD17FDF38280AD
:101D640071C5AA870145E9C58D07C207C183F19BE7
:101D7400C207C18313074003636FF70217570000BC
:101D84001307C7AB0843175700001307A7AA144348
:101D94006398A6021757000013074785185B01458F
:101DA40041CB4111C20706C60545DD8D0297B240FD
:101DB400014541018280175700001307E7A7D9B7EF
:101DC4000357650035E303574500636FF704B30613
:101DD400F7402146637CD6020328050093868700DA
:101DE4001D8FAA966117174600000356067B23929F
:101DF400E60023A006012393060014C12312F50074
:101E0400130786FF974600002399E6782313B5004D
:101E14009745000083D56578B387F54017470000E0
:101E2400231DF7762105828008419DB701458280F4
:101E340082800DC197570000938747A003A3070032
:101E4400975700009387079F83A8070081469A87C6
:101E540063E31701828003A80700636DF50A636BCF
:101E6400A80A13878700E367E5FE03D667002167A6
:101E740005076317E60003C7419F0507238AE19E10
:101E8400974500009385057103D6470003D7650085
:101E94002393070032974207418317450000231E0E
:101EA400E56E638A6702175500001305E59808413B
:101EB4006303F50203D5660019ED83D7460023A01A
:101EC400060121073E9621062392C600974700008B
:101ED4002395E76CB6879843E30E17F797560000EF
:101EE400938686959442E307D7F683566700BDF23E
:101EF40083D64700035647001843A106B29623929F
:101F0400D70098C383D76500A1071747000023169D
:101F1400F7688280BE86C28725BF011197570000EB
:101F24009387479222CC03A4870B26CA4AC84EC67D
:101F340006CEAA8413092500854915C083C7140059
:101F440003473400858B6304F700405CFDB71946F2
:101F5400930544004A85EFE0BF8AE31835FF2285E4
:101F6400F2406244D2444249B2490561828041113F
:101F7400975700009387078D22C403A4870B26C2BA
:101F84004AC006C693042500054901E82285B240EB
:101F940022449244024941018280A6851305A40289
:101FA400974002E0E780E055E30225FF405CF1BF83
:101FB4004111975700009387E78822C403A4870B35
:101FC40026C24AC006C693042500054901E82285B5
:101FD400B24022449244024941018280A6851305FD
:101FE400A401974002E0E780C051E30225FF405C72
:041FF400F1BF000039
:101FF80097110020938181DB1761002013010100F4
:102008001305400097E5FF1F938545FF170600203D
:10201800130606FE63FAC5008322050023A05500B7
:1020280011059105E3EAC5FE177502001305454D34
:10203800970500209385C5FB1386018D63FAC500BB
:102048008322050023A0550011059105E3EAC5FE8A
:102058001385018D97550020938505906377B5000A
:10206800232005001105E36DB5FEFD42739002BC07
:102078008D42739042809302800873A0023097E2E9
:10208800FF1F9382A2F793E2320073905230976257
:1020980000009382C28873901234730020303D434D
:1020A8002A876373C3029377F700BDEFADE5937694
:1020B80006FF3D8ABA960CC34CC30CC74CC74107F0
:1020C800E36BD7FE11E28280B306C3408A0697020B
:1020D800000096966780A6002307B700A306B700FE
:1020E8002306B700A305B7002305B700A304B7006C
:1020F8002304B700A303B7002303B700A302B70064
:102108002302B700A301B7002301B700A300B7005B
:102118002300B700828093F5F50F93968500D58D3F
:1021280093960501D58D61B7939627009702000015
:1021380096968682E78086FA9680C1171D8F3E960E
:10214800E374C3F8A5B782803D897D15954763EE92
:10215800A70E176702001307A72C0A053A951C411A
:10216800011106CEBA97828797050020938505440A
:102178000545EFA02037176502001305A52FEF408E
:10218800722711A803C725008D471765020013059C
:10219800652FE306F7FEF2400561828003C725003C
:1021A8009547E31AF7FE03D5A500239CA18083C7B2
:1021B800818299E3EF0062538547238AF18C176582
:1021C80002001305252D65BF03C725008D47E314BD
:1021D800F7FC176502001305A52C55B783C7250022
:1021E8001147176502001305252D6384E704194775
:1021F800639AE70283C56500176502001305852DFC
:10220800238A018CEF40D20AF957239CF180854735
:102218001306F100854513055030A307F100EF00C0
:10222800422195BF1547E394E7FE176502001305A1
:10223800252CEF40321CE1BF83C52500176502003D
:102248001305852CEF40D206B9B78280011123050A
:10225800A1003400214685450D4506CE2314010012
:10226800A305010002C6EF10F067F2400561828005
:10227800011106CE22CC3A883E87B1E28D6793875A
:10228800D7A42A8EAE88328383460800631EF600E0
:102298008947639BF50085473544639DF60083476E
:1022A8000700898BA38BF18C1A86C6857285EF206F
:1022B800602E2A842285F240624405618280854727
:1022C8006396F600C286EF208032E5B7894701445D
:1022D800E392F6FE1306F100854513055030A30777
:1022E8000100EF000215F9B701119397050122CCFF
:1022F80006CE26CAC1872E8463DC070003C5A181E8
:10230800EF50D02919C1EF5050222165218D3DA0F1
:1023180093F7150013C5150095E393F7450085C796
:1023280083C7A1811307803E814613060005C14576
:1023380003D58181EFF0715813454400F24062449F
:10234800D2440561828093F785009DC30147894681
:102358000946814503D58181EF00623BAA8517654F
:1023680002001305650DEF40A27413458400F9B708
:1023780093F70501C1CF6C0013055030A305010088
:10238800EFF091780347C10085476319F7001306FA
:10239800B100854513055030EF00A20997040020CD
:1023A8009384C420A6850545EFA0C01331E9130521
:1023B800C002854603C651808545EF30D03F83C7AC
:1023C800540003D58181FD17A38AF18CC167F917E1
:1023D8006307F500EF006231F957239CF1808347CA
:1023E800C1000547639BE7001306B1008545130547
:1023F8005030A305F100EF00C203134504013DBFAF
:1024080083C7518D8507A382F180D1BF93F725003B
:10241800B9C703C5B1811D3D83C7B181850793F74E
:10242800F70F7147636BF7020145A38DF180393DC2
:10243800B7070200938707207400114685450545B4
:102448003EC6EF10304A1306007D894503C5A181B9
:10245800EF50306F13452400D5B59147F1B79397E6
:10246800350163DC07009387018294431146854553
:102478000545EF103047056551BD9397250163DC8D
:1024880007009387C1819443214685450D45EF1088
:1024980070450965A5BD9397150163DC070093870F
:1024A80041829443054685450945EF10B0431165BF
:1024B800B1BD93F7050289CF17650200130545F9E9
:1024C800EF4060068547238BF18C13450402BDB5A8
:1024D80093F705040145E38307E69387018D90434D
:1024E800814503D58181EFF0A10A13450404B9B5EC
:1024F80001118D6585461306F100938545802D45AC
:1025080006CE97E0FF1FE780C0EF8347F100194729
:102518006373F7008547F240A382F18005618280EA
:10252800797122D40D6406D6A307A1001304448050
:1025380085461306F100A285294597E0FF1FE7802D
:1025480040EC85461306F101A2852D4597E0FF1F53
:10255800E78020EB0347F1018347F100E31AF7FC1A
:10256800B2502254456182800111170500001305FD
:10257800E5D706CE22CC26CAEF60001D9384A18140
:1025880005442380A40070008545130550302306B8
:102598008100EFF0116A138681809D451305603034
:1025A800EFF0316917060020130686A5D5451305F7
:1025B8007030EFF0116817660200130626EAD54559
:1025C8000145EFA0701789477000914513057040C9
:1025D8002305F10023048100A3048100A3058100E1
:1025E80002C6EFE0F11A3000854513050040EFE020
:1025F800311A13069100854513051040EFE0511973
:102608001306A100854513052040EFE07118130655
:10261800B100854513055040EFE09117A9477000B8
:10262800854505452306F100EF108047EF1030631C
:10263800970500209385C59B13850181EF105029CC
:1026480003C504008545EF50503EF2406244D24431
:1026580005618280411106C6EF20D05B83C7B19423
:102668008DC7A3850194EF20407C05C197770200B0
:10267800938707E49C431D4783C727006384E704C7
:102688006362F7021147638DE7029387C18D9C430C
:102698001307200385076369F702B24023AEF18C64
:1026A800410182805947638BE7006947E39FE7FC54
:1026B8008547172700202327F730C1BF8947D5BF93
:1026C8008D47C5BF9147F5B7B24023AE018C410194
:1026D8006F504040411106C683C7919603C7418E8B
:1026E8006307F7042382F18E176602001306060EAD
:1026F80089E7176602001306E6E781452145EF30B2
:10270800B05803C7919683C7418D6304F7002385AA
:10271800E18231CB03C7C18ED98FB1C783C7A182EC
:102728001305800391C3694505468145B1A083C758
:10273800418D03C7518E6302F708A382F18EA9C3A6
:102748001766020013060609814513056002EF307B
:10275800B05383C7919603C7418D6384E7002385EF
:10276800F18291C345FF014681456945EF30103C30
:102778000146814513058003B24041016F30103B8B
:1027880017660200130606DF814513056002EF3065
:10279800B04F03C7618D8547E31DF7FA176502003F
:1027A800130585DD238B018C23A8018CEF30B057EE
:1027B80013054006EF30705F69BF83C7C18E03C73A
:1027C800618E6307F7022383F18E176602001306F2
:1027D800E60089E717660200130686DA81451305C5
:1027E8009002EF30704A83C7919603C7C18EB5B780
:1027F800B24041018280411106C6EF20200183C703
:10280800618D99E3EF20A004371700408327470C18
:1028180083C60194B98393C71700858B6387F60233
:102828008327470C1167F98F13B717002380E194AA
:102838008DE3176702001307670991461306100511
:10284800814513058004EF303006B24041016F1016
:102858003075914613061005814513058004EF3045
:10286800900BE5B703C7919685476314F7006F503F
:10287800A004828015456F00D0074111939625006A
:10288800AA852D4506C697E0FF1FE78080B7B240AE
:10289800014541018280411122C426C24AC02A84CE
:1028A8002E89B284AA85930600200146254506C6CE
:1028B80097E0FF1FE780E0B4931629002686A285DB
:1028C800294597E0FF1FE780C0B3B24022449244F5
:1028D8000249014541018280011122CC06CE3714FC
:1028E800004026CA4AC84EC652C483447405034AE7
:1028F800B4058349840503499405EF00007D8347A7
:10290800A40593F4F40F137AFA0F93E71700230D35
:10291800F40493F9F90F1379F90FB717004003C7B7
:10292800A705058B6DFF03D5C705A38D4705238C28
:102938003705A38C2705A38B9704F2406244D24441
:102948004249B249224A0561828083C77196A1C76C
:10295800A383019683C791960547639BE70003C746
:10296800A1826317F700894503C581886F50F00B72
:1029780003C7418D85476316F700856503C5A181A7
:10298800F5B703C7C18E6318F700C14517250020A6
:102998000345C50AE1BF828083C791960547639BBB
:1029A800E70003C7A1826317F700A14503C5818823
:1029B8006F50B00703C7418D8547630DF70003C704
:1029C800C18E6319F70093050002172500200345FF
:1029D800E506F9BF8280411106C622C4EF20902384
:1029E80083C7B1946382070EA385019483C7618D61
:1029F8000544639587021385018DEF20905E63156A
:102A0800050C2244B240238B018C03C5A181130617
:102A180000199305000441016F50B012EF20E04007
:102A280011CD83C79196639B870403C7A18263175F
:102A3800F704914503C58188EF50207F83C7C1946F
:102A4800C1C7238601949387018288430D46814537
:102A5800050597E0FF1FE780E0D483C791960547F7
:102A68006391E70403C7A182631DF702894503C583
:102A780081882244B24041016F50207B03C7418DB9
:102A880085476316F700896503C5A18175B703C734
:102A9800C18EE315F7FAA14517250020034505FA6D
:102AA80061BF03C7418D85476316F700856503C578
:102AB800A181C1B703C7C18E6318F700C1451725A7
:102AC80000200345A5F775B7B24022444101828032
:102AD80083C791968DC383C7A18291CF03C6118EF8
:102AE80083C7818D6389C700238CC18C85451305F5
:102AF80080036F30700983C7418D91CB83C7A18252
:102B080099E703C6718D83C7818DE39FC7FC83C78F
:102B1800C18E91CB83C7A18299E703C6018E83C773
:102B2800818DE393C7FC828001111306000B930586
:102B3800F100094506CE22CCEF10107B21ED83472A
:102B4800F100A9CB1306000B81450945EF10B06EC3
:102B5800138401820C4091461306000B3145EF2087
:102B680080091C4017650200130545A003C627000D
:102B780083C51700EF30301B83C791960547639FC5
:102B8800E70003C7A182631BF700894503C5818855
:102B9800EF50A069F24062440561828003C7418D0D
:102BA80085476316F700856503C5A181D5B703C7B7
:102BB800C18EE311F7FEC14517250020034505E83E
:102BC800C1BF79719397050122D406D626D24AD07F
:102BD8004ECE52CCC1872E8463DA0700EF50001C1A
:102BE80019C1EF5080142165218D35A893F7150080
:102BF80013C515008DEB93F7250013C5250085E750
:102C080093F785008DCB97F7FF1F9387A7429C43C7
:102C180082970966130606F4A14503C59182EF5011
:102C2800407213458400B250225492540259F2491A
:102C3800624A4561828093F7051013C50510E5F7D0
:102C480093F74500B9CF03C71195854797F4FF1F40
:102C58009384443F631DF7029C4082979387818E3B
:102C68009C43850723A4F18E05671307F7F963775B
:102C7800F700094597D0FF1FE780A06821469145D6
:102C880003C59182EF50E06B1345440069BF97F785
:102C9800FF1F93876739DC4382979C448297DC4007
:102CA8006DBF93F705018DC397F7FF1F938787388B
:102CB800DC43829713060006C14503C59182EF5095
:102CC80040681345040185B793F70508C9CF83C742
:102CD800218E850793F7F70F2381F18E05476370DF
:102CE800F7022381018EEF3040004146930500082A
:102CF80003C59182EF50E064134504082DB7E5D76A
:102D080089461306600B9305E1000145EF10B06E8C
:102D18000356E100814517250020130565DFEF20E4
:102D2800D07B8144138AC18797290020938989DE43
:102D38001149B387440103C5070089461306600B90
:102D4800090506059305E1001375E50FEF10B06A54
:102D58000356E10093F5F40F4E858504EF20F077D4
:102D6800E39924FD59B793F7050291CFEF30900608
:102D7800130600039305000203C59182EF50605CBF
:102D8800134504024DB593F7050499C78547A384F5
:102D9800F19613C5050441BD9397250163D0070239
:102DA800EF90F17AC13C37F60200130606E0896518
:102DB80003C59182EF50E05809653DB59397150119
:102DC8000145E3D207E6175502001305E579EF3010
:102DD800726213060064916503C59182EF506056D4
:102DE800116519B583C76196A1C72383019683C767
:102DF80091960547639BE70003C7A1826317F70015
:102E0800894503C581886F50404203C7418D854776
:102E18006316F700856503C5A181F5B703C7C18EA1
:102E28006318F700C14517250020034525C1E1BFF8
:102E380082801D714946975502009385E56D176597
:102E480002001305252B86CE97E0FF1FE780009B25
:102E580001E9175502001305656DEF30B25901A05D
:102E6800B7F600E0795798CAFD57DCCA0567B7E797
:102E780000E023A0E7101306F00290C223A0E71891
:102E8800010001001306C0038145480897E0FF1FB1
:102E9800E780409197270020938707EF3ECA89670C
:102EA80093870780231CF100ED472312F102954711
:102EB800A301F10285472303F102B5472304F10278
:102EC800A167938707E03ECE970700009387279B6B
:102ED800BEC4970700009387479CBEC68567938743
:102EE80027D02315F102971700009387A7803EDAB1
:102EF800B7F50700970700009387479E3EDE814697
:102F080097070000938747977000E1051945BEC0F1
:102F180097D0FF1FE780E04E580881479946700018
:102F28003E960346060085070507A30CC700E398ED
:102F3800D7FED24791C70357810185676373F700AE
:102F480001A04808EF501004AA8501C917550200CE
:102F58001305055FEF30D23501A0F6402561828068
:102F680075712D4697550200938585420A8506C7D7
:102F780022C5EF3092281306500781451305B1008A
:102F8800EFF0EF91170500001305E5C3EF50C07B84
:102F9800138491822300A400EF300079EF101027EA
:102FA8000A85EF20F01CEF30801EEF10D001EF30C3
:102FB800F00AEF40D0000345040037F6020013067C
:102FC80006E08965EF50E0370A85EF30B2421756C0
:102FD80002001306E65885450945EF30A007130699
:102FE800300585455145EF20D076EF400070854685
:102FF8002A8685456945EF20107C130640048545DF
:1030080013056002EF20F074EFF08FCE854603C6FB
:10301800518085451305C002EF20F07901468545AA
:1030280013058003EF304036176702001307078D3A
:103038008D461306B00781451305B005EF30C0066D
:103048008A85175502001305E551EF30C04D130569
:103058004006EF308055BA402A4449618280797130
:1030680022D40D6406D6A307A100130484808546E4
:103078001306F100A285294597D0FF1FE780603825
:1030880085461306F101A2852D4597D0FF1FE780DD
:1030980040370347F1018347F100E31AF7FCB250C8
:1030A800225445618280B717004003C777051A0587
:1030B80092054D8D1377E70F13653500A38BE70451
:1030C8001375F50FA38CA7048280B717004003C7B8
:1030D80077051377E70FA38BE704130700F8A38D91
:1030E800E7043D47238CE70413075003A38CE70448
:1030F8008280B7160040130670052380C604930724
:1031080080FA2380F6040100010003C7F602136762
:103118008700A387E60203C7F6021377770FA38712
:10312800E60203C7E6021377C70F2387E60203C741
:10313800E602136717002387E6022380C60423806C
:10314800F6040100010003C736057D78930E481F79
:103158001377870FA389E60403C73605371600409F
:10316800116E13671700A389E6042380F60483C74A
:1031780036051167130F400893E70702A389F60481
:1031880083D706051308281B930F3004D98F1167BE
:103198002398F6047D179147894213037005930815
:1031A80080FA83463605A18AEDDE835606058346F6
:1031B8003605A18AEDFE83560605B3E6C601231837
:1031C800D60483463605A18AEDDE83550605834677
:1031D8002605F98DB306D702B695B386D501637176
:1031E800DF04FD1793F7F70F85CFC2959396150067
:1031F800B3C6F6036352B0028506858623006604CB
:1032080023001605010001008355C602AE96C206CA
:10321800C1822316D60271B7FD16B3C65602F9BF8E
:10322800B716004083C7360513873605A18BFDDB2B
:1032380083D7060583D706051166D18F2398F60430
:10324800930770052380F604930780FA2380F60419
:10325800010001008347070093F7870F2300F70059
:1032680083470700C98F93F7F70F2300F700371735
:10327800004083473705A18BEDFFB717004003C710
:103288003705218B6DDF83D6070583C727051166B0
:103298007D16F18E3306F60285659307C003138702
:1032A80005C83696938605FAB396A600B386F60245
:1032B800A1679385559CB3C6F6029307803EB386F3
:1032C800F602B357A740B306D640B387D702B3C7B1
:1032D800B7026351D0048507094793067005B3C741
:1032E800E702371700402300D704930680FA23002B
:1032F800D7049607010001008356C702B697C20794
:10330800C1832316F7028347370593F7F70DA309FF
:10331800F7048280FD17C9B7914763EEB7021757C4
:103328000200130727268A05BA959C41BA97828717
:10333800B717004003A7470B1345F5FF698F23AA6A
:10334800E70A03A7070B698F23A8E70A03A7070A59
:10335800798D23A0A70A8280B717004083A6470B60
:103368001347F5FFF98E23AAD70A83A6070B558DB5
:1033780023A8A70A83A6070A758F23A0E70A8280D5
:10338800B717004003A7470B498F23AAE70A03A7EB
:10339800070B1345F5FF45BFB717004083A6470B3A
:1033A8001347F5FF758F23AAE70A03A7070A598D64
:1033B8004DB7B717004003A7470B498FEDB79147A3
:1033C80063EEB702175702001307071D8A05BA955F
:1033D8009C41BA978287B717004003A7470D13454A
:1033E800F5FF698F23AAE70C03A7070D698F23A8A8
:1033F800E70C03A7070C798D23A0A70C8280B717C9
:10340800004083A6470D1347F5FFF98E23AAD70C72
:1034180083A6070D558D23A8A70C83A6070C758FC7
:1034280023A0E70C8280B717004003A7470D498FF8
:1034380023AAE70C03A7070D1345F5FF45BFB717E8
:10344800004083A6470D1347F5FF758F23AAE70CA5
:1034580003A7070C598D4DB7B717004003A7470DB1
:10346800498FEDB7B717004003D7870109C5D98D34
:10347800239CB700828093C5F5FFF98DD5BF011154
:1034880022CC26CA2E8432C636C43AC23EC006CEE4
:10349800AA84312C37480F00130808243358050331
:1034A800B758004083D5488082471247C205C1817A
:1034B80093F505FCC205C1812392B88083D5488065
:1034C800A2463246B365B800C205C1812392B880CE
:1034D80083D50880C205C181F999C205C1812390AD
:1034E800B880E1659385056A63EB85080604335463
:1034F800850205669305C6FF114542044180E18DAA
:1035080081C51305F6FF618D05081306F003637482
:1035180006011308F0034208375600401358080103
:103528002310068337560040231EA6808355068045
:10353800F240624493E515002310B6808355068057
:10354800C205C18193F555BFC205C1812310B6805C
:1035580083550680CD8EC58EC206C1822310D680C3
:10356800835686802314068083568680D244D58F5E
:10357800D98FC207C1832314F6800561828015E6BE
:103588008D45B305B4023355B5025205518111E199
:1035980005452166518D1306C0123308C80213066B
:1035A800803E3358C8020508BDB7E5453304B40268
:1035B80011663355850252055181518DD9BF375750
:1035C80000408357078011C593E707102310F78041
:1035D8008280C207C18393F7F7EFC207C183FDB7A3
:1035E800375700408357078011C593E707202310FA
:1035F800F7808280C207C18393F7F7DFC207C183D0
:10360800FDB7375700408357078011C593E7074038
:103618002310F7808280C207C18393F7F7BFC207E0
:10362800C183FDB7B75700402398A7808280B7575A
:10363800004003D507811375F50F82809377E50F56
:1036480099C193671500C207C183375700402318F3
:10365800F780828037570040835647818357878198
:10366800C207D58FE98FA207A1833385A7401335F9
:1036780015008280411102C4B757004002C69387E3
:1036880007803EC69357C5013EC4A2472205218143
:1036980099CBB247D1073EC6B2479C4341017D8DC5
:1036A8003335A0008280B2474181E107EDB7B717F3
:1036B800004003D58700420541819377050491EBCB
:1036C8009377F5013755E801130505803345F50271
:1036D80082809377050C130700046397E7009377BC
:1036E800F50137459C1CCDB72165130505D08280AF
:1036F800B7F700E08847CC478280814737470040CA
:10370800A14663C4C700328582800345B7C0E38EF3
:10371800A6FE3385F5000345050085072304A7C0E9
:10372800CDB712059A054D8D1365C5001375F50FB4
:10373800B72700402380A7408280B727004001E5D3
:10374800A38007408280239CB740239EC74015472B
:1037580091E20547A380E7408280411122C406C652
:103768002A84B1372947B307E502B2408D83B3D71E
:10377800870222449507B3D7E70237470040C207BC
:10378800C1832316F7C04101828071654111130579
:10379800052006C6D937B7470040130770F82381BC
:1037A800E7C00D47A381E7C013070004A380E7C063
:1037B80005472387E7C0B24041018280B7870040B0
:1037C800238007001307C0FC2386E700A386E700D1
:1037D80017170020035747272398E70017170020DB
:1037E8000357C726239AE7001717002003574725D2
:1037F800239CE700171700200357C724239EE700E0
:1038080089462381D70249472383E7022385E702B4
:103818002387E7022389D702A381070013079002B1
:103828002380E700B716004003D7A6011367070CEB
:10383800239DE6007D572383E700130710F8A38034
:10384800E7001D472381E7008280B7870040238275
:10385800A70203C767021377C70F2383E702828093
:10386800B78700402384A70203C7A7021377C70FAF
:103878002385E7028280B78700402386A70203C713
:10388800E7021377C70F2387E7028280B7870040D4
:103898002388A70203C727031377C70F2389E702E3
:1038A80082809387818F9C43011106CE22CC91C3DD
:1038B80082979387C19380439387C18F9C43131545
:1038C8000401418181C72AC68297324583D7E182A4
:1038D8006379F50403D701836378A7049386418F3E
:1038E80003A30600630603006244F24005610283F5
:1038F8008507998F13950701418193572500131563
:10390800040141816544198D330585021384F7FF4D
:1039180022953345F5021375F50FF24062440561AF
:10392800828013054006D5BF0145C5BF03A84500E1
:10393800411126C206C622C483471800034808005E
:10394800A944A207B3E70701C2070D68C187130896
:1039580028906396070385473284EF90D06CAA8439
:1039680019ED9387018F9C4399CB034514000347B6
:1039780004002205598D1335150005058297B240BC
:10398800224426859244410182802D453DE7D84155
:10399800411122C426C206C6834717000347070001
:1039A800B684A207D98F0D67930697A132846396D0
:1039B800D702C53D83C7B1826374F500A385A18290
:1039C80085472390F40083C7B1822300F4000145A2
:1039D800B2402244924441018280130787902945CE
:1039E800E398E7FECC4589472390F40009462285F1
:1039F80097D0FF1FE78080D7D9BF828083474500D3
:103A0800858BADC7011122CC2A84035525009385E7
:103A180081A706CEEF90F05B058929C503552400E0
:103A2800014781460546ED45EF90F0162AC61DC9A7
:103A380097E7FF1F9387C76183D7A70201462C002A
:103A48002314F10085472315F10083C7B1822300B1
:103A5800F50003552400EFA0503509C5ED452800B1
:103A6800EF90302BF240624405618280828041658C
:103A78004111938581A77D1506C6EFB03023B2406A
:103A880097E6FF1F9386C6614146954517E5FF1FD8
:103A98001305055C41016FB0901623A8A18E8280A2
:103AA800411122C406C6854709446311F5028347BC
:103AB80006000144A386F18E03C7B1826378F7003C
:103AC800170500001305C5F3EFD0B0542285B240A6
:103AD80022444101828085476301F50209C90947EB
:103AE8006302E5020D476306E5020945828083C744
:103AF800B1822380F500014582809387D18E83C7E8
:103B08000700C5BF97E7FF1F83D727552390F50008
:103B1800DDB713874183035707002392E50017E7B2
:103B2800FF1F1307E7528356A7020357A7032383F0
:103B3800F5002390D5002391E50075BF411106C615
:103B48008D3383C7B182637AF500A385A1821705F7
:103B580000001305E5EAEFD0D04BB2400145410122
:103B6800828041677917630CE502411122C406C6B9
:103B780085472A84639AF50022852244B2409385BA
:103B880081A741016FB0901289476396F50085457A
:103B9800EFD0B04275D1B240224441018280828088
:103BA800CC41411106C6328503C6150083C5050000
:103BB80022064D8E42068D654186138875A2630CD8
:103BC800060F6348C804138845A26306060B634AB8
:103BD800C800938535A26309B606239006002946D6
:103BE80079A0138855A26308060B938565A2E3168E
:103BF800B6FEC1451D4663ECE5064546198E63F3DE
:103C0800C7003E862390C600975502009385059B02
:103C180089A8138895A26300060F634E060B1388C4
:103C2800A5A2630A060F938505A5E318B6FA994578
:103C38001D4663EEE502198E63F3C7003E862390A6
:103C4800C6009385C18331A89D451D4663E1E50201
:103C58002146198E63F3C7003E862390C6009385DC
:103C68000190BA9597D0FF1FE78040B00146B24057
:103C7800328541018280AD451D46E3EAE5FE3146C5
:103C8800198E63F3C7003E862390C600975502003D
:103C980093858596F9B7B1451D46E3EAE5FC3546B7
:103CA800198E63F3C7003E862390C600975502001D
:103CB800938585957DB7C1451D46E3EAE5FA4546F6
:103CC800198E63F3C7003E862390C60097550200FD
:103CD8009385059079B7C1451D46E3EAE5F8454661
:103CE800198E63F3C7003E862390C60097550200DD
:103CF80093858592BDB7C1451D46E3EAE5F645467D
:103D0800198E63F3C7003E862390C60097550200BC
:103D18009385458DB9B7B5451D46E3EAE5F43946BF
:103D2800198E63F3C7003E862390C600975502009C
:103D38009385C5873DB797E6FF1F9386264A414678
:103D4800CD4517E5FF1F130565366FB0406B8280C0
:103D58009387C1919C4303C7019183C6718501E78D
:103D680081473E85828003D607006316A60003C6F6
:103D78006700E308D6FE7D171377F70FA107C5B7CD
:103D8800B2862E86AA85175502001305A58D6F20C9
:103D980032520111930500030D4506CEEF60007401
:103DA800930500051145EF6060739305C003054551
:103DB800EF60C07285471306F10085451305503042
:103DC800A307F100EFE0E166F24005618280938786
:103DD80041919C43328791C703A387006303030083
:103DE800028309CB130600199305000203C5A181BC
:103DF8006F40205582808547631CF50011661306C5
:103E080086A9894517150020034585C46F4060536E
:103E180089476319F500894517150020034545C3EF
:103E28006F40806E828085476398F50019E223858C
:103E3800B1902380C192828009476399E50019E611
:103E48002385F19003D581906F005008828001117D
:103E58009397050126CA06CE22CC4AC84EC652C43C
:103E6800C187AE8463D9070817150020034545BEEE
:103E7800EF30D0722A8439C9034705009307000D33
:103E88006313F704834725004547638BE7046547B9
:103E9800639BE7021745020013054579EF2052415D
:103EA800130954009309B400174A0200130A4A7907
:103EB8008345090052850509EF20923FE39A29FFBF
:103EC8002945EF20F2422285EF3030662165258DA5
:103ED800F2406244D2444249B249224A0561828092
:103EE8000346650083457500174502001305C5752F
:103EF800EF20123CC9BF93F7150085C317E6FF1FD3
:103F08001306862E9385818417150020034545B432
:103F1800EFE0412113C5140065BF93F72500014563
:103F2800C5DB29391166130686A9894517150020AE
:103F3800034505B2EF40E04013C5240051BF797135
:103F480026D24ECE06D622D44AD052CC9147AA8445
:103F5800AE896314F50483D7A5001306E1008545EF
:103F6800130550302394F190230701002385019015
:103F7800EFE0214C938741919C4391C7DC4781C76F
:103F8800CE8526858297B250225423A69190025955
:103F98009254F249624A456182801387C19018435E
:103FA800E31AF7FC854503D58190653E854503D521
:103FB8008190EF006077C16703DA8190F917631B7E
:103FC800FA0205449305E100130550412385019049
:103FD800A38B818423070100EFC051548347E1007C
:103FE800B1E303C701929147E316F7F85D332380E5
:103FF800019249B79387C19103A9070003C40191AE
:1040080069D00355290011C99305E100EF9070624A
:1040180009C54C455285EFB060497D141374F40FFF
:104028002109F9BF938781919C4383C74700898BF6
:10403800CDDB9305000A0D45EF60404A9305000A61
:104048001145EF60A04981450545EF6020491306F9
:10405800E10085451305503023078100EFE0613DFD
:1040680049B70111170500001305A5DE06CE22CCBD
:10407800EF40806D171400201304849D85471306B4
:10408800F10085452300A40013054041A307F10072
:10409800EFC011707D55EF8050787D55EFB0E03D51
:1040A8005939EFF0DF9CD52B170500001305E5D42F
:1040B800EFF0BF9E170500001305A5C92925034584
:1040C80004008545EF406016F24062440561828035
:1040D80023AAB19023ACA190828023AEB19023880B
:1040E800A19082809387C1909C43797106D622D48F
:1040F80026D24AD04ECE52CC1147639BE70483C7E1
:10410800A190414481CF9387C1918043B284B689FD
:1041180083C7019103C7718599EB55442285B25035
:10412800225492540259F249624A45618280834678
:104138004400639AA600834654006396B6008346FB
:1041480064006380E606FD1793F7F70F2104E9B7CB
:1041580009474144E384E7FC2C001305504123043C
:104168000100EFC0B13B834781008DCB930500026E
:104178000D45EF60A036930500031145EF6000364A
:1041880095450545EF608035854730008545130521
:1041980050302304F100EFE0C12949B7DD3E414426
:1041A800B5BF0355240093056100EF90904835D5BD
:1041B8004C4503D58190EF90C061058939DD13998D
:1041C800040113590901014781464A86ED4503D583
:1041D8008190035A0400EF90001C2AC64D441DDD4F
:1041E8002686CE85231441012315210197C0FF1F80
:1041F800E780C05701462C0003D58190EFA0E03A34
:104208002A84E30D05F0ED452800EF90803039B79A
:10421800C841011122CC06CE32840346150003455D
:1042280005002206498E19CB0D681308B8A42D4540
:10423800630A0607F2406244056182800D6513082F
:10424800D5A463000603130825A2630C060175783C
:104258001308E85C3298420813580801854863EF50
:10426800080303D5A50036C632C4EFF07FAEB246C8
:1042780015C1938741919C4322468345550003A36A
:104288000700A2876244F240034545003687854609
:104298000561028323900600014569BF1308B5A490
:1042A8006317060303D6E1851D45E375C7F8198E24
:1042B80063D3C7003E86CC452390C60042064182A0
:1042C800BA95228597C0FF1FE780404AF1B7930748
:1042D800A5A46318F60091472390F6001146CC4533
:1042E800CDB7930785906317F60089472390F600AA
:1042F8000946F5B79307E5A4631AF600DC45239051
:10430800160183C707002300F40079B713057590D9
:10431800E314A6F8D9BF011122CC06CE26CA4AC892
:104328002317D1002D4431EBDC412E89B28403C41C
:10433800170083C7070022045D8C8D679386D7A476
:104348006306D400938627A36310D4040355A900F9
:10435800EFF01FA019E101440DA0938741919C4300
:10436800834555000345450003A807002286A68714
:104378001307E100814602982A842285F2406244AC
:10438800D2444249056182809386C7A46314D4024B
:104398008357E10005473544E391E7FE03450600EE
:1043A80013040008E3EBA7FC938741919C43DC438B
:1043B800829755B793862790631AD4028356E100F3
:1043C8008547EF9040462A844DF99387C1918356DB
:1043D800A9009C4303C701913DDF03D62700630270
:1043E800D6047D171377F70FA107FDB79387E7A4C6
:1043F800E313F4F68357E10005473544E39FE7F6F6
:104408000345060013040008E3E9A7F6DC4523800A
:10441800A700938741919C433335A0000905DC43ED
:1044280041BF13874191184303C5470083C557000F
:1044380083C714000328070003C70400A20789469E
:10444800D98FC207C18705476383E7008D460D668C
:10445800A6871307E10013062690029839BF411179
:1044680022C441641305F4FF938581AA06C626C2B7
:104478004AC0EFB0A0031305F4FF938581A9EFB0FC
:10448800E0021305F4FF938581A897E4FF1F938446
:1044980064D6EFB0A00197E6FF1F9386A6F34146C6
:1044A800F9452685EFA0B075CC4C2A890945EFF06F
:1044B8008FE2138781869387018783450700034628
:1044C800170083D7070003D7A410138481AB2312E6
:1044D800F4002314E40083D7A40C03D7A411A30683
:1044E800C400A30EC40003D6A4172310F400231598
:1044F800E40083D7A40D1387C1868346070003D53C
:10450800A41403471700231CC40003D6A4182311BE
:10451800F40085472303F4002307F400230AD4009A
:10452800230BF400231DC4002302D4022306B40085
:10453800A30AE4002318A400230EB40023190400DE
:10454800230F0400A302E40203D7A41A2307F402EA
:10455800231104022310E40213874186035707003E
:1045680023030402231504022316E40203D7A41C20
:10457800938581AE0D452314E402EFF0CFD5A285D3
:104588002145EFF09FB5B24022444A859244024942
:10459800410182808D67138527A36301A604938751
:1045A800D7A40145631EF6008947639CF50085473B
:1045B80035456397F600834707002383F192014549
:1045C80082808D472945E39DF5FE85473545E3996A
:1045D800F6FE834707002382F192D5B78547354514
:1045E800E390F6FE83470700A381F192C9BF8D6768
:1045F800138527A36308A6029387D7A46317F60237
:104608008947639BF50083C761922300F7008547BC
:104618002390F600014582808D476398F50083C793
:104628004192E5B783C73192CDB723900600DDB735
:104638000145828025E303A84500AE88834718001A
:1046480003480800A207B3E707010D68930EF8A412
:10465800639AD70391473548639FF60203A5C800BC
:104668004111B285114606C697C0FF1FE7800010AA
:10467800938741939C4305458297B2400148428500
:10468800410182809308289029486396170185473D
:104698006F9060192D48428582804165411193854C
:1046A80081AF7D1506C6EFA07060B24097E6FF1F88
:1046B800938606D94146994517E5FF1F130545D24C
:1046C80041016FA0D05323AAA19282800111938542
:1046D80081AF22CC06CE2A84EF90A00F058929C18C
:1046E800014781460546ED452285EF80D04A2AC616
:1046F80005C997E7FF1F9387A7CE83D7A70501466C
:104708002C002314F10085472315F1002300050030
:104718002285EF90906909C5ED452800EF80705F0C
:10472800F24062440561828041677917630CE502B3
:10473800411122C406C685472A84639AF50022855A
:104748002244B240938581AF41016FA0305689471A
:104758006396F5008545EFD0400675D1B2402244F6
:104768004101828082800567930797E763F8A70273
:10477800930617EC854763F1A6029306B7F08947BD
:1047880063FCA600930637F58D4763F7A6009307E9
:10479800D7F9B3B7A70091073E8582808147EDBF5F
:1047A800B7170040170700201307A72A2394E70626
:1047B800170700201307272B2396E706130710FC7B
:1047C800A380E706828041118545116506C6EFE0A2
:1047D8001FBF814513050010EFE01FB4894501454F
:1047E800EFE07F8CB71700403147238CE70405477B
:1047F800238DE704A38107066537B24003C591827C
:1048080013060064A14541016F30B033170700203B
:1048180013072724970600209386E624814703562A
:1048280007000907B297E31CD7FE2947B3D7E70269
:104838001387819318439386870C63E9E6001387EF
:10484800C193184323ACE19223AEF1928280011107
:104858004EC69389C19322CC03A4090052C406CE44
:10486800228526CA4AC80137938781932A8A8843B2
:10487800330485409357F4413D8C1D8CED35631608
:1048880045039307100363CA870E81451305800704
:10489800EF106061130680079305000E13050004EE
:1048A800592A130680078145C5A817470200130730
:1048B800E7048D461306B00781451305B005EF10D0
:1048C800A07E81451305D005EF10E05D8144639813
:1048D800440585451305D005EF10E05C81446397D6
:1048E800440789451305D005EF10E05B8144E38A4E
:1048F80044F913068007A145130500042D2A114920
:104908007D1913068007AD45130500041379F90FC7
:104918001D22E31709FE850493F4F40FC9BF13069B
:104928008007C14513050004392211497D19130672
:1049380080079305000D130500041379F90FE52886
:10494800E31609FE850493F4F40F51B713068007A4
:10495800814513050004C52011497D1913068007F8
:104968009305F00F130500041379F90FE920E316F6
:1049780009FE850493F4F40F9DB78145130580075C
:10498800EF106052130680079305100E13050004FC
:104998005D2013068007AD451305000469288D4581
:1049A8001305F005EF102050624403A60900F240F9
:1049B800D2444249B249224A91468D451305F00531
:1049C80005616F10405F01119307F00F22CC26CAD2
:1049D80006CE3EC62A84AE8409CE2685029419CD19
:1049E800B24789CFB247FD173EC6C5BFB247FD17CC
:1049F8003EC62685029419E1B247EDFB3245F240E6
:104A08006244D24413351500056182804111854501
:104A18000D6506C6EFE0BF9AB240B72506009307BA
:104A280020051167930600400146938505A80145B6
:104A380041016FE0DFA4011126CA4AC84EC62E897B
:104A4800AA89B284B7050200054617F5FFFF1305CA
:104A5800A5C206CE22CC853F2A840545EFE03FB6A5
:104A6800B70503000146850517F5FFFF1305C5BE09
:104A7800993F2A9481452685EFE05FBCB70407007B
:104A880093852408014617F5FFFF1305E5BC253F6C
:104A98001374F40F2A944E85EFE0DFB89385040869
:104AA800014617F5FFFF130525BB313F1374F40FBB
:104AB8002A944A85EFE01FB793850408014617F545
:104AC800FFFF130565B901371374F40F2A940545E0
:104AD800EFE01FB11374F40F2285F2406244D24410
:104AE8004249B2490561828001114AC852C456C27E
:104AF8003289AA8A2E8A0546B705020017F5FFFFF4
:104B0800130585B706CE22CC26CA4EC66D3D2A842B
:104B18000545EFE0DFAAB7040300014693851400BA
:104B280017F5FFFF130545B3793D2A9481454A855A
:104B3800EFE0DFB0B709070093852908014617F5AC
:104B4800FFFF130565B141351374F40F2A94568598
:104B5800EFE05FAD93850908014617F5FFFF1305E0
:104B6800A5AF95351374F40F2A940545EFE03FA5DA
:104B780001469385140017F5FFFF1305E5ADA13530
:104B88001374F40F2A9485454A85EFE03FAB93856B
:104B98002400014617F5FFFF130505AC2D351374E6
:104BA800F40F2A940145EFE0BFA30145EFE07FA58C
:104BB800B705001001469385050417F5FFFF130597
:104BC800A5AB11351374F40F2A94EFE05FA6230008
:104BD800AA000545EFE0DFA00545EFE09FA21374AA
:104BE800F40F2285F2406244D2444249B249224A33
:104BF800924A0561828001114AC84EC65AC0B289DC
:104C08002A8B05462E8917F5FFFF1305E5A6B7057C
:104C1800020006CE22CC26CA52C4B68456C26533D8
:104C28002A840545EFE0BF99370A0300014693053A
:104C38001A0017F5FFFF130525A271332A94814541
:104C48004E85EFE0BF9FB70A070093852A08014603
:104C580017F5FFFF130545A0BD331374F40F2A940D
:104C68005A85EFE03F9C93850A08014617F5FFFF38
:104C78001305859E893B1374F40F2A940545EFE0CC
:104C88001F94014693051A0017F5FFFF1305C59CED
:104C98001D3B1374F40F2A9485454E85EFE01F9A47
:104CA80093052A00014617F5FFFF1305E59A213BF6
:104CB8001374F40F2A94B709001001451374F40F04
:104CC800EFE01F92130AF00F9389090497FAFFFF88
:104CD800938A8A9AFD1493F4F40F63934403054569
:104CE800EFE01F900545EFE0DF912285F240624436
:104CF800D2444249B249224A924A024B0561828013
:104D0800014591C00545EFE0DF8F0146CE85568508
:104D18005D392A940509EFE09F911374F40FA30FEE
:104D2800A9FE4DBF41119306400517060020130642
:104D3800E6D88965294506C622C497B0FF1FE780D3
:104D4800406C89651374F50F93064005170600201B
:104D5800130686D193850540294597B0FF1FE78044
:104D6800406A418DB24022441375F50F410182809B
:104D780001111306400597450200938565A817059C
:104D880000201305A5D306CE22CCEF101247130638
:104D98004005974502009385E599170500201305FE
:104DA800A5CCEF109245BD3F0D641306F1009305A5
:104DB800048085462945A307010097B0FF1FE780B7
:104DC800406485471306F1009305448085462945CC
:104DD800A307F10097B0FF1FE780A0621306F10058
:104DE8009305848085462945A307010097B0FF1FD6
:104DF800E7802061F24062440561828097070020C5
:104E08009387C7CB97060020938606C603C7370546
:104E18006318B700A389A704FD17E399D7FE19B74C
:104E2800E31CA7FEA389B704C5BF411106C683C703
:104E3800A194638A072217D7FF1F0347771E6314BD
:104E480007228546A38AD19497D7FF1F83C7471D9A
:104E580003C7819499EF09C70145B2404101828097
:104E68002384D19483C7919493F7070FA384F19473
:104E7800E5B789466310D70203C791949146631535
:104E8800D700A382F196C9BFA146E317D7FCA3892F
:104E9800F194D9B719466398C7002384D19483C77E
:104EA8009194B18BE1B7D546639BD7009307100B5C
:104EB8006308F71A930710FB2384F19495A8C54655
:104EC8006399D7009307200B630CF718930720FB0F
:104ED800E5B7C1466399D7009307300B6302F7180B
:104EE800930730FBD1BF95466399D7009307000B12
:104EF8006308F716930700FBC1B79306D002639CBB
:104F0800D7029307100C630DF714930710FC238442
:104F1800F1949387418298438347070093E70701F9
:104F28002300F70097D7FF1F938707109C478297A6
:104F3800A384019415B79306E0026392D7029307FE
:104F4800000C630FF710930700FC2384F1949387F8
:104F5800418298438347070093E78700D1B79306B8
:104F6800C0046398D7009307E00F630BF70EF95757
:104F7800A1B7930650036399D7009307000D630107
:104F8800F70E930700FD0DBFDD466399D700930721
:104F9800100D6307F70C930710FD39BF93067002D5
:104FA8006398D7009307000E630CF70A815729B757
:104FB800F9466398D7009307100E6303F70A8557DD
:104FC800E5BDFD466398D7009307200E630AF708EE
:104FD8008957DDB5930600026398D7009307300E12
:104FE8006300F7088D57C9BD930610026398D70070
:104FF8009307400E6306F70691577DBD9306A003FD
:105008006398D7009307000F630CF704C1576DB579
:105018009306B0036398D7009307100F6302F70451
:10502800C55759BD9306C0036398D7009307200F4F
:105038006308F702C95749B59306D0036398D700A8
:105048009307300F630EF700CD57BDB59306E00305
:105058006398D7009307400F6304F700D157A9BDA1
:1050680023840194F1B503C751950545E317A7DEDD
:10507800E39507DEA38A019483C781949306100DF4
:105088006386D72E63E9F60E9306200B6380D72438
:1050980063EEF6040947638EE71E636AF702E39D31
:1050A800A7DA83C79194C10793F7F70F1307000591
:1050B800E39EE7DAA384019423840194EFF05FCBA5
:1050C800173502001305456CEF10E04545A013079E
:1050D800000B6388E7201307100BE39FE7D62384B0
:1050E800019497B0FF1FE780C01EBDB39306000C64
:1050F8006381D72263E5F6029306300BE39ED7D48B
:105108002384019483C7C18EE398E7D493050004F0
:105118001705002003458592EF30201135BB130792
:10512800100C6387E71C1307000DE397E7D223846D
:10513800019483C7418D03C7C18ED98FE39E07D0E1
:1051480083C7818293B7170085451386818213052B
:1051580050302384F182EFD0C12DAA85630B051E40
:10516800173502001305C563EF10E03B1305400631
:10517800EF10A043D5B11307100F638AE722636DC0
:10518800F70A1307400E6362F7081307100E63F25D
:10519800E7201307000EE391E7CC03C5A18213357E
:1051A8001500238401942385A18283C791968DCB12
:1051B80083C7418D03C7C18ED98F9DC3F947330576
:1051C800F502014681456905EF10401683C7A182A3
:1051D8001305800391C3694505468145EF10001505
:1051E80083C7A182173502001305055EE39E07EC0D
:1051F80083C7C18E173502001305855DE38607EC6A
:10520800173502001305455DC1B51307000FE39577
:10521800E7C42388A194173602001306665C854507
:10522800514523840194EF10202697270000938787
:1052380027F023A6F1880DB11307400F638BE71AF7
:10524800636CF7021307200F6384E7181307300F06
:10525800E394E7C0238401948547173602001306B8
:10526800E658854551452388F194EF10E0219727AA
:1052780000009387470775BF1307E00F6384E70AA9
:105288001307F00FE39AE7BCA384019423840194E5
:10529800E1B683C79194910793F7F70F3147E397E6
:1052A800E7BC173502001305E54EA3840194238457
:1052B8000194EF10402713054006EF10002F83C517
:1052C800519603C53195EFF07FB379B623840194E5
:1052D80083C7C18E01456383E7000545EFD03FD8FA
:1052E80009B52384019497B0FF1FE780E0F9ADB6B4
:1052F8002384019493874182984383470700BD9B89
:105308002300F70097D7FF1F938707D29C47829700
:10531800A1B6238401949387418298438347070069
:10532800DD9BF9BF2384019483C7119581EF8547DD
:105338002388F194972700009387474D23A6F18887
:10534800EF20A07283C7119593B71700A388F19433
:1053580021B683C78182173502001305E544E3951A
:1053680007D6173502001305A544B9BB2384019459
:1053780083C7718813B71700A383E1881735020024
:1053880013058543E38207D4173502001305454307
:1053980025BB938707021306401FC14503C5A1819A
:1053A800A382F18023840194EF20B07975B4238817
:1053B800A194173602001306E64285455145238419
:1053C8000194EF10600C97270000938727D895B5B4
:1053D8002388A194173602001306064185455145D6
:1053E80023840194EF10400A97270000938727E54C
:1053F80089B52388A194173602001306663F8545B0
:10540800514523840194EF102008972700009387C3
:1054180047FA05B503D7E1949307F7FF5D71C20713
:1054280086C6A2C4A6C2CAC04EDE52DC56DA5AD814
:105438005ED662D466D26AD06ECEC183DD4663E69C
:10544800F616E1476310F70297F7FF1F9387C761C6
:10545800173602001306063A8545094523ACF1863E
:10546800EF10800283D7E19485072397F194138482
:1054780081B0973B0200938B6B28814AA284938C5E
:10548800818717FCFF1F130C6C6317F9FF1F1309A3
:10549800A95D9389418717DBFF1F130BEBB71947EA
:1054A8003387EA0203CA2195B716004003A60B000A
:1054B80083A6460AF18EB307E400D29783C5070096
:1054C800639C051ED1E683A70C0083C641873E97DF
:1054D8009D47529763F8D700034607009307F00DDE
:1054E80063F8C70699473386FA028545B387C4002F
:1054F800D2972380B7009387C1888C4397270000F1
:10550800938767DE639BF50297370200938787349A
:10551800B297D29783C707001306F00F638FC700AF
:105528000D463386C702938701DAB2973D46238139
:10553800C700A380C7002380C7000546A385C19480
:10554800834707009305F00F6390B70E2385C19436
:10555800850AB947910BE394FAF403C7219593069A
:10556800170093F6F60F2389D19497370200938793
:10557800A7330A07B71500403E9703A6850C1843C2
:10558800518F23A4E50C15476374D7002389019430
:1055980083C621958A0637160040B6970327C60C9E
:1055A8009C43D98F2326F60C8DA083C73196E380C0
:1055B80007ECFD1793F7F70FA381F196E39907EA34
:1055C80017D4FF1F130444A5814493099003154A77
:1055D800194983478400639E370133069A4093052F
:1055E800940013058400EF10424197D7FF1FA38B47
:1055F80007A285040504E39E24FD83C74187FD17A0
:10560800238AF1868547A385F194B64026449644BB
:105618000649F259625AD25A425BB25B225C925CEA
:10562800025DF24D616182801306F00E6374F6022A
:1056380017470200130707E81443938707F1054744
:1056480003C60600B317F700D18F2380F600238620
:10565800E194FDBD1306F00D637FF60005479387BF
:1056680007F2B317F70003476B00D98F17D7FF1F4F
:105678002307F79AF1BD9947B387FA02E2973E9A52
:1056880003460A00930790036316F600854723979D
:10569800F1947DBD93871600238AF186834707001E
:1056A800DA962383F60083D7E19493B7970193C7DB
:1056B80017002382F19669BDE38C06E82380070072
:1056C8008547A385F19483A70C009306F00FBA973A
:1056D800D29783C707006395D700238501948DBDB2
:1056E8009306F00E63F2F60217470200130787DCF1
:1056F8001443938707F1054703C60600B317F7005D
:1057080093C7F7FFF18F91B79306F00D63FDF6008D
:105718000547938707F2B317F70003476B0093C752
:10572800F7FFF98FA1B7B307EC00D29783C707003B
:1057380093069003639FD70403D7E194E14763FC82
:10574800E700173602001306A6E18545094523AC94
:105758008187EF00705383C7419691C703D7E194BF
:10576800E14763E3E70283C741871D47636EF7009C
:105778001147A381E19613871700238AE186DA97F8
:10578800130790032383E70023970194238201964C
:10579800C1B34A9717DDFF1F130D0D88954D3A9A2F
:1057A800FD5603478D006386E70003460A00631031
:1057B800E6026E8693059D0013058D003EC6EF1028
:1057C800C22397D7FF1FA38F0784B247FD56FD1D3D
:1057D800050DE398DDFC83C70900FD17238AF186D0
:1057E80085BBB70703040111938717203EC2B7078B
:1057F8000708938757603EC4A5472316F10006CED5
:1058080022CC26CA17D7FF1F034787819306A00219
:1058180083C74195631ED7041387C1958DC3FD17B0
:1058280093F7F70F238AF194BA9723800700938799
:1058380081959C43A946B3D7D70223ACF19483073B
:10584800070091EF17350200130585C0EF00703986
:1058580005442285F2406244D244056182809385E2
:10586800C195173502001305E5CFEF009037CDB786
:105878009946639ED702930780020544E31BF7FC11
:10588800AA8417350200130525F7EF009035130594
:105898004006EF009051938781959C4301449CC03A
:1058A800238E0194238A019423AC01945DB7930657
:1058B80027FE93F6F60F25460544E36CD6F8140840
:1058C8003697834667FD138781951043294793854B
:1058D800C1953307C702173502001305A5C83697C7
:1058E80023ACE194138717001377F70FAE979386CD
:1058F8000603238AE1942380D7002E97230007000C
:10590800EF00302EB9B7014781471D463388E500BF
:1059180003480800937615000507B3960601D58F4E
:10592800C207C1830581E313C7FE3E8582808D656A
:105938004111B14617F6FF1F1306461F9385C58010
:105948002D4506C697B0FF1FE780A0AB17F7FF1FCE
:105958000347671E930780076309F70085679387E6
:1059680087A717F7FF1F2318F71CB2404101828051
:10597800371700408327870CB70608004111D58FD9
:1059880006C622C426C22324F70C85452A84370577
:105998000800EFD0DFA2613F9387C1B5138781B6B6
:1059A80023A0E1B623A2E1B623A6F1B617F7FF1F9D
:1059B8002322F716138701B823A8F1B623ACE1B662
:1059C800938741B723AEE1B623A2F1B817F7FF1FBB
:1059D8002324F714138781B923A4F1B823A8E1B8C5
:1059E8009387C1B823AAE1B823AEF1B817F7FF1F10
:1059F8002326F712138701BB23A0F1BA23A4E1BA27
:105A0800938741BA23A6E1BA23AAF1BA17F7FF1F71
:105A18002328F710138781BC23ACF1BA9387C1BB45
:105A280023A0E1BC23A2E1BC23A6F1BC17F7FF1F0A
:105A38002320F70E138701BE23A8F1BC1306600BC1
:105A4800938741BD930530061305000823ACE1BCDC
:105A580023AEE1BC23A4F1BE23A2F1BE17F7FF1FBA
:105A68002324F70CEFE03FFD01C997350200938529
:105A780025E52285EF10E2261306600B8145130504
:105A8800E005EFE05FFB1306600B85451305B002E8
:105A9800EFE07FFA1306600B85451305C002EFE0BF
:105AA8009FF91306600B81451305D002EFE0BFF89C
:105AB8001306600B81451305E002EFE0DFF71306DC
:105AC800600B85451305F002EFE0FFF61306600B47
